{
  "_format": "hh-sol-artifact-1",
  "contractName": "StardustTradingVault",
  "sourceName": "src/StardustTradingVault.sol",
  "abi": [
    {
      "inputs": [
        {
          "internalType": "address",
          "name": "_usdc",
          "type": "address"
        },
        {
          "internalType": "string",
          "name": "_name",
          "type": "string"
        },
        {
          "internalType": "string",
          "name": "_symbol",
          "type": "string"
        }
      ],
      "stateMutability": "nonpayable",
      "type": "constructor"
    },
    {
      "inputs": [],
      "name": "AccessControlBadConfirmation",
      "type": "error"
    },
    {
      "inputs": [
        {
          "internalType": "address",
          "name": "account",
          "type": "address"
        },
        {
          "internalType": "bytes32",
          "name": "neededRole",
          "type": "bytes32"
        }
      ],
      "name": "AccessControlUnauthorizedAccount",
      "type": "error"
    },
    {
      "inputs": [
        {
          "internalType": "address",
          "name": "spender",
          "type": "address"
        },
        {
          "internalType": "uint256",
          "name": "allowance",
          "type": "uint256"
        },
        {
          "internalType": "uint256",
          "name": "needed",
          "type": "uint256"
        }
      ],
      "name": "ERC20InsufficientAllowance",
      "type": "error"
    },
    {
      "inputs": [
        {
          "internalType": "address",
          "name": "sender",
          "type": "address"
        },
        {
          "internalType": "uint256",
          "name": "balance",
          "type": "uint256"
        },
        {
          "internalType": "uint256",
          "name": "needed",
          "type": "uint256"
        }
      ],
      "name": "ERC20InsufficientBalance",
      "type": "error"
    },
    {
      "inputs": [
        {
          "internalType": "address",
          "name": "approver",
          "type": "address"
        }
      ],
      "name": "ERC20InvalidApprover",
      "type": "error"
    },
    {
      "inputs": [
        {
          "internalType": "address",
          "name": "receiver",
          "type": "address"
        }
      ],
      "name": "ERC20InvalidReceiver",
      "type": "error"
    },
    {
      "inputs": [
        {
          "internalType": "address",
          "name": "sender",
          "type": "address"
        }
      ],
      "name": "ERC20InvalidSender",
      "type": "error"
    },
    {
      "inputs": [
        {
          "internalType": "address",
          "name": "spender",
          "type": "address"
        }
      ],
      "name": "ERC20InvalidSpender",
      "type": "error"
    },
    {
      "inputs": [],
      "name": "EnforcedPause",
      "type": "error"
    },
    {
      "inputs": [],
      "name": "ExpectedPause",
      "type": "error"
    },
    {
      "inputs": [],
      "name": "ReentrancyGuardReentrantCall",
      "type": "error"
    },
    {
      "anonymous": false,
      "inputs": [
        {
          "indexed": true,
          "internalType": "address",
          "name": "owner",
          "type": "address"
        },
        {
          "indexed": true,
          "internalType": "address",
          "name": "spender",
          "type": "address"
        },
        {
          "indexed": false,
          "internalType": "uint256",
          "name": "value",
          "type": "uint256"
        }
      ],
      "name": "Approval",
      "type": "event"
    },
    {
      "anonymous": false,
      "inputs": [
        {
          "indexed": true,
          "internalType": "address",
          "name": "user",
          "type": "address"
        },
        {
          "indexed": false,
          "internalType": "uint256",
          "name": "usdcAmount",
          "type": "uint256"
        },
        {
          "indexed": false,
          "internalType": "uint256",
          "name": "sharesIssued",
          "type": "uint256"
        },
        {
          "indexed": false,
          "internalType": "uint256",
          "name": "sharePrice",
          "type": "uint256"
        }
      ],
      "name": "Deposited",
      "type": "event"
    },
    {
      "anonymous": false,
      "inputs": [
        {
          "indexed": false,
          "internalType": "uint256",
          "name": "performanceFeeAmount",
          "type": "uint256"
        },
        {
          "indexed": false,
          "internalType": "uint256",
          "name": "managementFeeAmount",
          "type": "uint256"
        },
        {
          "indexed": false,
          "internalType": "uint256",
          "name": "totalFees",
          "type": "uint256"
        }
      ],
      "name": "FeesCollected",
      "type": "event"
    },
    {
      "anonymous": false,
      "inputs": [
        {
          "indexed": false,
          "internalType": "uint256",
          "name": "newNAV",
          "type": "uint256"
        },
        {
          "indexed": false,
          "internalType": "uint256",
          "name": "oldNAV",
          "type": "uint256"
        },
        {
          "indexed": false,
          "internalType": "int256",
          "name": "pnl",
          "type": "int256"
        },
        {
          "indexed": false,
          "internalType": "uint256",
          "name": "timestamp",
          "type": "uint256"
        }
      ],
      "name": "NAVUpdated",
      "type": "event"
    },
    {
      "anonymous": false,
      "inputs": [
        {
          "indexed": false,
          "internalType": "uint256",
          "name": "minDepositAmount",
          "type": "uint256"
        },
        {
          "indexed": false,
          "internalType": "uint256",
          "name": "performanceFee",
          "type": "uint256"
        },
        {
          "indexed": false,
          "internalType": "uint256",
          "name": "managementFee",
          "type": "uint256"
        }
      ],
      "name": "ParametersUpdated",
      "type": "event"
    },
    {
      "anonymous": false,
      "inputs": [
        {
          "indexed": false,
          "internalType": "address",
          "name": "account",
          "type": "address"
        }
      ],
      "name": "Paused",
      "type": "event"
    },
    {
      "anonymous": false,
      "inputs": [
        {
          "indexed": true,
          "internalType": "bytes32",
          "name": "role",
          "type": "bytes32"
        },
        {
          "indexed": true,
          "internalType": "bytes32",
          "name": "previousAdminRole",
          "type": "bytes32"
        },
        {
          "indexed": true,
          "internalType": "bytes32",
          "name": "newAdminRole",
          "type": "bytes32"
        }
      ],
      "name": "RoleAdminChanged",
      "type": "event"
    },
    {
      "anonymous": false,
      "inputs": [
        {
          "indexed": true,
          "internalType": "bytes32",
          "name": "role",
          "type": "bytes32"
        },
        {
          "indexed": true,
          "internalType": "address",
          "name": "account",
          "type": "address"
        },
        {
          "indexed": true,
          "internalType": "address",
          "name": "sender",
          "type": "address"
        }
      ],
      "name": "RoleGranted",
      "type": "event"
    },
    {
      "anonymous": false,
      "inputs": [
        {
          "indexed": true,
          "internalType": "bytes32",
          "name": "role",
          "type": "bytes32"
        },
        {
          "indexed": true,
          "internalType": "address",
          "name": "account",
          "type": "address"
        },
        {
          "indexed": true,
          "internalType": "address",
          "name": "sender",
          "type": "address"
        }
      ],
      "name": "RoleRevoked",
      "type": "event"
    },
    {
      "anonymous": false,
      "inputs": [
        {
          "indexed": true,
          "internalType": "address",
          "name": "from",
          "type": "address"
        },
        {
          "indexed": true,
          "internalType": "address",
          "name": "to",
          "type": "address"
        },
        {
          "indexed": false,
          "internalType": "uint256",
          "name": "value",
          "type": "uint256"
        }
      ],
      "name": "Transfer",
      "type": "event"
    },
    {
      "anonymous": false,
      "inputs": [
        {
          "indexed": false,
          "internalType": "address",
          "name": "account",
          "type": "address"
        }
      ],
      "name": "Unpaused",
      "type": "event"
    },
    {
      "inputs": [],
      "name": "DEFAULT_ADMIN_ROLE",
      "outputs": [
        {
          "internalType": "bytes32",
          "name": "",
          "type": "bytes32"
        }
      ],
      "stateMutability": "view",
      "type": "function"
    },
    {
      "inputs": [],
      "name": "INITIAL_SHARES_BURNED",
      "outputs": [
        {
          "internalType": "uint256",
          "name": "",
          "type": "uint256"
        }
      ],
      "stateMutability": "view",
      "type": "function"
    },
    {
      "inputs": [],
      "name": "MIN_INITIAL_DEPOSIT",
      "outputs": [
        {
          "internalType": "uint256",
          "name": "",
          "type": "uint256"
        }
      ],
      "stateMutability": "view",
      "type": "function"
    },
    {
      "inputs": [],
      "name": "OCW_ROLE",
      "outputs": [
        {
          "internalType": "bytes32",
          "name": "",
          "type": "bytes32"
        }
      ],
      "stateMutability": "view",
      "type": "function"
    },
    {
      "inputs": [],
      "name": "PAUSER_ROLE",
      "outputs": [
        {
          "internalType": "bytes32",
          "name": "",
          "type": "bytes32"
        }
      ],
      "stateMutability": "view",
      "type": "function"
    },
    {
      "inputs": [],
      "name": "ROUTER_ROLE",
      "outputs": [
        {
          "internalType": "bytes32",
          "name": "",
          "type": "bytes32"
        }
      ],
      "stateMutability": "view",
      "type": "function"
    },
    {
      "inputs": [],
      "name": "accumulatedFees",
      "outputs": [
        {
          "internalType": "uint256",
          "name": "",
          "type": "uint256"
        }
      ],
      "stateMutability": "view",
      "type": "function"
    },
    {
      "inputs": [
        {
          "internalType": "address",
          "name": "owner",
          "type": "address"
        },
        {
          "internalType": "address",
          "name": "spender",
          "type": "address"
        }
      ],
      "name": "allowance",
      "outputs": [
        {
          "internalType": "uint256",
          "name": "",
          "type": "uint256"
        }
      ],
      "stateMutability": "view",
      "type": "function"
    },
    {
      "inputs": [
        {
          "internalType": "address",
          "name": "spender",
          "type": "address"
        },
        {
          "internalType": "uint256",
          "name": "value",
          "type": "uint256"
        }
      ],
      "name": "approve",
      "outputs": [
        {
          "internalType": "bool",
          "name": "",
          "type": "bool"
        }
      ],
      "stateMutability": "nonpayable",
      "type": "function"
    },
    {
      "inputs": [
        {
          "internalType": "address",
          "name": "account",
          "type": "address"
        }
      ],
      "name": "balanceOf",
      "outputs": [
        {
          "internalType": "uint256",
          "name": "",
          "type": "uint256"
        }
      ],
      "stateMutability": "view",
      "type": "function"
    },
    {
      "inputs": [
        {
          "internalType": "address",
          "name": "to",
          "type": "address"
        }
      ],
      "name": "collectFees",
      "outputs": [],
      "stateMutability": "nonpayable",
      "type": "function"
    },
    {
      "inputs": [],
      "name": "decimals",
      "outputs": [
        {
          "internalType": "uint8",
          "name": "",
          "type": "uint8"
        }
      ],
      "stateMutability": "pure",
      "type": "function"
    },
    {
      "inputs": [
        {
          "internalType": "address",
          "name": "user",
          "type": "address"
        },
        {
          "internalType": "uint256",
          "name": "usdcAmount",
          "type": "uint256"
        }
      ],
      "name": "depositFromRouter",
      "outputs": [
        {
          "internalType": "uint256",
          "name": "shares",
          "type": "uint256"
        }
      ],
      "stateMutability": "nonpayable",
      "type": "function"
    },
    {
      "inputs": [
        {
          "internalType": "bytes32",
          "name": "role",
          "type": "bytes32"
        }
      ],
      "name": "getRoleAdmin",
      "outputs": [
        {
          "internalType": "bytes32",
          "name": "",
          "type": "bytes32"
        }
      ],
      "stateMutability": "view",
      "type": "function"
    },
    {
      "inputs": [],
      "name": "getSharePrice",
      "outputs": [
        {
          "internalType": "uint256",
          "name": "price",
          "type": "uint256"
        }
      ],
      "stateMutability": "view",
      "type": "function"
    },
    {
      "inputs": [],
      "name": "getVaultInfo",
      "outputs": [
        {
          "internalType": "uint256",
          "name": "totalAssets_",
          "type": "uint256"
        },
        {
          "internalType": "uint256",
          "name": "totalShares_",
          "type": "uint256"
        },
        {
          "internalType": "uint256",
          "name": "sharePrice_",
          "type": "uint256"
        },
        {
          "internalType": "uint256",
          "name": "totalDeposited_",
          "type": "uint256"
        },
        {
          "internalType": "uint256",
          "name": "depositCount_",
          "type": "uint256"
        },
        {
          "internalType": "uint256",
          "name": "accumulatedFees_",
          "type": "uint256"
        }
      ],
      "stateMutability": "view",
      "type": "function"
    },
    {
      "inputs": [
        {
          "internalType": "bytes32",
          "name": "role",
          "type": "bytes32"
        },
        {
          "internalType": "address",
          "name": "account",
          "type": "address"
        }
      ],
      "name": "grantRole",
      "outputs": [],
      "stateMutability": "nonpayable",
      "type": "function"
    },
    {
      "inputs": [
        {
          "internalType": "bytes32",
          "name": "role",
          "type": "bytes32"
        },
        {
          "internalType": "address",
          "name": "account",
          "type": "address"
        }
      ],
      "name": "hasRole",
      "outputs": [
        {
          "internalType": "bool",
          "name": "",
          "type": "bool"
        }
      ],
      "stateMutability": "view",
      "type": "function"
    },
    {
      "inputs": [],
      "name": "lastUpdateTime",
      "outputs": [
        {
          "internalType": "uint256",
          "name": "",
          "type": "uint256"
        }
      ],
      "stateMutability": "view",
      "type": "function"
    },
    {
      "inputs": [],
      "name": "managementFee",
      "outputs": [
        {
          "internalType": "uint256",
          "name": "",
          "type": "uint256"
        }
      ],
      "stateMutability": "view",
      "type": "function"
    },
    {
      "inputs": [],
      "name": "minDepositAmount",
      "outputs": [
        {
          "internalType": "uint256",
          "name": "",
          "type": "uint256"
        }
      ],
      "stateMutability": "view",
      "type": "function"
    },
    {
      "inputs": [],
      "name": "name",
      "outputs": [
        {
          "internalType": "string",
          "name": "",
          "type": "string"
        }
      ],
      "stateMutability": "view",
      "type": "function"
    },
    {
      "inputs": [],
      "name": "pause",
      "outputs": [],
      "stateMutability": "nonpayable",
      "type": "function"
    },
    {
      "inputs": [],
      "name": "paused",
      "outputs": [
        {
          "internalType": "bool",
          "name": "",
          "type": "bool"
        }
      ],
      "stateMutability": "view",
      "type": "function"
    },
    {
      "inputs": [],
      "name": "performanceFee",
      "outputs": [
        {
          "internalType": "uint256",
          "name": "",
          "type": "uint256"
        }
      ],
      "stateMutability": "view",
      "type": "function"
    },
    {
      "inputs": [
        {
          "internalType": "bytes32",
          "name": "role",
          "type": "bytes32"
        },
        {
          "internalType": "address",
          "name": "callerConfirmation",
          "type": "address"
        }
      ],
      "name": "renounceRole",
      "outputs": [],
      "stateMutability": "nonpayable",
      "type": "function"
    },
    {
      "inputs": [
        {
          "internalType": "bytes32",
          "name": "role",
          "type": "bytes32"
        },
        {
          "internalType": "address",
          "name": "account",
          "type": "address"
        }
      ],
      "name": "revokeRole",
      "outputs": [],
      "stateMutability": "nonpayable",
      "type": "function"
    },
    {
      "inputs": [
        {
          "internalType": "uint256",
          "name": "_minDepositAmount",
          "type": "uint256"
        },
        {
          "internalType": "uint256",
          "name": "_performanceFee",
          "type": "uint256"
        },
        {
          "internalType": "uint256",
          "name": "_managementFee",
          "type": "uint256"
        }
      ],
      "name": "setParameters",
      "outputs": [],
      "stateMutability": "nonpayable",
      "type": "function"
    },
    {
      "inputs": [],
      "name": "stats",
      "outputs": [
        {
          "internalType": "uint256",
          "name": "totalDeposited",
          "type": "uint256"
        },
        {
          "internalType": "uint256",
          "name": "totalWithdrawn",
          "type": "uint256"
        },
        {
          "internalType": "uint256",
          "name": "depositCount",
          "type": "uint256"
        },
        {
          "internalType": "uint256",
          "name": "highWaterMark",
          "type": "uint256"
        }
      ],
      "stateMutability": "view",
      "type": "function"
    },
    {
      "inputs": [
        {
          "internalType": "bytes4",
          "name": "interfaceId",
          "type": "bytes4"
        }
      ],
      "name": "supportsInterface",
      "outputs": [
        {
          "internalType": "bool",
          "name": "",
          "type": "bool"
        }
      ],
      "stateMutability": "view",
      "type": "function"
    },
    {
      "inputs": [],
      "name": "symbol",
      "outputs": [
        {
          "internalType": "string",
          "name": "",
          "type": "string"
        }
      ],
      "stateMutability": "view",
      "type": "function"
    },
    {
      "inputs": [],
      "name": "totalAssets",
      "outputs": [
        {
          "internalType": "uint256",
          "name": "",
          "type": "uint256"
        }
      ],
      "stateMutability": "view",
      "type": "function"
    },
    {
      "inputs": [],
      "name": "totalSupply",
      "outputs": [
        {
          "internalType": "uint256",
          "name": "",
          "type": "uint256"
        }
      ],
      "stateMutability": "view",
      "type": "function"
    },
    {
      "inputs": [
        {
          "internalType": "address",
          "name": "to",
          "type": "address"
        },
        {
          "internalType": "uint256",
          "name": "value",
          "type": "uint256"
        }
      ],
      "name": "transfer",
      "outputs": [
        {
          "internalType": "bool",
          "name": "",
          "type": "bool"
        }
      ],
      "stateMutability": "nonpayable",
      "type": "function"
    },
    {
      "inputs": [
        {
          "internalType": "address",
          "name": "from",
          "type": "address"
        },
        {
          "internalType": "address",
          "name": "to",
          "type": "address"
        },
        {
          "internalType": "uint256",
          "name": "value",
          "type": "uint256"
        }
      ],
      "name": "transferFrom",
      "outputs": [
        {
          "internalType": "bool",
          "name": "",
          "type": "bool"
        }
      ],
      "stateMutability": "nonpayable",
      "type": "function"
    },
    {
      "inputs": [],
      "name": "unpause",
      "outputs": [],
      "stateMutability": "nonpayable",
      "type": "function"
    },
    {
      "inputs": [
        {
          "internalType": "uint256",
          "name": "newNAV",
          "type": "uint256"
        }
      ],
      "name": "updateNAV",
      "outputs": [],
      "stateMutability": "nonpayable",
      "type": "function"
    },
    {
      "inputs": [],
      "name": "usdc",
      "outputs": [
        {
          "internalType": "contract IERC20",
          "name": "",
          "type": "address"
        }
      ],
      "stateMutability": "view",
      "type": "function"
    }
  ],
  "bytecode": "0x60a060405234620003ce5762001f91803803806200001d81620003d3565b9283398101606082820312620003ce5781516001600160a01b0381169190829003620003ce576020838101516001600160401b039490858111620003ce578362000069918301620003f9565b926040820151868111620003ce57620000839201620003f9565b91805194808611620002ce5760038054966001938489811c99168015620003c3575b868a1014620003ad578190601f998a811162000357575b5086908a8311600114620002f057600092620002e4575b505060001982841b1c191690841b1781555b8451918211620002ce5760049485548481811c91168015620002c3575b86821014620002ae5788811162000263575b5084978311600114620001fa5796829394959697600093620001ee575b505082841b92600019911b1c19161783555b60065562989680600a556103e8600b5560c8600c558215620001ab578260805260006008554260095562000177336200046b565b506200018333620004ec565b506040516119e190816200059082396080518181816103aa015281816108190152610b7b0152f35b60405162461bcd60e51b815291820152601360248201527f5661756c743a207a65726f206164647265737300000000000000000000000000604482015260649150fd5b01519150388062000131565b90601f1983169786600052856000209260005b8a81106200024d575084869798999a1062000232575b50505050811b01835562000143565b01519060f884600019921b161c191690553880808062000223565b818301518555938601939187019187016200020d565b86600052856000208980860160051c820192888710620002a4575b0160051c019085905b8281106200029757505062000114565b6000815501859062000287565b925081926200027e565b602287634e487b7160e01b6000525260246000fd5b90607f169062000102565b634e487b7160e01b600052604160045260246000fd5b015190503880620000d3565b90869350601f1983169185600052886000209260005b8a82821062000340575050841162000327575b505050811b018155620000e5565b015160001983861b60f8161c1916905538808062000319565b8385015186558a9790950194938401930162000306565b90915083600052866000208a80850160051c820192898610620003a3575b918891869594930160051c01915b82811062000393575050620000bc565b6000815585945088910162000383565b9250819262000375565b634e487b7160e01b600052602260045260246000fd5b98607f1698620000a5565b600080fd5b6040519190601f01601f191682016001600160401b03811183821017620002ce57604052565b919080601f84011215620003ce5782516001600160401b038111620002ce576020906200042f601f8201601f19168301620003d3565b92818452828287010111620003ce5760005b8181106200045757508260009394955001015290565b858101830151848201840152820162000441565b6001600160a01b031660008181527f05b8ccbb9d4d8fb16ea74ce3c29a41f1b461fbdaff4714a0d9a8eb05499746bc602052604081205490919060ff16620004e85781805260056020526040822081835260205260408220600160ff19825416179055339160008051602062001f718339815191528180a4600190565b5090565b6001600160a01b031660008181527f99f2891db7a8db76249871a02b43b68c0bb8f22ef8a3bc1034ae9375ef6b7c3c60205260408120549091907f65d7a28e3265b37a6474929f336521b332c1681b933f6cb9f3376673440d862a9060ff166200058a5780835260056020526040832082845260205260408320600160ff1982541617905560008051602062001f71833981519152339380a4600190565b50509056fe608060408181526004918236101561001657600080fd5b600092833560e01c91826301e1d114146114635750816301ffc9a71461140d57816306fdde0314611316578163095ea7b31461126c5781630cb1982b14610f71578163146417c014610f3657816318160ddd14610f1757816323b872dd14610e23578163248a9ca314610df85781632ad876e014610dd95781632f2ff15d14610daf57816330d643b514610d74578163313ce56714610d5857816334c5d2ce14610bf057816336568abe14610baa5781633e413bee14610b665781633f4ba83a14610afc578163587f5ed714610add5781635b1dac6014610ab95781635b30f68c1461075c5781635c975abb14610738578163645006ca1461071957816370a08231146106e25781637f98aa71146106955781638456cb591461063a578163877887821461061b57816391d14854146105d457816395d89b41146104cf5781639e73a833146104ab578163a217fddf14610490578163a480ca7914610337578163a6f7f5d614610318578163a9059cbb146102e7578163c8f33c91146102c8578163d547741f1461028457508063d80528ae1461024c578063dd62ed3e146102045763e63ab1e9146101c757600080fd5b34610200578160031936011261020057602090517f65d7a28e3265b37a6474929f336521b332c1681b933f6cb9f3376673440d862a8152f35b5080fd5b5034610200578060031936011261020057806020926102216114c8565b6102296114e3565b6001600160a01b0391821683526001865283832091168252845220549051908152f35b5034610200578160031936011261020057608090600f5490601054906011549060125492815194855260208501528301526060820152f35b919050346102c457806003193601126102c4576102c091356102bb60016102a96114e3565b9383875260056020528620015461176f565b6118f3565b5080f35b8280fd5b5050346102005781600319360112610200576020906009549051908152f35b5050346102005780600319360112610200576020906103116103076114c8565b6024359033611795565b5160018152f35b505034610200578160031936011261020057602090600c549051908152f35b9050346102c4576020908160031936011261048c576103546114c8565b61035c6116bb565b61036461196a565b6001600160a01b0390811661037a81151561161c565b600d5492831561045857906044859288600d55888851958694859363a9059cbb60e01b85528401528760248401527f0000000000000000000000000000000000000000000000000000000000000000165af190811561044e579361040b60609493927fa54e6c2fc0861aa9c991b26891d71059d517983b9e84b91020f42609c452eb9d968891610421575b50611676565b85815193818552840152820152a1600160065580f35b6104419150853d8711610447575b61043981836114f9565b81019061165e565b38610405565b503d61042f565b84513d87823e3d90fd5b855162461bcd60e51b8152908101859052600e60248201526d5661756c743a206e6f206665657360901b6044820152606490fd5b8380fd5b50503461020057816003193601126102005751908152602090f35b50503461020057816003193601126102005760209051683635c9adc5dea000008152f35b83833461020057816003193601126102005780519180938054916001908360011c92600185169485156105ca575b60209586861081146105b757858952908115610593575060011461053b575b610537878761052d828c03836114f9565b519182918261147f565b0390f35b81529295507f8a35acfbc15ff81a39ae7d344fd709f28e8600b4aa8c65c6b64bfe7fe36bd19b5b82841061058057505050826105379461052d9282010194868061051c565b8054868501880152928601928101610562565b60ff19168887015250505050151560051b830101925061052d82610537868061051c565b634e487b7160e01b845260228352602484fd5b93607f16936104fd565b9050346102c457816003193601126102c4578160209360ff926105f56114e3565b90358252600586528282206001600160a01b039091168252855220549151911615158152f35b505034610200578160031936011261020057602090600b549051908152f35b50503461020057816003193601126102005760207f62e78cea01bee320cd4e420270b5ea74000d11b0c9f74754ebdbfc544b05a25891610678611713565b61068061198d565b600160ff19600754161760075551338152a180f35b50503461020057816003193601126102005760085460025460c0926106b8611594565b600f549060115492600d5494815196875260208701528501526060840152608083015260a0820152f35b5050346102005760203660031901126102005760209181906001600160a01b0361070a6114c8565b16815280845220549051908152f35b505034610200578160031936011261020057602090600a549051908152f35b50503461020057816003193601126102005760209060ff6007541690519015158152f35b90508234610ab65782600319360112610ab6576107776114c8565b926024938435907f7a05a596cb0ce7fdea8a1e1ec73be300bdb35097c944ce1897202f7a13122eb29081855260209160058352848620338752835260ff858720541615610a9957506107c761196a565b6107cf61198d565b6001600160a01b039081168015916107e7831561161c565b600a548510610a5f57838960648a8a8a5195869485936323b872dd60e01b8552339085015230908401528a60448401527f0000000000000000000000000000000000000000000000000000000000000000165af1908115610a555790610853918891610a385750611676565b60025480158015610a2e575b156108eb57505050633b9aca0082106108aa575064e8d4a5100081818102041490151715610898575163ec442f0560e01b815291820152fd5b50634e487b7160e01b81526011909152fd5b84601e8760649386519362461bcd60e51b85528401528201527f5661756c743a20696e697469616c206465706f73697420746f6f206c6f7700006044820152fd5b9084888a89899564e8d4a51000808602908682041486151715610a1c579061091291611554565b9661092a85610924600854809b611567565b99611587565b600855610a075761093d87600254611587565b60025584815280885285812087815401905584817fddf252ad1be2c89b69c2b068fc378daa952ba7f163c4a11628f55a4df523b3ef8a89518b8152a361098584600f54611587565b600f556011549260001984146109f7575050507f91ede45f04a37a7c170f5c1207df3b6bc748dc1e04ad5e917a241d0f52feada39160018692016011556109e96109cd611594565b8651938493846040919493926060820195825260208201520152565b0390a2600160065551908152f35b634e487b7160e01b825260119052fd5b855163ec442f0560e01b815280840191909152fd5b5050634e487b7160e01b815260118352fd5b506008541561085f565b610a4f9150853d87116104475761043981836114f9565b8a610405565b86513d89823e3d90fd5b855162461bcd60e51b81528089018590526015818b0152745661756c743a20616d6f756e7420746f6f206c6f7760581b6044820152606490fd5b845163e2517d3f60e01b8152338189015280890191909152604490fd5b80fd5b505034610200578160031936011261020057602090610ad6611594565b9051908152f35b505034610200578160031936011261020057602090600d549051908152f35b9050346102c457826003193601126102c457610b16611713565b6007549060ff821615610b58575060ff1916600755513381527f5db9ee0a495bf2e6ff9c91a7834c1ba4fdd244a5e8aa4e537bd38aeae4b073aa90602090a180f35b8251638dfc202b60e01b8152fd5b505034610200578160031936011261020057517f00000000000000000000000000000000000000000000000000000000000000006001600160a01b03168152602090f35b838334610200578060031936011261020057610bc46114e3565b90336001600160a01b03831603610be157506102c09192356118f3565b5163334bd91960e11b81528390fd5b839150346102005760603660031901126102005780356024359160443590610c166116bb565b6107d08411610d155761012c8211610cd2576109c4610c358386611587565b11610c8f5750610c89907f4dd522c050b46ef5e852ea87e7cd136b049dcb37740ad38386fbbb5cd30aa924949583600a5584600b5581600c5551938493846040919493926060820195825260208201520152565b0390a180f35b606490602087519162461bcd60e51b8352820152601c60248201527f5661756c743a20746f74616c20666565732065786365656420323525000000006044820152fd5b606490602087519162461bcd60e51b8352820152601860248201527f5661756c743a206d676d742066656520746f6f206869676800000000000000006044820152fd5b606490602087519162461bcd60e51b8352820152601860248201527f5661756c743a20706572662066656520746f6f206869676800000000000000006044820152fd5b5050346102005781600319360112610200576020905160128152f35b505034610200578160031936011261020057602090517f7a05a596cb0ce7fdea8a1e1ec73be300bdb35097c944ce1897202f7a13122eb28152f35b919050346102c457806003193601126102c4576102c09135610dd460016102a96114e3565b611873565b50503461020057816003193601126102005760209051633b9aca008152f35b9050346102c45760203660031901126102c45781602093600192358152600585522001549051908152f35b90508234610ab6576060366003190112610ab657610e3f6114c8565b610e476114e3565b916044359360018060a01b038316808352600160205286832033845260205286832054916000198310610e83575b602088610311898989611795565b868310610eeb578115610ed4573315610ebd5750825260016020908152868320338452815291869020908590039055829061031187610e75565b8751634a1406b160e11b8152908101849052602490fd5b875163e602df0560e01b8152908101849052602490fd5b8751637dc7a0d960e11b8152339181019182526020820193909352604081018790528291506060010390fd5b5050346102005781600319360112610200576020906002549051908152f35b505034610200578160031936011261020057602090517f83b40d323b71dbedeb7a3cfe1934edb51fcbd159c01baf1ed28fa858593795268152f35b9050346102c45760203660031901126102c45780357f83b40d323b71dbedeb7a3cfe1934edb51fcbd159c01baf1ed28fa85859379526808552600560205283852033865260205260ff84862054161561124f5750809260085491828103948684128287128116908388139015161761123c578695879488966012548086116111d1575b5061100160095442611531565b801515806111c8575b611153575b50600e54670de0b6b3a76400009081811015611137575b50508489116110fb5750916080917f1f72bb4dc3538777a1bbad91fbc6ee81691c1cef13fc3f73025147ceb9164a91938980151596876110d9575b5050876110d0575b82600855426009558651928352602083015285820152426060820152a161108e578480f35b51908152602081019190915260408101919091527fa54e6c2fc0861aa9c991b26891d71059d517983b9e84b91020f42609c452eb9d90606090a1388080808480f35b82601255611069565b6110f39294506110eb82600d54611587565b600d55611531565b918938611061565b606490602087519162461bcd60e51b835282015260166024820152752b30bab63a1d103332b2b99032bc31b2b2b2102720ab60511b6044820152fd5b90818161114b949c9306600e550490611587565b973880611026565b61116b91999850611166600c5484611554565b611554565b96670de0b6b3a764000097888102908082048a14901517156111b5579064496cebb8006111ae9204906111a68a83049a8b9306600e54611587565b600e55611587565b973861100f565b634e487b7160e01b8b5260118a5260248bfd5b5082151561100a565b6111e39199506111ec92975085611531565b600b5490611554565b94670de0b6b3a764000095868102908082048814901517156112295761271061121e9104968088049706600e54611587565b600e55859738610ff4565b634e487b7160e01b8a526011895260248afd5b634e487b7160e01b875260118552602487fd5b9050604492519163e2517d3f60e01b835233908301526024820152fd5b9050346102c457816003193601126102c4576112866114c8565b6024359033156112ff576001600160a01b03169182156112e857508083602095338152600187528181208582528752205582519081527f8c5be1e5ebec7d5bd14f71427d1e84f3dd0314c0f7b2291e5b200ac8c7c3b925843392a35160018152f35b8351634a1406b160e11b8152908101859052602490fd5b835163e602df0560e01b8152808401869052602490fd5b919050346102c457826003193601126102c45780519183600354906001908260011c92600181168015611403575b60209586861082146113f057508488529081156113ce5750600114611375575b610537868661052d828b03836114f9565b929550600383527fc2575a0e9e593c00f959f8c92f12db2869c3395a3b0502d05e2516446f71f85b5b8284106113bb57505050826105379461052d928201019438611364565b805486850188015292860192810161139e565b60ff191687860152505050151560051b830101925061052d8261053738611364565b634e487b7160e01b845260229052602483fd5b93607f1693611344565b9050346102c45760203660031901126102c457359063ffffffff60e01b82168092036102c45760209250637965db0b60e01b8214918215611452575b50519015158152f35b6301ffc9a760e01b14915038611449565b8490346102005781600319360112610200576020906008548152f35b6020808252825181830181905290939260005b8281106114b457505060409293506000838284010152601f8019910116010190565b818101860151848201604001528501611492565b600435906001600160a01b03821682036114de57565b600080fd5b602435906001600160a01b03821682036114de57565b90601f8019910116810190811067ffffffffffffffff82111761151b57604052565b634e487b7160e01b600052604160045260246000fd5b9190820391821161153e57565b634e487b7160e01b600052601160045260246000fd5b8181029291811591840414171561153e57565b8115611571570490565b634e487b7160e01b600052601260045260246000fd5b9190820180921161153e57565b60025480156115cc57600854906c0c9f2c9cd04674edea400000009182810292818404149015171561153e576115c991611567565b90565b506008546115e057670de0b6b3a764000090565b60405162461bcd60e51b81526020600482015260146024820152735661756c743a20696e76616c696420737461746560601b6044820152606490fd5b1561162357565b60405162461bcd60e51b81526020600482015260136024820152725661756c743a207a65726f206164647265737360681b6044820152606490fd5b908160209103126114de575180151581036114de5790565b1561167d57565b60405162461bcd60e51b815260206004820152601660248201527515985d5b1d0e881d1c985b9cd9995c8819985a5b195960521b6044820152606490fd5b3360009081527f05b8ccbb9d4d8fb16ea74ce3c29a41f1b461fbdaff4714a0d9a8eb05499746bc602052604081205460ff16156116f55750565b6044906040519063e2517d3f60e01b82523360048301526024820152fd5b3360009081527f99f2891db7a8db76249871a02b43b68c0bb8f22ef8a3bc1034ae9375ef6b7c3c60205260409020547f65d7a28e3265b37a6474929f336521b332c1681b933f6cb9f3376673440d862a9060ff16156116f55750565b80600052600560205260406000203360005260205260ff60406000205416156116f55750565b916001600160a01b0380841692831561185a5716928315611841576000908382528160205260408220549083821061180f575091604082827fddf252ad1be2c89b69c2b068fc378daa952ba7f163c4a11628f55a4df523b3ef958760209652828652038282205586815220818154019055604051908152a3565b60405163391434e360e21b81526001600160a01b03919091166004820152602481019190915260448101839052606490fd5b60405163ec442f0560e01b815260006004820152602490fd5b604051634b637e8f60e11b815260006004820152602490fd5b906000918083526005602052604083209160018060a01b03169182845260205260ff604084205416156000146118ee5780835260056020526040832082845260205260408320600160ff198254161790557f2f8788117e7eff1d82e926ec794901d17c78024a50270940304540a733656f0d339380a4600190565b505090565b906000918083526005602052604083209160018060a01b03169182845260205260ff6040842054166000146118ee578083526005602052604083208284526020526040832060ff1981541690557ff6391f5c32d9c69d2a47ea670b442974b53935d1edc7fd64eb21e047a839171b339380a4600190565b60026006541461197b576002600655565b604051633ee5aeb560e01b8152600490fd5b60ff6007541661199957565b60405163d93c066560e01b8152600490fdfea264697066735822122009f5035a9d707f5f52ab56aeaa652f1c48cd5e446af25c26496b60885452eb4364736f6c634300081800332f8788117e7eff1d82e926ec794901d17c78024a50270940304540a733656f0d",
  "linkReferences": {},
  "deployedLinkReferences": {}
}