{"src/mocks/MockUniswapRouter.sol":{"MockUniswapRouter":{"abi":[{"inputs":[{"internalType":"uint256","name":"amountIn","type":"uint256"},{"internalType":"uint256","name":"amountOutMin","type":"uint256"},{"internalType":"address[]","name":"path","type":"address[]"},{"internalType":"address","name":"to","type":"address"},{"internalType":"uint256","name":"deadline","type":"uint256"}],"name":"swapExactTokensForTokens","outputs":[{"internalType":"uint256[]","name":"amounts","type":"uint256[]"}],"stateMutability":"nonpayable","type":"function"}],"evm":{"bytecode":{"linkReferences":{},"object":"6080806040523461001657610423908161001c8239f35b600080fdfe608060408181526004918236101561001657600080fd5b600092833560e01c6338ed17391461002d57600080fd5b346103685760a03660031901126103685780359360249460449586359067ffffffffffffffff94858311610364573660238401121561036457828101359586116103645736828760051b85010111610364576064986001600160a01b03978a3589811692919083900361036057426084351061033957506002881061030a5785156102d55787156102c35788999a8798996100c986880161036c565b168c51906323b872dd60e01b825233868301523087830152888483015281838160209d8e945af180156102b95761029c575b508435871061025d5750600019890199898b1161024b57898b1015610239579188918893610130878e60051b809a010161036c565b16918d51948593849263a9059cbb60e01b8452888401528a898401525af1801561022f57610202575b5061017b610166886103d5565b976101738b51998a610385565b8089526103d5565b8787019890601f1901368a378751156101f057848952875111156101df578287018601849052885186815287518188018190528190818c01908b908a8a5b8281106101c857505050500390f35b8351855286955093810193928101926001016101b9565b634e487b7160e01b85526032905283fd5b50634e487b7160e01b85526032905283fd5b61022190873d8911610228575b6102198183610385565b8101906103bd565b5038610159565b503d61020f565b8a513d88823e3d90fd5b634e487b7160e01b8852603284528488fd5b634e487b7160e01b8852601184528488fd5b937f496e73756666696369656e74206f757470757420616d6f756e740000000000009250601a90898d519562461bcd60e51b8752860152840152820152fd5b6102b2908a3d8c11610228576102198183610385565b50386100fb565b8d513d8b823e3d90fd5b634e487b7160e01b8752603283528387fd5b710416d6f756e74206d757374206265203e20360741b915060128b9460208c519562461bcd60e51b8752860152840152820152fd5b6b092dcecc2d8d2c840e0c2e8d60a31b9150600c8b9460208c519562461bcd60e51b8752860152840152820152fd5b66115e1c1a5c995960ca1b8c9260078760208862461bcd60e51b8752860152840152820152fd5b8780fd5b8480fd5b8380fd5b356001600160a01b03811681036103805790565b600080fd5b90601f8019910116810190811067ffffffffffffffff8211176103a757604052565b634e487b7160e01b600052604160045260246000fd5b90816020910312610380575180151581036103805790565b67ffffffffffffffff81116103a75760051b6020019056fea2646970667358221220af2613494c3a16ccfa4064fb23e9bed30f3c0f3792a927a9e296de1dd870554864736f6c63430008180033","opcodes":"PUSH1 0x80 DUP1 PUSH1 0x40 MSTORE CALLVALUE PUSH2 0x16 JUMPI PUSH2 0x423 SWAP1 DUP2 PUSH2 0x1C DUP3 CODECOPY RETURN JUMPDEST PUSH1 0x0 DUP1 REVERT INVALID PUSH1 0x80 PUSH1 0x40 DUP2 DUP2 MSTORE PUSH1 0x4 SWAP2 DUP3 CALLDATASIZE LT ISZERO PUSH2 0x16 JUMPI PUSH1 0x0 DUP1 REVERT JUMPDEST PUSH1 0x0 SWAP3 DUP4 CALLDATALOAD PUSH1 0xE0 SHR PUSH4 0x38ED1739 EQ PUSH2 0x2D JUMPI PUSH1 0x0 DUP1 REVERT JUMPDEST CALLVALUE PUSH2 0x368 JUMPI PUSH1 0xA0 CALLDATASIZE PUSH1 0x3 NOT ADD SLT PUSH2 0x368 JUMPI DUP1 CALLDATALOAD SWAP4 PUSH1 0x24 SWAP5 PUSH1 0x44 SWAP6 DUP7 CALLDATALOAD SWAP1 PUSH8 0xFFFFFFFFFFFFFFFF SWAP5 DUP6 DUP4 GT PUSH2 0x364 JUMPI CALLDATASIZE PUSH1 0x23 DUP5 ADD SLT ISZERO PUSH2 0x364 JUMPI DUP3 DUP2 ADD CALLDATALOAD SWAP6 DUP7 GT PUSH2 0x364 JUMPI CALLDATASIZE DUP3 DUP8 PUSH1 0x5 SHL DUP6 ADD ADD GT PUSH2 0x364 JUMPI PUSH1 0x64 SWAP9 PUSH1 0x1 PUSH1 0x1 PUSH1 0xA0 SHL SUB SWAP8 DUP11 CALLDATALOAD DUP10 DUP2 AND SWAP3 SWAP2 SWAP1 DUP4 SWAP1 SUB PUSH2 0x360 JUMPI TIMESTAMP PUSH1 0x84 CALLDATALOAD LT PUSH2 0x339 JUMPI POP PUSH1 0x2 DUP9 LT PUSH2 0x30A JUMPI DUP6 ISZERO PUSH2 0x2D5 JUMPI DUP8 ISZERO PUSH2 0x2C3 JUMPI DUP9 SWAP10 SWAP11 DUP8 SWAP9 SWAP10 PUSH2 0xC9 DUP7 DUP9 ADD PUSH2 0x36C JUMP JUMPDEST AND DUP13 MLOAD SWAP1 PUSH4 0x23B872DD PUSH1 0xE0 SHL DUP3 MSTORE CALLER DUP7 DUP4 ADD MSTORE ADDRESS DUP8 DUP4 ADD MSTORE DUP9 DUP5 DUP4 ADD MSTORE DUP2 DUP4 DUP2 PUSH1 0x20 SWAP14 DUP15 SWAP5 GAS CALL DUP1 ISZERO PUSH2 0x2B9 JUMPI PUSH2 0x29C JUMPI JUMPDEST POP DUP5 CALLDATALOAD DUP8 LT PUSH2 0x25D JUMPI POP PUSH1 0x0 NOT DUP10 ADD SWAP10 DUP10 DUP12 GT PUSH2 0x24B JUMPI DUP10 DUP12 LT ISZERO PUSH2 0x239 JUMPI SWAP2 DUP9 SWAP2 DUP9 SWAP4 PUSH2 0x130 DUP8 DUP15 PUSH1 0x5 SHL DUP1 SWAP11 ADD ADD PUSH2 0x36C JUMP JUMPDEST AND SWAP2 DUP14 MLOAD SWAP5 DUP6 SWAP4 DUP5 SWAP3 PUSH4 0xA9059CBB PUSH1 0xE0 SHL DUP5 MSTORE DUP9 DUP5 ADD MSTORE DUP11 DUP10 DUP5 ADD MSTORE GAS CALL DUP1 ISZERO PUSH2 0x22F JUMPI PUSH2 0x202 JUMPI JUMPDEST POP PUSH2 0x17B PUSH2 0x166 DUP9 PUSH2 0x3D5 JUMP JUMPDEST SWAP8 PUSH2 0x173 DUP12 MLOAD SWAP10 DUP11 PUSH2 0x385 JUMP JUMPDEST DUP1 DUP10 MSTORE PUSH2 0x3D5 JUMP JUMPDEST DUP8 DUP8 ADD SWAP9 SWAP1 PUSH1 0x1F NOT ADD CALLDATASIZE DUP11 CALLDATACOPY DUP8 MLOAD ISZERO PUSH2 0x1F0 JUMPI DUP5 DUP10 MSTORE DUP8 MLOAD GT ISZERO PUSH2 0x1DF JUMPI DUP3 DUP8 ADD DUP7 ADD DUP5 SWAP1 MSTORE DUP9 MLOAD DUP7 DUP2 MSTORE DUP8 MLOAD DUP2 DUP9 ADD DUP2 SWAP1 MSTORE DUP2 SWAP1 DUP2 DUP13 ADD SWAP1 DUP12 SWAP1 DUP11 DUP11 JUMPDEST DUP3 DUP2 LT PUSH2 0x1C8 JUMPI POP POP POP POP SUB SWAP1 RETURN JUMPDEST DUP4 MLOAD DUP6 MSTORE DUP7 SWAP6 POP SWAP4 DUP2 ADD SWAP4 SWAP3 DUP2 ADD SWAP3 PUSH1 0x1 ADD PUSH2 0x1B9 JUMP JUMPDEST PUSH4 0x4E487B71 PUSH1 0xE0 SHL DUP6 MSTORE PUSH1 0x32 SWAP1 MSTORE DUP4 REVERT JUMPDEST POP PUSH4 0x4E487B71 PUSH1 0xE0 SHL DUP6 MSTORE PUSH1 0x32 SWAP1 MSTORE DUP4 REVERT JUMPDEST PUSH2 0x221 SWAP1 DUP8 RETURNDATASIZE DUP10 GT PUSH2 0x228 JUMPI JUMPDEST PUSH2 0x219 DUP2 DUP4 PUSH2 0x385 JUMP JUMPDEST DUP2 ADD SWAP1 PUSH2 0x3BD JUMP JUMPDEST POP CODESIZE PUSH2 0x159 JUMP JUMPDEST POP RETURNDATASIZE PUSH2 0x20F JUMP JUMPDEST DUP11 MLOAD RETURNDATASIZE DUP9 DUP3 RETURNDATACOPY RETURNDATASIZE SWAP1 REVERT JUMPDEST PUSH4 0x4E487B71 PUSH1 0xE0 SHL DUP9 MSTORE PUSH1 0x32 DUP5 MSTORE DUP5 DUP9 REVERT JUMPDEST PUSH4 0x4E487B71 PUSH1 0xE0 SHL DUP9 MSTORE PUSH1 0x11 DUP5 MSTORE DUP5 DUP9 REVERT JUMPDEST SWAP4 PUSH32 0x496E73756666696369656E74206F757470757420616D6F756E74000000000000 SWAP3 POP PUSH1 0x1A SWAP1 DUP10 DUP14 MLOAD SWAP6 PUSH3 0x461BCD PUSH1 0xE5 SHL DUP8 MSTORE DUP7 ADD MSTORE DUP5 ADD MSTORE DUP3 ADD MSTORE REVERT JUMPDEST PUSH2 0x2B2 SWAP1 DUP11 RETURNDATASIZE DUP13 GT PUSH2 0x228 JUMPI PUSH2 0x219 DUP2 DUP4 PUSH2 0x385 JUMP JUMPDEST POP CODESIZE PUSH2 0xFB JUMP JUMPDEST DUP14 MLOAD RETURNDATASIZE DUP12 DUP3 RETURNDATACOPY RETURNDATASIZE SWAP1 REVERT JUMPDEST PUSH4 0x4E487B71 PUSH1 0xE0 SHL DUP8 MSTORE PUSH1 0x32 DUP4 MSTORE DUP4 DUP8 REVERT JUMPDEST PUSH18 0x416D6F756E74206D757374206265203E203 PUSH1 0x74 SHL SWAP2 POP PUSH1 0x12 DUP12 SWAP5 PUSH1 0x20 DUP13 MLOAD SWAP6 PUSH3 0x461BCD PUSH1 0xE5 SHL DUP8 MSTORE DUP7 ADD MSTORE DUP5 ADD MSTORE DUP3 ADD MSTORE REVERT JUMPDEST PUSH12 0x92DCECC2D8D2C840E0C2E8D PUSH1 0xA3 SHL SWAP2 POP PUSH1 0xC DUP12 SWAP5 PUSH1 0x20 DUP13 MLOAD SWAP6 PUSH3 0x461BCD PUSH1 0xE5 SHL DUP8 MSTORE DUP7 ADD MSTORE DUP5 ADD MSTORE DUP3 ADD MSTORE REVERT JUMPDEST PUSH7 0x115E1C1A5C9959 PUSH1 0xCA SHL DUP13 SWAP3 PUSH1 0x7 DUP8 PUSH1 0x20 DUP9 PUSH3 0x461BCD PUSH1 0xE5 SHL DUP8 MSTORE DUP7 ADD MSTORE DUP5 ADD MSTORE DUP3 ADD MSTORE REVERT JUMPDEST DUP8 DUP1 REVERT JUMPDEST DUP5 DUP1 REVERT JUMPDEST DUP4 DUP1 REVERT JUMPDEST CALLDATALOAD PUSH1 0x1 PUSH1 0x1 PUSH1 0xA0 SHL SUB DUP2 AND DUP2 SUB PUSH2 0x380 JUMPI SWAP1 JUMP JUMPDEST PUSH1 0x0 DUP1 REVERT JUMPDEST SWAP1 PUSH1 0x1F DUP1 NOT SWAP2 ADD AND DUP2 ADD SWAP1 DUP2 LT PUSH8 0xFFFFFFFFFFFFFFFF DUP3 GT OR PUSH2 0x3A7 JUMPI PUSH1 0x40 MSTORE JUMP JUMPDEST PUSH4 0x4E487B71 PUSH1 0xE0 SHL PUSH1 0x0 MSTORE PUSH1 0x41 PUSH1 0x4 MSTORE PUSH1 0x24 PUSH1 0x0 REVERT JUMPDEST SWAP1 DUP2 PUSH1 0x20 SWAP2 SUB SLT PUSH2 0x380 JUMPI MLOAD DUP1 ISZERO ISZERO DUP2 SUB PUSH2 0x380 JUMPI SWAP1 JUMP JUMPDEST PUSH8 0xFFFFFFFFFFFFFFFF DUP2 GT PUSH2 0x3A7 JUMPI PUSH1 0x5 SHL PUSH1 0x20 ADD SWAP1 JUMP INVALID LOG2 PUSH5 0x6970667358 0x22 SLT KECCAK256 0xAF 0x26 SGT BLOBHASH 0x4C GASPRICE AND 0xCC STATICCALL BLOCKHASH PUSH5 0xFB23E9BED3 0xF EXTCODECOPY 0xF CALLDATACOPY SWAP3 0xA9 0x27 0xA9 0xE2 SWAP7 0xDE SAR 0xD8 PUSH17 0x554864736F6C6343000818003300000000 "},"methodIdentifiers":{"swapExactTokensForTokens(uint256,uint256,address[],address,uint256)":"38ed1739"}}}}}