{"src/StardustVaultRouter.sol":{"StardustVaultRouter":{"abi":[{"inputs":[{"internalType":"address","name":"_dust","type":"address"},{"internalType":"address","name":"_usdc","type":"address"},{"internalType":"address","name":"_vault","type":"address"},{"internalType":"address","name":"_uniswapRouter","type":"address"}],"stateMutability":"nonpayable","type":"constructor"},{"inputs":[],"name":"AccessControlBadConfirmation","type":"error"},{"inputs":[{"internalType":"address","name":"account","type":"address"},{"internalType":"bytes32","name":"neededRole","type":"bytes32"}],"name":"AccessControlUnauthorizedAccount","type":"error"},{"inputs":[],"name":"EnforcedPause","type":"error"},{"inputs":[],"name":"ExpectedPause","type":"error"},{"inputs":[],"name":"ReentrancyGuardReentrantCall","type":"error"},{"anonymous":false,"inputs":[{"indexed":true,"internalType":"address","name":"user","type":"address"},{"indexed":false,"internalType":"uint256","name":"dustAmount","type":"uint256"},{"indexed":false,"internalType":"uint256","name":"usdcAmount","type":"uint256"},{"indexed":false,"internalType":"uint256","name":"sharesIssued","type":"uint256"}],"name":"DepositedWithDUST","type":"event"},{"anonymous":false,"inputs":[{"indexed":false,"internalType":"uint256","name":"maxSlippage","type":"uint256"},{"indexed":false,"internalType":"uint256","name":"minSwapAmount","type":"uint256"}],"name":"ParametersUpdated","type":"event"},{"anonymous":false,"inputs":[{"indexed":false,"internalType":"address","name":"account","type":"address"}],"name":"Paused","type":"event"},{"anonymous":false,"inputs":[{"indexed":true,"internalType":"bytes32","name":"role","type":"bytes32"},{"indexed":true,"internalType":"bytes32","name":"previousAdminRole","type":"bytes32"},{"indexed":true,"internalType":"bytes32","name":"newAdminRole","type":"bytes32"}],"name":"RoleAdminChanged","type":"event"},{"anonymous":false,"inputs":[{"indexed":true,"internalType":"bytes32","name":"role","type":"bytes32"},{"indexed":true,"internalType":"address","name":"account","type":"address"},{"indexed":true,"internalType":"address","name":"sender","type":"address"}],"name":"RoleGranted","type":"event"},{"anonymous":false,"inputs":[{"indexed":true,"internalType":"bytes32","name":"role","type":"bytes32"},{"indexed":true,"internalType":"address","name":"account","type":"address"},{"indexed":true,"internalType":"address","name":"sender","type":"address"}],"name":"RoleRevoked","type":"event"},{"anonymous":false,"inputs":[{"indexed":false,"internalType":"address","name":"account","type":"address"}],"name":"Unpaused","type":"event"},{"anonymous":false,"inputs":[{"indexed":true,"internalType":"address","name":"user","type":"address"},{"indexed":false,"internalType":"uint256","name":"sharesRedeemed","type":"uint256"},{"indexed":false,"internalType":"uint256","name":"usdcAmount","type":"uint256"},{"indexed":false,"internalType":"uint256","name":"dustAmount","type":"uint256"}],"name":"WithdrawnToDUST","type":"event"},{"inputs":[],"name":"DEFAULT_ADMIN_ROLE","outputs":[{"internalType":"bytes32","name":"","type":"bytes32"}],"stateMutability":"view","type":"function"},{"inputs":[],"name":"PAUSER_ROLE","outputs":[{"internalType":"bytes32","name":"","type":"bytes32"}],"stateMutability":"view","type":"function"},{"inputs":[],"name":"POOL_FEE","outputs":[{"internalType":"uint24","name":"","type":"uint24"}],"stateMutability":"view","type":"function"},{"inputs":[{"internalType":"uint256","name":"dustAmount","type":"uint256"},{"internalType":"uint256","name":"minUsdcOut","type":"uint256"}],"name":"depositWithDUST","outputs":[{"internalType":"uint256","name":"sharesIssued","type":"uint256"}],"stateMutability":"nonpayable","type":"function"},{"inputs":[],"name":"dust","outputs":[{"internalType":"contract IERC20","name":"","type":"address"}],"stateMutability":"view","type":"function"},{"inputs":[{"internalType":"address","name":"token","type":"address"},{"internalType":"address","name":"to","type":"address"},{"internalType":"uint256","name":"amount","type":"uint256"}],"name":"emergencyWithdraw","outputs":[],"stateMutability":"nonpayable","type":"function"},{"inputs":[{"internalType":"bytes32","name":"role","type":"bytes32"}],"name":"getRoleAdmin","outputs":[{"internalType":"bytes32","name":"","type":"bytes32"}],"stateMutability":"view","type":"function"},{"inputs":[],"name":"getRouterStats","outputs":[{"internalType":"uint256","name":"totalDustDeposited_","type":"uint256"},{"internalType":"uint256","name":"totalDustWithdrawn_","type":"uint256"},{"internalType":"uint256","name":"netDustFlow_","type":"uint256"},{"internalType":"uint256","name":"totalUsdcSwapped_","type":"uint256"},{"internalType":"uint256","name":"transactionCount_","type":"uint256"}],"stateMutability":"view","type":"function"},{"inputs":[{"internalType":"bytes32","name":"role","type":"bytes32"},{"internalType":"address","name":"account","type":"address"}],"name":"grantRole","outputs":[],"stateMutability":"nonpayable","type":"function"},{"inputs":[{"internalType":"bytes32","name":"role","type":"bytes32"},{"internalType":"address","name":"account","type":"address"}],"name":"hasRole","outputs":[{"internalType":"bool","name":"","type":"bool"}],"stateMutability":"view","type":"function"},{"inputs":[],"name":"maxSlippage","outputs":[{"internalType":"uint256","name":"","type":"uint256"}],"stateMutability":"view","type":"function"},{"inputs":[],"name":"minSwapAmount","outputs":[{"internalType":"uint256","name":"","type":"uint256"}],"stateMutability":"view","type":"function"},{"inputs":[],"name":"pause","outputs":[],"stateMutability":"nonpayable","type":"function"},{"inputs":[],"name":"paused","outputs":[{"internalType":"bool","name":"","type":"bool"}],"stateMutability":"view","type":"function"},{"inputs":[{"internalType":"bytes32","name":"role","type":"bytes32"},{"internalType":"address","name":"callerConfirmation","type":"address"}],"name":"renounceRole","outputs":[],"stateMutability":"nonpayable","type":"function"},{"inputs":[{"internalType":"bytes32","name":"role","type":"bytes32"},{"internalType":"address","name":"account","type":"address"}],"name":"revokeRole","outputs":[],"stateMutability":"nonpayable","type":"function"},{"inputs":[{"internalType":"uint256","name":"_maxSlippage","type":"uint256"},{"internalType":"uint256","name":"_minSwapAmount","type":"uint256"}],"name":"setParameters","outputs":[],"stateMutability":"nonpayable","type":"function"},{"inputs":[],"name":"stats","outputs":[{"internalType":"uint256","name":"totalDustDeposited","type":"uint256"},{"internalType":"uint256","name":"totalDustWithdrawn","type":"uint256"},{"internalType":"uint256","name":"totalUsdcSwapped","type":"uint256"},{"internalType":"uint256","name":"transactionCount","type":"uint256"}],"stateMutability":"view","type":"function"},{"inputs":[{"internalType":"bytes4","name":"interfaceId","type":"bytes4"}],"name":"supportsInterface","outputs":[{"internalType":"bool","name":"","type":"bool"}],"stateMutability":"view","type":"function"},{"inputs":[],"name":"uniswapRouter","outputs":[{"internalType":"contract ISwapRouter","name":"","type":"address"}],"stateMutability":"view","type":"function"},{"inputs":[],"name":"unpause","outputs":[],"stateMutability":"nonpayable","type":"function"},{"inputs":[],"name":"usdc","outputs":[{"internalType":"contract IERC20","name":"","type":"address"}],"stateMutability":"view","type":"function"},{"inputs":[],"name":"vault","outputs":[{"internalType":"contract StardustTradingVault","name":"","type":"address"}],"stateMutability":"view","type":"function"},{"inputs":[{"internalType":"uint256","name":"stUsdcAmount","type":"uint256"},{"internalType":"uint256","name":"minUsdcOut","type":"uint256"},{"internalType":"uint256","name":"minDustOut","type":"uint256"}],"name":"withdrawToDUST","outputs":[{"internalType":"uint256","name":"dustAmount","type":"uint256"}],"stateMutability":"nonpayable","type":"function"}],"evm":{"bytecode":{"linkReferences":{},"object":"610100346200026357601f62001a2638819003918201601f191683019291906001600160401b0384118385101762000268578160809284926040968752833981010312620002635762000052816200027e565b62000060602083016200027e565b916200007c6060620000748684016200027e565b92016200027e565b6001805561012c600355678ac7230489e800006004556001600160a01b039283169390929084156200022b578116918215620001f3578116928315620001ba5716928315620001765760805260a05260c05260e052620000dc3362000293565b50620000e83362000313565b50516116509081620003b68239608051818181610187015281816106a50152610ee6015260a0518181816105520152818161066a015281816106e701528181610d8e0152610f8e015260c05181818161013d015281816104920152611037015260e0518181816104ea015281816105d0015281816106280152818161075b01528181610cbc0152610f390152f35b845162461bcd60e51b815260206004820152601460248201527f526f757465723a207a65726f20556e69737761700000000000000000000000006044820152606490fd5b855162461bcd60e51b8152602060048201526012602482015271149bdd5d195c8e881e995c9bc815985d5b1d60721b6044820152606490fd5b855162461bcd60e51b8152602060048201526011602482015270526f757465723a207a65726f205553444360781b6044820152606490fd5b855162461bcd60e51b8152602060048201526011602482015270149bdd5d195c8e881e995c9bc8111554d5607a1b6044820152606490fd5b600080fd5b634e487b7160e01b600052604160045260246000fd5b51906001600160a01b03821682036200026357565b6001600160a01b031660008181527fad3228b676f7d3cd4284a5443f17f1962b36e491b30a40b2405849e597ba5fb5602052604081205490919060ff166200030f57818052816020526040822081835260205260408220600160ff19825416179055339160008051602062001a068339815191528180a4600190565b5090565b6001600160a01b031660008181527ff7c9542c591017a21c74b6f3fab6263c7952fc0aaf9db4c22a2a04ddc7f8674f60205260408120549091907f65d7a28e3265b37a6474929f336521b332c1681b933f6cb9f3376673440d862a9060ff16620003b057808352826020526040832082845260205260408320600160ff1982541617905560008051602062001a06833981519152339380a4600190565b50509056fe608080604052600436101561001357600080fd5b60003560e01c90816301ffc9a714611244575080631db447bf14610e90578063248a9ca314610e615780632f2ff15d14610e22578063338246e214610e0457806336568abe14610dbd5780633e413bee14610d785780633f4ba83a14610d0e5780635c975abb14610ceb578063735de9f714610ca65780638456cb5914610c4c578063884870c714610bae5780638c04166f14610b9057806391d1485414610b43578063a217fddf14610b27578063c87264731461042c578063d146de40146103cc578063d547741f1461038b578063d80528ae14610354578063dd1b9c4a14610337578063e63ab1e9146102fc578063e63ea408146101b6578063fad9aba3146101715763fbfa77cf1461012757600080fd5b3461016c57600036600319011261016c576040517f00000000000000000000000000000000000000000000000000000000000000006001600160a01b03168152602090f35b600080fd5b3461016c57600036600319011261016c576040517f00000000000000000000000000000000000000000000000000000000000000006001600160a01b03168152602090f35b3461016c57606036600319011261016c576001600160a01b036004358181169081900361016c576101e56112ad565b916101ee6114c7565b8216156102c05760405163a9059cbb60e01b81526001600160a01b0392909216600483015260448035602484015260209183919082906000905af19081156102b457600091610285575b501561024057005b60405162461bcd60e51b815260206004820152601760248201527f526f757465723a207472616e73666572206661696c65640000000000000000006044820152606490fd5b6102a7915060203d6020116102ad575b61029f81836112f6565b810190611318565b81610238565b503d610295565b6040513d6000823e3d90fd5b60405162461bcd60e51b8152602060048201526014602482015273526f757465723a207a65726f206164647265737360601b6044820152606490fd5b3461016c57600036600319011261016c5760206040517f65d7a28e3265b37a6474929f336521b332c1681b933f6cb9f3376673440d862a8152f35b3461016c57600036600319011261016c576020604051610bb88152f35b3461016c57600036600319011261016c57608060055460065460075460085491604051938452602084015260408301526060820152f35b3461016c57604036600319011261016c576103ca6004356103aa6112ad565b908060005260006020526103c5600160406000200154611501565b6115a5565b005b3461016c57600036600319011261016c5760a060055460065480821160001461041d576103f98183611398565b60075490600854926040519485526020850152604084015260608301526080820152f35b6104278282611398565b6103f9565b3461016c57606036600319011261016c576104456113a5565b61044d6113c8565b60043515610aec5760243515610aa75760443515610a62576040516323b872dd60e01b8152336004808301919091523060248301523560448201526001600160a01b037f000000000000000000000000000000000000000000000000000000000000000016906020816064816000865af19081156102b457600091610a43575b50156109fe5760405163095ea7b360e01b81526001600160a01b037f0000000000000000000000000000000000000000000000000000000000000000166004808301919091523560248201526020816044816000865af180156102b4576109df575b5061012c420142116109c95760206105ca916040519061054e826112c3565b81527f00000000000000000000000000000000000000000000000000000000000000006001600160a01b031682820152610bb86040808301919091523060608301524261012c0160808301526004803560a084015260243560c0840152600060e0840152905163414bf38960e01b8152938492839283016113e6565b038160007f00000000000000000000000000000000000000000000000000000000000000006001600160a01b03165af19081156102b457600091610997575b50801561095c5760243581106109185760405163095ea7b360e01b81527f00000000000000000000000000000000000000000000000000000000000000006001600160a01b03166004820152602481018290526020818060448101038160007f00000000000000000000000000000000000000000000000000000000000000006001600160a01b03165af180156102b4576108f9575b506040517f00000000000000000000000000000000000000000000000000000000000000006001600160a01b031691610755916020906106de816112c3565b60018060a01b037f00000000000000000000000000000000000000000000000000000000000000001681528482820152610bb8604082015230606082015261012c420160808201528260a082015260443560c0820152600060e08201526040518094819263414bf38960e01b8352600483016113e6565b038160007f00000000000000000000000000000000000000000000000000000000000000006001600160a01b03165af19182156102b4576000926108c5575b5060443582106108815760405163a9059cbb60e01b81523360048201526024810183905292602090849060449082906000905af19283156102b4576020936107e491600091610864575b50611330565b6107f08260065461137c565b6006556107ff8160075461137c565b60075561080d600854611389565b6008557fdfef462da6d7e712f2e69fd1113692d86e3a91dcacfaf88e85e2111074e417a360405180610855853395600435846040919493926060820195825260208201520152565b0390a260018055604051908152f35b61087b9150853d87116102ad5761029f81836112f6565b856107de565b606460405162461bcd60e51b815260206004820152602060248201527f526f757465723a20696e73756666696369656e742044555354206f75747075746044820152fd5b9091506020813d6020116108f1575b816108e1602093836112f6565b8101031261016c57519083610794565b3d91506108d4565b6109119060203d6020116102ad5761029f81836112f6565b508161069f565b606460405162461bcd60e51b815260206004820152602060248201527f526f757465723a20696e73756666696369656e742055534443206f75747075746044820152fd5b60405162461bcd60e51b8152602060048201526013602482015272149bdd5d195c8e881cddd85c0819985a5b1959606a1b6044820152606490fd5b90506020813d6020116109c1575b816109b2602093836112f6565b8101031261016c575181610609565b3d91506109a5565b634e487b7160e01b600052601160045260246000fd5b6109f79060203d6020116102ad5761029f81836112f6565b508161052f565b60405162461bcd60e51b815260206004820152601e60248201527f526f757465723a20737455534443207472616e73666572206661696c656400006044820152606490fd5b610a5c915060203d6020116102ad5761029f81836112f6565b826104cd565b60405162461bcd60e51b815260206004820152601760248201527f526f757465723a206d696e447573744f7574207a65726f0000000000000000006044820152606490fd5b60405162461bcd60e51b815260206004820152601760248201527f526f757465723a206d696e557364634f7574207a65726f0000000000000000006044820152606490fd5b60405162461bcd60e51b8152602060048201526013602482015272149bdd5d195c8e881e995c9bc8185b5bdd5b9d606a1b6044820152606490fd5b3461016c57600036600319011261016c57602060405160008152f35b3461016c57604036600319011261016c57610b5c6112ad565b600435600052600060205260406000209060018060a01b0316600052602052602060ff604060002054166040519015158152f35b3461016c57600036600319011261016c576020600354604051908152f35b3461016c57610bbc36611297565b610bc46114c7565b6103e88211610c0757816040917ffaccb0639ff7851e0e24f3b2d9ab03cd62ffb63f5b4d90aaeff85bb078c1fa48936003558060045582519182526020820152a1005b60405162461bcd60e51b815260206004820152601960248201527f526f757465723a20736c69707061676520746f6f2068696768000000000000006044820152606490fd5b3461016c57600036600319011261016c57610c6561144d565b610c6d6113c8565b600160ff1960025416176002557f62e78cea01bee320cd4e420270b5ea74000d11b0c9f74754ebdbfc544b05a2586020604051338152a1005b3461016c57600036600319011261016c576040517f00000000000000000000000000000000000000000000000000000000000000006001600160a01b03168152602090f35b3461016c57600036600319011261016c57602060ff600254166040519015158152f35b3461016c57600036600319011261016c57610d2761144d565b60025460ff811615610d665760ff19166002557f5db9ee0a495bf2e6ff9c91a7834c1ba4fdd244a5e8aa4e537bd38aeae4b073aa6020604051338152a1005b604051638dfc202b60e01b8152600490fd5b3461016c57600036600319011261016c576040517f00000000000000000000000000000000000000000000000000000000000000006001600160a01b03168152602090f35b3461016c57604036600319011261016c57610dd66112ad565b336001600160a01b03821603610df2576103ca906004356115a5565b60405163334bd91960e11b8152600490fd5b3461016c57600036600319011261016c576020600454604051908152f35b3461016c57604036600319011261016c576103ca600435610e416112ad565b90806000526000602052610e5c600160406000200154611501565b611527565b3461016c57602036600319011261016c5760043560005260006020526020600160406000200154604051908152f35b3461016c57610e9e36611297565b610ea66113a5565b610eae6113c8565b6004548210611206576040516323b872dd60e01b815233600482015230602482015260448101839052602092906001600160a01b03907f000000000000000000000000000000000000000000000000000000000000000082169085816064816000865af180156102b457610f29916000916111e95750611330565b60405163095ea7b360e01b8082527f000000000000000000000000000000000000000000000000000000000000000084166001600160a01b038116600484015260248301869052909590929187816044816000875af180156102b4576111cc575b50837f0000000000000000000000000000000000000000000000000000000000000000169261012c4201908142116109c95760009389936110199360405192610fd2846112c3565b83528786840152610bb8604084015230606084015260808301528860a083015260c08201528460e082015260405194858094819363414bf38960e01b8352600483016113e6565b03925af19283156102b457869160009461119b575b506040519586527f0000000000000000000000000000000000000000000000000000000000000000166001600160a01b03811660048701526024860184905294918290816000816044810103925af180156102b45761117e575b506040516316cc3da360e21b815233600482015260248101829052928490849060449082906000905af19283156102b45760009361112f575b50827f16737b8c514bb0bde161519d0cbdbb3176e5835b6175bf3d1254d115dfd37dfa916110f18460055461137c565b6005556111008160075461137c565b60075561110e600854611389565b60085560408051948552602085019190915283015233918060608101610855565b9092508381813d8311611177575b61114781836112f6565b8101031261016c5751917f16737b8c514bb0bde161519d0cbdbb3176e5835b6175bf3d1254d115dfd37dfa6110c1565b503d61113d565b61119490853d87116102ad5761029f81836112f6565b5084611088565b8281939295503d83116111c5575b6111b381836112f6565b8101031261016c57859051928761102e565b503d6111a9565b6111e290883d8a116102ad5761029f81836112f6565b5087610f8a565b6112009150873d89116102ad5761029f81836112f6565b876107de565b60405162461bcd60e51b8152602060048201526016602482015275526f757465723a20616d6f756e7420746f6f206c6f7760501b6044820152606490fd5b3461016c57602036600319011261016c576004359063ffffffff60e01b821680920361016c57602091637965db0b60e01b8114908115611286575b5015158152f35b6301ffc9a760e01b1490508361127f565b604090600319011261016c576004359060243590565b602435906001600160a01b038216820361016c57565b610100810190811067ffffffffffffffff8211176112e057604052565b634e487b7160e01b600052604160045260246000fd5b90601f8019910116810190811067ffffffffffffffff8211176112e057604052565b9081602091031261016c5751801515810361016c5790565b1561133757565b60405162461bcd60e51b815260206004820152601c60248201527f526f757465723a2044555354207472616e73666572206661696c6564000000006044820152606490fd5b919082018092116109c957565b60001981146109c95760010190565b919082039182116109c957565b6002600154146113b6576002600155565b604051633ee5aeb560e01b8152600490fd5b60ff600254166113d457565b60405163d93c066560e01b8152600490fd5b91909160e06101008201938160018060a01b039182815116855282602082015116602086015262ffffff60408201511660408601528260608201511660608601526080810151608086015260a081015160a086015260c081015160c0860152015116910152565b3360009081527ff7c9542c591017a21c74b6f3fab6263c7952fc0aaf9db4c22a2a04ddc7f8674f60205260409020547f65d7a28e3265b37a6474929f336521b332c1681b933f6cb9f3376673440d862a9060ff16156114a95750565b6044906040519063e2517d3f60e01b82523360048301526024820152fd5b3360009081527fad3228b676f7d3cd4284a5443f17f1962b36e491b30a40b2405849e597ba5fb5602052604081205460ff16156114a95750565b80600052600060205260406000203360005260205260ff60406000205416156114a95750565b9060009180835282602052604083209160018060a01b03169182845260205260ff604084205416156000146115a057808352826020526040832082845260205260408320600160ff198254161790557f2f8788117e7eff1d82e926ec794901d17c78024a50270940304540a733656f0d339380a4600190565b505090565b9060009180835282602052604083209160018060a01b03169182845260205260ff6040842054166000146115a05780835282602052604083208284526020526040832060ff1981541690557ff6391f5c32d9c69d2a47ea670b442974b53935d1edc7fd64eb21e047a839171b339380a460019056fea2646970667358221220a74b6748c0e6b0f2307f3c89ac47ed1874e4a087ee1877bf9011bf07c68a2b1364736f6c634300081800332f8788117e7eff1d82e926ec794901d17c78024a50270940304540a733656f0d","opcodes":"PUSH2 0x100 CALLVALUE PUSH3 0x263 JUMPI PUSH1 0x1F PUSH3 0x1A26 CODESIZE DUP2 SWAP1 SUB SWAP2 DUP3 ADD PUSH1 0x1F NOT AND DUP4 ADD SWAP3 SWAP2 SWAP1 PUSH1 0x1 PUSH1 0x1 PUSH1 0x40 SHL SUB DUP5 GT DUP4 DUP6 LT OR PUSH3 0x268 JUMPI DUP2 PUSH1 0x80 SWAP3 DUP5 SWAP3 PUSH1 0x40 SWAP7 DUP8 MSTORE DUP4 CODECOPY DUP2 ADD SUB SLT PUSH3 0x263 JUMPI PUSH3 0x52 DUP2 PUSH3 0x27E JUMP JUMPDEST PUSH3 0x60 PUSH1 0x20 DUP4 ADD PUSH3 0x27E JUMP JUMPDEST SWAP2 PUSH3 0x7C PUSH1 0x60 PUSH3 0x74 DUP7 DUP5 ADD PUSH3 0x27E JUMP JUMPDEST SWAP3 ADD PUSH3 0x27E JUMP JUMPDEST PUSH1 0x1 DUP1 SSTORE PUSH2 0x12C PUSH1 0x3 SSTORE PUSH8 0x8AC7230489E80000 PUSH1 0x4 SSTORE PUSH1 0x1 PUSH1 0x1 PUSH1 0xA0 SHL SUB SWAP3 DUP4 AND SWAP4 SWAP1 SWAP3 SWAP1 DUP5 ISZERO PUSH3 0x22B JUMPI DUP2 AND SWAP2 DUP3 ISZERO PUSH3 0x1F3 JUMPI DUP2 AND SWAP3 DUP4 ISZERO PUSH3 0x1BA JUMPI AND SWAP3 DUP4 ISZERO PUSH3 0x176 JUMPI PUSH1 0x80 MSTORE PUSH1 0xA0 MSTORE PUSH1 0xC0 MSTORE PUSH1 0xE0 MSTORE PUSH3 0xDC CALLER PUSH3 0x293 JUMP JUMPDEST POP PUSH3 0xE8 CALLER PUSH3 0x313 JUMP JUMPDEST POP MLOAD PUSH2 0x1650 SWAP1 DUP2 PUSH3 0x3B6 DUP3 CODECOPY PUSH1 0x80 MLOAD DUP2 DUP2 DUP2 PUSH2 0x187 ADD MSTORE DUP2 DUP2 PUSH2 0x6A5 ADD MSTORE PUSH2 0xEE6 ADD MSTORE PUSH1 0xA0 MLOAD DUP2 DUP2 DUP2 PUSH2 0x552 ADD MSTORE DUP2 DUP2 PUSH2 0x66A ADD MSTORE DUP2 DUP2 PUSH2 0x6E7 ADD MSTORE DUP2 DUP2 PUSH2 0xD8E ADD MSTORE PUSH2 0xF8E ADD MSTORE PUSH1 0xC0 MLOAD DUP2 DUP2 DUP2 PUSH2 0x13D ADD MSTORE DUP2 DUP2 PUSH2 0x492 ADD MSTORE PUSH2 0x1037 ADD MSTORE PUSH1 0xE0 MLOAD DUP2 DUP2 DUP2 PUSH2 0x4EA ADD MSTORE DUP2 DUP2 PUSH2 0x5D0 ADD MSTORE DUP2 DUP2 PUSH2 0x628 ADD MSTORE DUP2 DUP2 PUSH2 0x75B ADD MSTORE DUP2 DUP2 PUSH2 0xCBC ADD MSTORE PUSH2 0xF39 ADD MSTORE RETURN JUMPDEST DUP5 MLOAD PUSH3 0x461BCD PUSH1 0xE5 SHL DUP2 MSTORE PUSH1 0x20 PUSH1 0x4 DUP3 ADD MSTORE PUSH1 0x14 PUSH1 0x24 DUP3 ADD MSTORE PUSH32 0x526F757465723A207A65726F20556E6973776170000000000000000000000000 PUSH1 0x44 DUP3 ADD MSTORE PUSH1 0x64 SWAP1 REVERT JUMPDEST DUP6 MLOAD PUSH3 0x461BCD PUSH1 0xE5 SHL DUP2 MSTORE PUSH1 0x20 PUSH1 0x4 DUP3 ADD MSTORE PUSH1 0x12 PUSH1 0x24 DUP3 ADD MSTORE PUSH18 0x149BDD5D195C8E881E995C9BC815985D5B1D PUSH1 0x72 SHL PUSH1 0x44 DUP3 ADD MSTORE PUSH1 0x64 SWAP1 REVERT JUMPDEST DUP6 MLOAD PUSH3 0x461BCD PUSH1 0xE5 SHL DUP2 MSTORE PUSH1 0x20 PUSH1 0x4 DUP3 ADD MSTORE PUSH1 0x11 PUSH1 0x24 DUP3 ADD MSTORE PUSH17 0x526F757465723A207A65726F2055534443 PUSH1 0x78 SHL PUSH1 0x44 DUP3 ADD MSTORE PUSH1 0x64 SWAP1 REVERT JUMPDEST DUP6 MLOAD PUSH3 0x461BCD PUSH1 0xE5 SHL DUP2 MSTORE PUSH1 0x20 PUSH1 0x4 DUP3 ADD MSTORE PUSH1 0x11 PUSH1 0x24 DUP3 ADD MSTORE PUSH17 0x149BDD5D195C8E881E995C9BC8111554D5 PUSH1 0x7A SHL PUSH1 0x44 DUP3 ADD MSTORE PUSH1 0x64 SWAP1 REVERT JUMPDEST PUSH1 0x0 DUP1 REVERT JUMPDEST PUSH4 0x4E487B71 PUSH1 0xE0 SHL PUSH1 0x0 MSTORE PUSH1 0x41 PUSH1 0x4 MSTORE PUSH1 0x24 PUSH1 0x0 REVERT JUMPDEST MLOAD SWAP1 PUSH1 0x1 PUSH1 0x1 PUSH1 0xA0 SHL SUB DUP3 AND DUP3 SUB PUSH3 0x263 JUMPI JUMP JUMPDEST PUSH1 0x1 PUSH1 0x1 PUSH1 0xA0 SHL SUB AND PUSH1 0x0 DUP2 DUP2 MSTORE PUSH32 0xAD3228B676F7D3CD4284A5443F17F1962B36E491B30A40B2405849E597BA5FB5 PUSH1 0x20 MSTORE PUSH1 0x40 DUP2 KECCAK256 SLOAD SWAP1 SWAP2 SWAP1 PUSH1 0xFF AND PUSH3 0x30F JUMPI DUP2 DUP1 MSTORE DUP2 PUSH1 0x20 MSTORE PUSH1 0x40 DUP3 KECCAK256 DUP2 DUP4 MSTORE PUSH1 0x20 MSTORE PUSH1 0x40 DUP3 KECCAK256 PUSH1 0x1 PUSH1 0xFF NOT DUP3 SLOAD AND OR SWAP1 SSTORE CALLER SWAP2 PUSH1 0x0 DUP1 MLOAD PUSH1 0x20 PUSH3 0x1A06 DUP4 CODECOPY DUP2 MLOAD SWAP2 MSTORE DUP2 DUP1 LOG4 PUSH1 0x1 SWAP1 JUMP JUMPDEST POP SWAP1 JUMP JUMPDEST PUSH1 0x1 PUSH1 0x1 PUSH1 0xA0 SHL SUB AND PUSH1 0x0 DUP2 DUP2 MSTORE PUSH32 0xF7C9542C591017A21C74B6F3FAB6263C7952FC0AAF9DB4C22A2A04DDC7F8674F PUSH1 0x20 MSTORE PUSH1 0x40 DUP2 KECCAK256 SLOAD SWAP1 SWAP2 SWAP1 PUSH32 0x65D7A28E3265B37A6474929F336521B332C1681B933F6CB9F3376673440D862A SWAP1 PUSH1 0xFF AND PUSH3 0x3B0 JUMPI DUP1 DUP4 MSTORE DUP3 PUSH1 0x20 MSTORE PUSH1 0x40 DUP4 KECCAK256 DUP3 DUP5 MSTORE PUSH1 0x20 MSTORE PUSH1 0x40 DUP4 KECCAK256 PUSH1 0x1 PUSH1 0xFF NOT DUP3 SLOAD AND OR SWAP1 SSTORE PUSH1 0x0 DUP1 MLOAD PUSH1 0x20 PUSH3 0x1A06 DUP4 CODECOPY DUP2 MLOAD SWAP2 MSTORE CALLER SWAP4 DUP1 LOG4 PUSH1 0x1 SWAP1 JUMP JUMPDEST POP POP SWAP1 JUMP INVALID PUSH1 0x80 DUP1 PUSH1 0x40 MSTORE PUSH1 0x4 CALLDATASIZE LT ISZERO PUSH2 0x13 JUMPI PUSH1 0x0 DUP1 REVERT JUMPDEST PUSH1 0x0 CALLDATALOAD PUSH1 0xE0 SHR SWAP1 DUP2 PUSH4 0x1FFC9A7 EQ PUSH2 0x1244 JUMPI POP DUP1 PUSH4 0x1DB447BF EQ PUSH2 0xE90 JUMPI DUP1 PUSH4 0x248A9CA3 EQ PUSH2 0xE61 JUMPI DUP1 PUSH4 0x2F2FF15D EQ PUSH2 0xE22 JUMPI DUP1 PUSH4 0x338246E2 EQ PUSH2 0xE04 JUMPI DUP1 PUSH4 0x36568ABE EQ PUSH2 0xDBD JUMPI DUP1 PUSH4 0x3E413BEE EQ PUSH2 0xD78 JUMPI DUP1 PUSH4 0x3F4BA83A EQ PUSH2 0xD0E JUMPI DUP1 PUSH4 0x5C975ABB EQ PUSH2 0xCEB JUMPI DUP1 PUSH4 0x735DE9F7 EQ PUSH2 0xCA6 JUMPI DUP1 PUSH4 0x8456CB59 EQ PUSH2 0xC4C JUMPI DUP1 PUSH4 0x884870C7 EQ PUSH2 0xBAE JUMPI DUP1 PUSH4 0x8C04166F EQ PUSH2 0xB90 JUMPI DUP1 PUSH4 0x91D14854 EQ PUSH2 0xB43 JUMPI DUP1 PUSH4 0xA217FDDF EQ PUSH2 0xB27 JUMPI DUP1 PUSH4 0xC8726473 EQ PUSH2 0x42C JUMPI DUP1 PUSH4 0xD146DE40 EQ PUSH2 0x3CC JUMPI DUP1 PUSH4 0xD547741F EQ PUSH2 0x38B JUMPI DUP1 PUSH4 0xD80528AE EQ PUSH2 0x354 JUMPI DUP1 PUSH4 0xDD1B9C4A EQ PUSH2 0x337 JUMPI DUP1 PUSH4 0xE63AB1E9 EQ PUSH2 0x2FC JUMPI DUP1 PUSH4 0xE63EA408 EQ PUSH2 0x1B6 JUMPI DUP1 PUSH4 0xFAD9ABA3 EQ PUSH2 0x171 JUMPI PUSH4 0xFBFA77CF EQ PUSH2 0x127 JUMPI PUSH1 0x0 DUP1 REVERT JUMPDEST CALLVALUE PUSH2 0x16C JUMPI PUSH1 0x0 CALLDATASIZE PUSH1 0x3 NOT ADD SLT PUSH2 0x16C JUMPI PUSH1 0x40 MLOAD PUSH32 0x0 PUSH1 0x1 PUSH1 0x1 PUSH1 0xA0 SHL SUB AND DUP2 MSTORE PUSH1 0x20 SWAP1 RETURN JUMPDEST PUSH1 0x0 DUP1 REVERT JUMPDEST CALLVALUE PUSH2 0x16C JUMPI PUSH1 0x0 CALLDATASIZE PUSH1 0x3 NOT ADD SLT PUSH2 0x16C JUMPI PUSH1 0x40 MLOAD PUSH32 0x0 PUSH1 0x1 PUSH1 0x1 PUSH1 0xA0 SHL SUB AND DUP2 MSTORE PUSH1 0x20 SWAP1 RETURN JUMPDEST CALLVALUE PUSH2 0x16C JUMPI PUSH1 0x60 CALLDATASIZE PUSH1 0x3 NOT ADD SLT PUSH2 0x16C JUMPI PUSH1 0x1 PUSH1 0x1 PUSH1 0xA0 SHL SUB PUSH1 0x4 CALLDATALOAD DUP2 DUP2 AND SWAP1 DUP2 SWAP1 SUB PUSH2 0x16C JUMPI PUSH2 0x1E5 PUSH2 0x12AD JUMP JUMPDEST SWAP2 PUSH2 0x1EE PUSH2 0x14C7 JUMP JUMPDEST DUP3 AND ISZERO PUSH2 0x2C0 JUMPI PUSH1 0x40 MLOAD PUSH4 0xA9059CBB PUSH1 0xE0 SHL DUP2 MSTORE PUSH1 0x1 PUSH1 0x1 PUSH1 0xA0 SHL SUB SWAP3 SWAP1 SWAP3 AND PUSH1 0x4 DUP4 ADD MSTORE PUSH1 0x44 DUP1 CALLDATALOAD PUSH1 0x24 DUP5 ADD MSTORE PUSH1 0x20 SWAP2 DUP4 SWAP2 SWAP1 DUP3 SWAP1 PUSH1 0x0 SWAP1 GAS CALL SWAP1 DUP2 ISZERO PUSH2 0x2B4 JUMPI PUSH1 0x0 SWAP2 PUSH2 0x285 JUMPI JUMPDEST POP ISZERO PUSH2 0x240 JUMPI STOP JUMPDEST PUSH1 0x40 MLOAD PUSH3 0x461BCD PUSH1 0xE5 SHL DUP2 MSTORE PUSH1 0x20 PUSH1 0x4 DUP3 ADD MSTORE PUSH1 0x17 PUSH1 0x24 DUP3 ADD MSTORE PUSH32 0x526F757465723A207472616E73666572206661696C6564000000000000000000 PUSH1 0x44 DUP3 ADD MSTORE PUSH1 0x64 SWAP1 REVERT JUMPDEST PUSH2 0x2A7 SWAP2 POP PUSH1 0x20 RETURNDATASIZE PUSH1 0x20 GT PUSH2 0x2AD JUMPI JUMPDEST PUSH2 0x29F DUP2 DUP4 PUSH2 0x12F6 JUMP JUMPDEST DUP2 ADD SWAP1 PUSH2 0x1318 JUMP JUMPDEST DUP2 PUSH2 0x238 JUMP JUMPDEST POP RETURNDATASIZE PUSH2 0x295 JUMP JUMPDEST PUSH1 0x40 MLOAD RETURNDATASIZE PUSH1 0x0 DUP3 RETURNDATACOPY RETURNDATASIZE SWAP1 REVERT JUMPDEST PUSH1 0x40 MLOAD PUSH3 0x461BCD PUSH1 0xE5 SHL DUP2 MSTORE PUSH1 0x20 PUSH1 0x4 DUP3 ADD MSTORE PUSH1 0x14 PUSH1 0x24 DUP3 ADD MSTORE PUSH20 0x526F757465723A207A65726F2061646472657373 PUSH1 0x60 SHL PUSH1 0x44 DUP3 ADD MSTORE PUSH1 0x64 SWAP1 REVERT JUMPDEST CALLVALUE PUSH2 0x16C JUMPI PUSH1 0x0 CALLDATASIZE PUSH1 0x3 NOT ADD SLT PUSH2 0x16C JUMPI PUSH1 0x20 PUSH1 0x40 MLOAD PUSH32 0x65D7A28E3265B37A6474929F336521B332C1681B933F6CB9F3376673440D862A DUP2 MSTORE RETURN JUMPDEST CALLVALUE PUSH2 0x16C JUMPI PUSH1 0x0 CALLDATASIZE PUSH1 0x3 NOT ADD SLT PUSH2 0x16C JUMPI PUSH1 0x20 PUSH1 0x40 MLOAD PUSH2 0xBB8 DUP2 MSTORE RETURN JUMPDEST CALLVALUE PUSH2 0x16C JUMPI PUSH1 0x0 CALLDATASIZE PUSH1 0x3 NOT ADD SLT PUSH2 0x16C JUMPI PUSH1 0x80 PUSH1 0x5 SLOAD PUSH1 0x6 SLOAD PUSH1 0x7 SLOAD PUSH1 0x8 SLOAD SWAP2 PUSH1 0x40 MLOAD SWAP4 DUP5 MSTORE PUSH1 0x20 DUP5 ADD MSTORE PUSH1 0x40 DUP4 ADD MSTORE PUSH1 0x60 DUP3 ADD MSTORE RETURN JUMPDEST CALLVALUE PUSH2 0x16C JUMPI PUSH1 0x40 CALLDATASIZE PUSH1 0x3 NOT ADD SLT PUSH2 0x16C JUMPI PUSH2 0x3CA PUSH1 0x4 CALLDATALOAD PUSH2 0x3AA PUSH2 0x12AD JUMP JUMPDEST SWAP1 DUP1 PUSH1 0x0 MSTORE PUSH1 0x0 PUSH1 0x20 MSTORE PUSH2 0x3C5 PUSH1 0x1 PUSH1 0x40 PUSH1 0x0 KECCAK256 ADD SLOAD PUSH2 0x1501 JUMP JUMPDEST PUSH2 0x15A5 JUMP JUMPDEST STOP JUMPDEST CALLVALUE PUSH2 0x16C JUMPI PUSH1 0x0 CALLDATASIZE PUSH1 0x3 NOT ADD SLT PUSH2 0x16C JUMPI PUSH1 0xA0 PUSH1 0x5 SLOAD PUSH1 0x6 SLOAD DUP1 DUP3 GT PUSH1 0x0 EQ PUSH2 0x41D JUMPI PUSH2 0x3F9 DUP2 DUP4 PUSH2 0x1398 JUMP JUMPDEST PUSH1 0x7 SLOAD SWAP1 PUSH1 0x8 SLOAD SWAP3 PUSH1 0x40 MLOAD SWAP5 DUP6 MSTORE PUSH1 0x20 DUP6 ADD MSTORE PUSH1 0x40 DUP5 ADD MSTORE PUSH1 0x60 DUP4 ADD MSTORE PUSH1 0x80 DUP3 ADD MSTORE RETURN JUMPDEST PUSH2 0x427 DUP3 DUP3 PUSH2 0x1398 JUMP JUMPDEST PUSH2 0x3F9 JUMP JUMPDEST CALLVALUE PUSH2 0x16C JUMPI PUSH1 0x60 CALLDATASIZE PUSH1 0x3 NOT ADD SLT PUSH2 0x16C JUMPI PUSH2 0x445 PUSH2 0x13A5 JUMP JUMPDEST PUSH2 0x44D PUSH2 0x13C8 JUMP JUMPDEST PUSH1 0x4 CALLDATALOAD ISZERO PUSH2 0xAEC JUMPI PUSH1 0x24 CALLDATALOAD ISZERO PUSH2 0xAA7 JUMPI PUSH1 0x44 CALLDATALOAD ISZERO PUSH2 0xA62 JUMPI PUSH1 0x40 MLOAD PUSH4 0x23B872DD PUSH1 0xE0 SHL DUP2 MSTORE CALLER PUSH1 0x4 DUP1 DUP4 ADD SWAP2 SWAP1 SWAP2 MSTORE ADDRESS PUSH1 0x24 DUP4 ADD MSTORE CALLDATALOAD PUSH1 0x44 DUP3 ADD MSTORE PUSH1 0x1 PUSH1 0x1 PUSH1 0xA0 SHL SUB PUSH32 0x0 AND SWAP1 PUSH1 0x20 DUP2 PUSH1 0x64 DUP2 PUSH1 0x0 DUP7 GAS CALL SWAP1 DUP2 ISZERO PUSH2 0x2B4 JUMPI PUSH1 0x0 SWAP2 PUSH2 0xA43 JUMPI JUMPDEST POP ISZERO PUSH2 0x9FE JUMPI PUSH1 0x40 MLOAD PUSH4 0x95EA7B3 PUSH1 0xE0 SHL DUP2 MSTORE PUSH1 0x1 PUSH1 0x1 PUSH1 0xA0 SHL SUB PUSH32 0x0 AND PUSH1 0x4 DUP1 DUP4 ADD SWAP2 SWAP1 SWAP2 MSTORE CALLDATALOAD PUSH1 0x24 DUP3 ADD MSTORE PUSH1 0x20 DUP2 PUSH1 0x44 DUP2 PUSH1 0x0 DUP7 GAS CALL DUP1 ISZERO PUSH2 0x2B4 JUMPI PUSH2 0x9DF JUMPI JUMPDEST POP PUSH2 0x12C TIMESTAMP ADD TIMESTAMP GT PUSH2 0x9C9 JUMPI PUSH1 0x20 PUSH2 0x5CA SWAP2 PUSH1 0x40 MLOAD SWAP1 PUSH2 0x54E DUP3 PUSH2 0x12C3 JUMP JUMPDEST DUP2 MSTORE PUSH32 0x0 PUSH1 0x1 PUSH1 0x1 PUSH1 0xA0 SHL SUB AND DUP3 DUP3 ADD MSTORE PUSH2 0xBB8 PUSH1 0x40 DUP1 DUP4 ADD SWAP2 SWAP1 SWAP2 MSTORE ADDRESS PUSH1 0x60 DUP4 ADD MSTORE TIMESTAMP PUSH2 0x12C ADD PUSH1 0x80 DUP4 ADD MSTORE PUSH1 0x4 DUP1 CALLDATALOAD PUSH1 0xA0 DUP5 ADD MSTORE PUSH1 0x24 CALLDATALOAD PUSH1 0xC0 DUP5 ADD MSTORE PUSH1 0x0 PUSH1 0xE0 DUP5 ADD MSTORE SWAP1 MLOAD PUSH4 0x414BF389 PUSH1 0xE0 SHL DUP2 MSTORE SWAP4 DUP5 SWAP3 DUP4 SWAP3 DUP4 ADD PUSH2 0x13E6 JUMP JUMPDEST SUB DUP2 PUSH1 0x0 PUSH32 0x0 PUSH1 0x1 PUSH1 0x1 PUSH1 0xA0 SHL SUB AND GAS CALL SWAP1 DUP2 ISZERO PUSH2 0x2B4 JUMPI PUSH1 0x0 SWAP2 PUSH2 0x997 JUMPI JUMPDEST POP DUP1 ISZERO PUSH2 0x95C JUMPI PUSH1 0x24 CALLDATALOAD DUP2 LT PUSH2 0x918 JUMPI PUSH1 0x40 MLOAD PUSH4 0x95EA7B3 PUSH1 0xE0 SHL DUP2 MSTORE PUSH32 0x0 PUSH1 0x1 PUSH1 0x1 PUSH1 0xA0 SHL SUB AND PUSH1 0x4 DUP3 ADD MSTORE PUSH1 0x24 DUP2 ADD DUP3 SWAP1 MSTORE PUSH1 0x20 DUP2 DUP1 PUSH1 0x44 DUP2 ADD SUB DUP2 PUSH1 0x0 PUSH32 0x0 PUSH1 0x1 PUSH1 0x1 PUSH1 0xA0 SHL SUB AND GAS CALL DUP1 ISZERO PUSH2 0x2B4 JUMPI PUSH2 0x8F9 JUMPI JUMPDEST POP PUSH1 0x40 MLOAD PUSH32 0x0 PUSH1 0x1 PUSH1 0x1 PUSH1 0xA0 SHL SUB AND SWAP2 PUSH2 0x755 SWAP2 PUSH1 0x20 SWAP1 PUSH2 0x6DE DUP2 PUSH2 0x12C3 JUMP JUMPDEST PUSH1 0x1 DUP1 PUSH1 0xA0 SHL SUB PUSH32 0x0 AND DUP2 MSTORE DUP5 DUP3 DUP3 ADD MSTORE PUSH2 0xBB8 PUSH1 0x40 DUP3 ADD MSTORE ADDRESS PUSH1 0x60 DUP3 ADD MSTORE PUSH2 0x12C TIMESTAMP ADD PUSH1 0x80 DUP3 ADD MSTORE DUP3 PUSH1 0xA0 DUP3 ADD MSTORE PUSH1 0x44 CALLDATALOAD PUSH1 0xC0 DUP3 ADD MSTORE PUSH1 0x0 PUSH1 0xE0 DUP3 ADD MSTORE PUSH1 0x40 MLOAD DUP1 SWAP5 DUP2 SWAP3 PUSH4 0x414BF389 PUSH1 0xE0 SHL DUP4 MSTORE PUSH1 0x4 DUP4 ADD PUSH2 0x13E6 JUMP JUMPDEST SUB DUP2 PUSH1 0x0 PUSH32 0x0 PUSH1 0x1 PUSH1 0x1 PUSH1 0xA0 SHL SUB AND GAS CALL SWAP2 DUP3 ISZERO PUSH2 0x2B4 JUMPI PUSH1 0x0 SWAP3 PUSH2 0x8C5 JUMPI JUMPDEST POP PUSH1 0x44 CALLDATALOAD DUP3 LT PUSH2 0x881 JUMPI PUSH1 0x40 MLOAD PUSH4 0xA9059CBB PUSH1 0xE0 SHL DUP2 MSTORE CALLER PUSH1 0x4 DUP3 ADD MSTORE PUSH1 0x24 DUP2 ADD DUP4 SWAP1 MSTORE SWAP3 PUSH1 0x20 SWAP1 DUP5 SWAP1 PUSH1 0x44 SWAP1 DUP3 SWAP1 PUSH1 0x0 SWAP1 GAS CALL SWAP3 DUP4 ISZERO PUSH2 0x2B4 JUMPI PUSH1 0x20 SWAP4 PUSH2 0x7E4 SWAP2 PUSH1 0x0 SWAP2 PUSH2 0x864 JUMPI JUMPDEST POP PUSH2 0x1330 JUMP JUMPDEST PUSH2 0x7F0 DUP3 PUSH1 0x6 SLOAD PUSH2 0x137C JUMP JUMPDEST PUSH1 0x6 SSTORE PUSH2 0x7FF DUP2 PUSH1 0x7 SLOAD PUSH2 0x137C JUMP JUMPDEST PUSH1 0x7 SSTORE PUSH2 0x80D PUSH1 0x8 SLOAD PUSH2 0x1389 JUMP JUMPDEST PUSH1 0x8 SSTORE PUSH32 0xDFEF462DA6D7E712F2E69FD1113692D86E3A91DCACFAF88E85E2111074E417A3 PUSH1 0x40 MLOAD DUP1 PUSH2 0x855 DUP6 CALLER SWAP6 PUSH1 0x4 CALLDATALOAD DUP5 PUSH1 0x40 SWAP2 SWAP5 SWAP4 SWAP3 PUSH1 0x60 DUP3 ADD SWAP6 DUP3 MSTORE PUSH1 0x20 DUP3 ADD MSTORE ADD MSTORE JUMP JUMPDEST SUB SWAP1 LOG2 PUSH1 0x1 DUP1 SSTORE PUSH1 0x40 MLOAD SWAP1 DUP2 MSTORE RETURN JUMPDEST PUSH2 0x87B SWAP2 POP DUP6 RETURNDATASIZE DUP8 GT PUSH2 0x2AD JUMPI PUSH2 0x29F DUP2 DUP4 PUSH2 0x12F6 JUMP JUMPDEST DUP6 PUSH2 0x7DE JUMP JUMPDEST PUSH1 0x64 PUSH1 0x40 MLOAD PUSH3 0x461BCD PUSH1 0xE5 SHL DUP2 MSTORE PUSH1 0x20 PUSH1 0x4 DUP3 ADD MSTORE PUSH1 0x20 PUSH1 0x24 DUP3 ADD MSTORE PUSH32 0x526F757465723A20696E73756666696369656E742044555354206F7574707574 PUSH1 0x44 DUP3 ADD MSTORE REVERT JUMPDEST SWAP1 SWAP2 POP PUSH1 0x20 DUP2 RETURNDATASIZE PUSH1 0x20 GT PUSH2 0x8F1 JUMPI JUMPDEST DUP2 PUSH2 0x8E1 PUSH1 0x20 SWAP4 DUP4 PUSH2 0x12F6 JUMP JUMPDEST DUP2 ADD SUB SLT PUSH2 0x16C JUMPI MLOAD SWAP1 DUP4 PUSH2 0x794 JUMP JUMPDEST RETURNDATASIZE SWAP2 POP PUSH2 0x8D4 JUMP JUMPDEST PUSH2 0x911 SWAP1 PUSH1 0x20 RETURNDATASIZE PUSH1 0x20 GT PUSH2 0x2AD JUMPI PUSH2 0x29F DUP2 DUP4 PUSH2 0x12F6 JUMP JUMPDEST POP DUP2 PUSH2 0x69F JUMP JUMPDEST PUSH1 0x64 PUSH1 0x40 MLOAD PUSH3 0x461BCD PUSH1 0xE5 SHL DUP2 MSTORE PUSH1 0x20 PUSH1 0x4 DUP3 ADD MSTORE PUSH1 0x20 PUSH1 0x24 DUP3 ADD MSTORE PUSH32 0x526F757465723A20696E73756666696369656E742055534443206F7574707574 PUSH1 0x44 DUP3 ADD MSTORE REVERT JUMPDEST PUSH1 0x40 MLOAD PUSH3 0x461BCD PUSH1 0xE5 SHL DUP2 MSTORE PUSH1 0x20 PUSH1 0x4 DUP3 ADD MSTORE PUSH1 0x13 PUSH1 0x24 DUP3 ADD MSTORE PUSH19 0x149BDD5D195C8E881CDDD85C0819985A5B1959 PUSH1 0x6A SHL PUSH1 0x44 DUP3 ADD MSTORE PUSH1 0x64 SWAP1 REVERT JUMPDEST SWAP1 POP PUSH1 0x20 DUP2 RETURNDATASIZE PUSH1 0x20 GT PUSH2 0x9C1 JUMPI JUMPDEST DUP2 PUSH2 0x9B2 PUSH1 0x20 SWAP4 DUP4 PUSH2 0x12F6 JUMP JUMPDEST DUP2 ADD SUB SLT PUSH2 0x16C JUMPI MLOAD DUP2 PUSH2 0x609 JUMP JUMPDEST RETURNDATASIZE SWAP2 POP PUSH2 0x9A5 JUMP JUMPDEST PUSH4 0x4E487B71 PUSH1 0xE0 SHL PUSH1 0x0 MSTORE PUSH1 0x11 PUSH1 0x4 MSTORE PUSH1 0x24 PUSH1 0x0 REVERT JUMPDEST PUSH2 0x9F7 SWAP1 PUSH1 0x20 RETURNDATASIZE PUSH1 0x20 GT PUSH2 0x2AD JUMPI PUSH2 0x29F DUP2 DUP4 PUSH2 0x12F6 JUMP JUMPDEST POP DUP2 PUSH2 0x52F JUMP JUMPDEST PUSH1 0x40 MLOAD PUSH3 0x461BCD PUSH1 0xE5 SHL DUP2 MSTORE PUSH1 0x20 PUSH1 0x4 DUP3 ADD MSTORE PUSH1 0x1E PUSH1 0x24 DUP3 ADD MSTORE PUSH32 0x526F757465723A20737455534443207472616E73666572206661696C65640000 PUSH1 0x44 DUP3 ADD MSTORE PUSH1 0x64 SWAP1 REVERT JUMPDEST PUSH2 0xA5C SWAP2 POP PUSH1 0x20 RETURNDATASIZE PUSH1 0x20 GT PUSH2 0x2AD JUMPI PUSH2 0x29F DUP2 DUP4 PUSH2 0x12F6 JUMP JUMPDEST DUP3 PUSH2 0x4CD JUMP JUMPDEST PUSH1 0x40 MLOAD PUSH3 0x461BCD PUSH1 0xE5 SHL DUP2 MSTORE PUSH1 0x20 PUSH1 0x4 DUP3 ADD MSTORE PUSH1 0x17 PUSH1 0x24 DUP3 ADD MSTORE PUSH32 0x526F757465723A206D696E447573744F7574207A65726F000000000000000000 PUSH1 0x44 DUP3 ADD MSTORE PUSH1 0x64 SWAP1 REVERT JUMPDEST PUSH1 0x40 MLOAD PUSH3 0x461BCD PUSH1 0xE5 SHL DUP2 MSTORE PUSH1 0x20 PUSH1 0x4 DUP3 ADD MSTORE PUSH1 0x17 PUSH1 0x24 DUP3 ADD MSTORE PUSH32 0x526F757465723A206D696E557364634F7574207A65726F000000000000000000 PUSH1 0x44 DUP3 ADD MSTORE PUSH1 0x64 SWAP1 REVERT JUMPDEST PUSH1 0x40 MLOAD PUSH3 0x461BCD PUSH1 0xE5 SHL DUP2 MSTORE PUSH1 0x20 PUSH1 0x4 DUP3 ADD MSTORE PUSH1 0x13 PUSH1 0x24 DUP3 ADD MSTORE PUSH19 0x149BDD5D195C8E881E995C9BC8185B5BDD5B9D PUSH1 0x6A SHL PUSH1 0x44 DUP3 ADD MSTORE PUSH1 0x64 SWAP1 REVERT JUMPDEST CALLVALUE PUSH2 0x16C JUMPI PUSH1 0x0 CALLDATASIZE PUSH1 0x3 NOT ADD SLT PUSH2 0x16C JUMPI PUSH1 0x20 PUSH1 0x40 MLOAD PUSH1 0x0 DUP2 MSTORE RETURN JUMPDEST CALLVALUE PUSH2 0x16C JUMPI PUSH1 0x40 CALLDATASIZE PUSH1 0x3 NOT ADD SLT PUSH2 0x16C JUMPI PUSH2 0xB5C PUSH2 0x12AD JUMP JUMPDEST PUSH1 0x4 CALLDATALOAD PUSH1 0x0 MSTORE PUSH1 0x0 PUSH1 0x20 MSTORE PUSH1 0x40 PUSH1 0x0 KECCAK256 SWAP1 PUSH1 0x1 DUP1 PUSH1 0xA0 SHL SUB AND PUSH1 0x0 MSTORE PUSH1 0x20 MSTORE PUSH1 0x20 PUSH1 0xFF PUSH1 0x40 PUSH1 0x0 KECCAK256 SLOAD AND PUSH1 0x40 MLOAD SWAP1 ISZERO ISZERO DUP2 MSTORE RETURN JUMPDEST CALLVALUE PUSH2 0x16C JUMPI PUSH1 0x0 CALLDATASIZE PUSH1 0x3 NOT ADD SLT PUSH2 0x16C JUMPI PUSH1 0x20 PUSH1 0x3 SLOAD PUSH1 0x40 MLOAD SWAP1 DUP2 MSTORE RETURN JUMPDEST CALLVALUE PUSH2 0x16C JUMPI PUSH2 0xBBC CALLDATASIZE PUSH2 0x1297 JUMP JUMPDEST PUSH2 0xBC4 PUSH2 0x14C7 JUMP JUMPDEST PUSH2 0x3E8 DUP3 GT PUSH2 0xC07 JUMPI DUP2 PUSH1 0x40 SWAP2 PUSH32 0xFACCB0639FF7851E0E24F3B2D9AB03CD62FFB63F5B4D90AAEFF85BB078C1FA48 SWAP4 PUSH1 0x3 SSTORE DUP1 PUSH1 0x4 SSTORE DUP3 MLOAD SWAP2 DUP3 MSTORE PUSH1 0x20 DUP3 ADD MSTORE LOG1 STOP JUMPDEST PUSH1 0x40 MLOAD PUSH3 0x461BCD PUSH1 0xE5 SHL DUP2 MSTORE PUSH1 0x20 PUSH1 0x4 DUP3 ADD MSTORE PUSH1 0x19 PUSH1 0x24 DUP3 ADD MSTORE PUSH32 0x526F757465723A20736C69707061676520746F6F206869676800000000000000 PUSH1 0x44 DUP3 ADD MSTORE PUSH1 0x64 SWAP1 REVERT JUMPDEST CALLVALUE PUSH2 0x16C JUMPI PUSH1 0x0 CALLDATASIZE PUSH1 0x3 NOT ADD SLT PUSH2 0x16C JUMPI PUSH2 0xC65 PUSH2 0x144D JUMP JUMPDEST PUSH2 0xC6D PUSH2 0x13C8 JUMP JUMPDEST PUSH1 0x1 PUSH1 0xFF NOT PUSH1 0x2 SLOAD AND OR PUSH1 0x2 SSTORE PUSH32 0x62E78CEA01BEE320CD4E420270B5EA74000D11B0C9F74754EBDBFC544B05A258 PUSH1 0x20 PUSH1 0x40 MLOAD CALLER DUP2 MSTORE LOG1 STOP JUMPDEST CALLVALUE PUSH2 0x16C JUMPI PUSH1 0x0 CALLDATASIZE PUSH1 0x3 NOT ADD SLT PUSH2 0x16C JUMPI PUSH1 0x40 MLOAD PUSH32 0x0 PUSH1 0x1 PUSH1 0x1 PUSH1 0xA0 SHL SUB AND DUP2 MSTORE PUSH1 0x20 SWAP1 RETURN JUMPDEST CALLVALUE PUSH2 0x16C JUMPI PUSH1 0x0 CALLDATASIZE PUSH1 0x3 NOT ADD SLT PUSH2 0x16C JUMPI PUSH1 0x20 PUSH1 0xFF PUSH1 0x2 SLOAD AND PUSH1 0x40 MLOAD SWAP1 ISZERO ISZERO DUP2 MSTORE RETURN JUMPDEST CALLVALUE PUSH2 0x16C JUMPI PUSH1 0x0 CALLDATASIZE PUSH1 0x3 NOT ADD SLT PUSH2 0x16C JUMPI PUSH2 0xD27 PUSH2 0x144D JUMP JUMPDEST PUSH1 0x2 SLOAD PUSH1 0xFF DUP2 AND ISZERO PUSH2 0xD66 JUMPI PUSH1 0xFF NOT AND PUSH1 0x2 SSTORE PUSH32 0x5DB9EE0A495BF2E6FF9C91A7834C1BA4FDD244A5E8AA4E537BD38AEAE4B073AA PUSH1 0x20 PUSH1 0x40 MLOAD CALLER DUP2 MSTORE LOG1 STOP JUMPDEST PUSH1 0x40 MLOAD PUSH4 0x8DFC202B PUSH1 0xE0 SHL DUP2 MSTORE PUSH1 0x4 SWAP1 REVERT JUMPDEST CALLVALUE PUSH2 0x16C JUMPI PUSH1 0x0 CALLDATASIZE PUSH1 0x3 NOT ADD SLT PUSH2 0x16C JUMPI PUSH1 0x40 MLOAD PUSH32 0x0 PUSH1 0x1 PUSH1 0x1 PUSH1 0xA0 SHL SUB AND DUP2 MSTORE PUSH1 0x20 SWAP1 RETURN JUMPDEST CALLVALUE PUSH2 0x16C JUMPI PUSH1 0x40 CALLDATASIZE PUSH1 0x3 NOT ADD SLT PUSH2 0x16C JUMPI PUSH2 0xDD6 PUSH2 0x12AD JUMP JUMPDEST CALLER PUSH1 0x1 PUSH1 0x1 PUSH1 0xA0 SHL SUB DUP3 AND SUB PUSH2 0xDF2 JUMPI PUSH2 0x3CA SWAP1 PUSH1 0x4 CALLDATALOAD PUSH2 0x15A5 JUMP JUMPDEST PUSH1 0x40 MLOAD PUSH4 0x334BD919 PUSH1 0xE1 SHL DUP2 MSTORE PUSH1 0x4 SWAP1 REVERT JUMPDEST CALLVALUE PUSH2 0x16C JUMPI PUSH1 0x0 CALLDATASIZE PUSH1 0x3 NOT ADD SLT PUSH2 0x16C JUMPI PUSH1 0x20 PUSH1 0x4 SLOAD PUSH1 0x40 MLOAD SWAP1 DUP2 MSTORE RETURN JUMPDEST CALLVALUE PUSH2 0x16C JUMPI PUSH1 0x40 CALLDATASIZE PUSH1 0x3 NOT ADD SLT PUSH2 0x16C JUMPI PUSH2 0x3CA PUSH1 0x4 CALLDATALOAD PUSH2 0xE41 PUSH2 0x12AD JUMP JUMPDEST SWAP1 DUP1 PUSH1 0x0 MSTORE PUSH1 0x0 PUSH1 0x20 MSTORE PUSH2 0xE5C PUSH1 0x1 PUSH1 0x40 PUSH1 0x0 KECCAK256 ADD SLOAD PUSH2 0x1501 JUMP JUMPDEST PUSH2 0x1527 JUMP JUMPDEST CALLVALUE PUSH2 0x16C JUMPI PUSH1 0x20 CALLDATASIZE PUSH1 0x3 NOT ADD SLT PUSH2 0x16C JUMPI PUSH1 0x4 CALLDATALOAD PUSH1 0x0 MSTORE PUSH1 0x0 PUSH1 0x20 MSTORE PUSH1 0x20 PUSH1 0x1 PUSH1 0x40 PUSH1 0x0 KECCAK256 ADD SLOAD PUSH1 0x40 MLOAD SWAP1 DUP2 MSTORE RETURN JUMPDEST CALLVALUE PUSH2 0x16C JUMPI PUSH2 0xE9E CALLDATASIZE PUSH2 0x1297 JUMP JUMPDEST PUSH2 0xEA6 PUSH2 0x13A5 JUMP JUMPDEST PUSH2 0xEAE PUSH2 0x13C8 JUMP JUMPDEST PUSH1 0x4 SLOAD DUP3 LT PUSH2 0x1206 JUMPI PUSH1 0x40 MLOAD PUSH4 0x23B872DD PUSH1 0xE0 SHL DUP2 MSTORE CALLER PUSH1 0x4 DUP3 ADD MSTORE ADDRESS PUSH1 0x24 DUP3 ADD MSTORE PUSH1 0x44 DUP2 ADD DUP4 SWAP1 MSTORE PUSH1 0x20 SWAP3 SWAP1 PUSH1 0x1 PUSH1 0x1 PUSH1 0xA0 SHL SUB SWAP1 PUSH32 0x0 DUP3 AND SWAP1 DUP6 DUP2 PUSH1 0x64 DUP2 PUSH1 0x0 DUP7 GAS CALL DUP1 ISZERO PUSH2 0x2B4 JUMPI PUSH2 0xF29 SWAP2 PUSH1 0x0 SWAP2 PUSH2 0x11E9 JUMPI POP PUSH2 0x1330 JUMP JUMPDEST PUSH1 0x40 MLOAD PUSH4 0x95EA7B3 PUSH1 0xE0 SHL DUP1 DUP3 MSTORE PUSH32 0x0 DUP5 AND PUSH1 0x1 PUSH1 0x1 PUSH1 0xA0 SHL SUB DUP2 AND PUSH1 0x4 DUP5 ADD MSTORE PUSH1 0x24 DUP4 ADD DUP7 SWAP1 MSTORE SWAP1 SWAP6 SWAP1 SWAP3 SWAP2 DUP8 DUP2 PUSH1 0x44 DUP2 PUSH1 0x0 DUP8 GAS CALL DUP1 ISZERO PUSH2 0x2B4 JUMPI PUSH2 0x11CC JUMPI JUMPDEST POP DUP4 PUSH32 0x0 AND SWAP3 PUSH2 0x12C TIMESTAMP ADD SWAP1 DUP2 TIMESTAMP GT PUSH2 0x9C9 JUMPI PUSH1 0x0 SWAP4 DUP10 SWAP4 PUSH2 0x1019 SWAP4 PUSH1 0x40 MLOAD SWAP3 PUSH2 0xFD2 DUP5 PUSH2 0x12C3 JUMP JUMPDEST DUP4 MSTORE DUP8 DUP7 DUP5 ADD MSTORE PUSH2 0xBB8 PUSH1 0x40 DUP5 ADD MSTORE ADDRESS PUSH1 0x60 DUP5 ADD MSTORE PUSH1 0x80 DUP4 ADD MSTORE DUP9 PUSH1 0xA0 DUP4 ADD MSTORE PUSH1 0xC0 DUP3 ADD MSTORE DUP5 PUSH1 0xE0 DUP3 ADD MSTORE PUSH1 0x40 MLOAD SWAP5 DUP6 DUP1 SWAP5 DUP2 SWAP4 PUSH4 0x414BF389 PUSH1 0xE0 SHL DUP4 MSTORE PUSH1 0x4 DUP4 ADD PUSH2 0x13E6 JUMP JUMPDEST SUB SWAP3 GAS CALL SWAP3 DUP4 ISZERO PUSH2 0x2B4 JUMPI DUP7 SWAP2 PUSH1 0x0 SWAP5 PUSH2 0x119B JUMPI JUMPDEST POP PUSH1 0x40 MLOAD SWAP6 DUP7 MSTORE PUSH32 0x0 AND PUSH1 0x1 PUSH1 0x1 PUSH1 0xA0 SHL SUB DUP2 AND PUSH1 0x4 DUP8 ADD MSTORE PUSH1 0x24 DUP7 ADD DUP5 SWAP1 MSTORE SWAP5 SWAP2 DUP3 SWAP1 DUP2 PUSH1 0x0 DUP2 PUSH1 0x44 DUP2 ADD SUB SWAP3 GAS CALL DUP1 ISZERO PUSH2 0x2B4 JUMPI PUSH2 0x117E JUMPI JUMPDEST POP PUSH1 0x40 MLOAD PUSH4 0x16CC3DA3 PUSH1 0xE2 SHL DUP2 MSTORE CALLER PUSH1 0x4 DUP3 ADD MSTORE PUSH1 0x24 DUP2 ADD DUP3 SWAP1 MSTORE SWAP3 DUP5 SWAP1 DUP5 SWAP1 PUSH1 0x44 SWAP1 DUP3 SWAP1 PUSH1 0x0 SWAP1 GAS CALL SWAP3 DUP4 ISZERO PUSH2 0x2B4 JUMPI PUSH1 0x0 SWAP4 PUSH2 0x112F JUMPI JUMPDEST POP DUP3 PUSH32 0x16737B8C514BB0BDE161519D0CBDBB3176E5835B6175BF3D1254D115DFD37DFA SWAP2 PUSH2 0x10F1 DUP5 PUSH1 0x5 SLOAD PUSH2 0x137C JUMP JUMPDEST PUSH1 0x5 SSTORE PUSH2 0x1100 DUP2 PUSH1 0x7 SLOAD PUSH2 0x137C JUMP JUMPDEST PUSH1 0x7 SSTORE PUSH2 0x110E PUSH1 0x8 SLOAD PUSH2 0x1389 JUMP JUMPDEST PUSH1 0x8 SSTORE PUSH1 0x40 DUP1 MLOAD SWAP5 DUP6 MSTORE PUSH1 0x20 DUP6 ADD SWAP2 SWAP1 SWAP2 MSTORE DUP4 ADD MSTORE CALLER SWAP2 DUP1 PUSH1 0x60 DUP2 ADD PUSH2 0x855 JUMP JUMPDEST SWAP1 SWAP3 POP DUP4 DUP2 DUP2 RETURNDATASIZE DUP4 GT PUSH2 0x1177 JUMPI JUMPDEST PUSH2 0x1147 DUP2 DUP4 PUSH2 0x12F6 JUMP JUMPDEST DUP2 ADD SUB SLT PUSH2 0x16C JUMPI MLOAD SWAP2 PUSH32 0x16737B8C514BB0BDE161519D0CBDBB3176E5835B6175BF3D1254D115DFD37DFA PUSH2 0x10C1 JUMP JUMPDEST POP RETURNDATASIZE PUSH2 0x113D JUMP JUMPDEST PUSH2 0x1194 SWAP1 DUP6 RETURNDATASIZE DUP8 GT PUSH2 0x2AD JUMPI PUSH2 0x29F DUP2 DUP4 PUSH2 0x12F6 JUMP JUMPDEST POP DUP5 PUSH2 0x1088 JUMP JUMPDEST DUP3 DUP2 SWAP4 SWAP3 SWAP6 POP RETURNDATASIZE DUP4 GT PUSH2 0x11C5 JUMPI JUMPDEST PUSH2 0x11B3 DUP2 DUP4 PUSH2 0x12F6 JUMP JUMPDEST DUP2 ADD SUB SLT PUSH2 0x16C JUMPI DUP6 SWAP1 MLOAD SWAP3 DUP8 PUSH2 0x102E JUMP JUMPDEST POP RETURNDATASIZE PUSH2 0x11A9 JUMP JUMPDEST PUSH2 0x11E2 SWAP1 DUP9 RETURNDATASIZE DUP11 GT PUSH2 0x2AD JUMPI PUSH2 0x29F DUP2 DUP4 PUSH2 0x12F6 JUMP JUMPDEST POP DUP8 PUSH2 0xF8A JUMP JUMPDEST PUSH2 0x1200 SWAP2 POP DUP8 RETURNDATASIZE DUP10 GT PUSH2 0x2AD JUMPI PUSH2 0x29F DUP2 DUP4 PUSH2 0x12F6 JUMP JUMPDEST DUP8 PUSH2 0x7DE JUMP JUMPDEST PUSH1 0x40 MLOAD PUSH3 0x461BCD PUSH1 0xE5 SHL DUP2 MSTORE PUSH1 0x20 PUSH1 0x4 DUP3 ADD MSTORE PUSH1 0x16 PUSH1 0x24 DUP3 ADD MSTORE PUSH22 0x526F757465723A20616D6F756E7420746F6F206C6F77 PUSH1 0x50 SHL PUSH1 0x44 DUP3 ADD MSTORE PUSH1 0x64 SWAP1 REVERT JUMPDEST CALLVALUE PUSH2 0x16C JUMPI PUSH1 0x20 CALLDATASIZE PUSH1 0x3 NOT ADD SLT PUSH2 0x16C JUMPI PUSH1 0x4 CALLDATALOAD SWAP1 PUSH4 0xFFFFFFFF PUSH1 0xE0 SHL DUP3 AND DUP1 SWAP3 SUB PUSH2 0x16C JUMPI PUSH1 0x20 SWAP2 PUSH4 0x7965DB0B PUSH1 0xE0 SHL DUP2 EQ SWAP1 DUP2 ISZERO PUSH2 0x1286 JUMPI JUMPDEST POP ISZERO ISZERO DUP2 MSTORE RETURN JUMPDEST PUSH4 0x1FFC9A7 PUSH1 0xE0 SHL EQ SWAP1 POP DUP4 PUSH2 0x127F JUMP JUMPDEST PUSH1 0x40 SWAP1 PUSH1 0x3 NOT ADD SLT PUSH2 0x16C JUMPI PUSH1 0x4 CALLDATALOAD SWAP1 PUSH1 0x24 CALLDATALOAD SWAP1 JUMP JUMPDEST PUSH1 0x24 CALLDATALOAD SWAP1 PUSH1 0x1 PUSH1 0x1 PUSH1 0xA0 SHL SUB DUP3 AND DUP3 SUB PUSH2 0x16C JUMPI JUMP JUMPDEST PUSH2 0x100 DUP2 ADD SWAP1 DUP2 LT PUSH8 0xFFFFFFFFFFFFFFFF DUP3 GT OR PUSH2 0x12E0 JUMPI PUSH1 0x40 MSTORE JUMP JUMPDEST PUSH4 0x4E487B71 PUSH1 0xE0 SHL PUSH1 0x0 MSTORE PUSH1 0x41 PUSH1 0x4 MSTORE PUSH1 0x24 PUSH1 0x0 REVERT JUMPDEST SWAP1 PUSH1 0x1F DUP1 NOT SWAP2 ADD AND DUP2 ADD SWAP1 DUP2 LT PUSH8 0xFFFFFFFFFFFFFFFF DUP3 GT OR PUSH2 0x12E0 JUMPI PUSH1 0x40 MSTORE JUMP JUMPDEST SWAP1 DUP2 PUSH1 0x20 SWAP2 SUB SLT PUSH2 0x16C JUMPI MLOAD DUP1 ISZERO ISZERO DUP2 SUB PUSH2 0x16C JUMPI SWAP1 JUMP JUMPDEST ISZERO PUSH2 0x1337 JUMPI JUMP JUMPDEST PUSH1 0x40 MLOAD PUSH3 0x461BCD PUSH1 0xE5 SHL DUP2 MSTORE PUSH1 0x20 PUSH1 0x4 DUP3 ADD MSTORE PUSH1 0x1C PUSH1 0x24 DUP3 ADD MSTORE PUSH32 0x526F757465723A2044555354207472616E73666572206661696C656400000000 PUSH1 0x44 DUP3 ADD MSTORE PUSH1 0x64 SWAP1 REVERT JUMPDEST SWAP2 SWAP1 DUP3 ADD DUP1 SWAP3 GT PUSH2 0x9C9 JUMPI JUMP JUMPDEST PUSH1 0x0 NOT DUP2 EQ PUSH2 0x9C9 JUMPI PUSH1 0x1 ADD SWAP1 JUMP JUMPDEST SWAP2 SWAP1 DUP3 SUB SWAP2 DUP3 GT PUSH2 0x9C9 JUMPI JUMP JUMPDEST PUSH1 0x2 PUSH1 0x1 SLOAD EQ PUSH2 0x13B6 JUMPI PUSH1 0x2 PUSH1 0x1 SSTORE JUMP JUMPDEST PUSH1 0x40 MLOAD PUSH4 0x3EE5AEB5 PUSH1 0xE0 SHL DUP2 MSTORE PUSH1 0x4 SWAP1 REVERT JUMPDEST PUSH1 0xFF PUSH1 0x2 SLOAD AND PUSH2 0x13D4 JUMPI JUMP JUMPDEST PUSH1 0x40 MLOAD PUSH4 0xD93C0665 PUSH1 0xE0 SHL DUP2 MSTORE PUSH1 0x4 SWAP1 REVERT JUMPDEST SWAP2 SWAP1 SWAP2 PUSH1 0xE0 PUSH2 0x100 DUP3 ADD SWAP4 DUP2 PUSH1 0x1 DUP1 PUSH1 0xA0 SHL SUB SWAP2 DUP3 DUP2 MLOAD AND DUP6 MSTORE DUP3 PUSH1 0x20 DUP3 ADD MLOAD AND PUSH1 0x20 DUP7 ADD MSTORE PUSH3 0xFFFFFF PUSH1 0x40 DUP3 ADD MLOAD AND PUSH1 0x40 DUP7 ADD MSTORE DUP3 PUSH1 0x60 DUP3 ADD MLOAD AND PUSH1 0x60 DUP7 ADD MSTORE PUSH1 0x80 DUP2 ADD MLOAD PUSH1 0x80 DUP7 ADD MSTORE PUSH1 0xA0 DUP2 ADD MLOAD PUSH1 0xA0 DUP7 ADD MSTORE PUSH1 0xC0 DUP2 ADD MLOAD PUSH1 0xC0 DUP7 ADD MSTORE ADD MLOAD AND SWAP2 ADD MSTORE JUMP JUMPDEST CALLER PUSH1 0x0 SWAP1 DUP2 MSTORE PUSH32 0xF7C9542C591017A21C74B6F3FAB6263C7952FC0AAF9DB4C22A2A04DDC7F8674F PUSH1 0x20 MSTORE PUSH1 0x40 SWAP1 KECCAK256 SLOAD PUSH32 0x65D7A28E3265B37A6474929F336521B332C1681B933F6CB9F3376673440D862A SWAP1 PUSH1 0xFF AND ISZERO PUSH2 0x14A9 JUMPI POP JUMP JUMPDEST PUSH1 0x44 SWAP1 PUSH1 0x40 MLOAD SWAP1 PUSH4 0xE2517D3F PUSH1 0xE0 SHL DUP3 MSTORE CALLER PUSH1 0x4 DUP4 ADD MSTORE PUSH1 0x24 DUP3 ADD MSTORE REVERT JUMPDEST CALLER PUSH1 0x0 SWAP1 DUP2 MSTORE PUSH32 0xAD3228B676F7D3CD4284A5443F17F1962B36E491B30A40B2405849E597BA5FB5 PUSH1 0x20 MSTORE PUSH1 0x40 DUP2 KECCAK256 SLOAD PUSH1 0xFF AND ISZERO PUSH2 0x14A9 JUMPI POP JUMP JUMPDEST DUP1 PUSH1 0x0 MSTORE PUSH1 0x0 PUSH1 0x20 MSTORE PUSH1 0x40 PUSH1 0x0 KECCAK256 CALLER PUSH1 0x0 MSTORE PUSH1 0x20 MSTORE PUSH1 0xFF PUSH1 0x40 PUSH1 0x0 KECCAK256 SLOAD AND ISZERO PUSH2 0x14A9 JUMPI POP JUMP JUMPDEST SWAP1 PUSH1 0x0 SWAP2 DUP1 DUP4 MSTORE DUP3 PUSH1 0x20 MSTORE PUSH1 0x40 DUP4 KECCAK256 SWAP2 PUSH1 0x1 DUP1 PUSH1 0xA0 SHL SUB AND SWAP2 DUP3 DUP5 MSTORE PUSH1 0x20 MSTORE PUSH1 0xFF PUSH1 0x40 DUP5 KECCAK256 SLOAD AND ISZERO PUSH1 0x0 EQ PUSH2 0x15A0 JUMPI DUP1 DUP4 MSTORE DUP3 PUSH1 0x20 MSTORE PUSH1 0x40 DUP4 KECCAK256 DUP3 DUP5 MSTORE PUSH1 0x20 MSTORE PUSH1 0x40 DUP4 KECCAK256 PUSH1 0x1 PUSH1 0xFF NOT DUP3 SLOAD AND OR SWAP1 SSTORE PUSH32 0x2F8788117E7EFF1D82E926EC794901D17C78024A50270940304540A733656F0D CALLER SWAP4 DUP1 LOG4 PUSH1 0x1 SWAP1 JUMP JUMPDEST POP POP SWAP1 JUMP JUMPDEST SWAP1 PUSH1 0x0 SWAP2 DUP1 DUP4 MSTORE DUP3 PUSH1 0x20 MSTORE PUSH1 0x40 DUP4 KECCAK256 SWAP2 PUSH1 0x1 DUP1 PUSH1 0xA0 SHL SUB AND SWAP2 DUP3 DUP5 MSTORE PUSH1 0x20 MSTORE PUSH1 0xFF PUSH1 0x40 DUP5 KECCAK256 SLOAD AND PUSH1 0x0 EQ PUSH2 0x15A0 JUMPI DUP1 DUP4 MSTORE DUP3 PUSH1 0x20 MSTORE PUSH1 0x40 DUP4 KECCAK256 DUP3 DUP5 MSTORE PUSH1 0x20 MSTORE PUSH1 0x40 DUP4 KECCAK256 PUSH1 0xFF NOT DUP2 SLOAD AND SWAP1 SSTORE PUSH32 0xF6391F5C32D9C69D2A47EA670B442974B53935D1EDC7FD64EB21E047A839171B CALLER SWAP4 DUP1 LOG4 PUSH1 0x1 SWAP1 JUMP INVALID LOG2 PUSH5 0x6970667358 0x22 SLT KECCAK256 0xA7 0x4B PUSH8 0x48C0E6B0F2307F3C DUP10 0xAC SELFBALANCE 0xED XOR PUSH21 0xE4A087EE1877BF9011BF07C68A2B1364736F6C6343 STOP ADDMOD XOR STOP CALLER 0x2F DUP8 DUP9 GT PUSH31 0x7EFF1D82E926EC794901D17C78024A50270940304540A733656F0D00000000 "},"methodIdentifiers":{"DEFAULT_ADMIN_ROLE()":"a217fddf","PAUSER_ROLE()":"e63ab1e9","POOL_FEE()":"dd1b9c4a","depositWithDUST(uint256,uint256)":"1db447bf","dust()":"fad9aba3","emergencyWithdraw(address,address,uint256)":"e63ea408","getRoleAdmin(bytes32)":"248a9ca3","getRouterStats()":"d146de40","grantRole(bytes32,address)":"2f2ff15d","hasRole(bytes32,address)":"91d14854","maxSlippage()":"8c04166f","minSwapAmount()":"338246e2","pause()":"8456cb59","paused()":"5c975abb","renounceRole(bytes32,address)":"36568abe","revokeRole(bytes32,address)":"d547741f","setParameters(uint256,uint256)":"884870c7","stats()":"d80528ae","supportsInterface(bytes4)":"01ffc9a7","uniswapRouter()":"735de9f7","unpause()":"3f4ba83a","usdc()":"3e413bee","vault()":"fbfa77cf","withdrawToDUST(uint256,uint256,uint256)":"c8726473"}}}}}