{"src/DUSTBridge.sol":{"DUSTBridge":{"abi":[{"inputs":[{"internalType":"address","name":"_dustToken","type":"address"}],"stateMutability":"nonpayable","type":"constructor"},{"inputs":[],"name":"AccessControlBadConfirmation","type":"error"},{"inputs":[{"internalType":"address","name":"account","type":"address"},{"internalType":"bytes32","name":"neededRole","type":"bytes32"}],"name":"AccessControlUnauthorizedAccount","type":"error"},{"inputs":[],"name":"EnforcedPause","type":"error"},{"inputs":[],"name":"ExpectedPause","type":"error"},{"inputs":[],"name":"ReentrancyGuardReentrantCall","type":"error"},{"anonymous":false,"inputs":[{"indexed":true,"internalType":"address","name":"from","type":"address"},{"indexed":false,"internalType":"uint256","name":"amount","type":"uint256"},{"indexed":false,"internalType":"bytes","name":"substrateAddress","type":"bytes"},{"indexed":false,"internalType":"bytes32","name":"arbitrumTxHash","type":"bytes32"}],"name":"BridgeBack","type":"event"},{"anonymous":false,"inputs":[{"indexed":true,"internalType":"uint64","name":"bridgeId","type":"uint64"},{"indexed":true,"internalType":"address","name":"to","type":"address"},{"indexed":false,"internalType":"uint256","name":"amount","type":"uint256"},{"indexed":false,"internalType":"bytes32","name":"stardustTxHash","type":"bytes32"}],"name":"BridgeMint","type":"event"},{"anonymous":false,"inputs":[{"indexed":false,"internalType":"uint256","name":"minAmount","type":"uint256"},{"indexed":false,"internalType":"uint256","name":"maxAmount","type":"uint256"}],"name":"LimitsUpdated","type":"event"},{"anonymous":false,"inputs":[{"indexed":false,"internalType":"address","name":"account","type":"address"}],"name":"Paused","type":"event"},{"anonymous":false,"inputs":[{"indexed":true,"internalType":"bytes32","name":"role","type":"bytes32"},{"indexed":true,"internalType":"bytes32","name":"previousAdminRole","type":"bytes32"},{"indexed":true,"internalType":"bytes32","name":"newAdminRole","type":"bytes32"}],"name":"RoleAdminChanged","type":"event"},{"anonymous":false,"inputs":[{"indexed":true,"internalType":"bytes32","name":"role","type":"bytes32"},{"indexed":true,"internalType":"address","name":"account","type":"address"},{"indexed":true,"internalType":"address","name":"sender","type":"address"}],"name":"RoleGranted","type":"event"},{"anonymous":false,"inputs":[{"indexed":true,"internalType":"bytes32","name":"role","type":"bytes32"},{"indexed":true,"internalType":"address","name":"account","type":"address"},{"indexed":true,"internalType":"address","name":"sender","type":"address"}],"name":"RoleRevoked","type":"event"},{"anonymous":false,"inputs":[{"indexed":false,"internalType":"address","name":"account","type":"address"}],"name":"Unpaused","type":"event"},{"inputs":[],"name":"DEFAULT_ADMIN_ROLE","outputs":[{"internalType":"bytes32","name":"","type":"bytes32"}],"stateMutability":"view","type":"function"},{"inputs":[],"name":"PAUSER_ROLE","outputs":[{"internalType":"bytes32","name":"","type":"bytes32"}],"stateMutability":"view","type":"function"},{"inputs":[],"name":"RELAYER_ROLE","outputs":[{"internalType":"bytes32","name":"","type":"bytes32"}],"stateMutability":"view","type":"function"},{"inputs":[{"internalType":"uint256","name":"amount","type":"uint256"},{"internalType":"bytes","name":"substrateAddress","type":"bytes"}],"name":"burnAndBridgeBack","outputs":[],"stateMutability":"nonpayable","type":"function"},{"inputs":[],"name":"dustToken","outputs":[{"internalType":"contract DUSTToken","name":"","type":"address"}],"stateMutability":"view","type":"function"},{"inputs":[],"name":"getBridgeStats","outputs":[{"internalType":"uint256","name":"totalToArbitrum","type":"uint256"},{"internalType":"uint256","name":"totalToStardust","type":"uint256"},{"internalType":"uint256","name":"netFlow","type":"uint256"},{"internalType":"uint256","name":"bridgeCount","type":"uint256"}],"stateMutability":"view","type":"function"},{"inputs":[{"internalType":"bytes32","name":"role","type":"bytes32"}],"name":"getRoleAdmin","outputs":[{"internalType":"bytes32","name":"","type":"bytes32"}],"stateMutability":"view","type":"function"},{"inputs":[{"internalType":"bytes32","name":"role","type":"bytes32"},{"internalType":"address","name":"account","type":"address"}],"name":"grantRole","outputs":[],"stateMutability":"nonpayable","type":"function"},{"inputs":[{"internalType":"bytes32","name":"role","type":"bytes32"},{"internalType":"address","name":"account","type":"address"}],"name":"hasRole","outputs":[{"internalType":"bool","name":"","type":"bool"}],"stateMutability":"view","type":"function"},{"inputs":[],"name":"maxBridgeAmount","outputs":[{"internalType":"uint256","name":"","type":"uint256"}],"stateMutability":"view","type":"function"},{"inputs":[],"name":"minBridgeAmount","outputs":[{"internalType":"uint256","name":"","type":"uint256"}],"stateMutability":"view","type":"function"},{"inputs":[{"internalType":"uint64","name":"bridgeId","type":"uint64"},{"internalType":"address","name":"to","type":"address"},{"internalType":"uint256","name":"amount","type":"uint256"},{"internalType":"bytes32","name":"stardustTxHash","type":"bytes32"}],"name":"mint","outputs":[],"stateMutability":"nonpayable","type":"function"},{"inputs":[],"name":"pause","outputs":[],"stateMutability":"nonpayable","type":"function"},{"inputs":[],"name":"paused","outputs":[{"internalType":"bool","name":"","type":"bool"}],"stateMutability":"view","type":"function"},{"inputs":[{"internalType":"uint64","name":"","type":"uint64"}],"name":"processedBridgeIds","outputs":[{"internalType":"bool","name":"","type":"bool"}],"stateMutability":"view","type":"function"},{"inputs":[{"internalType":"bytes32","name":"role","type":"bytes32"},{"internalType":"address","name":"callerConfirmation","type":"address"}],"name":"renounceRole","outputs":[],"stateMutability":"nonpayable","type":"function"},{"inputs":[{"internalType":"bytes32","name":"role","type":"bytes32"},{"internalType":"address","name":"account","type":"address"}],"name":"revokeRole","outputs":[],"stateMutability":"nonpayable","type":"function"},{"inputs":[{"internalType":"uint256","name":"_minAmount","type":"uint256"},{"internalType":"uint256","name":"_maxAmount","type":"uint256"}],"name":"setLimits","outputs":[],"stateMutability":"nonpayable","type":"function"},{"inputs":[],"name":"stats","outputs":[{"internalType":"uint256","name":"totalBridgedToArbitrum","type":"uint256"},{"internalType":"uint256","name":"totalBridgedToStardust","type":"uint256"},{"internalType":"uint256","name":"bridgeCount","type":"uint256"}],"stateMutability":"view","type":"function"},{"inputs":[{"internalType":"bytes4","name":"interfaceId","type":"bytes4"}],"name":"supportsInterface","outputs":[{"internalType":"bool","name":"","type":"bool"}],"stateMutability":"view","type":"function"},{"inputs":[],"name":"unpause","outputs":[],"stateMutability":"nonpayable","type":"function"}],"evm":{"bytecode":{"linkReferences":{},"object":"60a0346100f757601f61106538819003918201601f19168301916001600160401b038311848410176100fc578084926020946040528339810103126100f757516001600160a01b038116908190036100f75760018055670de0b6b3a764000060035569d3c21bcecceda100000060045580156100b25760805261008133610112565b5061008b33610190565b50604051610e1490816102318239608051818181610415015281816106b001526109000152f35b60405162461bcd60e51b815260206004820152601860248201527f445553544272696467653a207a65726f206164647265737300000000000000006044820152606490fd5b600080fd5b634e487b7160e01b600052604160045260246000fd5b6001600160a01b031660008181527fad3228b676f7d3cd4284a5443f17f1962b36e491b30a40b2405849e597ba5fb5602052604081205490919060ff1661018c57818052816020526040822081835260205260408220600160ff1982541617905533916000805160206110458339815191528180a4600190565b5090565b6001600160a01b031660008181527ff7c9542c591017a21c74b6f3fab6263c7952fc0aaf9db4c22a2a04ddc7f8674f60205260408120549091907f65d7a28e3265b37a6474929f336521b332c1681b933f6cb9f3376673440d862a9060ff1661022b57808352826020526040832082845260205260408320600160ff19825416179055600080516020611045833981519152339380a4600190565b50509056fe608060408181526004918236101561001657600080fd5b600092833560e01c91826301ffc9a714610a84575081631d6c8b301461087f5781632165cbb714610825578163248a9ca3146107fb5781632f2ff15d146107d157816336568abe1461078b5781633f4ba83a146107215781635c975abb146106fd57816360132c9c146106df5781637238c9151461069b5781638456cb591461064057816391d14854146105fb578163926d7d7f146105c0578163a217fddf146105a5578163bf6110a51461032e578163c3c224751461030f578163c4590d3f146101f7578163d547741f146101b457508063d80528ae14610185578063e63ab1e91461014b5763f2fbbcaf1461010c57600080fd5b346101475760203660031901126101475760ff8160209367ffffffffffffffff610134610af2565b1681526005855220541690519015158152f35b5080fd5b5034610147578160031936011261014757602090517f65d7a28e3265b37a6474929f336521b332c1681b933f6cb9f3376673440d862a8152f35b503461014757816003193601126101475760609060065490600754906008549181519384526020840152820152f35b919050346101f357806003193601126101f3576101ef91356101ea60016101d9610ad7565b938387528660205286200154610cc5565b610d69565b5080f35b8280fd5b8383346101475780600319360112610147578235602435600080526000602052826000203360005260205260ff836000205416156102f25781156102af578181111561027457807f4d4981437d0211f9e6843eb024d9ada1fa3a99514d4343d4aece106dd11524bb9495836003555582519182526020820152a180f35b825162461bcd60e51b81526020818701526015602482015274222aa9aa213934b233b29d1036b0bc101e1036b4b760591b6044820152606490fd5b825162461bcd60e51b8152602081870152601b60248201527f445553544272696467653a206d696e20616d6f756e74207a65726f00000000006044820152606490fd5b825163e2517d3f60e01b8152338187015260006024820152604490fd5b5050346101475781600319360112610147576020906003549051908152f35b919050346101f35760803660031901126101f35761034a610af2565b91610353610ad7565b916044357fe2b7fb3b832174769106daebcfd6d1970523240dda11281102db9363b83b0dc49283600052602093600085528360002033600052855260ff8460002054161561058857506103a4610c0a565b6103ac610c2d565b6001600160a01b038581169690959087156105455767ffffffffffffffff906103d9600354861015610b09565b6103e68454861115610b55565b16958689526005865260ff858a205416610502579088929187845260058752858420600160ff198254161790557f00000000000000000000000000000000000000000000000000000000000000001691823b156104fe578551630f22c5f760e11b81526001600160a01b0390921690820190815260208101859052604081018890529091839183919082908490829060600103925af180156104f4576104dc575b50507f72b2d980a2206d8a742c89fa7d132a48ba4823ff781a7f9edd2316806bd548c4926104b782600654610bcb565b6006556104c5600854610bee565b600855825191825260643590820152a36001805580f35b6104e590610ba1565b6104f0578538610487565b8580fd5b84513d84823e3d90fd5b8380fd5b845162461bcd60e51b8152808401879052601d60248201527f445553544272696467653a20616c72656164792070726f6365737365640000006044820152606490fd5b845162461bcd60e51b8152808401879052601860248201527f445553544272696467653a207a65726f206164647265737300000000000000006044820152606490fd5b6044925083519163e2517d3f60e01b835233908301526024820152fd5b50503461014757816003193601126101475751908152602090f35b505034610147578160031936011261014757602090517fe2b7fb3b832174769106daebcfd6d1970523240dda11281102db9363b83b0dc48152f35b9050346101f357816003193601126101f35781602093610619610ad7565b92358152808552209060018060a01b0316600052825260ff81600020541690519015158152f35b50503461014757816003193601126101475760207f62e78cea01bee320cd4e420270b5ea74000d11b0c9f74754ebdbfc544b05a2589161067e610c4b565b610686610c2d565b600160ff19600254161760025551338152a180f35b505034610147578160031936011261014757517f00000000000000000000000000000000000000000000000000000000000000006001600160a01b03168152602090f35b9050346101f357826003193601126101f35760209250549051908152f35b50503461014757816003193601126101475760209060ff6002541690519015158152f35b9050346101f357826003193601126101f35761073b610c4b565b6002549060ff82161561077d575060ff1916600255513381527f5db9ee0a495bf2e6ff9c91a7834c1ba4fdd244a5e8aa4e537bd38aeae4b073aa90602090a180f35b8251638dfc202b60e01b8152fd5b8383346101475780600319360112610147576107a5610ad7565b90336001600160a01b038316036107c257506101ef919235610d69565b5163334bd91960e11b81528390fd5b919050346101f357806003193601126101f3576101ef91356107f660016101d9610ad7565b610ceb565b9050346101f35760203660031901126101f357816020936001923581528085522001549051908152f35b5050346101475781600319360112610147576006546007546080935090918183111561086f576108558284610bfd565b905b60085492815194855260208501528301526060820152f35b6108798383610bfd565b90610857565b8391503461014757826003193601126101475780356024359367ffffffffffffffff92838611610a805736602387011215610a805785810135938411610a80573660248588010111610a80576108d3610c0a565b6108db610c2d565b6108e9600354841015610b09565b6108f68154841115610b55565b60208403610a33577f00000000000000000000000000000000000000000000000000000000000000006001600160a01b031690813b156104f057825163158a1cc360e01b8152339181019182526020820185905242604083015291869183919082908490829060600103925af18015610a29576109f1575b508260247f92af7fcd9e79ac99abf01ab759273edbb2e75d6d8d84bd13383364405be281a99495966109a285600754610bcb565b6007556109b0600854610bee565b600855835194855260606020860152826060860152016080840137846080858401015242908201526080813394601f80199101168101030190a26001805580f35b9260248195610a207f92af7fcd9e79ac99abf01ab759273edbb2e75d6d8d84bd13383364405be281a996610ba1565b9594505061096e565b82513d87823e3d90fd5b6020608492519162461bcd60e51b8352820152602260248201527f445553544272696467653a20696e76616c69642061646472657373206c656e676044820152610e8d60f31b6064820152fd5b8480fd5b8491346101f35760203660031901126101f3573563ffffffff60e01b81168091036101f35760209250637965db0b60e01b8114908115610ac6575b5015158152f35b6301ffc9a760e01b14905083610abf565b602435906001600160a01b0382168203610aed57565b600080fd5b6004359067ffffffffffffffff82168203610aed57565b15610b1057565b60405162461bcd60e51b815260206004820152601a60248201527f445553544272696467653a20616d6f756e7420746f6f206c6f770000000000006044820152606490fd5b15610b5c57565b60405162461bcd60e51b815260206004820152601b60248201527f445553544272696467653a20616d6f756e7420746f6f206869676800000000006044820152606490fd5b67ffffffffffffffff8111610bb557604052565b634e487b7160e01b600052604160045260246000fd5b91908201809211610bd857565b634e487b7160e01b600052601160045260246000fd5b6000198114610bd85760010190565b91908203918211610bd857565b600260015414610c1b576002600155565b604051633ee5aeb560e01b8152600490fd5b60ff60025416610c3957565b60405163d93c066560e01b8152600490fd5b3360009081527ff7c9542c591017a21c74b6f3fab6263c7952fc0aaf9db4c22a2a04ddc7f8674f60205260409020547f65d7a28e3265b37a6474929f336521b332c1681b933f6cb9f3376673440d862a9060ff1615610ca75750565b6044906040519063e2517d3f60e01b82523360048301526024820152fd5b80600052600060205260406000203360005260205260ff6040600020541615610ca75750565b9060009180835282602052604083209160018060a01b03169182845260205260ff60408420541615600014610d6457808352826020526040832082845260205260408320600160ff198254161790557f2f8788117e7eff1d82e926ec794901d17c78024a50270940304540a733656f0d339380a4600190565b505090565b9060009180835282602052604083209160018060a01b03169182845260205260ff604084205416600014610d645780835282602052604083208284526020526040832060ff1981541690557ff6391f5c32d9c69d2a47ea670b442974b53935d1edc7fd64eb21e047a839171b339380a460019056fea264697066735822122046b6ce0cbbc0eed2f03d2ea780f58d5ec2c20e7d4e0d2a4e1559e312de65fb0e64736f6c634300081800332f8788117e7eff1d82e926ec794901d17c78024a50270940304540a733656f0d","opcodes":"PUSH1 0xA0 CALLVALUE PUSH2 0xF7 JUMPI PUSH1 0x1F PUSH2 0x1065 CODESIZE DUP2 SWAP1 SUB SWAP2 DUP3 ADD PUSH1 0x1F NOT AND DUP4 ADD SWAP2 PUSH1 0x1 PUSH1 0x1 PUSH1 0x40 SHL SUB DUP4 GT DUP5 DUP5 LT OR PUSH2 0xFC JUMPI DUP1 DUP5 SWAP3 PUSH1 0x20 SWAP5 PUSH1 0x40 MSTORE DUP4 CODECOPY DUP2 ADD SUB SLT PUSH2 0xF7 JUMPI MLOAD PUSH1 0x1 PUSH1 0x1 PUSH1 0xA0 SHL SUB DUP2 AND SWAP1 DUP2 SWAP1 SUB PUSH2 0xF7 JUMPI PUSH1 0x1 DUP1 SSTORE PUSH8 0xDE0B6B3A7640000 PUSH1 0x3 SSTORE PUSH10 0xD3C21BCECCEDA1000000 PUSH1 0x4 SSTORE DUP1 ISZERO PUSH2 0xB2 JUMPI PUSH1 0x80 MSTORE PUSH2 0x81 CALLER PUSH2 0x112 JUMP JUMPDEST POP PUSH2 0x8B CALLER PUSH2 0x190 JUMP JUMPDEST POP PUSH1 0x40 MLOAD PUSH2 0xE14 SWAP1 DUP2 PUSH2 0x231 DUP3 CODECOPY PUSH1 0x80 MLOAD DUP2 DUP2 DUP2 PUSH2 0x415 ADD MSTORE DUP2 DUP2 PUSH2 0x6B0 ADD MSTORE PUSH2 0x900 ADD MSTORE RETURN JUMPDEST PUSH1 0x40 MLOAD PUSH3 0x461BCD PUSH1 0xE5 SHL DUP2 MSTORE PUSH1 0x20 PUSH1 0x4 DUP3 ADD MSTORE PUSH1 0x18 PUSH1 0x24 DUP3 ADD MSTORE PUSH32 0x445553544272696467653A207A65726F20616464726573730000000000000000 PUSH1 0x44 DUP3 ADD MSTORE PUSH1 0x64 SWAP1 REVERT JUMPDEST PUSH1 0x0 DUP1 REVERT JUMPDEST PUSH4 0x4E487B71 PUSH1 0xE0 SHL PUSH1 0x0 MSTORE PUSH1 0x41 PUSH1 0x4 MSTORE PUSH1 0x24 PUSH1 0x0 REVERT JUMPDEST PUSH1 0x1 PUSH1 0x1 PUSH1 0xA0 SHL SUB AND PUSH1 0x0 DUP2 DUP2 MSTORE PUSH32 0xAD3228B676F7D3CD4284A5443F17F1962B36E491B30A40B2405849E597BA5FB5 PUSH1 0x20 MSTORE PUSH1 0x40 DUP2 KECCAK256 SLOAD SWAP1 SWAP2 SWAP1 PUSH1 0xFF AND PUSH2 0x18C JUMPI DUP2 DUP1 MSTORE DUP2 PUSH1 0x20 MSTORE PUSH1 0x40 DUP3 KECCAK256 DUP2 DUP4 MSTORE PUSH1 0x20 MSTORE PUSH1 0x40 DUP3 KECCAK256 PUSH1 0x1 PUSH1 0xFF NOT DUP3 SLOAD AND OR SWAP1 SSTORE CALLER SWAP2 PUSH1 0x0 DUP1 MLOAD PUSH1 0x20 PUSH2 0x1045 DUP4 CODECOPY DUP2 MLOAD SWAP2 MSTORE DUP2 DUP1 LOG4 PUSH1 0x1 SWAP1 JUMP JUMPDEST POP SWAP1 JUMP JUMPDEST PUSH1 0x1 PUSH1 0x1 PUSH1 0xA0 SHL SUB AND PUSH1 0x0 DUP2 DUP2 MSTORE PUSH32 0xF7C9542C591017A21C74B6F3FAB6263C7952FC0AAF9DB4C22A2A04DDC7F8674F PUSH1 0x20 MSTORE PUSH1 0x40 DUP2 KECCAK256 SLOAD SWAP1 SWAP2 SWAP1 PUSH32 0x65D7A28E3265B37A6474929F336521B332C1681B933F6CB9F3376673440D862A SWAP1 PUSH1 0xFF AND PUSH2 0x22B JUMPI DUP1 DUP4 MSTORE DUP3 PUSH1 0x20 MSTORE PUSH1 0x40 DUP4 KECCAK256 DUP3 DUP5 MSTORE PUSH1 0x20 MSTORE PUSH1 0x40 DUP4 KECCAK256 PUSH1 0x1 PUSH1 0xFF NOT DUP3 SLOAD AND OR SWAP1 SSTORE PUSH1 0x0 DUP1 MLOAD PUSH1 0x20 PUSH2 0x1045 DUP4 CODECOPY DUP2 MLOAD SWAP2 MSTORE CALLER SWAP4 DUP1 LOG4 PUSH1 0x1 SWAP1 JUMP JUMPDEST POP POP SWAP1 JUMP INVALID PUSH1 0x80 PUSH1 0x40 DUP2 DUP2 MSTORE PUSH1 0x4 SWAP2 DUP3 CALLDATASIZE LT ISZERO PUSH2 0x16 JUMPI PUSH1 0x0 DUP1 REVERT JUMPDEST PUSH1 0x0 SWAP3 DUP4 CALLDATALOAD PUSH1 0xE0 SHR SWAP2 DUP3 PUSH4 0x1FFC9A7 EQ PUSH2 0xA84 JUMPI POP DUP2 PUSH4 0x1D6C8B30 EQ PUSH2 0x87F JUMPI DUP2 PUSH4 0x2165CBB7 EQ PUSH2 0x825 JUMPI DUP2 PUSH4 0x248A9CA3 EQ PUSH2 0x7FB JUMPI DUP2 PUSH4 0x2F2FF15D EQ PUSH2 0x7D1 JUMPI DUP2 PUSH4 0x36568ABE EQ PUSH2 0x78B JUMPI DUP2 PUSH4 0x3F4BA83A EQ PUSH2 0x721 JUMPI DUP2 PUSH4 0x5C975ABB EQ PUSH2 0x6FD JUMPI DUP2 PUSH4 0x60132C9C EQ PUSH2 0x6DF JUMPI DUP2 PUSH4 0x7238C915 EQ PUSH2 0x69B JUMPI DUP2 PUSH4 0x8456CB59 EQ PUSH2 0x640 JUMPI DUP2 PUSH4 0x91D14854 EQ PUSH2 0x5FB JUMPI DUP2 PUSH4 0x926D7D7F EQ PUSH2 0x5C0 JUMPI DUP2 PUSH4 0xA217FDDF EQ PUSH2 0x5A5 JUMPI DUP2 PUSH4 0xBF6110A5 EQ PUSH2 0x32E JUMPI DUP2 PUSH4 0xC3C22475 EQ PUSH2 0x30F JUMPI DUP2 PUSH4 0xC4590D3F EQ PUSH2 0x1F7 JUMPI DUP2 PUSH4 0xD547741F EQ PUSH2 0x1B4 JUMPI POP DUP1 PUSH4 0xD80528AE EQ PUSH2 0x185 JUMPI DUP1 PUSH4 0xE63AB1E9 EQ PUSH2 0x14B JUMPI PUSH4 0xF2FBBCAF EQ PUSH2 0x10C JUMPI PUSH1 0x0 DUP1 REVERT JUMPDEST CALLVALUE PUSH2 0x147 JUMPI PUSH1 0x20 CALLDATASIZE PUSH1 0x3 NOT ADD SLT PUSH2 0x147 JUMPI PUSH1 0xFF DUP2 PUSH1 0x20 SWAP4 PUSH8 0xFFFFFFFFFFFFFFFF PUSH2 0x134 PUSH2 0xAF2 JUMP JUMPDEST AND DUP2 MSTORE PUSH1 0x5 DUP6 MSTORE KECCAK256 SLOAD AND SWAP1 MLOAD SWAP1 ISZERO ISZERO DUP2 MSTORE RETURN JUMPDEST POP DUP1 REVERT JUMPDEST POP CALLVALUE PUSH2 0x147 JUMPI DUP2 PUSH1 0x3 NOT CALLDATASIZE ADD SLT PUSH2 0x147 JUMPI PUSH1 0x20 SWAP1 MLOAD PUSH32 0x65D7A28E3265B37A6474929F336521B332C1681B933F6CB9F3376673440D862A DUP2 MSTORE RETURN JUMPDEST POP CALLVALUE PUSH2 0x147 JUMPI DUP2 PUSH1 0x3 NOT CALLDATASIZE ADD SLT PUSH2 0x147 JUMPI PUSH1 0x60 SWAP1 PUSH1 0x6 SLOAD SWAP1 PUSH1 0x7 SLOAD SWAP1 PUSH1 0x8 SLOAD SWAP2 DUP2 MLOAD SWAP4 DUP5 MSTORE PUSH1 0x20 DUP5 ADD MSTORE DUP3 ADD MSTORE RETURN JUMPDEST SWAP2 SWAP1 POP CALLVALUE PUSH2 0x1F3 JUMPI DUP1 PUSH1 0x3 NOT CALLDATASIZE ADD SLT PUSH2 0x1F3 JUMPI PUSH2 0x1EF SWAP2 CALLDATALOAD PUSH2 0x1EA PUSH1 0x1 PUSH2 0x1D9 PUSH2 0xAD7 JUMP JUMPDEST SWAP4 DUP4 DUP8 MSTORE DUP7 PUSH1 0x20 MSTORE DUP7 KECCAK256 ADD SLOAD PUSH2 0xCC5 JUMP JUMPDEST PUSH2 0xD69 JUMP JUMPDEST POP DUP1 RETURN JUMPDEST DUP3 DUP1 REVERT JUMPDEST DUP4 DUP4 CALLVALUE PUSH2 0x147 JUMPI DUP1 PUSH1 0x3 NOT CALLDATASIZE ADD SLT PUSH2 0x147 JUMPI DUP3 CALLDATALOAD PUSH1 0x24 CALLDATALOAD PUSH1 0x0 DUP1 MSTORE PUSH1 0x0 PUSH1 0x20 MSTORE DUP3 PUSH1 0x0 KECCAK256 CALLER PUSH1 0x0 MSTORE PUSH1 0x20 MSTORE PUSH1 0xFF DUP4 PUSH1 0x0 KECCAK256 SLOAD AND ISZERO PUSH2 0x2F2 JUMPI DUP2 ISZERO PUSH2 0x2AF JUMPI DUP2 DUP2 GT ISZERO PUSH2 0x274 JUMPI DUP1 PUSH32 0x4D4981437D0211F9E6843EB024D9ADA1FA3A99514D4343D4AECE106DD11524BB SWAP5 SWAP6 DUP4 PUSH1 0x3 SSTORE SSTORE DUP3 MLOAD SWAP2 DUP3 MSTORE PUSH1 0x20 DUP3 ADD MSTORE LOG1 DUP1 RETURN JUMPDEST DUP3 MLOAD PUSH3 0x461BCD PUSH1 0xE5 SHL DUP2 MSTORE PUSH1 0x20 DUP2 DUP8 ADD MSTORE PUSH1 0x15 PUSH1 0x24 DUP3 ADD MSTORE PUSH21 0x222AA9AA213934B233B29D1036B0BC101E1036B4B7 PUSH1 0x59 SHL PUSH1 0x44 DUP3 ADD MSTORE PUSH1 0x64 SWAP1 REVERT JUMPDEST DUP3 MLOAD PUSH3 0x461BCD PUSH1 0xE5 SHL DUP2 MSTORE PUSH1 0x20 DUP2 DUP8 ADD MSTORE PUSH1 0x1B PUSH1 0x24 DUP3 ADD MSTORE PUSH32 0x445553544272696467653A206D696E20616D6F756E74207A65726F0000000000 PUSH1 0x44 DUP3 ADD MSTORE PUSH1 0x64 SWAP1 REVERT JUMPDEST DUP3 MLOAD PUSH4 0xE2517D3F PUSH1 0xE0 SHL DUP2 MSTORE CALLER DUP2 DUP8 ADD MSTORE PUSH1 0x0 PUSH1 0x24 DUP3 ADD MSTORE PUSH1 0x44 SWAP1 REVERT JUMPDEST POP POP CALLVALUE PUSH2 0x147 JUMPI DUP2 PUSH1 0x3 NOT CALLDATASIZE ADD SLT PUSH2 0x147 JUMPI PUSH1 0x20 SWAP1 PUSH1 0x3 SLOAD SWAP1 MLOAD SWAP1 DUP2 MSTORE RETURN JUMPDEST SWAP2 SWAP1 POP CALLVALUE PUSH2 0x1F3 JUMPI PUSH1 0x80 CALLDATASIZE PUSH1 0x3 NOT ADD SLT PUSH2 0x1F3 JUMPI PUSH2 0x34A PUSH2 0xAF2 JUMP JUMPDEST SWAP2 PUSH2 0x353 PUSH2 0xAD7 JUMP JUMPDEST SWAP2 PUSH1 0x44 CALLDATALOAD PUSH32 0xE2B7FB3B832174769106DAEBCFD6D1970523240DDA11281102DB9363B83B0DC4 SWAP3 DUP4 PUSH1 0x0 MSTORE PUSH1 0x20 SWAP4 PUSH1 0x0 DUP6 MSTORE DUP4 PUSH1 0x0 KECCAK256 CALLER PUSH1 0x0 MSTORE DUP6 MSTORE PUSH1 0xFF DUP5 PUSH1 0x0 KECCAK256 SLOAD AND ISZERO PUSH2 0x588 JUMPI POP PUSH2 0x3A4 PUSH2 0xC0A JUMP JUMPDEST PUSH2 0x3AC PUSH2 0xC2D JUMP JUMPDEST PUSH1 0x1 PUSH1 0x1 PUSH1 0xA0 SHL SUB DUP6 DUP2 AND SWAP7 SWAP1 SWAP6 SWAP1 DUP8 ISZERO PUSH2 0x545 JUMPI PUSH8 0xFFFFFFFFFFFFFFFF SWAP1 PUSH2 0x3D9 PUSH1 0x3 SLOAD DUP7 LT ISZERO PUSH2 0xB09 JUMP JUMPDEST PUSH2 0x3E6 DUP5 SLOAD DUP7 GT ISZERO PUSH2 0xB55 JUMP JUMPDEST AND SWAP6 DUP7 DUP10 MSTORE PUSH1 0x5 DUP7 MSTORE PUSH1 0xFF DUP6 DUP11 KECCAK256 SLOAD AND PUSH2 0x502 JUMPI SWAP1 DUP9 SWAP3 SWAP2 DUP8 DUP5 MSTORE PUSH1 0x5 DUP8 MSTORE DUP6 DUP5 KECCAK256 PUSH1 0x1 PUSH1 0xFF NOT DUP3 SLOAD AND OR SWAP1 SSTORE PUSH32 0x0 AND SWAP2 DUP3 EXTCODESIZE ISZERO PUSH2 0x4FE JUMPI DUP6 MLOAD PUSH4 0xF22C5F7 PUSH1 0xE1 SHL DUP2 MSTORE PUSH1 0x1 PUSH1 0x1 PUSH1 0xA0 SHL SUB SWAP1 SWAP3 AND SWAP1 DUP3 ADD SWAP1 DUP2 MSTORE PUSH1 0x20 DUP2 ADD DUP6 SWAP1 MSTORE PUSH1 0x40 DUP2 ADD DUP9 SWAP1 MSTORE SWAP1 SWAP2 DUP4 SWAP2 DUP4 SWAP2 SWAP1 DUP3 SWAP1 DUP5 SWAP1 DUP3 SWAP1 PUSH1 0x60 ADD SUB SWAP3 GAS CALL DUP1 ISZERO PUSH2 0x4F4 JUMPI PUSH2 0x4DC JUMPI JUMPDEST POP POP PUSH32 0x72B2D980A2206D8A742C89FA7D132A48BA4823FF781A7F9EDD2316806BD548C4 SWAP3 PUSH2 0x4B7 DUP3 PUSH1 0x6 SLOAD PUSH2 0xBCB JUMP JUMPDEST PUSH1 0x6 SSTORE PUSH2 0x4C5 PUSH1 0x8 SLOAD PUSH2 0xBEE JUMP JUMPDEST PUSH1 0x8 SSTORE DUP3 MLOAD SWAP2 DUP3 MSTORE PUSH1 0x64 CALLDATALOAD SWAP1 DUP3 ADD MSTORE LOG3 PUSH1 0x1 DUP1 SSTORE DUP1 RETURN JUMPDEST PUSH2 0x4E5 SWAP1 PUSH2 0xBA1 JUMP JUMPDEST PUSH2 0x4F0 JUMPI DUP6 CODESIZE PUSH2 0x487 JUMP JUMPDEST DUP6 DUP1 REVERT JUMPDEST DUP5 MLOAD RETURNDATASIZE DUP5 DUP3 RETURNDATACOPY RETURNDATASIZE SWAP1 REVERT JUMPDEST DUP4 DUP1 REVERT JUMPDEST DUP5 MLOAD PUSH3 0x461BCD PUSH1 0xE5 SHL DUP2 MSTORE DUP1 DUP5 ADD DUP8 SWAP1 MSTORE PUSH1 0x1D PUSH1 0x24 DUP3 ADD MSTORE PUSH32 0x445553544272696467653A20616C72656164792070726F636573736564000000 PUSH1 0x44 DUP3 ADD MSTORE PUSH1 0x64 SWAP1 REVERT JUMPDEST DUP5 MLOAD PUSH3 0x461BCD PUSH1 0xE5 SHL DUP2 MSTORE DUP1 DUP5 ADD DUP8 SWAP1 MSTORE PUSH1 0x18 PUSH1 0x24 DUP3 ADD MSTORE PUSH32 0x445553544272696467653A207A65726F20616464726573730000000000000000 PUSH1 0x44 DUP3 ADD MSTORE PUSH1 0x64 SWAP1 REVERT JUMPDEST PUSH1 0x44 SWAP3 POP DUP4 MLOAD SWAP2 PUSH4 0xE2517D3F PUSH1 0xE0 SHL DUP4 MSTORE CALLER SWAP1 DUP4 ADD MSTORE PUSH1 0x24 DUP3 ADD MSTORE REVERT JUMPDEST POP POP CALLVALUE PUSH2 0x147 JUMPI DUP2 PUSH1 0x3 NOT CALLDATASIZE ADD SLT PUSH2 0x147 JUMPI MLOAD SWAP1 DUP2 MSTORE PUSH1 0x20 SWAP1 RETURN JUMPDEST POP POP CALLVALUE PUSH2 0x147 JUMPI DUP2 PUSH1 0x3 NOT CALLDATASIZE ADD SLT PUSH2 0x147 JUMPI PUSH1 0x20 SWAP1 MLOAD PUSH32 0xE2B7FB3B832174769106DAEBCFD6D1970523240DDA11281102DB9363B83B0DC4 DUP2 MSTORE RETURN JUMPDEST SWAP1 POP CALLVALUE PUSH2 0x1F3 JUMPI DUP2 PUSH1 0x3 NOT CALLDATASIZE ADD SLT PUSH2 0x1F3 JUMPI DUP2 PUSH1 0x20 SWAP4 PUSH2 0x619 PUSH2 0xAD7 JUMP JUMPDEST SWAP3 CALLDATALOAD DUP2 MSTORE DUP1 DUP6 MSTORE KECCAK256 SWAP1 PUSH1 0x1 DUP1 PUSH1 0xA0 SHL SUB AND PUSH1 0x0 MSTORE DUP3 MSTORE PUSH1 0xFF DUP2 PUSH1 0x0 KECCAK256 SLOAD AND SWAP1 MLOAD SWAP1 ISZERO ISZERO DUP2 MSTORE RETURN JUMPDEST POP POP CALLVALUE PUSH2 0x147 JUMPI DUP2 PUSH1 0x3 NOT CALLDATASIZE ADD SLT PUSH2 0x147 JUMPI PUSH1 0x20 PUSH32 0x62E78CEA01BEE320CD4E420270B5EA74000D11B0C9F74754EBDBFC544B05A258 SWAP2 PUSH2 0x67E PUSH2 0xC4B JUMP JUMPDEST PUSH2 0x686 PUSH2 0xC2D JUMP JUMPDEST PUSH1 0x1 PUSH1 0xFF NOT PUSH1 0x2 SLOAD AND OR PUSH1 0x2 SSTORE MLOAD CALLER DUP2 MSTORE LOG1 DUP1 RETURN JUMPDEST POP POP CALLVALUE PUSH2 0x147 JUMPI DUP2 PUSH1 0x3 NOT CALLDATASIZE ADD SLT PUSH2 0x147 JUMPI MLOAD PUSH32 0x0 PUSH1 0x1 PUSH1 0x1 PUSH1 0xA0 SHL SUB AND DUP2 MSTORE PUSH1 0x20 SWAP1 RETURN JUMPDEST SWAP1 POP CALLVALUE PUSH2 0x1F3 JUMPI DUP3 PUSH1 0x3 NOT CALLDATASIZE ADD SLT PUSH2 0x1F3 JUMPI PUSH1 0x20 SWAP3 POP SLOAD SWAP1 MLOAD SWAP1 DUP2 MSTORE RETURN JUMPDEST POP POP CALLVALUE PUSH2 0x147 JUMPI DUP2 PUSH1 0x3 NOT CALLDATASIZE ADD SLT PUSH2 0x147 JUMPI PUSH1 0x20 SWAP1 PUSH1 0xFF PUSH1 0x2 SLOAD AND SWAP1 MLOAD SWAP1 ISZERO ISZERO DUP2 MSTORE RETURN JUMPDEST SWAP1 POP CALLVALUE PUSH2 0x1F3 JUMPI DUP3 PUSH1 0x3 NOT CALLDATASIZE ADD SLT PUSH2 0x1F3 JUMPI PUSH2 0x73B PUSH2 0xC4B JUMP JUMPDEST PUSH1 0x2 SLOAD SWAP1 PUSH1 0xFF DUP3 AND ISZERO PUSH2 0x77D JUMPI POP PUSH1 0xFF NOT AND PUSH1 0x2 SSTORE MLOAD CALLER DUP2 MSTORE PUSH32 0x5DB9EE0A495BF2E6FF9C91A7834C1BA4FDD244A5E8AA4E537BD38AEAE4B073AA SWAP1 PUSH1 0x20 SWAP1 LOG1 DUP1 RETURN JUMPDEST DUP3 MLOAD PUSH4 0x8DFC202B PUSH1 0xE0 SHL DUP2 MSTORE REVERT JUMPDEST DUP4 DUP4 CALLVALUE PUSH2 0x147 JUMPI DUP1 PUSH1 0x3 NOT CALLDATASIZE ADD SLT PUSH2 0x147 JUMPI PUSH2 0x7A5 PUSH2 0xAD7 JUMP JUMPDEST SWAP1 CALLER PUSH1 0x1 PUSH1 0x1 PUSH1 0xA0 SHL SUB DUP4 AND SUB PUSH2 0x7C2 JUMPI POP PUSH2 0x1EF SWAP2 SWAP3 CALLDATALOAD PUSH2 0xD69 JUMP JUMPDEST MLOAD PUSH4 0x334BD919 PUSH1 0xE1 SHL DUP2 MSTORE DUP4 SWAP1 REVERT JUMPDEST SWAP2 SWAP1 POP CALLVALUE PUSH2 0x1F3 JUMPI DUP1 PUSH1 0x3 NOT CALLDATASIZE ADD SLT PUSH2 0x1F3 JUMPI PUSH2 0x1EF SWAP2 CALLDATALOAD PUSH2 0x7F6 PUSH1 0x1 PUSH2 0x1D9 PUSH2 0xAD7 JUMP JUMPDEST PUSH2 0xCEB JUMP JUMPDEST SWAP1 POP CALLVALUE PUSH2 0x1F3 JUMPI PUSH1 0x20 CALLDATASIZE PUSH1 0x3 NOT ADD SLT PUSH2 0x1F3 JUMPI DUP2 PUSH1 0x20 SWAP4 PUSH1 0x1 SWAP3 CALLDATALOAD DUP2 MSTORE DUP1 DUP6 MSTORE KECCAK256 ADD SLOAD SWAP1 MLOAD SWAP1 DUP2 MSTORE RETURN JUMPDEST POP POP CALLVALUE PUSH2 0x147 JUMPI DUP2 PUSH1 0x3 NOT CALLDATASIZE ADD SLT PUSH2 0x147 JUMPI PUSH1 0x6 SLOAD PUSH1 0x7 SLOAD PUSH1 0x80 SWAP4 POP SWAP1 SWAP2 DUP2 DUP4 GT ISZERO PUSH2 0x86F JUMPI PUSH2 0x855 DUP3 DUP5 PUSH2 0xBFD JUMP JUMPDEST SWAP1 JUMPDEST PUSH1 0x8 SLOAD SWAP3 DUP2 MLOAD SWAP5 DUP6 MSTORE PUSH1 0x20 DUP6 ADD MSTORE DUP4 ADD MSTORE PUSH1 0x60 DUP3 ADD MSTORE RETURN JUMPDEST PUSH2 0x879 DUP4 DUP4 PUSH2 0xBFD JUMP JUMPDEST SWAP1 PUSH2 0x857 JUMP JUMPDEST DUP4 SWAP2 POP CALLVALUE PUSH2 0x147 JUMPI DUP3 PUSH1 0x3 NOT CALLDATASIZE ADD SLT PUSH2 0x147 JUMPI DUP1 CALLDATALOAD PUSH1 0x24 CALLDATALOAD SWAP4 PUSH8 0xFFFFFFFFFFFFFFFF SWAP3 DUP4 DUP7 GT PUSH2 0xA80 JUMPI CALLDATASIZE PUSH1 0x23 DUP8 ADD SLT ISZERO PUSH2 0xA80 JUMPI DUP6 DUP2 ADD CALLDATALOAD SWAP4 DUP5 GT PUSH2 0xA80 JUMPI CALLDATASIZE PUSH1 0x24 DUP6 DUP9 ADD ADD GT PUSH2 0xA80 JUMPI PUSH2 0x8D3 PUSH2 0xC0A JUMP JUMPDEST PUSH2 0x8DB PUSH2 0xC2D JUMP JUMPDEST PUSH2 0x8E9 PUSH1 0x3 SLOAD DUP5 LT ISZERO PUSH2 0xB09 JUMP JUMPDEST PUSH2 0x8F6 DUP2 SLOAD DUP5 GT ISZERO PUSH2 0xB55 JUMP JUMPDEST PUSH1 0x20 DUP5 SUB PUSH2 0xA33 JUMPI PUSH32 0x0 PUSH1 0x1 PUSH1 0x1 PUSH1 0xA0 SHL SUB AND SWAP1 DUP2 EXTCODESIZE ISZERO PUSH2 0x4F0 JUMPI DUP3 MLOAD PUSH4 0x158A1CC3 PUSH1 0xE0 SHL DUP2 MSTORE CALLER SWAP2 DUP2 ADD SWAP2 DUP3 MSTORE PUSH1 0x20 DUP3 ADD DUP6 SWAP1 MSTORE TIMESTAMP PUSH1 0x40 DUP4 ADD MSTORE SWAP2 DUP7 SWAP2 DUP4 SWAP2 SWAP1 DUP3 SWAP1 DUP5 SWAP1 DUP3 SWAP1 PUSH1 0x60 ADD SUB SWAP3 GAS CALL DUP1 ISZERO PUSH2 0xA29 JUMPI PUSH2 0x9F1 JUMPI JUMPDEST POP DUP3 PUSH1 0x24 PUSH32 0x92AF7FCD9E79AC99ABF01AB759273EDBB2E75D6D8D84BD13383364405BE281A9 SWAP5 SWAP6 SWAP7 PUSH2 0x9A2 DUP6 PUSH1 0x7 SLOAD PUSH2 0xBCB JUMP JUMPDEST PUSH1 0x7 SSTORE PUSH2 0x9B0 PUSH1 0x8 SLOAD PUSH2 0xBEE JUMP JUMPDEST PUSH1 0x8 SSTORE DUP4 MLOAD SWAP5 DUP6 MSTORE PUSH1 0x60 PUSH1 0x20 DUP7 ADD MSTORE DUP3 PUSH1 0x60 DUP7 ADD MSTORE ADD PUSH1 0x80 DUP5 ADD CALLDATACOPY DUP5 PUSH1 0x80 DUP6 DUP5 ADD ADD MSTORE TIMESTAMP SWAP1 DUP3 ADD MSTORE PUSH1 0x80 DUP2 CALLER SWAP5 PUSH1 0x1F DUP1 NOT SWAP2 ADD AND DUP2 ADD SUB ADD SWAP1 LOG2 PUSH1 0x1 DUP1 SSTORE DUP1 RETURN JUMPDEST SWAP3 PUSH1 0x24 DUP2 SWAP6 PUSH2 0xA20 PUSH32 0x92AF7FCD9E79AC99ABF01AB759273EDBB2E75D6D8D84BD13383364405BE281A9 SWAP7 PUSH2 0xBA1 JUMP JUMPDEST SWAP6 SWAP5 POP POP PUSH2 0x96E JUMP JUMPDEST DUP3 MLOAD RETURNDATASIZE DUP8 DUP3 RETURNDATACOPY RETURNDATASIZE SWAP1 REVERT JUMPDEST PUSH1 0x20 PUSH1 0x84 SWAP3 MLOAD SWAP2 PUSH3 0x461BCD PUSH1 0xE5 SHL DUP4 MSTORE DUP3 ADD MSTORE PUSH1 0x22 PUSH1 0x24 DUP3 ADD MSTORE PUSH32 0x445553544272696467653A20696E76616C69642061646472657373206C656E67 PUSH1 0x44 DUP3 ADD MSTORE PUSH2 0xE8D PUSH1 0xF3 SHL PUSH1 0x64 DUP3 ADD MSTORE REVERT JUMPDEST DUP5 DUP1 REVERT JUMPDEST DUP5 SWAP2 CALLVALUE PUSH2 0x1F3 JUMPI PUSH1 0x20 CALLDATASIZE PUSH1 0x3 NOT ADD SLT PUSH2 0x1F3 JUMPI CALLDATALOAD PUSH4 0xFFFFFFFF PUSH1 0xE0 SHL DUP2 AND DUP1 SWAP2 SUB PUSH2 0x1F3 JUMPI PUSH1 0x20 SWAP3 POP PUSH4 0x7965DB0B PUSH1 0xE0 SHL DUP2 EQ SWAP1 DUP2 ISZERO PUSH2 0xAC6 JUMPI JUMPDEST POP ISZERO ISZERO DUP2 MSTORE RETURN JUMPDEST PUSH4 0x1FFC9A7 PUSH1 0xE0 SHL EQ SWAP1 POP DUP4 PUSH2 0xABF JUMP JUMPDEST PUSH1 0x24 CALLDATALOAD SWAP1 PUSH1 0x1 PUSH1 0x1 PUSH1 0xA0 SHL SUB DUP3 AND DUP3 SUB PUSH2 0xAED JUMPI JUMP JUMPDEST PUSH1 0x0 DUP1 REVERT JUMPDEST PUSH1 0x4 CALLDATALOAD SWAP1 PUSH8 0xFFFFFFFFFFFFFFFF DUP3 AND DUP3 SUB PUSH2 0xAED JUMPI JUMP JUMPDEST ISZERO PUSH2 0xB10 JUMPI JUMP JUMPDEST PUSH1 0x40 MLOAD PUSH3 0x461BCD PUSH1 0xE5 SHL DUP2 MSTORE PUSH1 0x20 PUSH1 0x4 DUP3 ADD MSTORE PUSH1 0x1A PUSH1 0x24 DUP3 ADD MSTORE PUSH32 0x445553544272696467653A20616D6F756E7420746F6F206C6F77000000000000 PUSH1 0x44 DUP3 ADD MSTORE PUSH1 0x64 SWAP1 REVERT JUMPDEST ISZERO PUSH2 0xB5C JUMPI JUMP JUMPDEST PUSH1 0x40 MLOAD PUSH3 0x461BCD PUSH1 0xE5 SHL DUP2 MSTORE PUSH1 0x20 PUSH1 0x4 DUP3 ADD MSTORE PUSH1 0x1B PUSH1 0x24 DUP3 ADD MSTORE PUSH32 0x445553544272696467653A20616D6F756E7420746F6F20686967680000000000 PUSH1 0x44 DUP3 ADD MSTORE PUSH1 0x64 SWAP1 REVERT JUMPDEST PUSH8 0xFFFFFFFFFFFFFFFF DUP2 GT PUSH2 0xBB5 JUMPI PUSH1 0x40 MSTORE JUMP JUMPDEST PUSH4 0x4E487B71 PUSH1 0xE0 SHL PUSH1 0x0 MSTORE PUSH1 0x41 PUSH1 0x4 MSTORE PUSH1 0x24 PUSH1 0x0 REVERT JUMPDEST SWAP2 SWAP1 DUP3 ADD DUP1 SWAP3 GT PUSH2 0xBD8 JUMPI JUMP JUMPDEST PUSH4 0x4E487B71 PUSH1 0xE0 SHL PUSH1 0x0 MSTORE PUSH1 0x11 PUSH1 0x4 MSTORE PUSH1 0x24 PUSH1 0x0 REVERT JUMPDEST PUSH1 0x0 NOT DUP2 EQ PUSH2 0xBD8 JUMPI PUSH1 0x1 ADD SWAP1 JUMP JUMPDEST SWAP2 SWAP1 DUP3 SUB SWAP2 DUP3 GT PUSH2 0xBD8 JUMPI JUMP JUMPDEST PUSH1 0x2 PUSH1 0x1 SLOAD EQ PUSH2 0xC1B JUMPI PUSH1 0x2 PUSH1 0x1 SSTORE JUMP JUMPDEST PUSH1 0x40 MLOAD PUSH4 0x3EE5AEB5 PUSH1 0xE0 SHL DUP2 MSTORE PUSH1 0x4 SWAP1 REVERT JUMPDEST PUSH1 0xFF PUSH1 0x2 SLOAD AND PUSH2 0xC39 JUMPI JUMP JUMPDEST PUSH1 0x40 MLOAD PUSH4 0xD93C0665 PUSH1 0xE0 SHL DUP2 MSTORE PUSH1 0x4 SWAP1 REVERT JUMPDEST CALLER PUSH1 0x0 SWAP1 DUP2 MSTORE PUSH32 0xF7C9542C591017A21C74B6F3FAB6263C7952FC0AAF9DB4C22A2A04DDC7F8674F PUSH1 0x20 MSTORE PUSH1 0x40 SWAP1 KECCAK256 SLOAD PUSH32 0x65D7A28E3265B37A6474929F336521B332C1681B933F6CB9F3376673440D862A SWAP1 PUSH1 0xFF AND ISZERO PUSH2 0xCA7 JUMPI POP JUMP JUMPDEST PUSH1 0x44 SWAP1 PUSH1 0x40 MLOAD SWAP1 PUSH4 0xE2517D3F PUSH1 0xE0 SHL DUP3 MSTORE CALLER PUSH1 0x4 DUP4 ADD MSTORE PUSH1 0x24 DUP3 ADD MSTORE REVERT JUMPDEST DUP1 PUSH1 0x0 MSTORE PUSH1 0x0 PUSH1 0x20 MSTORE PUSH1 0x40 PUSH1 0x0 KECCAK256 CALLER PUSH1 0x0 MSTORE PUSH1 0x20 MSTORE PUSH1 0xFF PUSH1 0x40 PUSH1 0x0 KECCAK256 SLOAD AND ISZERO PUSH2 0xCA7 JUMPI POP JUMP JUMPDEST SWAP1 PUSH1 0x0 SWAP2 DUP1 DUP4 MSTORE DUP3 PUSH1 0x20 MSTORE PUSH1 0x40 DUP4 KECCAK256 SWAP2 PUSH1 0x1 DUP1 PUSH1 0xA0 SHL SUB AND SWAP2 DUP3 DUP5 MSTORE PUSH1 0x20 MSTORE PUSH1 0xFF PUSH1 0x40 DUP5 KECCAK256 SLOAD AND ISZERO PUSH1 0x0 EQ PUSH2 0xD64 JUMPI DUP1 DUP4 MSTORE DUP3 PUSH1 0x20 MSTORE PUSH1 0x40 DUP4 KECCAK256 DUP3 DUP5 MSTORE PUSH1 0x20 MSTORE PUSH1 0x40 DUP4 KECCAK256 PUSH1 0x1 PUSH1 0xFF NOT DUP3 SLOAD AND OR SWAP1 SSTORE PUSH32 0x2F8788117E7EFF1D82E926EC794901D17C78024A50270940304540A733656F0D CALLER SWAP4 DUP1 LOG4 PUSH1 0x1 SWAP1 JUMP JUMPDEST POP POP SWAP1 JUMP JUMPDEST SWAP1 PUSH1 0x0 SWAP2 DUP1 DUP4 MSTORE DUP3 PUSH1 0x20 MSTORE PUSH1 0x40 DUP4 KECCAK256 SWAP2 PUSH1 0x1 DUP1 PUSH1 0xA0 SHL SUB AND SWAP2 DUP3 DUP5 MSTORE PUSH1 0x20 MSTORE PUSH1 0xFF PUSH1 0x40 DUP5 KECCAK256 SLOAD AND PUSH1 0x0 EQ PUSH2 0xD64 JUMPI DUP1 DUP4 MSTORE DUP3 PUSH1 0x20 MSTORE PUSH1 0x40 DUP4 KECCAK256 DUP3 DUP5 MSTORE PUSH1 0x20 MSTORE PUSH1 0x40 DUP4 KECCAK256 PUSH1 0xFF NOT DUP2 SLOAD AND SWAP1 SSTORE PUSH32 0xF6391F5C32D9C69D2A47EA670B442974B53935D1EDC7FD64EB21E047A839171B CALLER SWAP4 DUP1 LOG4 PUSH1 0x1 SWAP1 JUMP INVALID LOG2 PUSH5 0x6970667358 0x22 SLT KECCAK256 CHAINID 0xB6 0xCE 0xC 0xBB 0xC0 0xEE 0xD2 CREATE RETURNDATASIZE 0x2E 0xA7 DUP1 CREATE2 DUP14 MCOPY 0xC2 0xC2 0xE PUSH30 0x4E0D2A4E1559E312DE65FB0E64736F6C634300081800332F8788117E7EFF SAR DUP3 0xE9 0x26 0xEC PUSH26 0x4901D17C78024A50270940304540A733656F0D00000000000000 "},"methodIdentifiers":{"DEFAULT_ADMIN_ROLE()":"a217fddf","PAUSER_ROLE()":"e63ab1e9","RELAYER_ROLE()":"926d7d7f","burnAndBridgeBack(uint256,bytes)":"1d6c8b30","dustToken()":"7238c915","getBridgeStats()":"2165cbb7","getRoleAdmin(bytes32)":"248a9ca3","grantRole(bytes32,address)":"2f2ff15d","hasRole(bytes32,address)":"91d14854","maxBridgeAmount()":"60132c9c","minBridgeAmount()":"c3c22475","mint(uint64,address,uint256,bytes32)":"bf6110a5","pause()":"8456cb59","paused()":"5c975abb","processedBridgeIds(uint64)":"f2fbbcaf","renounceRole(bytes32,address)":"36568abe","revokeRole(bytes32,address)":"d547741f","setLimits(uint256,uint256)":"c4590d3f","stats()":"d80528ae","supportsInterface(bytes4)":"01ffc9a7","unpause()":"3f4ba83a"}}}}}