{"src/StardustTradingVault.sol":{"StardustTradingVault":{"abi":[{"inputs":[{"internalType":"address","name":"_usdc","type":"address"},{"internalType":"string","name":"_name","type":"string"},{"internalType":"string","name":"_symbol","type":"string"}],"stateMutability":"nonpayable","type":"constructor"},{"inputs":[],"name":"AccessControlBadConfirmation","type":"error"},{"inputs":[{"internalType":"address","name":"account","type":"address"},{"internalType":"bytes32","name":"neededRole","type":"bytes32"}],"name":"AccessControlUnauthorizedAccount","type":"error"},{"inputs":[{"internalType":"address","name":"spender","type":"address"},{"internalType":"uint256","name":"allowance","type":"uint256"},{"internalType":"uint256","name":"needed","type":"uint256"}],"name":"ERC20InsufficientAllowance","type":"error"},{"inputs":[{"internalType":"address","name":"sender","type":"address"},{"internalType":"uint256","name":"balance","type":"uint256"},{"internalType":"uint256","name":"needed","type":"uint256"}],"name":"ERC20InsufficientBalance","type":"error"},{"inputs":[{"internalType":"address","name":"approver","type":"address"}],"name":"ERC20InvalidApprover","type":"error"},{"inputs":[{"internalType":"address","name":"receiver","type":"address"}],"name":"ERC20InvalidReceiver","type":"error"},{"inputs":[{"internalType":"address","name":"sender","type":"address"}],"name":"ERC20InvalidSender","type":"error"},{"inputs":[{"internalType":"address","name":"spender","type":"address"}],"name":"ERC20InvalidSpender","type":"error"},{"inputs":[],"name":"EnforcedPause","type":"error"},{"inputs":[],"name":"ExpectedPause","type":"error"},{"inputs":[],"name":"ReentrancyGuardReentrantCall","type":"error"},{"anonymous":false,"inputs":[{"indexed":true,"internalType":"address","name":"owner","type":"address"},{"indexed":true,"internalType":"address","name":"spender","type":"address"},{"indexed":false,"internalType":"uint256","name":"value","type":"uint256"}],"name":"Approval","type":"event"},{"anonymous":false,"inputs":[{"indexed":true,"internalType":"address","name":"user","type":"address"},{"indexed":false,"internalType":"uint256","name":"usdcAmount","type":"uint256"},{"indexed":false,"internalType":"uint256","name":"sharesIssued","type":"uint256"},{"indexed":false,"internalType":"uint256","name":"sharePrice","type":"uint256"}],"name":"Deposited","type":"event"},{"anonymous":false,"inputs":[{"indexed":false,"internalType":"uint256","name":"performanceFeeAmount","type":"uint256"},{"indexed":false,"internalType":"uint256","name":"managementFeeAmount","type":"uint256"},{"indexed":false,"internalType":"uint256","name":"totalFees","type":"uint256"}],"name":"FeesCollected","type":"event"},{"anonymous":false,"inputs":[{"indexed":false,"internalType":"uint256","name":"newNAV","type":"uint256"},{"indexed":false,"internalType":"uint256","name":"oldNAV","type":"uint256"},{"indexed":false,"internalType":"int256","name":"pnl","type":"int256"},{"indexed":false,"internalType":"uint256","name":"timestamp","type":"uint256"}],"name":"NAVUpdated","type":"event"},{"anonymous":false,"inputs":[{"indexed":false,"internalType":"uint256","name":"minDepositAmount","type":"uint256"},{"indexed":false,"internalType":"uint256","name":"performanceFee","type":"uint256"},{"indexed":false,"internalType":"uint256","name":"managementFee","type":"uint256"}],"name":"ParametersUpdated","type":"event"},{"anonymous":false,"inputs":[{"indexed":false,"internalType":"address","name":"account","type":"address"}],"name":"Paused","type":"event"},{"anonymous":false,"inputs":[{"indexed":true,"internalType":"bytes32","name":"role","type":"bytes32"},{"indexed":true,"internalType":"bytes32","name":"previousAdminRole","type":"bytes32"},{"indexed":true,"internalType":"bytes32","name":"newAdminRole","type":"bytes32"}],"name":"RoleAdminChanged","type":"event"},{"anonymous":false,"inputs":[{"indexed":true,"internalType":"bytes32","name":"role","type":"bytes32"},{"indexed":true,"internalType":"address","name":"account","type":"address"},{"indexed":true,"internalType":"address","name":"sender","type":"address"}],"name":"RoleGranted","type":"event"},{"anonymous":false,"inputs":[{"indexed":true,"internalType":"bytes32","name":"role","type":"bytes32"},{"indexed":true,"internalType":"address","name":"account","type":"address"},{"indexed":true,"internalType":"address","name":"sender","type":"address"}],"name":"RoleRevoked","type":"event"},{"anonymous":false,"inputs":[{"indexed":true,"internalType":"address","name":"from","type":"address"},{"indexed":true,"internalType":"address","name":"to","type":"address"},{"indexed":false,"internalType":"uint256","name":"value","type":"uint256"}],"name":"Transfer","type":"event"},{"anonymous":false,"inputs":[{"indexed":false,"internalType":"address","name":"account","type":"address"}],"name":"Unpaused","type":"event"},{"inputs":[],"name":"DEFAULT_ADMIN_ROLE","outputs":[{"internalType":"bytes32","name":"","type":"bytes32"}],"stateMutability":"view","type":"function"},{"inputs":[],"name":"INITIAL_SHARES_BURNED","outputs":[{"internalType":"uint256","name":"","type":"uint256"}],"stateMutability":"view","type":"function"},{"inputs":[],"name":"MIN_INITIAL_DEPOSIT","outputs":[{"internalType":"uint256","name":"","type":"uint256"}],"stateMutability":"view","type":"function"},{"inputs":[],"name":"OCW_ROLE","outputs":[{"internalType":"bytes32","name":"","type":"bytes32"}],"stateMutability":"view","type":"function"},{"inputs":[],"name":"PAUSER_ROLE","outputs":[{"internalType":"bytes32","name":"","type":"bytes32"}],"stateMutability":"view","type":"function"},{"inputs":[],"name":"ROUTER_ROLE","outputs":[{"internalType":"bytes32","name":"","type":"bytes32"}],"stateMutability":"view","type":"function"},{"inputs":[],"name":"accumulatedFees","outputs":[{"internalType":"uint256","name":"","type":"uint256"}],"stateMutability":"view","type":"function"},{"inputs":[{"internalType":"address","name":"owner","type":"address"},{"internalType":"address","name":"spender","type":"address"}],"name":"allowance","outputs":[{"internalType":"uint256","name":"","type":"uint256"}],"stateMutability":"view","type":"function"},{"inputs":[{"internalType":"address","name":"spender","type":"address"},{"internalType":"uint256","name":"value","type":"uint256"}],"name":"approve","outputs":[{"internalType":"bool","name":"","type":"bool"}],"stateMutability":"nonpayable","type":"function"},{"inputs":[{"internalType":"address","name":"account","type":"address"}],"name":"balanceOf","outputs":[{"internalType":"uint256","name":"","type":"uint256"}],"stateMutability":"view","type":"function"},{"inputs":[{"internalType":"address","name":"to","type":"address"}],"name":"collectFees","outputs":[],"stateMutability":"nonpayable","type":"function"},{"inputs":[],"name":"decimals","outputs":[{"internalType":"uint8","name":"","type":"uint8"}],"stateMutability":"pure","type":"function"},{"inputs":[{"internalType":"address","name":"user","type":"address"},{"internalType":"uint256","name":"usdcAmount","type":"uint256"}],"name":"depositFromRouter","outputs":[{"internalType":"uint256","name":"shares","type":"uint256"}],"stateMutability":"nonpayable","type":"function"},{"inputs":[{"internalType":"bytes32","name":"role","type":"bytes32"}],"name":"getRoleAdmin","outputs":[{"internalType":"bytes32","name":"","type":"bytes32"}],"stateMutability":"view","type":"function"},{"inputs":[],"name":"getSharePrice","outputs":[{"internalType":"uint256","name":"price","type":"uint256"}],"stateMutability":"view","type":"function"},{"inputs":[],"name":"getVaultInfo","outputs":[{"internalType":"uint256","name":"totalAssets_","type":"uint256"},{"internalType":"uint256","name":"totalShares_","type":"uint256"},{"internalType":"uint256","name":"sharePrice_","type":"uint256"},{"internalType":"uint256","name":"totalDeposited_","type":"uint256"},{"internalType":"uint256","name":"depositCount_","type":"uint256"},{"internalType":"uint256","name":"accumulatedFees_","type":"uint256"}],"stateMutability":"view","type":"function"},{"inputs":[{"internalType":"bytes32","name":"role","type":"bytes32"},{"internalType":"address","name":"account","type":"address"}],"name":"grantRole","outputs":[],"stateMutability":"nonpayable","type":"function"},{"inputs":[{"internalType":"bytes32","name":"role","type":"bytes32"},{"internalType":"address","name":"account","type":"address"}],"name":"hasRole","outputs":[{"internalType":"bool","name":"","type":"bool"}],"stateMutability":"view","type":"function"},{"inputs":[],"name":"lastUpdateTime","outputs":[{"internalType":"uint256","name":"","type":"uint256"}],"stateMutability":"view","type":"function"},{"inputs":[],"name":"managementFee","outputs":[{"internalType":"uint256","name":"","type":"uint256"}],"stateMutability":"view","type":"function"},{"inputs":[],"name":"minDepositAmount","outputs":[{"internalType":"uint256","name":"","type":"uint256"}],"stateMutability":"view","type":"function"},{"inputs":[],"name":"name","outputs":[{"internalType":"string","name":"","type":"string"}],"stateMutability":"view","type":"function"},{"inputs":[],"name":"pause","outputs":[],"stateMutability":"nonpayable","type":"function"},{"inputs":[],"name":"paused","outputs":[{"internalType":"bool","name":"","type":"bool"}],"stateMutability":"view","type":"function"},{"inputs":[],"name":"performanceFee","outputs":[{"internalType":"uint256","name":"","type":"uint256"}],"stateMutability":"view","type":"function"},{"inputs":[{"internalType":"bytes32","name":"role","type":"bytes32"},{"internalType":"address","name":"callerConfirmation","type":"address"}],"name":"renounceRole","outputs":[],"stateMutability":"nonpayable","type":"function"},{"inputs":[{"internalType":"bytes32","name":"role","type":"bytes32"},{"internalType":"address","name":"account","type":"address"}],"name":"revokeRole","outputs":[],"stateMutability":"nonpayable","type":"function"},{"inputs":[{"internalType":"uint256","name":"_minDepositAmount","type":"uint256"},{"internalType":"uint256","name":"_performanceFee","type":"uint256"},{"internalType":"uint256","name":"_managementFee","type":"uint256"}],"name":"setParameters","outputs":[],"stateMutability":"nonpayable","type":"function"},{"inputs":[],"name":"stats","outputs":[{"internalType":"uint256","name":"totalDeposited","type":"uint256"},{"internalType":"uint256","name":"totalWithdrawn","type":"uint256"},{"internalType":"uint256","name":"depositCount","type":"uint256"},{"internalType":"uint256","name":"highWaterMark","type":"uint256"}],"stateMutability":"view","type":"function"},{"inputs":[{"internalType":"bytes4","name":"interfaceId","type":"bytes4"}],"name":"supportsInterface","outputs":[{"internalType":"bool","name":"","type":"bool"}],"stateMutability":"view","type":"function"},{"inputs":[],"name":"symbol","outputs":[{"internalType":"string","name":"","type":"string"}],"stateMutability":"view","type":"function"},{"inputs":[],"name":"totalAssets","outputs":[{"internalType":"uint256","name":"","type":"uint256"}],"stateMutability":"view","type":"function"},{"inputs":[],"name":"totalSupply","outputs":[{"internalType":"uint256","name":"","type":"uint256"}],"stateMutability":"view","type":"function"},{"inputs":[{"internalType":"address","name":"to","type":"address"},{"internalType":"uint256","name":"value","type":"uint256"}],"name":"transfer","outputs":[{"internalType":"bool","name":"","type":"bool"}],"stateMutability":"nonpayable","type":"function"},{"inputs":[{"internalType":"address","name":"from","type":"address"},{"internalType":"address","name":"to","type":"address"},{"internalType":"uint256","name":"value","type":"uint256"}],"name":"transferFrom","outputs":[{"internalType":"bool","name":"","type":"bool"}],"stateMutability":"nonpayable","type":"function"},{"inputs":[],"name":"unpause","outputs":[],"stateMutability":"nonpayable","type":"function"},{"inputs":[{"internalType":"uint256","name":"newNAV","type":"uint256"}],"name":"updateNAV","outputs":[],"stateMutability":"nonpayable","type":"function"},{"inputs":[],"name":"usdc","outputs":[{"internalType":"contract IERC20","name":"","type":"address"}],"stateMutability":"view","type":"function"}],"evm":{"bytecode":{"linkReferences":{},"object":"60a060405234620003ce5762001f91803803806200001d81620003d3565b9283398101606082820312620003ce5781516001600160a01b0381169190829003620003ce576020838101516001600160401b039490858111620003ce578362000069918301620003f9565b926040820151868111620003ce57620000839201620003f9565b91805194808611620002ce5760038054966001938489811c99168015620003c3575b868a1014620003ad578190601f998a811162000357575b5086908a8311600114620002f057600092620002e4575b505060001982841b1c191690841b1781555b8451918211620002ce5760049485548481811c91168015620002c3575b86821014620002ae5788811162000263575b5084978311600114620001fa5796829394959697600093620001ee575b505082841b92600019911b1c19161783555b60065562989680600a556103e8600b5560c8600c558215620001ab578260805260006008554260095562000177336200046b565b506200018333620004ec565b506040516119e190816200059082396080518181816103aa015281816108190152610b7b0152f35b60405162461bcd60e51b815291820152601360248201527f5661756c743a207a65726f206164647265737300000000000000000000000000604482015260649150fd5b01519150388062000131565b90601f1983169786600052856000209260005b8a81106200024d575084869798999a1062000232575b50505050811b01835562000143565b01519060f884600019921b161c191690553880808062000223565b818301518555938601939187019187016200020d565b86600052856000208980860160051c820192888710620002a4575b0160051c019085905b8281106200029757505062000114565b6000815501859062000287565b925081926200027e565b602287634e487b7160e01b6000525260246000fd5b90607f169062000102565b634e487b7160e01b600052604160045260246000fd5b015190503880620000d3565b90869350601f1983169185600052886000209260005b8a82821062000340575050841162000327575b505050811b018155620000e5565b015160001983861b60f8161c1916905538808062000319565b8385015186558a9790950194938401930162000306565b90915083600052866000208a80850160051c820192898610620003a3575b918891869594930160051c01915b82811062000393575050620000bc565b6000815585945088910162000383565b9250819262000375565b634e487b7160e01b600052602260045260246000fd5b98607f1698620000a5565b600080fd5b6040519190601f01601f191682016001600160401b03811183821017620002ce57604052565b919080601f84011215620003ce5782516001600160401b038111620002ce576020906200042f601f8201601f19168301620003d3565b92818452828287010111620003ce5760005b8181106200045757508260009394955001015290565b858101830151848201840152820162000441565b6001600160a01b031660008181527f05b8ccbb9d4d8fb16ea74ce3c29a41f1b461fbdaff4714a0d9a8eb05499746bc602052604081205490919060ff16620004e85781805260056020526040822081835260205260408220600160ff19825416179055339160008051602062001f718339815191528180a4600190565b5090565b6001600160a01b031660008181527f99f2891db7a8db76249871a02b43b68c0bb8f22ef8a3bc1034ae9375ef6b7c3c60205260408120549091907f65d7a28e3265b37a6474929f336521b332c1681b933f6cb9f3376673440d862a9060ff166200058a5780835260056020526040832082845260205260408320600160ff1982541617905560008051602062001f71833981519152339380a4600190565b50509056fe608060408181526004918236101561001657600080fd5b600092833560e01c91826301e1d114146114635750816301ffc9a71461140d57816306fdde0314611316578163095ea7b31461126c5781630cb1982b14610f71578163146417c014610f3657816318160ddd14610f1757816323b872dd14610e23578163248a9ca314610df85781632ad876e014610dd95781632f2ff15d14610daf57816330d643b514610d74578163313ce56714610d5857816334c5d2ce14610bf057816336568abe14610baa5781633e413bee14610b665781633f4ba83a14610afc578163587f5ed714610add5781635b1dac6014610ab95781635b30f68c1461075c5781635c975abb14610738578163645006ca1461071957816370a08231146106e25781637f98aa71146106955781638456cb591461063a578163877887821461061b57816391d14854146105d457816395d89b41146104cf5781639e73a833146104ab578163a217fddf14610490578163a480ca7914610337578163a6f7f5d614610318578163a9059cbb146102e7578163c8f33c91146102c8578163d547741f1461028457508063d80528ae1461024c578063dd62ed3e146102045763e63ab1e9146101c757600080fd5b34610200578160031936011261020057602090517f65d7a28e3265b37a6474929f336521b332c1681b933f6cb9f3376673440d862a8152f35b5080fd5b5034610200578060031936011261020057806020926102216114c8565b6102296114e3565b6001600160a01b0391821683526001865283832091168252845220549051908152f35b5034610200578160031936011261020057608090600f5490601054906011549060125492815194855260208501528301526060820152f35b919050346102c457806003193601126102c4576102c091356102bb60016102a96114e3565b9383875260056020528620015461176f565b6118f3565b5080f35b8280fd5b5050346102005781600319360112610200576020906009549051908152f35b5050346102005780600319360112610200576020906103116103076114c8565b6024359033611795565b5160018152f35b505034610200578160031936011261020057602090600c549051908152f35b9050346102c4576020908160031936011261048c576103546114c8565b61035c6116bb565b61036461196a565b6001600160a01b0390811661037a81151561161c565b600d5492831561045857906044859288600d55888851958694859363a9059cbb60e01b85528401528760248401527f0000000000000000000000000000000000000000000000000000000000000000165af190811561044e579361040b60609493927fa54e6c2fc0861aa9c991b26891d71059d517983b9e84b91020f42609c452eb9d968891610421575b50611676565b85815193818552840152820152a1600160065580f35b6104419150853d8711610447575b61043981836114f9565b81019061165e565b38610405565b503d61042f565b84513d87823e3d90fd5b855162461bcd60e51b8152908101859052600e60248201526d5661756c743a206e6f206665657360901b6044820152606490fd5b8380fd5b50503461020057816003193601126102005751908152602090f35b50503461020057816003193601126102005760209051683635c9adc5dea000008152f35b83833461020057816003193601126102005780519180938054916001908360011c92600185169485156105ca575b60209586861081146105b757858952908115610593575060011461053b575b610537878761052d828c03836114f9565b519182918261147f565b0390f35b81529295507f8a35acfbc15ff81a39ae7d344fd709f28e8600b4aa8c65c6b64bfe7fe36bd19b5b82841061058057505050826105379461052d9282010194868061051c565b8054868501880152928601928101610562565b60ff19168887015250505050151560051b830101925061052d82610537868061051c565b634e487b7160e01b845260228352602484fd5b93607f16936104fd565b9050346102c457816003193601126102c4578160209360ff926105f56114e3565b90358252600586528282206001600160a01b039091168252855220549151911615158152f35b505034610200578160031936011261020057602090600b549051908152f35b50503461020057816003193601126102005760207f62e78cea01bee320cd4e420270b5ea74000d11b0c9f74754ebdbfc544b05a25891610678611713565b61068061198d565b600160ff19600754161760075551338152a180f35b50503461020057816003193601126102005760085460025460c0926106b8611594565b600f549060115492600d5494815196875260208701528501526060840152608083015260a0820152f35b5050346102005760203660031901126102005760209181906001600160a01b0361070a6114c8565b16815280845220549051908152f35b505034610200578160031936011261020057602090600a549051908152f35b50503461020057816003193601126102005760209060ff6007541690519015158152f35b90508234610ab65782600319360112610ab6576107776114c8565b926024938435907f7a05a596cb0ce7fdea8a1e1ec73be300bdb35097c944ce1897202f7a13122eb29081855260209160058352848620338752835260ff858720541615610a9957506107c761196a565b6107cf61198d565b6001600160a01b039081168015916107e7831561161c565b600a548510610a5f57838960648a8a8a5195869485936323b872dd60e01b8552339085015230908401528a60448401527f0000000000000000000000000000000000000000000000000000000000000000165af1908115610a555790610853918891610a385750611676565b60025480158015610a2e575b156108eb57505050633b9aca0082106108aa575064e8d4a5100081818102041490151715610898575163ec442f0560e01b815291820152fd5b50634e487b7160e01b81526011909152fd5b84601e8760649386519362461bcd60e51b85528401528201527f5661756c743a20696e697469616c206465706f73697420746f6f206c6f7700006044820152fd5b9084888a89899564e8d4a51000808602908682041486151715610a1c579061091291611554565b9661092a85610924600854809b611567565b99611587565b600855610a075761093d87600254611587565b60025584815280885285812087815401905584817fddf252ad1be2c89b69c2b068fc378daa952ba7f163c4a11628f55a4df523b3ef8a89518b8152a361098584600f54611587565b600f556011549260001984146109f7575050507f91ede45f04a37a7c170f5c1207df3b6bc748dc1e04ad5e917a241d0f52feada39160018692016011556109e96109cd611594565b8651938493846040919493926060820195825260208201520152565b0390a2600160065551908152f35b634e487b7160e01b825260119052fd5b855163ec442f0560e01b815280840191909152fd5b5050634e487b7160e01b815260118352fd5b506008541561085f565b610a4f9150853d87116104475761043981836114f9565b8a610405565b86513d89823e3d90fd5b855162461bcd60e51b81528089018590526015818b0152745661756c743a20616d6f756e7420746f6f206c6f7760581b6044820152606490fd5b845163e2517d3f60e01b8152338189015280890191909152604490fd5b80fd5b505034610200578160031936011261020057602090610ad6611594565b9051908152f35b505034610200578160031936011261020057602090600d549051908152f35b9050346102c457826003193601126102c457610b16611713565b6007549060ff821615610b58575060ff1916600755513381527f5db9ee0a495bf2e6ff9c91a7834c1ba4fdd244a5e8aa4e537bd38aeae4b073aa90602090a180f35b8251638dfc202b60e01b8152fd5b505034610200578160031936011261020057517f00000000000000000000000000000000000000000000000000000000000000006001600160a01b03168152602090f35b838334610200578060031936011261020057610bc46114e3565b90336001600160a01b03831603610be157506102c09192356118f3565b5163334bd91960e11b81528390fd5b839150346102005760603660031901126102005780356024359160443590610c166116bb565b6107d08411610d155761012c8211610cd2576109c4610c358386611587565b11610c8f5750610c89907f4dd522c050b46ef5e852ea87e7cd136b049dcb37740ad38386fbbb5cd30aa924949583600a5584600b5581600c5551938493846040919493926060820195825260208201520152565b0390a180f35b606490602087519162461bcd60e51b8352820152601c60248201527f5661756c743a20746f74616c20666565732065786365656420323525000000006044820152fd5b606490602087519162461bcd60e51b8352820152601860248201527f5661756c743a206d676d742066656520746f6f206869676800000000000000006044820152fd5b606490602087519162461bcd60e51b8352820152601860248201527f5661756c743a20706572662066656520746f6f206869676800000000000000006044820152fd5b5050346102005781600319360112610200576020905160128152f35b505034610200578160031936011261020057602090517f7a05a596cb0ce7fdea8a1e1ec73be300bdb35097c944ce1897202f7a13122eb28152f35b919050346102c457806003193601126102c4576102c09135610dd460016102a96114e3565b611873565b50503461020057816003193601126102005760209051633b9aca008152f35b9050346102c45760203660031901126102c45781602093600192358152600585522001549051908152f35b90508234610ab6576060366003190112610ab657610e3f6114c8565b610e476114e3565b916044359360018060a01b038316808352600160205286832033845260205286832054916000198310610e83575b602088610311898989611795565b868310610eeb578115610ed4573315610ebd5750825260016020908152868320338452815291869020908590039055829061031187610e75565b8751634a1406b160e11b8152908101849052602490fd5b875163e602df0560e01b8152908101849052602490fd5b8751637dc7a0d960e11b8152339181019182526020820193909352604081018790528291506060010390fd5b5050346102005781600319360112610200576020906002549051908152f35b505034610200578160031936011261020057602090517f83b40d323b71dbedeb7a3cfe1934edb51fcbd159c01baf1ed28fa858593795268152f35b9050346102c45760203660031901126102c45780357f83b40d323b71dbedeb7a3cfe1934edb51fcbd159c01baf1ed28fa85859379526808552600560205283852033865260205260ff84862054161561124f5750809260085491828103948684128287128116908388139015161761123c578695879488966012548086116111d1575b5061100160095442611531565b801515806111c8575b611153575b50600e54670de0b6b3a76400009081811015611137575b50508489116110fb5750916080917f1f72bb4dc3538777a1bbad91fbc6ee81691c1cef13fc3f73025147ceb9164a91938980151596876110d9575b5050876110d0575b82600855426009558651928352602083015285820152426060820152a161108e578480f35b51908152602081019190915260408101919091527fa54e6c2fc0861aa9c991b26891d71059d517983b9e84b91020f42609c452eb9d90606090a1388080808480f35b82601255611069565b6110f39294506110eb82600d54611587565b600d55611531565b918938611061565b606490602087519162461bcd60e51b835282015260166024820152752b30bab63a1d103332b2b99032bc31b2b2b2102720ab60511b6044820152fd5b90818161114b949c9306600e550490611587565b973880611026565b61116b91999850611166600c5484611554565b611554565b96670de0b6b3a764000097888102908082048a14901517156111b5579064496cebb8006111ae9204906111a68a83049a8b9306600e54611587565b600e55611587565b973861100f565b634e487b7160e01b8b5260118a5260248bfd5b5082151561100a565b6111e39199506111ec92975085611531565b600b5490611554565b94670de0b6b3a764000095868102908082048814901517156112295761271061121e9104968088049706600e54611587565b600e55859738610ff4565b634e487b7160e01b8a526011895260248afd5b634e487b7160e01b875260118552602487fd5b9050604492519163e2517d3f60e01b835233908301526024820152fd5b9050346102c457816003193601126102c4576112866114c8565b6024359033156112ff576001600160a01b03169182156112e857508083602095338152600187528181208582528752205582519081527f8c5be1e5ebec7d5bd14f71427d1e84f3dd0314c0f7b2291e5b200ac8c7c3b925843392a35160018152f35b8351634a1406b160e11b8152908101859052602490fd5b835163e602df0560e01b8152808401869052602490fd5b919050346102c457826003193601126102c45780519183600354906001908260011c92600181168015611403575b60209586861082146113f057508488529081156113ce5750600114611375575b610537868661052d828b03836114f9565b929550600383527fc2575a0e9e593c00f959f8c92f12db2869c3395a3b0502d05e2516446f71f85b5b8284106113bb57505050826105379461052d928201019438611364565b805486850188015292860192810161139e565b60ff191687860152505050151560051b830101925061052d8261053738611364565b634e487b7160e01b845260229052602483fd5b93607f1693611344565b9050346102c45760203660031901126102c457359063ffffffff60e01b82168092036102c45760209250637965db0b60e01b8214918215611452575b50519015158152f35b6301ffc9a760e01b14915038611449565b8490346102005781600319360112610200576020906008548152f35b6020808252825181830181905290939260005b8281106114b457505060409293506000838284010152601f8019910116010190565b818101860151848201604001528501611492565b600435906001600160a01b03821682036114de57565b600080fd5b602435906001600160a01b03821682036114de57565b90601f8019910116810190811067ffffffffffffffff82111761151b57604052565b634e487b7160e01b600052604160045260246000fd5b9190820391821161153e57565b634e487b7160e01b600052601160045260246000fd5b8181029291811591840414171561153e57565b8115611571570490565b634e487b7160e01b600052601260045260246000fd5b9190820180921161153e57565b60025480156115cc57600854906c0c9f2c9cd04674edea400000009182810292818404149015171561153e576115c991611567565b90565b506008546115e057670de0b6b3a764000090565b60405162461bcd60e51b81526020600482015260146024820152735661756c743a20696e76616c696420737461746560601b6044820152606490fd5b1561162357565b60405162461bcd60e51b81526020600482015260136024820152725661756c743a207a65726f206164647265737360681b6044820152606490fd5b908160209103126114de575180151581036114de5790565b1561167d57565b60405162461bcd60e51b815260206004820152601660248201527515985d5b1d0e881d1c985b9cd9995c8819985a5b195960521b6044820152606490fd5b3360009081527f05b8ccbb9d4d8fb16ea74ce3c29a41f1b461fbdaff4714a0d9a8eb05499746bc602052604081205460ff16156116f55750565b6044906040519063e2517d3f60e01b82523360048301526024820152fd5b3360009081527f99f2891db7a8db76249871a02b43b68c0bb8f22ef8a3bc1034ae9375ef6b7c3c60205260409020547f65d7a28e3265b37a6474929f336521b332c1681b933f6cb9f3376673440d862a9060ff16156116f55750565b80600052600560205260406000203360005260205260ff60406000205416156116f55750565b916001600160a01b0380841692831561185a5716928315611841576000908382528160205260408220549083821061180f575091604082827fddf252ad1be2c89b69c2b068fc378daa952ba7f163c4a11628f55a4df523b3ef958760209652828652038282205586815220818154019055604051908152a3565b60405163391434e360e21b81526001600160a01b03919091166004820152602481019190915260448101839052606490fd5b60405163ec442f0560e01b815260006004820152602490fd5b604051634b637e8f60e11b815260006004820152602490fd5b906000918083526005602052604083209160018060a01b03169182845260205260ff604084205416156000146118ee5780835260056020526040832082845260205260408320600160ff198254161790557f2f8788117e7eff1d82e926ec794901d17c78024a50270940304540a733656f0d339380a4600190565b505090565b906000918083526005602052604083209160018060a01b03169182845260205260ff6040842054166000146118ee578083526005602052604083208284526020526040832060ff1981541690557ff6391f5c32d9c69d2a47ea670b442974b53935d1edc7fd64eb21e047a839171b339380a4600190565b60026006541461197b576002600655565b604051633ee5aeb560e01b8152600490fd5b60ff6007541661199957565b60405163d93c066560e01b8152600490fdfea264697066735822122009f5035a9d707f5f52ab56aeaa652f1c48cd5e446af25c26496b60885452eb4364736f6c634300081800332f8788117e7eff1d82e926ec794901d17c78024a50270940304540a733656f0d","opcodes":"PUSH1 0xA0 PUSH1 0x40 MSTORE CALLVALUE PUSH3 0x3CE JUMPI PUSH3 0x1F91 DUP1 CODESIZE SUB DUP1 PUSH3 0x1D DUP2 PUSH3 0x3D3 JUMP JUMPDEST SWAP3 DUP4 CODECOPY DUP2 ADD PUSH1 0x60 DUP3 DUP3 SUB SLT PUSH3 0x3CE JUMPI DUP2 MLOAD PUSH1 0x1 PUSH1 0x1 PUSH1 0xA0 SHL SUB DUP2 AND SWAP2 SWAP1 DUP3 SWAP1 SUB PUSH3 0x3CE JUMPI PUSH1 0x20 DUP4 DUP2 ADD MLOAD PUSH1 0x1 PUSH1 0x1 PUSH1 0x40 SHL SUB SWAP5 SWAP1 DUP6 DUP2 GT PUSH3 0x3CE JUMPI DUP4 PUSH3 0x69 SWAP2 DUP4 ADD PUSH3 0x3F9 JUMP JUMPDEST SWAP3 PUSH1 0x40 DUP3 ADD MLOAD DUP7 DUP2 GT PUSH3 0x3CE JUMPI PUSH3 0x83 SWAP3 ADD PUSH3 0x3F9 JUMP JUMPDEST SWAP2 DUP1 MLOAD SWAP5 DUP1 DUP7 GT PUSH3 0x2CE JUMPI PUSH1 0x3 DUP1 SLOAD SWAP7 PUSH1 0x1 SWAP4 DUP5 DUP10 DUP2 SHR SWAP10 AND DUP1 ISZERO PUSH3 0x3C3 JUMPI JUMPDEST DUP7 DUP11 LT EQ PUSH3 0x3AD JUMPI DUP2 SWAP1 PUSH1 0x1F SWAP10 DUP11 DUP2 GT PUSH3 0x357 JUMPI JUMPDEST POP DUP7 SWAP1 DUP11 DUP4 GT PUSH1 0x1 EQ PUSH3 0x2F0 JUMPI PUSH1 0x0 SWAP3 PUSH3 0x2E4 JUMPI JUMPDEST POP POP PUSH1 0x0 NOT DUP3 DUP5 SHL SHR NOT AND SWAP1 DUP5 SHL OR DUP2 SSTORE JUMPDEST DUP5 MLOAD SWAP2 DUP3 GT PUSH3 0x2CE JUMPI PUSH1 0x4 SWAP5 DUP6 SLOAD DUP5 DUP2 DUP2 SHR SWAP2 AND DUP1 ISZERO PUSH3 0x2C3 JUMPI JUMPDEST DUP7 DUP3 LT EQ PUSH3 0x2AE JUMPI DUP9 DUP2 GT PUSH3 0x263 JUMPI JUMPDEST POP DUP5 SWAP8 DUP4 GT PUSH1 0x1 EQ PUSH3 0x1FA JUMPI SWAP7 DUP3 SWAP4 SWAP5 SWAP6 SWAP7 SWAP8 PUSH1 0x0 SWAP4 PUSH3 0x1EE JUMPI JUMPDEST POP POP DUP3 DUP5 SHL SWAP3 PUSH1 0x0 NOT SWAP2 SHL SHR NOT AND OR DUP4 SSTORE JUMPDEST PUSH1 0x6 SSTORE PUSH3 0x989680 PUSH1 0xA SSTORE PUSH2 0x3E8 PUSH1 0xB SSTORE PUSH1 0xC8 PUSH1 0xC SSTORE DUP3 ISZERO PUSH3 0x1AB JUMPI DUP3 PUSH1 0x80 MSTORE PUSH1 0x0 PUSH1 0x8 SSTORE TIMESTAMP PUSH1 0x9 SSTORE PUSH3 0x177 CALLER PUSH3 0x46B JUMP JUMPDEST POP PUSH3 0x183 CALLER PUSH3 0x4EC JUMP JUMPDEST POP PUSH1 0x40 MLOAD PUSH2 0x19E1 SWAP1 DUP2 PUSH3 0x590 DUP3 CODECOPY PUSH1 0x80 MLOAD DUP2 DUP2 DUP2 PUSH2 0x3AA ADD MSTORE DUP2 DUP2 PUSH2 0x819 ADD MSTORE PUSH2 0xB7B ADD MSTORE RETURN JUMPDEST PUSH1 0x40 MLOAD PUSH3 0x461BCD PUSH1 0xE5 SHL DUP2 MSTORE SWAP2 DUP3 ADD MSTORE PUSH1 0x13 PUSH1 0x24 DUP3 ADD MSTORE PUSH32 0x5661756C743A207A65726F206164647265737300000000000000000000000000 PUSH1 0x44 DUP3 ADD MSTORE PUSH1 0x64 SWAP2 POP REVERT JUMPDEST ADD MLOAD SWAP2 POP CODESIZE DUP1 PUSH3 0x131 JUMP JUMPDEST SWAP1 PUSH1 0x1F NOT DUP4 AND SWAP8 DUP7 PUSH1 0x0 MSTORE DUP6 PUSH1 0x0 KECCAK256 SWAP3 PUSH1 0x0 JUMPDEST DUP11 DUP2 LT PUSH3 0x24D JUMPI POP DUP5 DUP7 SWAP8 SWAP9 SWAP10 SWAP11 LT PUSH3 0x232 JUMPI JUMPDEST POP POP POP POP DUP2 SHL ADD DUP4 SSTORE PUSH3 0x143 JUMP JUMPDEST ADD MLOAD SWAP1 PUSH1 0xF8 DUP5 PUSH1 0x0 NOT SWAP3 SHL AND SHR NOT AND SWAP1 SSTORE CODESIZE DUP1 DUP1 DUP1 PUSH3 0x223 JUMP JUMPDEST DUP2 DUP4 ADD MLOAD DUP6 SSTORE SWAP4 DUP7 ADD SWAP4 SWAP2 DUP8 ADD SWAP2 DUP8 ADD PUSH3 0x20D JUMP JUMPDEST DUP7 PUSH1 0x0 MSTORE DUP6 PUSH1 0x0 KECCAK256 DUP10 DUP1 DUP7 ADD PUSH1 0x5 SHR DUP3 ADD SWAP3 DUP9 DUP8 LT PUSH3 0x2A4 JUMPI JUMPDEST ADD PUSH1 0x5 SHR ADD SWAP1 DUP6 SWAP1 JUMPDEST DUP3 DUP2 LT PUSH3 0x297 JUMPI POP POP PUSH3 0x114 JUMP JUMPDEST PUSH1 0x0 DUP2 SSTORE ADD DUP6 SWAP1 PUSH3 0x287 JUMP JUMPDEST SWAP3 POP DUP2 SWAP3 PUSH3 0x27E JUMP JUMPDEST PUSH1 0x22 DUP8 PUSH4 0x4E487B71 PUSH1 0xE0 SHL PUSH1 0x0 MSTORE MSTORE PUSH1 0x24 PUSH1 0x0 REVERT JUMPDEST SWAP1 PUSH1 0x7F AND SWAP1 PUSH3 0x102 JUMP JUMPDEST PUSH4 0x4E487B71 PUSH1 0xE0 SHL PUSH1 0x0 MSTORE PUSH1 0x41 PUSH1 0x4 MSTORE PUSH1 0x24 PUSH1 0x0 REVERT JUMPDEST ADD MLOAD SWAP1 POP CODESIZE DUP1 PUSH3 0xD3 JUMP JUMPDEST SWAP1 DUP7 SWAP4 POP PUSH1 0x1F NOT DUP4 AND SWAP2 DUP6 PUSH1 0x0 MSTORE DUP9 PUSH1 0x0 KECCAK256 SWAP3 PUSH1 0x0 JUMPDEST DUP11 DUP3 DUP3 LT PUSH3 0x340 JUMPI POP POP DUP5 GT PUSH3 0x327 JUMPI JUMPDEST POP POP POP DUP2 SHL ADD DUP2 SSTORE PUSH3 0xE5 JUMP JUMPDEST ADD MLOAD PUSH1 0x0 NOT DUP4 DUP7 SHL PUSH1 0xF8 AND SHR NOT AND SWAP1 SSTORE CODESIZE DUP1 DUP1 PUSH3 0x319 JUMP JUMPDEST DUP4 DUP6 ADD MLOAD DUP7 SSTORE DUP11 SWAP8 SWAP1 SWAP6 ADD SWAP5 SWAP4 DUP5 ADD SWAP4 ADD PUSH3 0x306 JUMP JUMPDEST SWAP1 SWAP2 POP DUP4 PUSH1 0x0 MSTORE DUP7 PUSH1 0x0 KECCAK256 DUP11 DUP1 DUP6 ADD PUSH1 0x5 SHR DUP3 ADD SWAP3 DUP10 DUP7 LT PUSH3 0x3A3 JUMPI JUMPDEST SWAP2 DUP9 SWAP2 DUP7 SWAP6 SWAP5 SWAP4 ADD PUSH1 0x5 SHR ADD SWAP2 JUMPDEST DUP3 DUP2 LT PUSH3 0x393 JUMPI POP POP PUSH3 0xBC JUMP JUMPDEST PUSH1 0x0 DUP2 SSTORE DUP6 SWAP5 POP DUP9 SWAP2 ADD PUSH3 0x383 JUMP JUMPDEST SWAP3 POP DUP2 SWAP3 PUSH3 0x375 JUMP JUMPDEST PUSH4 0x4E487B71 PUSH1 0xE0 SHL PUSH1 0x0 MSTORE PUSH1 0x22 PUSH1 0x4 MSTORE PUSH1 0x24 PUSH1 0x0 REVERT JUMPDEST SWAP9 PUSH1 0x7F AND SWAP9 PUSH3 0xA5 JUMP JUMPDEST PUSH1 0x0 DUP1 REVERT JUMPDEST PUSH1 0x40 MLOAD SWAP2 SWAP1 PUSH1 0x1F ADD PUSH1 0x1F NOT AND DUP3 ADD PUSH1 0x1 PUSH1 0x1 PUSH1 0x40 SHL SUB DUP2 GT DUP4 DUP3 LT OR PUSH3 0x2CE JUMPI PUSH1 0x40 MSTORE JUMP JUMPDEST SWAP2 SWAP1 DUP1 PUSH1 0x1F DUP5 ADD SLT ISZERO PUSH3 0x3CE JUMPI DUP3 MLOAD PUSH1 0x1 PUSH1 0x1 PUSH1 0x40 SHL SUB DUP2 GT PUSH3 0x2CE JUMPI PUSH1 0x20 SWAP1 PUSH3 0x42F PUSH1 0x1F DUP3 ADD PUSH1 0x1F NOT AND DUP4 ADD PUSH3 0x3D3 JUMP JUMPDEST SWAP3 DUP2 DUP5 MSTORE DUP3 DUP3 DUP8 ADD ADD GT PUSH3 0x3CE JUMPI PUSH1 0x0 JUMPDEST DUP2 DUP2 LT PUSH3 0x457 JUMPI POP DUP3 PUSH1 0x0 SWAP4 SWAP5 SWAP6 POP ADD ADD MSTORE SWAP1 JUMP JUMPDEST DUP6 DUP2 ADD DUP4 ADD MLOAD DUP5 DUP3 ADD DUP5 ADD MSTORE DUP3 ADD PUSH3 0x441 JUMP JUMPDEST PUSH1 0x1 PUSH1 0x1 PUSH1 0xA0 SHL SUB AND PUSH1 0x0 DUP2 DUP2 MSTORE PUSH32 0x5B8CCBB9D4D8FB16EA74CE3C29A41F1B461FBDAFF4714A0D9A8EB05499746BC PUSH1 0x20 MSTORE PUSH1 0x40 DUP2 KECCAK256 SLOAD SWAP1 SWAP2 SWAP1 PUSH1 0xFF AND PUSH3 0x4E8 JUMPI DUP2 DUP1 MSTORE PUSH1 0x5 PUSH1 0x20 MSTORE PUSH1 0x40 DUP3 KECCAK256 DUP2 DUP4 MSTORE PUSH1 0x20 MSTORE PUSH1 0x40 DUP3 KECCAK256 PUSH1 0x1 PUSH1 0xFF NOT DUP3 SLOAD AND OR SWAP1 SSTORE CALLER SWAP2 PUSH1 0x0 DUP1 MLOAD PUSH1 0x20 PUSH3 0x1F71 DUP4 CODECOPY DUP2 MLOAD SWAP2 MSTORE DUP2 DUP1 LOG4 PUSH1 0x1 SWAP1 JUMP JUMPDEST POP SWAP1 JUMP JUMPDEST PUSH1 0x1 PUSH1 0x1 PUSH1 0xA0 SHL SUB AND PUSH1 0x0 DUP2 DUP2 MSTORE PUSH32 0x99F2891DB7A8DB76249871A02B43B68C0BB8F22EF8A3BC1034AE9375EF6B7C3C PUSH1 0x20 MSTORE PUSH1 0x40 DUP2 KECCAK256 SLOAD SWAP1 SWAP2 SWAP1 PUSH32 0x65D7A28E3265B37A6474929F336521B332C1681B933F6CB9F3376673440D862A SWAP1 PUSH1 0xFF AND PUSH3 0x58A JUMPI DUP1 DUP4 MSTORE PUSH1 0x5 PUSH1 0x20 MSTORE PUSH1 0x40 DUP4 KECCAK256 DUP3 DUP5 MSTORE PUSH1 0x20 MSTORE PUSH1 0x40 DUP4 KECCAK256 PUSH1 0x1 PUSH1 0xFF NOT DUP3 SLOAD AND OR SWAP1 SSTORE PUSH1 0x0 DUP1 MLOAD PUSH1 0x20 PUSH3 0x1F71 DUP4 CODECOPY DUP2 MLOAD SWAP2 MSTORE CALLER SWAP4 DUP1 LOG4 PUSH1 0x1 SWAP1 JUMP JUMPDEST POP POP SWAP1 JUMP INVALID PUSH1 0x80 PUSH1 0x40 DUP2 DUP2 MSTORE PUSH1 0x4 SWAP2 DUP3 CALLDATASIZE LT ISZERO PUSH2 0x16 JUMPI PUSH1 0x0 DUP1 REVERT JUMPDEST PUSH1 0x0 SWAP3 DUP4 CALLDATALOAD PUSH1 0xE0 SHR SWAP2 DUP3 PUSH4 0x1E1D114 EQ PUSH2 0x1463 JUMPI POP DUP2 PUSH4 0x1FFC9A7 EQ PUSH2 0x140D JUMPI DUP2 PUSH4 0x6FDDE03 EQ PUSH2 0x1316 JUMPI DUP2 PUSH4 0x95EA7B3 EQ PUSH2 0x126C JUMPI DUP2 PUSH4 0xCB1982B EQ PUSH2 0xF71 JUMPI DUP2 PUSH4 0x146417C0 EQ PUSH2 0xF36 JUMPI DUP2 PUSH4 0x18160DDD EQ PUSH2 0xF17 JUMPI DUP2 PUSH4 0x23B872DD EQ PUSH2 0xE23 JUMPI DUP2 PUSH4 0x248A9CA3 EQ PUSH2 0xDF8 JUMPI DUP2 PUSH4 0x2AD876E0 EQ PUSH2 0xDD9 JUMPI DUP2 PUSH4 0x2F2FF15D EQ PUSH2 0xDAF JUMPI DUP2 PUSH4 0x30D643B5 EQ PUSH2 0xD74 JUMPI DUP2 PUSH4 0x313CE567 EQ PUSH2 0xD58 JUMPI DUP2 PUSH4 0x34C5D2CE EQ PUSH2 0xBF0 JUMPI DUP2 PUSH4 0x36568ABE EQ PUSH2 0xBAA JUMPI DUP2 PUSH4 0x3E413BEE EQ PUSH2 0xB66 JUMPI DUP2 PUSH4 0x3F4BA83A EQ PUSH2 0xAFC JUMPI DUP2 PUSH4 0x587F5ED7 EQ PUSH2 0xADD JUMPI DUP2 PUSH4 0x5B1DAC60 EQ PUSH2 0xAB9 JUMPI DUP2 PUSH4 0x5B30F68C EQ PUSH2 0x75C JUMPI DUP2 PUSH4 0x5C975ABB EQ PUSH2 0x738 JUMPI DUP2 PUSH4 0x645006CA EQ PUSH2 0x719 JUMPI DUP2 PUSH4 0x70A08231 EQ PUSH2 0x6E2 JUMPI DUP2 PUSH4 0x7F98AA71 EQ PUSH2 0x695 JUMPI DUP2 PUSH4 0x8456CB59 EQ PUSH2 0x63A JUMPI DUP2 PUSH4 0x87788782 EQ PUSH2 0x61B JUMPI DUP2 PUSH4 0x91D14854 EQ PUSH2 0x5D4 JUMPI DUP2 PUSH4 0x95D89B41 EQ PUSH2 0x4CF JUMPI DUP2 PUSH4 0x9E73A833 EQ PUSH2 0x4AB JUMPI DUP2 PUSH4 0xA217FDDF EQ PUSH2 0x490 JUMPI DUP2 PUSH4 0xA480CA79 EQ PUSH2 0x337 JUMPI DUP2 PUSH4 0xA6F7F5D6 EQ PUSH2 0x318 JUMPI DUP2 PUSH4 0xA9059CBB EQ PUSH2 0x2E7 JUMPI DUP2 PUSH4 0xC8F33C91 EQ PUSH2 0x2C8 JUMPI DUP2 PUSH4 0xD547741F EQ PUSH2 0x284 JUMPI POP DUP1 PUSH4 0xD80528AE EQ PUSH2 0x24C JUMPI DUP1 PUSH4 0xDD62ED3E EQ PUSH2 0x204 JUMPI PUSH4 0xE63AB1E9 EQ PUSH2 0x1C7 JUMPI PUSH1 0x0 DUP1 REVERT JUMPDEST CALLVALUE PUSH2 0x200 JUMPI DUP2 PUSH1 0x3 NOT CALLDATASIZE ADD SLT PUSH2 0x200 JUMPI PUSH1 0x20 SWAP1 MLOAD PUSH32 0x65D7A28E3265B37A6474929F336521B332C1681B933F6CB9F3376673440D862A DUP2 MSTORE RETURN JUMPDEST POP DUP1 REVERT JUMPDEST POP CALLVALUE PUSH2 0x200 JUMPI DUP1 PUSH1 0x3 NOT CALLDATASIZE ADD SLT PUSH2 0x200 JUMPI DUP1 PUSH1 0x20 SWAP3 PUSH2 0x221 PUSH2 0x14C8 JUMP JUMPDEST PUSH2 0x229 PUSH2 0x14E3 JUMP JUMPDEST PUSH1 0x1 PUSH1 0x1 PUSH1 0xA0 SHL SUB SWAP2 DUP3 AND DUP4 MSTORE PUSH1 0x1 DUP7 MSTORE DUP4 DUP4 KECCAK256 SWAP2 AND DUP3 MSTORE DUP5 MSTORE KECCAK256 SLOAD SWAP1 MLOAD SWAP1 DUP2 MSTORE RETURN JUMPDEST POP CALLVALUE PUSH2 0x200 JUMPI DUP2 PUSH1 0x3 NOT CALLDATASIZE ADD SLT PUSH2 0x200 JUMPI PUSH1 0x80 SWAP1 PUSH1 0xF SLOAD SWAP1 PUSH1 0x10 SLOAD SWAP1 PUSH1 0x11 SLOAD SWAP1 PUSH1 0x12 SLOAD SWAP3 DUP2 MLOAD SWAP5 DUP6 MSTORE PUSH1 0x20 DUP6 ADD MSTORE DUP4 ADD MSTORE PUSH1 0x60 DUP3 ADD MSTORE RETURN JUMPDEST SWAP2 SWAP1 POP CALLVALUE PUSH2 0x2C4 JUMPI DUP1 PUSH1 0x3 NOT CALLDATASIZE ADD SLT PUSH2 0x2C4 JUMPI PUSH2 0x2C0 SWAP2 CALLDATALOAD PUSH2 0x2BB PUSH1 0x1 PUSH2 0x2A9 PUSH2 0x14E3 JUMP JUMPDEST SWAP4 DUP4 DUP8 MSTORE PUSH1 0x5 PUSH1 0x20 MSTORE DUP7 KECCAK256 ADD SLOAD PUSH2 0x176F JUMP JUMPDEST PUSH2 0x18F3 JUMP JUMPDEST POP DUP1 RETURN JUMPDEST DUP3 DUP1 REVERT JUMPDEST POP POP CALLVALUE PUSH2 0x200 JUMPI DUP2 PUSH1 0x3 NOT CALLDATASIZE ADD SLT PUSH2 0x200 JUMPI PUSH1 0x20 SWAP1 PUSH1 0x9 SLOAD SWAP1 MLOAD SWAP1 DUP2 MSTORE RETURN JUMPDEST POP POP CALLVALUE PUSH2 0x200 JUMPI DUP1 PUSH1 0x3 NOT CALLDATASIZE ADD SLT PUSH2 0x200 JUMPI PUSH1 0x20 SWAP1 PUSH2 0x311 PUSH2 0x307 PUSH2 0x14C8 JUMP JUMPDEST PUSH1 0x24 CALLDATALOAD SWAP1 CALLER PUSH2 0x1795 JUMP JUMPDEST MLOAD PUSH1 0x1 DUP2 MSTORE RETURN JUMPDEST POP POP CALLVALUE PUSH2 0x200 JUMPI DUP2 PUSH1 0x3 NOT CALLDATASIZE ADD SLT PUSH2 0x200 JUMPI PUSH1 0x20 SWAP1 PUSH1 0xC SLOAD SWAP1 MLOAD SWAP1 DUP2 MSTORE RETURN JUMPDEST SWAP1 POP CALLVALUE PUSH2 0x2C4 JUMPI PUSH1 0x20 SWAP1 DUP2 PUSH1 0x3 NOT CALLDATASIZE ADD SLT PUSH2 0x48C JUMPI PUSH2 0x354 PUSH2 0x14C8 JUMP JUMPDEST PUSH2 0x35C PUSH2 0x16BB JUMP JUMPDEST PUSH2 0x364 PUSH2 0x196A JUMP JUMPDEST PUSH1 0x1 PUSH1 0x1 PUSH1 0xA0 SHL SUB SWAP1 DUP2 AND PUSH2 0x37A DUP2 ISZERO ISZERO PUSH2 0x161C JUMP JUMPDEST PUSH1 0xD SLOAD SWAP3 DUP4 ISZERO PUSH2 0x458 JUMPI SWAP1 PUSH1 0x44 DUP6 SWAP3 DUP9 PUSH1 0xD SSTORE DUP9 DUP9 MLOAD SWAP6 DUP7 SWAP5 DUP6 SWAP4 PUSH4 0xA9059CBB PUSH1 0xE0 SHL DUP6 MSTORE DUP5 ADD MSTORE DUP8 PUSH1 0x24 DUP5 ADD MSTORE PUSH32 0x0 AND GAS CALL SWAP1 DUP2 ISZERO PUSH2 0x44E JUMPI SWAP4 PUSH2 0x40B PUSH1 0x60 SWAP5 SWAP4 SWAP3 PUSH32 0xA54E6C2FC0861AA9C991B26891D71059D517983B9E84B91020F42609C452EB9D SWAP7 DUP9 SWAP2 PUSH2 0x421 JUMPI JUMPDEST POP PUSH2 0x1676 JUMP JUMPDEST DUP6 DUP2 MLOAD SWAP4 DUP2 DUP6 MSTORE DUP5 ADD MSTORE DUP3 ADD MSTORE LOG1 PUSH1 0x1 PUSH1 0x6 SSTORE DUP1 RETURN JUMPDEST PUSH2 0x441 SWAP2 POP DUP6 RETURNDATASIZE DUP8 GT PUSH2 0x447 JUMPI JUMPDEST PUSH2 0x439 DUP2 DUP4 PUSH2 0x14F9 JUMP JUMPDEST DUP2 ADD SWAP1 PUSH2 0x165E JUMP JUMPDEST CODESIZE PUSH2 0x405 JUMP JUMPDEST POP RETURNDATASIZE PUSH2 0x42F JUMP JUMPDEST DUP5 MLOAD RETURNDATASIZE DUP8 DUP3 RETURNDATACOPY RETURNDATASIZE SWAP1 REVERT JUMPDEST DUP6 MLOAD PUSH3 0x461BCD PUSH1 0xE5 SHL DUP2 MSTORE SWAP1 DUP2 ADD DUP6 SWAP1 MSTORE PUSH1 0xE PUSH1 0x24 DUP3 ADD MSTORE PUSH14 0x5661756C743A206E6F2066656573 PUSH1 0x90 SHL PUSH1 0x44 DUP3 ADD MSTORE PUSH1 0x64 SWAP1 REVERT JUMPDEST DUP4 DUP1 REVERT JUMPDEST POP POP CALLVALUE PUSH2 0x200 JUMPI DUP2 PUSH1 0x3 NOT CALLDATASIZE ADD SLT PUSH2 0x200 JUMPI MLOAD SWAP1 DUP2 MSTORE PUSH1 0x20 SWAP1 RETURN JUMPDEST POP POP CALLVALUE PUSH2 0x200 JUMPI DUP2 PUSH1 0x3 NOT CALLDATASIZE ADD SLT PUSH2 0x200 JUMPI PUSH1 0x20 SWAP1 MLOAD PUSH9 0x3635C9ADC5DEA00000 DUP2 MSTORE RETURN JUMPDEST DUP4 DUP4 CALLVALUE PUSH2 0x200 JUMPI DUP2 PUSH1 0x3 NOT CALLDATASIZE ADD SLT PUSH2 0x200 JUMPI DUP1 MLOAD SWAP2 DUP1 SWAP4 DUP1 SLOAD SWAP2 PUSH1 0x1 SWAP1 DUP4 PUSH1 0x1 SHR SWAP3 PUSH1 0x1 DUP6 AND SWAP5 DUP6 ISZERO PUSH2 0x5CA JUMPI JUMPDEST PUSH1 0x20 SWAP6 DUP7 DUP7 LT DUP2 EQ PUSH2 0x5B7 JUMPI DUP6 DUP10 MSTORE SWAP1 DUP2 ISZERO PUSH2 0x593 JUMPI POP PUSH1 0x1 EQ PUSH2 0x53B JUMPI JUMPDEST PUSH2 0x537 DUP8 DUP8 PUSH2 0x52D DUP3 DUP13 SUB DUP4 PUSH2 0x14F9 JUMP JUMPDEST MLOAD SWAP2 DUP3 SWAP2 DUP3 PUSH2 0x147F JUMP JUMPDEST SUB SWAP1 RETURN JUMPDEST DUP2 MSTORE SWAP3 SWAP6 POP PUSH32 0x8A35ACFBC15FF81A39AE7D344FD709F28E8600B4AA8C65C6B64BFE7FE36BD19B JUMPDEST DUP3 DUP5 LT PUSH2 0x580 JUMPI POP POP POP DUP3 PUSH2 0x537 SWAP5 PUSH2 0x52D SWAP3 DUP3 ADD ADD SWAP5 DUP7 DUP1 PUSH2 0x51C JUMP JUMPDEST DUP1 SLOAD DUP7 DUP6 ADD DUP9 ADD MSTORE SWAP3 DUP7 ADD SWAP3 DUP2 ADD PUSH2 0x562 JUMP JUMPDEST PUSH1 0xFF NOT AND DUP9 DUP8 ADD MSTORE POP POP POP POP ISZERO ISZERO PUSH1 0x5 SHL DUP4 ADD ADD SWAP3 POP PUSH2 0x52D DUP3 PUSH2 0x537 DUP7 DUP1 PUSH2 0x51C JUMP JUMPDEST PUSH4 0x4E487B71 PUSH1 0xE0 SHL DUP5 MSTORE PUSH1 0x22 DUP4 MSTORE PUSH1 0x24 DUP5 REVERT JUMPDEST SWAP4 PUSH1 0x7F AND SWAP4 PUSH2 0x4FD JUMP JUMPDEST SWAP1 POP CALLVALUE PUSH2 0x2C4 JUMPI DUP2 PUSH1 0x3 NOT CALLDATASIZE ADD SLT PUSH2 0x2C4 JUMPI DUP2 PUSH1 0x20 SWAP4 PUSH1 0xFF SWAP3 PUSH2 0x5F5 PUSH2 0x14E3 JUMP JUMPDEST SWAP1 CALLDATALOAD DUP3 MSTORE PUSH1 0x5 DUP7 MSTORE DUP3 DUP3 KECCAK256 PUSH1 0x1 PUSH1 0x1 PUSH1 0xA0 SHL SUB SWAP1 SWAP2 AND DUP3 MSTORE DUP6 MSTORE KECCAK256 SLOAD SWAP2 MLOAD SWAP2 AND ISZERO ISZERO DUP2 MSTORE RETURN JUMPDEST POP POP CALLVALUE PUSH2 0x200 JUMPI DUP2 PUSH1 0x3 NOT CALLDATASIZE ADD SLT PUSH2 0x200 JUMPI PUSH1 0x20 SWAP1 PUSH1 0xB SLOAD SWAP1 MLOAD SWAP1 DUP2 MSTORE RETURN JUMPDEST POP POP CALLVALUE PUSH2 0x200 JUMPI DUP2 PUSH1 0x3 NOT CALLDATASIZE ADD SLT PUSH2 0x200 JUMPI PUSH1 0x20 PUSH32 0x62E78CEA01BEE320CD4E420270B5EA74000D11B0C9F74754EBDBFC544B05A258 SWAP2 PUSH2 0x678 PUSH2 0x1713 JUMP JUMPDEST PUSH2 0x680 PUSH2 0x198D JUMP JUMPDEST PUSH1 0x1 PUSH1 0xFF NOT PUSH1 0x7 SLOAD AND OR PUSH1 0x7 SSTORE MLOAD CALLER DUP2 MSTORE LOG1 DUP1 RETURN JUMPDEST POP POP CALLVALUE PUSH2 0x200 JUMPI DUP2 PUSH1 0x3 NOT CALLDATASIZE ADD SLT PUSH2 0x200 JUMPI PUSH1 0x8 SLOAD PUSH1 0x2 SLOAD PUSH1 0xC0 SWAP3 PUSH2 0x6B8 PUSH2 0x1594 JUMP JUMPDEST PUSH1 0xF SLOAD SWAP1 PUSH1 0x11 SLOAD SWAP3 PUSH1 0xD SLOAD SWAP5 DUP2 MLOAD SWAP7 DUP8 MSTORE PUSH1 0x20 DUP8 ADD MSTORE DUP6 ADD MSTORE PUSH1 0x60 DUP5 ADD MSTORE PUSH1 0x80 DUP4 ADD MSTORE PUSH1 0xA0 DUP3 ADD MSTORE RETURN JUMPDEST POP POP CALLVALUE PUSH2 0x200 JUMPI PUSH1 0x20 CALLDATASIZE PUSH1 0x3 NOT ADD SLT PUSH2 0x200 JUMPI PUSH1 0x20 SWAP2 DUP2 SWAP1 PUSH1 0x1 PUSH1 0x1 PUSH1 0xA0 SHL SUB PUSH2 0x70A PUSH2 0x14C8 JUMP JUMPDEST AND DUP2 MSTORE DUP1 DUP5 MSTORE KECCAK256 SLOAD SWAP1 MLOAD SWAP1 DUP2 MSTORE RETURN JUMPDEST POP POP CALLVALUE PUSH2 0x200 JUMPI DUP2 PUSH1 0x3 NOT CALLDATASIZE ADD SLT PUSH2 0x200 JUMPI PUSH1 0x20 SWAP1 PUSH1 0xA SLOAD SWAP1 MLOAD SWAP1 DUP2 MSTORE RETURN JUMPDEST POP POP CALLVALUE PUSH2 0x200 JUMPI DUP2 PUSH1 0x3 NOT CALLDATASIZE ADD SLT PUSH2 0x200 JUMPI PUSH1 0x20 SWAP1 PUSH1 0xFF PUSH1 0x7 SLOAD AND SWAP1 MLOAD SWAP1 ISZERO ISZERO DUP2 MSTORE RETURN JUMPDEST SWAP1 POP DUP3 CALLVALUE PUSH2 0xAB6 JUMPI DUP3 PUSH1 0x3 NOT CALLDATASIZE ADD SLT PUSH2 0xAB6 JUMPI PUSH2 0x777 PUSH2 0x14C8 JUMP JUMPDEST SWAP3 PUSH1 0x24 SWAP4 DUP5 CALLDATALOAD SWAP1 PUSH32 0x7A05A596CB0CE7FDEA8A1E1EC73BE300BDB35097C944CE1897202F7A13122EB2 SWAP1 DUP2 DUP6 MSTORE PUSH1 0x20 SWAP2 PUSH1 0x5 DUP4 MSTORE DUP5 DUP7 KECCAK256 CALLER DUP8 MSTORE DUP4 MSTORE PUSH1 0xFF DUP6 DUP8 KECCAK256 SLOAD AND ISZERO PUSH2 0xA99 JUMPI POP PUSH2 0x7C7 PUSH2 0x196A JUMP JUMPDEST PUSH2 0x7CF PUSH2 0x198D JUMP JUMPDEST PUSH1 0x1 PUSH1 0x1 PUSH1 0xA0 SHL SUB SWAP1 DUP2 AND DUP1 ISZERO SWAP2 PUSH2 0x7E7 DUP4 ISZERO PUSH2 0x161C JUMP JUMPDEST PUSH1 0xA SLOAD DUP6 LT PUSH2 0xA5F JUMPI DUP4 DUP10 PUSH1 0x64 DUP11 DUP11 DUP11 MLOAD SWAP6 DUP7 SWAP5 DUP6 SWAP4 PUSH4 0x23B872DD PUSH1 0xE0 SHL DUP6 MSTORE CALLER SWAP1 DUP6 ADD MSTORE ADDRESS SWAP1 DUP5 ADD MSTORE DUP11 PUSH1 0x44 DUP5 ADD MSTORE PUSH32 0x0 AND GAS CALL SWAP1 DUP2 ISZERO PUSH2 0xA55 JUMPI SWAP1 PUSH2 0x853 SWAP2 DUP9 SWAP2 PUSH2 0xA38 JUMPI POP PUSH2 0x1676 JUMP JUMPDEST PUSH1 0x2 SLOAD DUP1 ISZERO DUP1 ISZERO PUSH2 0xA2E JUMPI JUMPDEST ISZERO PUSH2 0x8EB JUMPI POP POP POP PUSH4 0x3B9ACA00 DUP3 LT PUSH2 0x8AA JUMPI POP PUSH5 0xE8D4A51000 DUP2 DUP2 DUP2 MUL DIV EQ SWAP1 ISZERO OR ISZERO PUSH2 0x898 JUMPI MLOAD PUSH4 0xEC442F05 PUSH1 0xE0 SHL DUP2 MSTORE SWAP2 DUP3 ADD MSTORE REVERT JUMPDEST POP PUSH4 0x4E487B71 PUSH1 0xE0 SHL DUP2 MSTORE PUSH1 0x11 SWAP1 SWAP2 MSTORE REVERT JUMPDEST DUP5 PUSH1 0x1E DUP8 PUSH1 0x64 SWAP4 DUP7 MLOAD SWAP4 PUSH3 0x461BCD PUSH1 0xE5 SHL DUP6 MSTORE DUP5 ADD MSTORE DUP3 ADD MSTORE PUSH32 0x5661756C743A20696E697469616C206465706F73697420746F6F206C6F770000 PUSH1 0x44 DUP3 ADD MSTORE REVERT JUMPDEST SWAP1 DUP5 DUP9 DUP11 DUP10 DUP10 SWAP6 PUSH5 0xE8D4A51000 DUP1 DUP7 MUL SWAP1 DUP7 DUP3 DIV EQ DUP7 ISZERO OR ISZERO PUSH2 0xA1C JUMPI SWAP1 PUSH2 0x912 SWAP2 PUSH2 0x1554 JUMP JUMPDEST SWAP7 PUSH2 0x92A DUP6 PUSH2 0x924 PUSH1 0x8 SLOAD DUP1 SWAP12 PUSH2 0x1567 JUMP JUMPDEST SWAP10 PUSH2 0x1587 JUMP JUMPDEST PUSH1 0x8 SSTORE PUSH2 0xA07 JUMPI PUSH2 0x93D DUP8 PUSH1 0x2 SLOAD PUSH2 0x1587 JUMP JUMPDEST PUSH1 0x2 SSTORE DUP5 DUP2 MSTORE DUP1 DUP9 MSTORE DUP6 DUP2 KECCAK256 DUP8 DUP2 SLOAD ADD SWAP1 SSTORE DUP5 DUP2 PUSH32 0xDDF252AD1BE2C89B69C2B068FC378DAA952BA7F163C4A11628F55A4DF523B3EF DUP11 DUP10 MLOAD DUP12 DUP2 MSTORE LOG3 PUSH2 0x985 DUP5 PUSH1 0xF SLOAD PUSH2 0x1587 JUMP JUMPDEST PUSH1 0xF SSTORE PUSH1 0x11 SLOAD SWAP3 PUSH1 0x0 NOT DUP5 EQ PUSH2 0x9F7 JUMPI POP POP POP PUSH32 0x91EDE45F04A37A7C170F5C1207DF3B6BC748DC1E04AD5E917A241D0F52FEADA3 SWAP2 PUSH1 0x1 DUP7 SWAP3 ADD PUSH1 0x11 SSTORE PUSH2 0x9E9 PUSH2 0x9CD PUSH2 0x1594 JUMP JUMPDEST DUP7 MLOAD SWAP4 DUP5 SWAP4 DUP5 PUSH1 0x40 SWAP2 SWAP5 SWAP4 SWAP3 PUSH1 0x60 DUP3 ADD SWAP6 DUP3 MSTORE PUSH1 0x20 DUP3 ADD MSTORE ADD MSTORE JUMP JUMPDEST SUB SWAP1 LOG2 PUSH1 0x1 PUSH1 0x6 SSTORE MLOAD SWAP1 DUP2 MSTORE RETURN JUMPDEST PUSH4 0x4E487B71 PUSH1 0xE0 SHL DUP3 MSTORE PUSH1 0x11 SWAP1 MSTORE REVERT JUMPDEST DUP6 MLOAD PUSH4 0xEC442F05 PUSH1 0xE0 SHL DUP2 MSTORE DUP1 DUP5 ADD SWAP2 SWAP1 SWAP2 MSTORE REVERT JUMPDEST POP POP PUSH4 0x4E487B71 PUSH1 0xE0 SHL DUP2 MSTORE PUSH1 0x11 DUP4 MSTORE REVERT JUMPDEST POP PUSH1 0x8 SLOAD ISZERO PUSH2 0x85F JUMP JUMPDEST PUSH2 0xA4F SWAP2 POP DUP6 RETURNDATASIZE DUP8 GT PUSH2 0x447 JUMPI PUSH2 0x439 DUP2 DUP4 PUSH2 0x14F9 JUMP JUMPDEST DUP11 PUSH2 0x405 JUMP JUMPDEST DUP7 MLOAD RETURNDATASIZE DUP10 DUP3 RETURNDATACOPY RETURNDATASIZE SWAP1 REVERT JUMPDEST DUP6 MLOAD PUSH3 0x461BCD PUSH1 0xE5 SHL DUP2 MSTORE DUP1 DUP10 ADD DUP6 SWAP1 MSTORE PUSH1 0x15 DUP2 DUP12 ADD MSTORE PUSH21 0x5661756C743A20616D6F756E7420746F6F206C6F77 PUSH1 0x58 SHL PUSH1 0x44 DUP3 ADD MSTORE PUSH1 0x64 SWAP1 REVERT JUMPDEST DUP5 MLOAD PUSH4 0xE2517D3F PUSH1 0xE0 SHL DUP2 MSTORE CALLER DUP2 DUP10 ADD MSTORE DUP1 DUP10 ADD SWAP2 SWAP1 SWAP2 MSTORE PUSH1 0x44 SWAP1 REVERT JUMPDEST DUP1 REVERT JUMPDEST POP POP CALLVALUE PUSH2 0x200 JUMPI DUP2 PUSH1 0x3 NOT CALLDATASIZE ADD SLT PUSH2 0x200 JUMPI PUSH1 0x20 SWAP1 PUSH2 0xAD6 PUSH2 0x1594 JUMP JUMPDEST SWAP1 MLOAD SWAP1 DUP2 MSTORE RETURN JUMPDEST POP POP CALLVALUE PUSH2 0x200 JUMPI DUP2 PUSH1 0x3 NOT CALLDATASIZE ADD SLT PUSH2 0x200 JUMPI PUSH1 0x20 SWAP1 PUSH1 0xD SLOAD SWAP1 MLOAD SWAP1 DUP2 MSTORE RETURN JUMPDEST SWAP1 POP CALLVALUE PUSH2 0x2C4 JUMPI DUP3 PUSH1 0x3 NOT CALLDATASIZE ADD SLT PUSH2 0x2C4 JUMPI PUSH2 0xB16 PUSH2 0x1713 JUMP JUMPDEST PUSH1 0x7 SLOAD SWAP1 PUSH1 0xFF DUP3 AND ISZERO PUSH2 0xB58 JUMPI POP PUSH1 0xFF NOT AND PUSH1 0x7 SSTORE MLOAD CALLER DUP2 MSTORE PUSH32 0x5DB9EE0A495BF2E6FF9C91A7834C1BA4FDD244A5E8AA4E537BD38AEAE4B073AA SWAP1 PUSH1 0x20 SWAP1 LOG1 DUP1 RETURN JUMPDEST DUP3 MLOAD PUSH4 0x8DFC202B PUSH1 0xE0 SHL DUP2 MSTORE REVERT JUMPDEST POP POP CALLVALUE PUSH2 0x200 JUMPI DUP2 PUSH1 0x3 NOT CALLDATASIZE ADD SLT PUSH2 0x200 JUMPI MLOAD PUSH32 0x0 PUSH1 0x1 PUSH1 0x1 PUSH1 0xA0 SHL SUB AND DUP2 MSTORE PUSH1 0x20 SWAP1 RETURN JUMPDEST DUP4 DUP4 CALLVALUE PUSH2 0x200 JUMPI DUP1 PUSH1 0x3 NOT CALLDATASIZE ADD SLT PUSH2 0x200 JUMPI PUSH2 0xBC4 PUSH2 0x14E3 JUMP JUMPDEST SWAP1 CALLER PUSH1 0x1 PUSH1 0x1 PUSH1 0xA0 SHL SUB DUP4 AND SUB PUSH2 0xBE1 JUMPI POP PUSH2 0x2C0 SWAP2 SWAP3 CALLDATALOAD PUSH2 0x18F3 JUMP JUMPDEST MLOAD PUSH4 0x334BD919 PUSH1 0xE1 SHL DUP2 MSTORE DUP4 SWAP1 REVERT JUMPDEST DUP4 SWAP2 POP CALLVALUE PUSH2 0x200 JUMPI PUSH1 0x60 CALLDATASIZE PUSH1 0x3 NOT ADD SLT PUSH2 0x200 JUMPI DUP1 CALLDATALOAD PUSH1 0x24 CALLDATALOAD SWAP2 PUSH1 0x44 CALLDATALOAD SWAP1 PUSH2 0xC16 PUSH2 0x16BB JUMP JUMPDEST PUSH2 0x7D0 DUP5 GT PUSH2 0xD15 JUMPI PUSH2 0x12C DUP3 GT PUSH2 0xCD2 JUMPI PUSH2 0x9C4 PUSH2 0xC35 DUP4 DUP7 PUSH2 0x1587 JUMP JUMPDEST GT PUSH2 0xC8F JUMPI POP PUSH2 0xC89 SWAP1 PUSH32 0x4DD522C050B46EF5E852EA87E7CD136B049DCB37740AD38386FBBB5CD30AA924 SWAP5 SWAP6 DUP4 PUSH1 0xA SSTORE DUP5 PUSH1 0xB SSTORE DUP2 PUSH1 0xC SSTORE MLOAD SWAP4 DUP5 SWAP4 DUP5 PUSH1 0x40 SWAP2 SWAP5 SWAP4 SWAP3 PUSH1 0x60 DUP3 ADD SWAP6 DUP3 MSTORE PUSH1 0x20 DUP3 ADD MSTORE ADD MSTORE JUMP JUMPDEST SUB SWAP1 LOG1 DUP1 RETURN JUMPDEST PUSH1 0x64 SWAP1 PUSH1 0x20 DUP8 MLOAD SWAP2 PUSH3 0x461BCD PUSH1 0xE5 SHL DUP4 MSTORE DUP3 ADD MSTORE PUSH1 0x1C PUSH1 0x24 DUP3 ADD MSTORE PUSH32 0x5661756C743A20746F74616C2066656573206578636565642032352500000000 PUSH1 0x44 DUP3 ADD MSTORE REVERT JUMPDEST PUSH1 0x64 SWAP1 PUSH1 0x20 DUP8 MLOAD SWAP2 PUSH3 0x461BCD PUSH1 0xE5 SHL DUP4 MSTORE DUP3 ADD MSTORE PUSH1 0x18 PUSH1 0x24 DUP3 ADD MSTORE PUSH32 0x5661756C743A206D676D742066656520746F6F20686967680000000000000000 PUSH1 0x44 DUP3 ADD MSTORE REVERT JUMPDEST PUSH1 0x64 SWAP1 PUSH1 0x20 DUP8 MLOAD SWAP2 PUSH3 0x461BCD PUSH1 0xE5 SHL DUP4 MSTORE DUP3 ADD MSTORE PUSH1 0x18 PUSH1 0x24 DUP3 ADD MSTORE PUSH32 0x5661756C743A20706572662066656520746F6F20686967680000000000000000 PUSH1 0x44 DUP3 ADD MSTORE REVERT JUMPDEST POP POP CALLVALUE PUSH2 0x200 JUMPI DUP2 PUSH1 0x3 NOT CALLDATASIZE ADD SLT PUSH2 0x200 JUMPI PUSH1 0x20 SWAP1 MLOAD PUSH1 0x12 DUP2 MSTORE RETURN JUMPDEST POP POP CALLVALUE PUSH2 0x200 JUMPI DUP2 PUSH1 0x3 NOT CALLDATASIZE ADD SLT PUSH2 0x200 JUMPI PUSH1 0x20 SWAP1 MLOAD PUSH32 0x7A05A596CB0CE7FDEA8A1E1EC73BE300BDB35097C944CE1897202F7A13122EB2 DUP2 MSTORE RETURN JUMPDEST SWAP2 SWAP1 POP CALLVALUE PUSH2 0x2C4 JUMPI DUP1 PUSH1 0x3 NOT CALLDATASIZE ADD SLT PUSH2 0x2C4 JUMPI PUSH2 0x2C0 SWAP2 CALLDATALOAD PUSH2 0xDD4 PUSH1 0x1 PUSH2 0x2A9 PUSH2 0x14E3 JUMP JUMPDEST PUSH2 0x1873 JUMP JUMPDEST POP POP CALLVALUE PUSH2 0x200 JUMPI DUP2 PUSH1 0x3 NOT CALLDATASIZE ADD SLT PUSH2 0x200 JUMPI PUSH1 0x20 SWAP1 MLOAD PUSH4 0x3B9ACA00 DUP2 MSTORE RETURN JUMPDEST SWAP1 POP CALLVALUE PUSH2 0x2C4 JUMPI PUSH1 0x20 CALLDATASIZE PUSH1 0x3 NOT ADD SLT PUSH2 0x2C4 JUMPI DUP2 PUSH1 0x20 SWAP4 PUSH1 0x1 SWAP3 CALLDATALOAD DUP2 MSTORE PUSH1 0x5 DUP6 MSTORE KECCAK256 ADD SLOAD SWAP1 MLOAD SWAP1 DUP2 MSTORE RETURN JUMPDEST SWAP1 POP DUP3 CALLVALUE PUSH2 0xAB6 JUMPI PUSH1 0x60 CALLDATASIZE PUSH1 0x3 NOT ADD SLT PUSH2 0xAB6 JUMPI PUSH2 0xE3F PUSH2 0x14C8 JUMP JUMPDEST PUSH2 0xE47 PUSH2 0x14E3 JUMP JUMPDEST SWAP2 PUSH1 0x44 CALLDATALOAD SWAP4 PUSH1 0x1 DUP1 PUSH1 0xA0 SHL SUB DUP4 AND DUP1 DUP4 MSTORE PUSH1 0x1 PUSH1 0x20 MSTORE DUP7 DUP4 KECCAK256 CALLER DUP5 MSTORE PUSH1 0x20 MSTORE DUP7 DUP4 KECCAK256 SLOAD SWAP2 PUSH1 0x0 NOT DUP4 LT PUSH2 0xE83 JUMPI JUMPDEST PUSH1 0x20 DUP9 PUSH2 0x311 DUP10 DUP10 DUP10 PUSH2 0x1795 JUMP JUMPDEST DUP7 DUP4 LT PUSH2 0xEEB JUMPI DUP2 ISZERO PUSH2 0xED4 JUMPI CALLER ISZERO PUSH2 0xEBD JUMPI POP DUP3 MSTORE PUSH1 0x1 PUSH1 0x20 SWAP1 DUP2 MSTORE DUP7 DUP4 KECCAK256 CALLER DUP5 MSTORE DUP2 MSTORE SWAP2 DUP7 SWAP1 KECCAK256 SWAP1 DUP6 SWAP1 SUB SWAP1 SSTORE DUP3 SWAP1 PUSH2 0x311 DUP8 PUSH2 0xE75 JUMP JUMPDEST DUP8 MLOAD PUSH4 0x4A1406B1 PUSH1 0xE1 SHL DUP2 MSTORE SWAP1 DUP2 ADD DUP5 SWAP1 MSTORE PUSH1 0x24 SWAP1 REVERT JUMPDEST DUP8 MLOAD PUSH4 0xE602DF05 PUSH1 0xE0 SHL DUP2 MSTORE SWAP1 DUP2 ADD DUP5 SWAP1 MSTORE PUSH1 0x24 SWAP1 REVERT JUMPDEST DUP8 MLOAD PUSH4 0x7DC7A0D9 PUSH1 0xE1 SHL DUP2 MSTORE CALLER SWAP2 DUP2 ADD SWAP2 DUP3 MSTORE PUSH1 0x20 DUP3 ADD SWAP4 SWAP1 SWAP4 MSTORE PUSH1 0x40 DUP2 ADD DUP8 SWAP1 MSTORE DUP3 SWAP2 POP PUSH1 0x60 ADD SUB SWAP1 REVERT JUMPDEST POP POP CALLVALUE PUSH2 0x200 JUMPI DUP2 PUSH1 0x3 NOT CALLDATASIZE ADD SLT PUSH2 0x200 JUMPI PUSH1 0x20 SWAP1 PUSH1 0x2 SLOAD SWAP1 MLOAD SWAP1 DUP2 MSTORE RETURN JUMPDEST POP POP CALLVALUE PUSH2 0x200 JUMPI DUP2 PUSH1 0x3 NOT CALLDATASIZE ADD SLT PUSH2 0x200 JUMPI PUSH1 0x20 SWAP1 MLOAD PUSH32 0x83B40D323B71DBEDEB7A3CFE1934EDB51FCBD159C01BAF1ED28FA85859379526 DUP2 MSTORE RETURN JUMPDEST SWAP1 POP CALLVALUE PUSH2 0x2C4 JUMPI PUSH1 0x20 CALLDATASIZE PUSH1 0x3 NOT ADD SLT PUSH2 0x2C4 JUMPI DUP1 CALLDATALOAD PUSH32 0x83B40D323B71DBEDEB7A3CFE1934EDB51FCBD159C01BAF1ED28FA85859379526 DUP1 DUP6 MSTORE PUSH1 0x5 PUSH1 0x20 MSTORE DUP4 DUP6 KECCAK256 CALLER DUP7 MSTORE PUSH1 0x20 MSTORE PUSH1 0xFF DUP5 DUP7 KECCAK256 SLOAD AND ISZERO PUSH2 0x124F JUMPI POP DUP1 SWAP3 PUSH1 0x8 SLOAD SWAP2 DUP3 DUP2 SUB SWAP5 DUP7 DUP5 SLT DUP3 DUP8 SLT DUP2 AND SWAP1 DUP4 DUP9 SGT SWAP1 ISZERO AND OR PUSH2 0x123C JUMPI DUP7 SWAP6 DUP8 SWAP5 DUP9 SWAP7 PUSH1 0x12 SLOAD DUP1 DUP7 GT PUSH2 0x11D1 JUMPI JUMPDEST POP PUSH2 0x1001 PUSH1 0x9 SLOAD TIMESTAMP PUSH2 0x1531 JUMP JUMPDEST DUP1 ISZERO ISZERO DUP1 PUSH2 0x11C8 JUMPI JUMPDEST PUSH2 0x1153 JUMPI JUMPDEST POP PUSH1 0xE SLOAD PUSH8 0xDE0B6B3A7640000 SWAP1 DUP2 DUP2 LT ISZERO PUSH2 0x1137 JUMPI JUMPDEST POP POP DUP5 DUP10 GT PUSH2 0x10FB JUMPI POP SWAP2 PUSH1 0x80 SWAP2 PUSH32 0x1F72BB4DC3538777A1BBAD91FBC6EE81691C1CEF13FC3F73025147CEB9164A91 SWAP4 DUP10 DUP1 ISZERO ISZERO SWAP7 DUP8 PUSH2 0x10D9 JUMPI JUMPDEST POP POP DUP8 PUSH2 0x10D0 JUMPI JUMPDEST DUP3 PUSH1 0x8 SSTORE TIMESTAMP PUSH1 0x9 SSTORE DUP7 MLOAD SWAP3 DUP4 MSTORE PUSH1 0x20 DUP4 ADD MSTORE DUP6 DUP3 ADD MSTORE TIMESTAMP PUSH1 0x60 DUP3 ADD MSTORE LOG1 PUSH2 0x108E JUMPI DUP5 DUP1 RETURN JUMPDEST MLOAD SWAP1 DUP2 MSTORE PUSH1 0x20 DUP2 ADD SWAP2 SWAP1 SWAP2 MSTORE PUSH1 0x40 DUP2 ADD SWAP2 SWAP1 SWAP2 MSTORE PUSH32 0xA54E6C2FC0861AA9C991B26891D71059D517983B9E84B91020F42609C452EB9D SWAP1 PUSH1 0x60 SWAP1 LOG1 CODESIZE DUP1 DUP1 DUP1 DUP5 DUP1 RETURN JUMPDEST DUP3 PUSH1 0x12 SSTORE PUSH2 0x1069 JUMP JUMPDEST PUSH2 0x10F3 SWAP3 SWAP5 POP PUSH2 0x10EB DUP3 PUSH1 0xD SLOAD PUSH2 0x1587 JUMP JUMPDEST PUSH1 0xD SSTORE PUSH2 0x1531 JUMP JUMPDEST SWAP2 DUP10 CODESIZE PUSH2 0x1061 JUMP JUMPDEST PUSH1 0x64 SWAP1 PUSH1 0x20 DUP8 MLOAD SWAP2 PUSH3 0x461BCD PUSH1 0xE5 SHL DUP4 MSTORE DUP3 ADD MSTORE PUSH1 0x16 PUSH1 0x24 DUP3 ADD MSTORE PUSH22 0x2B30BAB63A1D103332B2B99032BC31B2B2B2102720AB PUSH1 0x51 SHL PUSH1 0x44 DUP3 ADD MSTORE REVERT JUMPDEST SWAP1 DUP2 DUP2 PUSH2 0x114B SWAP5 SWAP13 SWAP4 MOD PUSH1 0xE SSTORE DIV SWAP1 PUSH2 0x1587 JUMP JUMPDEST SWAP8 CODESIZE DUP1 PUSH2 0x1026 JUMP JUMPDEST PUSH2 0x116B SWAP2 SWAP10 SWAP9 POP PUSH2 0x1166 PUSH1 0xC SLOAD DUP5 PUSH2 0x1554 JUMP JUMPDEST PUSH2 0x1554 JUMP JUMPDEST SWAP7 PUSH8 0xDE0B6B3A7640000 SWAP8 DUP9 DUP2 MUL SWAP1 DUP1 DUP3 DIV DUP11 EQ SWAP1 ISZERO OR ISZERO PUSH2 0x11B5 JUMPI SWAP1 PUSH5 0x496CEBB800 PUSH2 0x11AE SWAP3 DIV SWAP1 PUSH2 0x11A6 DUP11 DUP4 DIV SWAP11 DUP12 SWAP4 MOD PUSH1 0xE SLOAD PUSH2 0x1587 JUMP JUMPDEST PUSH1 0xE SSTORE PUSH2 0x1587 JUMP JUMPDEST SWAP8 CODESIZE PUSH2 0x100F JUMP JUMPDEST PUSH4 0x4E487B71 PUSH1 0xE0 SHL DUP12 MSTORE PUSH1 0x11 DUP11 MSTORE PUSH1 0x24 DUP12 REVERT JUMPDEST POP DUP3 ISZERO ISZERO PUSH2 0x100A JUMP JUMPDEST PUSH2 0x11E3 SWAP2 SWAP10 POP PUSH2 0x11EC SWAP3 SWAP8 POP DUP6 PUSH2 0x1531 JUMP JUMPDEST PUSH1 0xB SLOAD SWAP1 PUSH2 0x1554 JUMP JUMPDEST SWAP5 PUSH8 0xDE0B6B3A7640000 SWAP6 DUP7 DUP2 MUL SWAP1 DUP1 DUP3 DIV DUP9 EQ SWAP1 ISZERO OR ISZERO PUSH2 0x1229 JUMPI PUSH2 0x2710 PUSH2 0x121E SWAP2 DIV SWAP7 DUP1 DUP9 DIV SWAP8 MOD PUSH1 0xE SLOAD PUSH2 0x1587 JUMP JUMPDEST PUSH1 0xE SSTORE DUP6 SWAP8 CODESIZE PUSH2 0xFF4 JUMP JUMPDEST PUSH4 0x4E487B71 PUSH1 0xE0 SHL DUP11 MSTORE PUSH1 0x11 DUP10 MSTORE PUSH1 0x24 DUP11 REVERT JUMPDEST PUSH4 0x4E487B71 PUSH1 0xE0 SHL DUP8 MSTORE PUSH1 0x11 DUP6 MSTORE PUSH1 0x24 DUP8 REVERT JUMPDEST SWAP1 POP PUSH1 0x44 SWAP3 MLOAD SWAP2 PUSH4 0xE2517D3F PUSH1 0xE0 SHL DUP4 MSTORE CALLER SWAP1 DUP4 ADD MSTORE PUSH1 0x24 DUP3 ADD MSTORE REVERT JUMPDEST SWAP1 POP CALLVALUE PUSH2 0x2C4 JUMPI DUP2 PUSH1 0x3 NOT CALLDATASIZE ADD SLT PUSH2 0x2C4 JUMPI PUSH2 0x1286 PUSH2 0x14C8 JUMP JUMPDEST PUSH1 0x24 CALLDATALOAD SWAP1 CALLER ISZERO PUSH2 0x12FF JUMPI PUSH1 0x1 PUSH1 0x1 PUSH1 0xA0 SHL SUB AND SWAP2 DUP3 ISZERO PUSH2 0x12E8 JUMPI POP DUP1 DUP4 PUSH1 0x20 SWAP6 CALLER DUP2 MSTORE PUSH1 0x1 DUP8 MSTORE DUP2 DUP2 KECCAK256 DUP6 DUP3 MSTORE DUP8 MSTORE KECCAK256 SSTORE DUP3 MLOAD SWAP1 DUP2 MSTORE PUSH32 0x8C5BE1E5EBEC7D5BD14F71427D1E84F3DD0314C0F7B2291E5B200AC8C7C3B925 DUP5 CALLER SWAP3 LOG3 MLOAD PUSH1 0x1 DUP2 MSTORE RETURN JUMPDEST DUP4 MLOAD PUSH4 0x4A1406B1 PUSH1 0xE1 SHL DUP2 MSTORE SWAP1 DUP2 ADD DUP6 SWAP1 MSTORE PUSH1 0x24 SWAP1 REVERT JUMPDEST DUP4 MLOAD PUSH4 0xE602DF05 PUSH1 0xE0 SHL DUP2 MSTORE DUP1 DUP5 ADD DUP7 SWAP1 MSTORE PUSH1 0x24 SWAP1 REVERT JUMPDEST SWAP2 SWAP1 POP CALLVALUE PUSH2 0x2C4 JUMPI DUP3 PUSH1 0x3 NOT CALLDATASIZE ADD SLT PUSH2 0x2C4 JUMPI DUP1 MLOAD SWAP2 DUP4 PUSH1 0x3 SLOAD SWAP1 PUSH1 0x1 SWAP1 DUP3 PUSH1 0x1 SHR SWAP3 PUSH1 0x1 DUP2 AND DUP1 ISZERO PUSH2 0x1403 JUMPI JUMPDEST PUSH1 0x20 SWAP6 DUP7 DUP7 LT DUP3 EQ PUSH2 0x13F0 JUMPI POP DUP5 DUP9 MSTORE SWAP1 DUP2 ISZERO PUSH2 0x13CE JUMPI POP PUSH1 0x1 EQ PUSH2 0x1375 JUMPI JUMPDEST PUSH2 0x537 DUP7 DUP7 PUSH2 0x52D DUP3 DUP12 SUB DUP4 PUSH2 0x14F9 JUMP JUMPDEST SWAP3 SWAP6 POP PUSH1 0x3 DUP4 MSTORE PUSH32 0xC2575A0E9E593C00F959F8C92F12DB2869C3395A3B0502D05E2516446F71F85B JUMPDEST DUP3 DUP5 LT PUSH2 0x13BB JUMPI POP POP POP DUP3 PUSH2 0x537 SWAP5 PUSH2 0x52D SWAP3 DUP3 ADD ADD SWAP5 CODESIZE PUSH2 0x1364 JUMP JUMPDEST DUP1 SLOAD DUP7 DUP6 ADD DUP9 ADD MSTORE SWAP3 DUP7 ADD SWAP3 DUP2 ADD PUSH2 0x139E JUMP JUMPDEST PUSH1 0xFF NOT AND DUP8 DUP7 ADD MSTORE POP POP POP ISZERO ISZERO PUSH1 0x5 SHL DUP4 ADD ADD SWAP3 POP PUSH2 0x52D DUP3 PUSH2 0x537 CODESIZE PUSH2 0x1364 JUMP JUMPDEST PUSH4 0x4E487B71 PUSH1 0xE0 SHL DUP5 MSTORE PUSH1 0x22 SWAP1 MSTORE PUSH1 0x24 DUP4 REVERT JUMPDEST SWAP4 PUSH1 0x7F AND SWAP4 PUSH2 0x1344 JUMP JUMPDEST SWAP1 POP CALLVALUE PUSH2 0x2C4 JUMPI PUSH1 0x20 CALLDATASIZE PUSH1 0x3 NOT ADD SLT PUSH2 0x2C4 JUMPI CALLDATALOAD SWAP1 PUSH4 0xFFFFFFFF PUSH1 0xE0 SHL DUP3 AND DUP1 SWAP3 SUB PUSH2 0x2C4 JUMPI PUSH1 0x20 SWAP3 POP PUSH4 0x7965DB0B PUSH1 0xE0 SHL DUP3 EQ SWAP2 DUP3 ISZERO PUSH2 0x1452 JUMPI JUMPDEST POP MLOAD SWAP1 ISZERO ISZERO DUP2 MSTORE RETURN JUMPDEST PUSH4 0x1FFC9A7 PUSH1 0xE0 SHL EQ SWAP2 POP CODESIZE PUSH2 0x1449 JUMP JUMPDEST DUP5 SWAP1 CALLVALUE PUSH2 0x200 JUMPI DUP2 PUSH1 0x3 NOT CALLDATASIZE ADD SLT PUSH2 0x200 JUMPI PUSH1 0x20 SWAP1 PUSH1 0x8 SLOAD DUP2 MSTORE RETURN JUMPDEST PUSH1 0x20 DUP1 DUP3 MSTORE DUP3 MLOAD DUP2 DUP4 ADD DUP2 SWAP1 MSTORE SWAP1 SWAP4 SWAP3 PUSH1 0x0 JUMPDEST DUP3 DUP2 LT PUSH2 0x14B4 JUMPI POP POP PUSH1 0x40 SWAP3 SWAP4 POP PUSH1 0x0 DUP4 DUP3 DUP5 ADD ADD MSTORE PUSH1 0x1F DUP1 NOT SWAP2 ADD AND ADD ADD SWAP1 JUMP JUMPDEST DUP2 DUP2 ADD DUP7 ADD MLOAD DUP5 DUP3 ADD PUSH1 0x40 ADD MSTORE DUP6 ADD PUSH2 0x1492 JUMP JUMPDEST PUSH1 0x4 CALLDATALOAD SWAP1 PUSH1 0x1 PUSH1 0x1 PUSH1 0xA0 SHL SUB DUP3 AND DUP3 SUB PUSH2 0x14DE JUMPI JUMP JUMPDEST PUSH1 0x0 DUP1 REVERT JUMPDEST PUSH1 0x24 CALLDATALOAD SWAP1 PUSH1 0x1 PUSH1 0x1 PUSH1 0xA0 SHL SUB DUP3 AND DUP3 SUB PUSH2 0x14DE JUMPI JUMP JUMPDEST SWAP1 PUSH1 0x1F DUP1 NOT SWAP2 ADD AND DUP2 ADD SWAP1 DUP2 LT PUSH8 0xFFFFFFFFFFFFFFFF DUP3 GT OR PUSH2 0x151B JUMPI PUSH1 0x40 MSTORE JUMP JUMPDEST PUSH4 0x4E487B71 PUSH1 0xE0 SHL PUSH1 0x0 MSTORE PUSH1 0x41 PUSH1 0x4 MSTORE PUSH1 0x24 PUSH1 0x0 REVERT JUMPDEST SWAP2 SWAP1 DUP3 SUB SWAP2 DUP3 GT PUSH2 0x153E JUMPI JUMP JUMPDEST PUSH4 0x4E487B71 PUSH1 0xE0 SHL PUSH1 0x0 MSTORE PUSH1 0x11 PUSH1 0x4 MSTORE PUSH1 0x24 PUSH1 0x0 REVERT JUMPDEST DUP2 DUP2 MUL SWAP3 SWAP2 DUP2 ISZERO SWAP2 DUP5 DIV EQ OR ISZERO PUSH2 0x153E JUMPI JUMP JUMPDEST DUP2 ISZERO PUSH2 0x1571 JUMPI DIV SWAP1 JUMP JUMPDEST PUSH4 0x4E487B71 PUSH1 0xE0 SHL PUSH1 0x0 MSTORE PUSH1 0x12 PUSH1 0x4 MSTORE PUSH1 0x24 PUSH1 0x0 REVERT JUMPDEST SWAP2 SWAP1 DUP3 ADD DUP1 SWAP3 GT PUSH2 0x153E JUMPI JUMP JUMPDEST PUSH1 0x2 SLOAD DUP1 ISZERO PUSH2 0x15CC JUMPI PUSH1 0x8 SLOAD SWAP1 PUSH13 0xC9F2C9CD04674EDEA40000000 SWAP2 DUP3 DUP2 MUL SWAP3 DUP2 DUP5 DIV EQ SWAP1 ISZERO OR ISZERO PUSH2 0x153E JUMPI PUSH2 0x15C9 SWAP2 PUSH2 0x1567 JUMP JUMPDEST SWAP1 JUMP JUMPDEST POP PUSH1 0x8 SLOAD PUSH2 0x15E0 JUMPI PUSH8 0xDE0B6B3A7640000 SWAP1 JUMP JUMPDEST PUSH1 0x40 MLOAD PUSH3 0x461BCD PUSH1 0xE5 SHL DUP2 MSTORE PUSH1 0x20 PUSH1 0x4 DUP3 ADD MSTORE PUSH1 0x14 PUSH1 0x24 DUP3 ADD MSTORE PUSH20 0x5661756C743A20696E76616C6964207374617465 PUSH1 0x60 SHL PUSH1 0x44 DUP3 ADD MSTORE PUSH1 0x64 SWAP1 REVERT JUMPDEST ISZERO PUSH2 0x1623 JUMPI JUMP JUMPDEST PUSH1 0x40 MLOAD PUSH3 0x461BCD PUSH1 0xE5 SHL DUP2 MSTORE PUSH1 0x20 PUSH1 0x4 DUP3 ADD MSTORE PUSH1 0x13 PUSH1 0x24 DUP3 ADD MSTORE PUSH19 0x5661756C743A207A65726F2061646472657373 PUSH1 0x68 SHL PUSH1 0x44 DUP3 ADD MSTORE PUSH1 0x64 SWAP1 REVERT JUMPDEST SWAP1 DUP2 PUSH1 0x20 SWAP2 SUB SLT PUSH2 0x14DE JUMPI MLOAD DUP1 ISZERO ISZERO DUP2 SUB PUSH2 0x14DE JUMPI SWAP1 JUMP JUMPDEST ISZERO PUSH2 0x167D JUMPI JUMP JUMPDEST PUSH1 0x40 MLOAD PUSH3 0x461BCD PUSH1 0xE5 SHL DUP2 MSTORE PUSH1 0x20 PUSH1 0x4 DUP3 ADD MSTORE PUSH1 0x16 PUSH1 0x24 DUP3 ADD MSTORE PUSH22 0x15985D5B1D0E881D1C985B9CD9995C8819985A5B1959 PUSH1 0x52 SHL PUSH1 0x44 DUP3 ADD MSTORE PUSH1 0x64 SWAP1 REVERT JUMPDEST CALLER PUSH1 0x0 SWAP1 DUP2 MSTORE PUSH32 0x5B8CCBB9D4D8FB16EA74CE3C29A41F1B461FBDAFF4714A0D9A8EB05499746BC PUSH1 0x20 MSTORE PUSH1 0x40 DUP2 KECCAK256 SLOAD PUSH1 0xFF AND ISZERO PUSH2 0x16F5 JUMPI POP JUMP JUMPDEST PUSH1 0x44 SWAP1 PUSH1 0x40 MLOAD SWAP1 PUSH4 0xE2517D3F PUSH1 0xE0 SHL DUP3 MSTORE CALLER PUSH1 0x4 DUP4 ADD MSTORE PUSH1 0x24 DUP3 ADD MSTORE REVERT JUMPDEST CALLER PUSH1 0x0 SWAP1 DUP2 MSTORE PUSH32 0x99F2891DB7A8DB76249871A02B43B68C0BB8F22EF8A3BC1034AE9375EF6B7C3C PUSH1 0x20 MSTORE PUSH1 0x40 SWAP1 KECCAK256 SLOAD PUSH32 0x65D7A28E3265B37A6474929F336521B332C1681B933F6CB9F3376673440D862A SWAP1 PUSH1 0xFF AND ISZERO PUSH2 0x16F5 JUMPI POP JUMP JUMPDEST DUP1 PUSH1 0x0 MSTORE PUSH1 0x5 PUSH1 0x20 MSTORE PUSH1 0x40 PUSH1 0x0 KECCAK256 CALLER PUSH1 0x0 MSTORE PUSH1 0x20 MSTORE PUSH1 0xFF PUSH1 0x40 PUSH1 0x0 KECCAK256 SLOAD AND ISZERO PUSH2 0x16F5 JUMPI POP JUMP JUMPDEST SWAP2 PUSH1 0x1 PUSH1 0x1 PUSH1 0xA0 SHL SUB DUP1 DUP5 AND SWAP3 DUP4 ISZERO PUSH2 0x185A JUMPI AND SWAP3 DUP4 ISZERO PUSH2 0x1841 JUMPI PUSH1 0x0 SWAP1 DUP4 DUP3 MSTORE DUP2 PUSH1 0x20 MSTORE PUSH1 0x40 DUP3 KECCAK256 SLOAD SWAP1 DUP4 DUP3 LT PUSH2 0x180F JUMPI POP SWAP2 PUSH1 0x40 DUP3 DUP3 PUSH32 0xDDF252AD1BE2C89B69C2B068FC378DAA952BA7F163C4A11628F55A4DF523B3EF SWAP6 DUP8 PUSH1 0x20 SWAP7 MSTORE DUP3 DUP7 MSTORE SUB DUP3 DUP3 KECCAK256 SSTORE DUP7 DUP2 MSTORE KECCAK256 DUP2 DUP2 SLOAD ADD SWAP1 SSTORE PUSH1 0x40 MLOAD SWAP1 DUP2 MSTORE LOG3 JUMP JUMPDEST PUSH1 0x40 MLOAD PUSH4 0x391434E3 PUSH1 0xE2 SHL DUP2 MSTORE PUSH1 0x1 PUSH1 0x1 PUSH1 0xA0 SHL SUB SWAP2 SWAP1 SWAP2 AND PUSH1 0x4 DUP3 ADD MSTORE PUSH1 0x24 DUP2 ADD SWAP2 SWAP1 SWAP2 MSTORE PUSH1 0x44 DUP2 ADD DUP4 SWAP1 MSTORE PUSH1 0x64 SWAP1 REVERT JUMPDEST PUSH1 0x40 MLOAD PUSH4 0xEC442F05 PUSH1 0xE0 SHL DUP2 MSTORE PUSH1 0x0 PUSH1 0x4 DUP3 ADD MSTORE PUSH1 0x24 SWAP1 REVERT JUMPDEST PUSH1 0x40 MLOAD PUSH4 0x4B637E8F PUSH1 0xE1 SHL DUP2 MSTORE PUSH1 0x0 PUSH1 0x4 DUP3 ADD MSTORE PUSH1 0x24 SWAP1 REVERT JUMPDEST SWAP1 PUSH1 0x0 SWAP2 DUP1 DUP4 MSTORE PUSH1 0x5 PUSH1 0x20 MSTORE PUSH1 0x40 DUP4 KECCAK256 SWAP2 PUSH1 0x1 DUP1 PUSH1 0xA0 SHL SUB AND SWAP2 DUP3 DUP5 MSTORE PUSH1 0x20 MSTORE PUSH1 0xFF PUSH1 0x40 DUP5 KECCAK256 SLOAD AND ISZERO PUSH1 0x0 EQ PUSH2 0x18EE JUMPI DUP1 DUP4 MSTORE PUSH1 0x5 PUSH1 0x20 MSTORE PUSH1 0x40 DUP4 KECCAK256 DUP3 DUP5 MSTORE PUSH1 0x20 MSTORE PUSH1 0x40 DUP4 KECCAK256 PUSH1 0x1 PUSH1 0xFF NOT DUP3 SLOAD AND OR SWAP1 SSTORE PUSH32 0x2F8788117E7EFF1D82E926EC794901D17C78024A50270940304540A733656F0D CALLER SWAP4 DUP1 LOG4 PUSH1 0x1 SWAP1 JUMP JUMPDEST POP POP SWAP1 JUMP JUMPDEST SWAP1 PUSH1 0x0 SWAP2 DUP1 DUP4 MSTORE PUSH1 0x5 PUSH1 0x20 MSTORE PUSH1 0x40 DUP4 KECCAK256 SWAP2 PUSH1 0x1 DUP1 PUSH1 0xA0 SHL SUB AND SWAP2 DUP3 DUP5 MSTORE PUSH1 0x20 MSTORE PUSH1 0xFF PUSH1 0x40 DUP5 KECCAK256 SLOAD AND PUSH1 0x0 EQ PUSH2 0x18EE JUMPI DUP1 DUP4 MSTORE PUSH1 0x5 PUSH1 0x20 MSTORE PUSH1 0x40 DUP4 KECCAK256 DUP3 DUP5 MSTORE PUSH1 0x20 MSTORE PUSH1 0x40 DUP4 KECCAK256 PUSH1 0xFF NOT DUP2 SLOAD AND SWAP1 SSTORE PUSH32 0xF6391F5C32D9C69D2A47EA670B442974B53935D1EDC7FD64EB21E047A839171B CALLER SWAP4 DUP1 LOG4 PUSH1 0x1 SWAP1 JUMP JUMPDEST PUSH1 0x2 PUSH1 0x6 SLOAD EQ PUSH2 0x197B JUMPI PUSH1 0x2 PUSH1 0x6 SSTORE JUMP JUMPDEST PUSH1 0x40 MLOAD PUSH4 0x3EE5AEB5 PUSH1 0xE0 SHL DUP2 MSTORE PUSH1 0x4 SWAP1 REVERT JUMPDEST PUSH1 0xFF PUSH1 0x7 SLOAD AND PUSH2 0x1999 JUMPI JUMP JUMPDEST PUSH1 0x40 MLOAD PUSH4 0xD93C0665 PUSH1 0xE0 SHL DUP2 MSTORE PUSH1 0x4 SWAP1 REVERT INVALID LOG2 PUSH5 0x6970667358 0x22 SLT KECCAK256 MULMOD CREATE2 SUB GAS SWAP14 PUSH17 0x7F5F52AB56AEAA652F1C48CD5E446AF25C 0x26 BLOBHASH PUSH12 0x60885452EB4364736F6C6343 STOP ADDMOD XOR STOP CALLER 0x2F DUP8 DUP9 GT PUSH31 0x7EFF1D82E926EC794901D17C78024A50270940304540A733656F0D00000000 "},"methodIdentifiers":{"DEFAULT_ADMIN_ROLE()":"a217fddf","INITIAL_SHARES_BURNED()":"9e73a833","MIN_INITIAL_DEPOSIT()":"2ad876e0","OCW_ROLE()":"146417c0","PAUSER_ROLE()":"e63ab1e9","ROUTER_ROLE()":"30d643b5","accumulatedFees()":"587f5ed7","allowance(address,address)":"dd62ed3e","approve(address,uint256)":"095ea7b3","balanceOf(address)":"70a08231","collectFees(address)":"a480ca79","decimals()":"313ce567","depositFromRouter(address,uint256)":"5b30f68c","getRoleAdmin(bytes32)":"248a9ca3","getSharePrice()":"5b1dac60","getVaultInfo()":"7f98aa71","grantRole(bytes32,address)":"2f2ff15d","hasRole(bytes32,address)":"91d14854","lastUpdateTime()":"c8f33c91","managementFee()":"a6f7f5d6","minDepositAmount()":"645006ca","name()":"06fdde03","pause()":"8456cb59","paused()":"5c975abb","performanceFee()":"87788782","renounceRole(bytes32,address)":"36568abe","revokeRole(bytes32,address)":"d547741f","setParameters(uint256,uint256,uint256)":"34c5d2ce","stats()":"d80528ae","supportsInterface(bytes4)":"01ffc9a7","symbol()":"95d89b41","totalAssets()":"01e1d114","totalSupply()":"18160ddd","transfer(address,uint256)":"a9059cbb","transferFrom(address,address,uint256)":"23b872dd","unpause()":"3f4ba83a","updateNAV(uint256)":"0cb1982b","usdc()":"3e413bee"}}}}}