{"src/StardustVaultRouter.sol":{"StardustVaultRouter":{"abi":[{"inputs":[{"internalType":"address","name":"_dust","type":"address"},{"internalType":"address","name":"_usdc","type":"address"},{"internalType":"address","name":"_vault","type":"address"},{"internalType":"address","name":"_uniswapRouter","type":"address"}],"stateMutability":"nonpayable","type":"constructor"},{"inputs":[],"name":"AccessControlBadConfirmation","type":"error"},{"inputs":[{"internalType":"address","name":"account","type":"address"},{"internalType":"bytes32","name":"neededRole","type":"bytes32"}],"name":"AccessControlUnauthorizedAccount","type":"error"},{"inputs":[],"name":"EnforcedPause","type":"error"},{"inputs":[],"name":"ExpectedPause","type":"error"},{"inputs":[],"name":"ReentrancyGuardReentrantCall","type":"error"},{"anonymous":false,"inputs":[{"indexed":true,"internalType":"address","name":"user","type":"address"},{"indexed":false,"internalType":"uint256","name":"dustAmount","type":"uint256"},{"indexed":false,"internalType":"uint256","name":"usdcAmount","type":"uint256"},{"indexed":false,"internalType":"uint256","name":"sharesIssued","type":"uint256"}],"name":"DepositedWithDUST","type":"event"},{"anonymous":false,"inputs":[{"indexed":false,"internalType":"uint256","name":"maxSlippage","type":"uint256"},{"indexed":false,"internalType":"uint256","name":"minSwapAmount","type":"uint256"}],"name":"ParametersUpdated","type":"event"},{"anonymous":false,"inputs":[{"indexed":false,"internalType":"address","name":"account","type":"address"}],"name":"Paused","type":"event"},{"anonymous":false,"inputs":[{"indexed":true,"internalType":"bytes32","name":"role","type":"bytes32"},{"indexed":true,"internalType":"bytes32","name":"previousAdminRole","type":"bytes32"},{"indexed":true,"internalType":"bytes32","name":"newAdminRole","type":"bytes32"}],"name":"RoleAdminChanged","type":"event"},{"anonymous":false,"inputs":[{"indexed":true,"internalType":"bytes32","name":"role","type":"bytes32"},{"indexed":true,"internalType":"address","name":"account","type":"address"},{"indexed":true,"internalType":"address","name":"sender","type":"address"}],"name":"RoleGranted","type":"event"},{"anonymous":false,"inputs":[{"indexed":true,"internalType":"bytes32","name":"role","type":"bytes32"},{"indexed":true,"internalType":"address","name":"account","type":"address"},{"indexed":true,"internalType":"address","name":"sender","type":"address"}],"name":"RoleRevoked","type":"event"},{"anonymous":false,"inputs":[{"indexed":false,"internalType":"address","name":"account","type":"address"}],"name":"Unpaused","type":"event"},{"anonymous":false,"inputs":[{"indexed":true,"internalType":"address","name":"user","type":"address"},{"indexed":false,"internalType":"uint256","name":"sharesRedeemed","type":"uint256"},{"indexed":false,"internalType":"uint256","name":"usdcAmount","type":"uint256"},{"indexed":false,"internalType":"uint256","name":"dustAmount","type":"uint256"}],"name":"WithdrawnToDUST","type":"event"},{"inputs":[],"name":"DEFAULT_ADMIN_ROLE","outputs":[{"internalType":"bytes32","name":"","type":"bytes32"}],"stateMutability":"view","type":"function"},{"inputs":[],"name":"PAUSER_ROLE","outputs":[{"internalType":"bytes32","name":"","type":"bytes32"}],"stateMutability":"view","type":"function"},{"inputs":[],"name":"POOL_FEE","outputs":[{"internalType":"uint24","name":"","type":"uint24"}],"stateMutability":"view","type":"function"},{"inputs":[{"internalType":"uint256","name":"dustAmount","type":"uint256"},{"internalType":"uint256","name":"minUsdcOut","type":"uint256"}],"name":"depositWithDUST","outputs":[{"internalType":"uint256","name":"sharesIssued","type":"uint256"}],"stateMutability":"nonpayable","type":"function"},{"inputs":[],"name":"dust","outputs":[{"internalType":"contract IERC20","name":"","type":"address"}],"stateMutability":"view","type":"function"},{"inputs":[{"internalType":"address","name":"token","type":"address"},{"internalType":"address","name":"to","type":"address"},{"internalType":"uint256","name":"amount","type":"uint256"}],"name":"emergencyWithdraw","outputs":[],"stateMutability":"nonpayable","type":"function"},{"inputs":[{"internalType":"bytes32","name":"role","type":"bytes32"}],"name":"getRoleAdmin","outputs":[{"internalType":"bytes32","name":"","type":"bytes32"}],"stateMutability":"view","type":"function"},{"inputs":[],"name":"getRouterStats","outputs":[{"internalType":"uint256","name":"totalDustDeposited_","type":"uint256"},{"internalType":"uint256","name":"totalDustWithdrawn_","type":"uint256"},{"internalType":"uint256","name":"netDustFlow_","type":"uint256"},{"internalType":"uint256","name":"totalUsdcSwapped_","type":"uint256"},{"internalType":"uint256","name":"transactionCount_","type":"uint256"}],"stateMutability":"view","type":"function"},{"inputs":[{"internalType":"bytes32","name":"role","type":"bytes32"},{"internalType":"address","name":"account","type":"address"}],"name":"grantRole","outputs":[],"stateMutability":"nonpayable","type":"function"},{"inputs":[{"internalType":"bytes32","name":"role","type":"bytes32"},{"internalType":"address","name":"account","type":"address"}],"name":"hasRole","outputs":[{"internalType":"bool","name":"","type":"bool"}],"stateMutability":"view","type":"function"},{"inputs":[],"name":"maxSlippage","outputs":[{"internalType":"uint256","name":"","type":"uint256"}],"stateMutability":"view","type":"function"},{"inputs":[],"name":"minSwapAmount","outputs":[{"internalType":"uint256","name":"","type":"uint256"}],"stateMutability":"view","type":"function"},{"inputs":[],"name":"pause","outputs":[],"stateMutability":"nonpayable","type":"function"},{"inputs":[],"name":"paused","outputs":[{"internalType":"bool","name":"","type":"bool"}],"stateMutability":"view","type":"function"},{"inputs":[{"internalType":"bytes32","name":"role","type":"bytes32"},{"internalType":"address","name":"callerConfirmation","type":"address"}],"name":"renounceRole","outputs":[],"stateMutability":"nonpayable","type":"function"},{"inputs":[{"internalType":"bytes32","name":"role","type":"bytes32"},{"internalType":"address","name":"account","type":"address"}],"name":"revokeRole","outputs":[],"stateMutability":"nonpayable","type":"function"},{"inputs":[{"internalType":"uint256","name":"_maxSlippage","type":"uint256"},{"internalType":"uint256","name":"_minSwapAmount","type":"uint256"}],"name":"setParameters","outputs":[],"stateMutability":"nonpayable","type":"function"},{"inputs":[],"name":"stats","outputs":[{"internalType":"uint256","name":"totalDustDeposited","type":"uint256"},{"internalType":"uint256","name":"totalDustWithdrawn","type":"uint256"},{"internalType":"uint256","name":"totalUsdcSwapped","type":"uint256"},{"internalType":"uint256","name":"transactionCount","type":"uint256"}],"stateMutability":"view","type":"function"},{"inputs":[{"internalType":"bytes4","name":"interfaceId","type":"bytes4"}],"name":"supportsInterface","outputs":[{"internalType":"bool","name":"","type":"bool"}],"stateMutability":"view","type":"function"},{"inputs":[],"name":"uniswapRouter","outputs":[{"internalType":"contract ISwapRouter","name":"","type":"address"}],"stateMutability":"view","type":"function"},{"inputs":[],"name":"unpause","outputs":[],"stateMutability":"nonpayable","type":"function"},{"inputs":[],"name":"usdc","outputs":[{"internalType":"contract IERC20","name":"","type":"address"}],"stateMutability":"view","type":"function"},{"inputs":[],"name":"vault","outputs":[{"internalType":"contract StardustTradingVault","name":"","type":"address"}],"stateMutability":"view","type":"function"},{"inputs":[{"internalType":"uint256","name":"stUsdcAmount","type":"uint256"},{"internalType":"uint256","name":"minDustOut","type":"uint256"}],"name":"withdrawToDUST","outputs":[{"internalType":"uint256","name":"dustAmount","type":"uint256"}],"stateMutability":"nonpayable","type":"function"},{"inputs":[{"internalType":"uint256","name":"stUsdcAmount","type":"uint256"},{"internalType":"uint256","name":"minUsdcOut","type":"uint256"},{"internalType":"uint256","name":"minDustOut","type":"uint256"}],"name":"withdrawToDUSTLegacy","outputs":[{"internalType":"uint256","name":"dustAmount","type":"uint256"}],"stateMutability":"nonpayable","type":"function"}],"evm":{"bytecode":{"linkReferences":{},"object":"61010060409080825234620003c65760808162001e028038038091620000268285620003cb565b833981010312620003c6576200003c8162000405565b906020916200004d83830162000405565b916200006960606200006187840162000405565b920162000405565b916001805561012c600355600491678ac7230489e80000835560018060a01b038092169485156200038f5782169081156200035857821693841562000320578216948515620002dd5760805260a0528260c0528360e052620000cb3362000434565b50620000d733620004b4565b50806080511692865163095ea7b360e01b9283825286858301526000199182602482015288816044816000809b5af18015620002b157620002bb575b5085888260a0511660448c51809481938a8352898c8401528860248401525af18015620002b15791899188936200028f575b5060a0511660448b51809481938983528c8b8401528760248401525af1801562000285579288959492879260449562000263575b508a519889968795865285015260248401525af190811562000258575062000223575b825161188b9081620005578239608051818181610192015281816105e601528181610c9b0152611085015260a05181818161050d01528181610b2801528181610ce501526110f3015260c05181818161014b015281816104bb01528181610c4301526111b8015260e05181818161057701528181610a5601528181610dee01526111580152f35b816200024792903d1062000250575b6200023e8183620003cb565b8101906200041a565b5038806200019c565b503d62000232565b8451903d90823e3d90fd5b6200027d90883d8a1162000250576200023e8183620003cb565b503862000179565b89513d88823e3d90fd5b620002a990833d851162000250576200023e8183620003cb565b503862000145565b8a513d89823e3d90fd5b620002d590893d8b1162000250576200023e8183620003cb565b503862000113565b875162461bcd60e51b8152808501889052601460248201527f526f757465723a207a65726f20556e69737761700000000000000000000000006044820152606490fd5b875162461bcd60e51b81528085018890526012602482015271149bdd5d195c8e881e995c9bc815985d5b1d60721b6044820152606490fd5b875162461bcd60e51b81528085018890526011602482015270526f757465723a207a65726f205553444360781b6044820152606490fd5b875162461bcd60e51b81528085018890526011602482015270149bdd5d195c8e881e995c9bc8111554d5607a1b6044820152606490fd5b600080fd5b601f909101601f19168101906001600160401b03821190821017620003ef57604052565b634e487b7160e01b600052604160045260246000fd5b51906001600160a01b0382168203620003c657565b90816020910312620003c657518015158103620003c65790565b6001600160a01b031660008181527fad3228b676f7d3cd4284a5443f17f1962b36e491b30a40b2405849e597ba5fb5602052604081205490919060ff16620004b057818052816020526040822081835260205260408220600160ff19825416179055339160008051602062001de28339815191528180a4600190565b5090565b6001600160a01b031660008181527ff7c9542c591017a21c74b6f3fab6263c7952fc0aaf9db4c22a2a04ddc7f8674f60205260408120549091907f65d7a28e3265b37a6474929f336521b332c1681b933f6cb9f3376673440d862a9060ff166200055157808352826020526040832082845260205260408320600160ff1982541617905560008051602062001de2833981519152339380a4600190565b50509056fe608060408181526004918236101561001657600080fd5b600092833560e01c91826301ffc9a71461133f575081631db447bf1461102b578163248a9ca31461100157816327ecb98614610be55781632f2ff15d14610bbb578163338246e214610b9d57816336568abe14610b575781633e413bee14610b135781633f4ba83a14610aa95781635c975abb14610a85578163735de9f714610a415781638456cb59146109e6578163884870c71461094b5781638c04166f1461092c57816391d14854146108e6578163a217fddf146108cb578163b837c0ed14610442578163d146de40146103e2578163d547741f146103a3578163d80528ae1461036a578163dd1b9c4a1461034d578163e63ab1e914610312578163e63ea408146101c157508063fad9aba31461017e5763fbfa77cf1461013857600080fd5b3461017a578160031936011261017a57517f00000000000000000000000000000000000000000000000000000000000000006001600160a01b03168152602090f35b5080fd5b503461017a578160031936011261017a57517f00000000000000000000000000000000000000000000000000000000000000006001600160a01b03168152602090f35b9190503461030e57606036600319011261030e5781356001600160a01b038181169182900361030a576101f26113ad565b906101fb611702565b8116156102d057825163a9059cbb60e01b81526001600160a01b039091168482019081526044356020828101919091529192839182908890829060400103925af19081156102c6578491610297575b5015610254578280f35b906020606492519162461bcd60e51b8352820152601760248201527f526f757465723a207472616e73666572206661696c65640000000000000000006044820152fd5b6102b9915060203d6020116102bf575b6102b181836113f6565b810190611418565b3861024a565b503d6102a7565b82513d86823e3d90fd5b825162461bcd60e51b81526020818601526014602482015273526f757465723a207a65726f206164647265737360601b6044820152606490fd5b8480fd5b8280fd5b50503461017a578160031936011261017a57602090517f65d7a28e3265b37a6474929f336521b332c1681b933f6cb9f3376673440d862a8152f35b50503461017a578160031936011261017a5760209051610bb88152f35b50503461017a578160031936011261017a5760809060055490600654906007549060085492815194855260208501528301526060820152f35b9190503461030e578060031936011261030e576103de91356103d960016103c86113ad565b93838752866020528620015461173c565b6117e0565b5080f35b50503461017a578160031936011261017a5760055460065460a093509091818311156104335761041282846115d3565b60075491600854938151958652602086015284015260608301526080820152f35b61043d83836115d3565b610412565b83833461017a57606036600319011261017a578235602435604435936104666115e0565b61046e611603565b6104798315156114ae565b81156108885761048a8515156114f0565b83516323b872dd60e01b81523381880190815230602082810191909152604082018690526001600160a01b039890977f00000000000000000000000000000000000000000000000000000000000000008a16939192909190899082908190606001038188885af190811561087e579061050a918691610861575b5061153c565b887f00000000000000000000000000000000000000000000000000000000000000001661012c42019384421161084e57885190610546826113c3565b8152818a820152610bb894858a8301523060608301528060808301528860a08301528760c08301528660e08301528b7f0000000000000000000000000000000000000000000000000000000000000000169b8c988c8c51809b818c8163414bf38960e01b998a82528d8201906105bb91611621565b03925af1998a1561084457899a610811575b5089156107d857891061079757918b9c9161064e9c94937f000000000000000000000000000000000000000000000000000000000000000016978c5194610613866113c3565b855288868601528c85015230606085015260808401528860a08401528460c08401528760e0840152878b51809d819582948352898301611621565b03925af197881561078d578498610754575b506106a19289926106748a93841015611588565b885163a9059cbb60e01b815233918101918252602082019390935291938492839187918391604090910190565b03925af19182156107495786927fdfef462da6d7e712f2e69fd1113692d86e3a91dcacfaf88e85e2111074e417a394926106e1929161072c575b50611430565b6106ed8260065461147c565b6006556106fc8160075461147c565b60075561070a60085461149f565b6008558451938452602084015260408301523391606090a26001805551908152f35b6107439150893d8b116102bf576102b181836113f6565b896106db565b8551903d90823e3d90fd5b90929880985081813d8311610786575b61076e81836113f6565b8101031261078257519697916106a1610660565b8380fd5b503d610764565b87513d86823e3d90fd5b6064868d808e519262461bcd60e51b845283015260248201527f526f757465723a20696e73756666696369656e742055534443206f75747075746044820152fd5b8b5162461bcd60e51b81528088018e90526013602482015272149bdd5d195c8e881cddd85c0819985a5b1959606a1b6044820152606490fd5b9099508c81813d831161083d575b61082981836113f6565b810103126108395751988e6105cd565b8880fd5b503d61081f565b8c513d8b823e3d90fd5b634e487b7160e01b865260118452602486fd5b61087891508a3d8c116102bf576102b181836113f6565b8b610504565b88513d87823e3d90fd5b835162461bcd60e51b8152602081880152601760248201527f526f757465723a206d696e557364634f7574207a65726f0000000000000000006044820152606490fd5b50503461017a578160031936011261017a5751908152602090f35b90503461030e578160031936011261030e578160209360ff926109076113ad565b903582528186528282206001600160a01b039091168252855220549151911615158152f35b50503461017a578160031936011261017a576020906003549051908152f35b83833461017a5761095b36611392565b610963611702565b6103e882116109a357807ffaccb0639ff7851e0e24f3b2d9ab03cd62ffb63f5b4d90aaeff85bb078c1fa489495836003555582519182526020820152a180f35b825162461bcd60e51b8152602081870152601960248201527f526f757465723a20736c69707061676520746f6f2068696768000000000000006044820152606490fd5b50503461017a578160031936011261017a5760207f62e78cea01bee320cd4e420270b5ea74000d11b0c9f74754ebdbfc544b05a25891610a24611688565b610a2c611603565b600160ff19600254161760025551338152a180f35b50503461017a578160031936011261017a57517f00000000000000000000000000000000000000000000000000000000000000006001600160a01b03168152602090f35b50503461017a578160031936011261017a5760209060ff6002541690519015158152f35b90503461030e578260031936011261030e57610ac3611688565b6002549060ff821615610b05575060ff1916600255513381527f5db9ee0a495bf2e6ff9c91a7834c1ba4fdd244a5e8aa4e537bd38aeae4b073aa90602090a180f35b8251638dfc202b60e01b8152fd5b50503461017a578160031936011261017a57517f00000000000000000000000000000000000000000000000000000000000000006001600160a01b03168152602090f35b83833461017a578060031936011261017a57610b716113ad565b90336001600160a01b03831603610b8e57506103de9192356117e0565b5163334bd91960e11b81528390fd5b90503461030e578260031936011261030e5760209250549051908152f35b9190503461030e578060031936011261030e576103de9135610be060016103c86113ad565b611762565b83833461017a57610bf536611392565b92610bfe6115e0565b610c06611603565b610c118215156114ae565b610c1c8415156114f0565b82516323b872dd60e01b8152338187019081523060208281019190915260408201859052967f0000000000000000000000000000000000000000000000000000000000000000969290916001600160a01b039190899082908190606001038188868d165af1908115610f765790610c99918691610fe4575061153c565b7f0000000000000000000000000000000000000000000000000000000000000000928651976bffffffffffffffffffffffff19809160601b168a8a015261017760eb1b8060348b0152817f000000000000000000000000000000000000000000000000000000000000000060601b1660378b0152604b8a01528460601b16604e89015260428852608088019767ffffffffffffffff90808a10828b1117610fd15761012c420191824211610fbe5761012082019081118b821017610fab57908b92859b928b5281835260a082019130835260c0810191825261010060e08201918c835201918683528c519d8e9563c04b8d5960e01b8752878b880152519460a060248801528c8651968760c48a015289825b898110610f8057505050918795939187959360e4809989010152511660448601525160648501525160848401525160a4830152601f8019910116810103018188867f0000000000000000000000000000000000000000000000000000000000000000165af1978815610f76578598610f47575b508715610f0457928892858993610e3a610e6597861015611588565b895163a9059cbb60e01b81523393810193845260208401959095529395869485939091849160400190565b0393165af1908115610efa5790610e82918391610edd5750611430565b610e8e8460065461147c565b600655610e9c60085461149f565b60085582519182528482015282828201527fdfef462da6d7e712f2e69fd1113692d86e3a91dcacfaf88e85e2111074e417a360603392a26001805551908152f35b610ef49150873d89116102bf576102b181836113f6565b876106db565b84513d84823e3d90fd5b865162461bcd60e51b81528084018a9052601d60248201527f526f757465723a206d756c74692d686f702073776170206661696c65640000006044820152606490fd5b9097508881813d8311610f6f575b610f5f81836113f6565b8101031261030a57519689610e1e565b503d610f55565b87513d87823e3d90fd5b829550809350818160e4939698999a9b9c940101519201015201918f96959493928a92898f92610dab565b634e487b7160e01b885260418652602488fd5b634e487b7160e01b885260118652602488fd5b634e487b7160e01b875260418552602487fd5b610ffb91508a3d8c116102bf576102b181836113f6565b8a610504565b90503461030e57602036600319011261030e57816020936001923581528085522001549051908152f35b83833461017a5761103b36611392565b936110446115e0565b61104c611603565b805482106113035782516323b872dd60e01b8152338183019081523060208281019190915260408201859052966001600160a01b0393927f000000000000000000000000000000000000000000000000000000000000000085169289908290819060600103818b875af19081156112f957906110ce9189916112dc5750611430565b61012c42018042116112c95791889161115294938851926110ee846113c3565b8352867f00000000000000000000000000000000000000000000000000000000000000001684840152610bb88984015230606084015260808301528660a083015260c08201528760e082015286518094819263414bf38960e01b8352858301611621565b038189877f0000000000000000000000000000000000000000000000000000000000000000165af19182156112bf579087918793611288575b5085516316cc3da360e21b81523391810191825260208201849052929383918290899082906040015b03927f0000000000000000000000000000000000000000000000000000000000000000165af194851561127d578095611228575b5050837f16737b8c514bb0bde161519d0cbdbb3176e5835b6175bf3d1254d115dfd37dfa916112198460055461147c565b6005556106fc8160075461147c565b909194508582813d8311611276575b61124181836113f6565b81010312611273575051927f16737b8c514bb0bde161519d0cbdbb3176e5835b6175bf3d1254d115dfd37dfa866111e8565b80fd5b503d611237565b8451903d90823e3d90fd5b8281939294503d83116112b8575b6112a081836113f6565b810103126112b457519086906111b461118b565b8580fd5b503d611296565b85513d88823e3d90fd5b634e487b7160e01b885260118452602488fd5b6112f391508a3d8c116102bf576102b181836113f6565b8a6106db565b87513d8a823e3d90fd5b606490602084519162461bcd60e51b83528201526016602482015275526f757465723a20616d6f756e7420746f6f206c6f7760501b6044820152fd5b84913461030e57602036600319011261030e573563ffffffff60e01b811680910361030e5760209250637965db0b60e01b8114908115611381575b5015158152f35b6301ffc9a760e01b1490508361137a565b60409060031901126113a8576004359060243590565b600080fd5b602435906001600160a01b03821682036113a857565b610100810190811067ffffffffffffffff8211176113e057604052565b634e487b7160e01b600052604160045260246000fd5b90601f8019910116810190811067ffffffffffffffff8211176113e057604052565b908160209103126113a8575180151581036113a85790565b1561143757565b60405162461bcd60e51b815260206004820152601c60248201527f526f757465723a2044555354207472616e73666572206661696c6564000000006044820152606490fd5b9190820180921161148957565b634e487b7160e01b600052601160045260246000fd5b60001981146114895760010190565b156114b557565b60405162461bcd60e51b8152602060048201526013602482015272149bdd5d195c8e881e995c9bc8185b5bdd5b9d606a1b6044820152606490fd5b156114f757565b60405162461bcd60e51b815260206004820152601760248201527f526f757465723a206d696e447573744f7574207a65726f0000000000000000006044820152606490fd5b1561154357565b60405162461bcd60e51b815260206004820152601e60248201527f526f757465723a20737455534443207472616e73666572206661696c656400006044820152606490fd5b1561158f57565b606460405162461bcd60e51b815260206004820152602060248201527f526f757465723a20696e73756666696369656e742044555354206f75747075746044820152fd5b9190820391821161148957565b6002600154146115f1576002600155565b604051633ee5aeb560e01b8152600490fd5b60ff6002541661160f57565b60405163d93c066560e01b8152600490fd5b91909160e06101008201938160018060a01b039182815116855282602082015116602086015262ffffff60408201511660408601528260608201511660608601526080810151608086015260a081015160a086015260c081015160c0860152015116910152565b3360009081527ff7c9542c591017a21c74b6f3fab6263c7952fc0aaf9db4c22a2a04ddc7f8674f60205260409020547f65d7a28e3265b37a6474929f336521b332c1681b933f6cb9f3376673440d862a9060ff16156116e45750565b6044906040519063e2517d3f60e01b82523360048301526024820152fd5b3360009081527fad3228b676f7d3cd4284a5443f17f1962b36e491b30a40b2405849e597ba5fb5602052604081205460ff16156116e45750565b80600052600060205260406000203360005260205260ff60406000205416156116e45750565b9060009180835282602052604083209160018060a01b03169182845260205260ff604084205416156000146117db57808352826020526040832082845260205260408320600160ff198254161790557f2f8788117e7eff1d82e926ec794901d17c78024a50270940304540a733656f0d339380a4600190565b505090565b9060009180835282602052604083209160018060a01b03169182845260205260ff6040842054166000146117db5780835282602052604083208284526020526040832060ff1981541690557ff6391f5c32d9c69d2a47ea670b442974b53935d1edc7fd64eb21e047a839171b339380a460019056fea26469706673582212206e14d30f3a966694f19dd91367b89b40bdf768478539cae795cb11691b1608fc64736f6c634300081800332f8788117e7eff1d82e926ec794901d17c78024a50270940304540a733656f0d","opcodes":"PUSH2 0x100 PUSH1 0x40 SWAP1 DUP1 DUP3 MSTORE CALLVALUE PUSH3 0x3C6 JUMPI PUSH1 0x80 DUP2 PUSH3 0x1E02 DUP1 CODESIZE SUB DUP1 SWAP2 PUSH3 0x26 DUP3 DUP6 PUSH3 0x3CB JUMP JUMPDEST DUP4 CODECOPY DUP2 ADD SUB SLT PUSH3 0x3C6 JUMPI PUSH3 0x3C DUP2 PUSH3 0x405 JUMP JUMPDEST SWAP1 PUSH1 0x20 SWAP2 PUSH3 0x4D DUP4 DUP4 ADD PUSH3 0x405 JUMP JUMPDEST SWAP2 PUSH3 0x69 PUSH1 0x60 PUSH3 0x61 DUP8 DUP5 ADD PUSH3 0x405 JUMP JUMPDEST SWAP3 ADD PUSH3 0x405 JUMP JUMPDEST SWAP2 PUSH1 0x1 DUP1 SSTORE PUSH2 0x12C PUSH1 0x3 SSTORE PUSH1 0x4 SWAP2 PUSH8 0x8AC7230489E80000 DUP4 SSTORE PUSH1 0x1 DUP1 PUSH1 0xA0 SHL SUB DUP1 SWAP3 AND SWAP5 DUP6 ISZERO PUSH3 0x38F JUMPI DUP3 AND SWAP1 DUP2 ISZERO PUSH3 0x358 JUMPI DUP3 AND SWAP4 DUP5 ISZERO PUSH3 0x320 JUMPI DUP3 AND SWAP5 DUP6 ISZERO PUSH3 0x2DD JUMPI PUSH1 0x80 MSTORE PUSH1 0xA0 MSTORE DUP3 PUSH1 0xC0 MSTORE DUP4 PUSH1 0xE0 MSTORE PUSH3 0xCB CALLER PUSH3 0x434 JUMP JUMPDEST POP PUSH3 0xD7 CALLER PUSH3 0x4B4 JUMP JUMPDEST POP DUP1 PUSH1 0x80 MLOAD AND SWAP3 DUP7 MLOAD PUSH4 0x95EA7B3 PUSH1 0xE0 SHL SWAP3 DUP4 DUP3 MSTORE DUP7 DUP6 DUP4 ADD MSTORE PUSH1 0x0 NOT SWAP2 DUP3 PUSH1 0x24 DUP3 ADD MSTORE DUP9 DUP2 PUSH1 0x44 DUP2 PUSH1 0x0 DUP1 SWAP12 GAS CALL DUP1 ISZERO PUSH3 0x2B1 JUMPI PUSH3 0x2BB JUMPI JUMPDEST POP DUP6 DUP9 DUP3 PUSH1 0xA0 MLOAD AND PUSH1 0x44 DUP13 MLOAD DUP1 SWAP5 DUP2 SWAP4 DUP11 DUP4 MSTORE DUP10 DUP13 DUP5 ADD MSTORE DUP9 PUSH1 0x24 DUP5 ADD MSTORE GAS CALL DUP1 ISZERO PUSH3 0x2B1 JUMPI SWAP2 DUP10 SWAP2 DUP9 SWAP4 PUSH3 0x28F JUMPI JUMPDEST POP PUSH1 0xA0 MLOAD AND PUSH1 0x44 DUP12 MLOAD DUP1 SWAP5 DUP2 SWAP4 DUP10 DUP4 MSTORE DUP13 DUP12 DUP5 ADD MSTORE DUP8 PUSH1 0x24 DUP5 ADD MSTORE GAS CALL DUP1 ISZERO PUSH3 0x285 JUMPI SWAP3 DUP9 SWAP6 SWAP5 SWAP3 DUP8 SWAP3 PUSH1 0x44 SWAP6 PUSH3 0x263 JUMPI JUMPDEST POP DUP11 MLOAD SWAP9 DUP10 SWAP7 DUP8 SWAP6 DUP7 MSTORE DUP6 ADD MSTORE PUSH1 0x24 DUP5 ADD MSTORE GAS CALL SWAP1 DUP2 ISZERO PUSH3 0x258 JUMPI POP PUSH3 0x223 JUMPI JUMPDEST DUP3 MLOAD PUSH2 0x188B SWAP1 DUP2 PUSH3 0x557 DUP3 CODECOPY PUSH1 0x80 MLOAD DUP2 DUP2 DUP2 PUSH2 0x192 ADD MSTORE DUP2 DUP2 PUSH2 0x5E6 ADD MSTORE DUP2 DUP2 PUSH2 0xC9B ADD MSTORE PUSH2 0x1085 ADD MSTORE PUSH1 0xA0 MLOAD DUP2 DUP2 DUP2 PUSH2 0x50D ADD MSTORE DUP2 DUP2 PUSH2 0xB28 ADD MSTORE DUP2 DUP2 PUSH2 0xCE5 ADD MSTORE PUSH2 0x10F3 ADD MSTORE PUSH1 0xC0 MLOAD DUP2 DUP2 DUP2 PUSH2 0x14B ADD MSTORE DUP2 DUP2 PUSH2 0x4BB ADD MSTORE DUP2 DUP2 PUSH2 0xC43 ADD MSTORE PUSH2 0x11B8 ADD MSTORE PUSH1 0xE0 MLOAD DUP2 DUP2 DUP2 PUSH2 0x577 ADD MSTORE DUP2 DUP2 PUSH2 0xA56 ADD MSTORE DUP2 DUP2 PUSH2 0xDEE ADD MSTORE PUSH2 0x1158 ADD MSTORE RETURN JUMPDEST DUP2 PUSH3 0x247 SWAP3 SWAP1 RETURNDATASIZE LT PUSH3 0x250 JUMPI JUMPDEST PUSH3 0x23E DUP2 DUP4 PUSH3 0x3CB JUMP JUMPDEST DUP2 ADD SWAP1 PUSH3 0x41A JUMP JUMPDEST POP CODESIZE DUP1 PUSH3 0x19C JUMP JUMPDEST POP RETURNDATASIZE PUSH3 0x232 JUMP JUMPDEST DUP5 MLOAD SWAP1 RETURNDATASIZE SWAP1 DUP3 RETURNDATACOPY RETURNDATASIZE SWAP1 REVERT JUMPDEST PUSH3 0x27D SWAP1 DUP9 RETURNDATASIZE DUP11 GT PUSH3 0x250 JUMPI PUSH3 0x23E DUP2 DUP4 PUSH3 0x3CB JUMP JUMPDEST POP CODESIZE PUSH3 0x179 JUMP JUMPDEST DUP10 MLOAD RETURNDATASIZE DUP9 DUP3 RETURNDATACOPY RETURNDATASIZE SWAP1 REVERT JUMPDEST PUSH3 0x2A9 SWAP1 DUP4 RETURNDATASIZE DUP6 GT PUSH3 0x250 JUMPI PUSH3 0x23E DUP2 DUP4 PUSH3 0x3CB JUMP JUMPDEST POP CODESIZE PUSH3 0x145 JUMP JUMPDEST DUP11 MLOAD RETURNDATASIZE DUP10 DUP3 RETURNDATACOPY RETURNDATASIZE SWAP1 REVERT JUMPDEST PUSH3 0x2D5 SWAP1 DUP10 RETURNDATASIZE DUP12 GT PUSH3 0x250 JUMPI PUSH3 0x23E DUP2 DUP4 PUSH3 0x3CB JUMP JUMPDEST POP CODESIZE PUSH3 0x113 JUMP JUMPDEST DUP8 MLOAD PUSH3 0x461BCD PUSH1 0xE5 SHL DUP2 MSTORE DUP1 DUP6 ADD DUP9 SWAP1 MSTORE PUSH1 0x14 PUSH1 0x24 DUP3 ADD MSTORE PUSH32 0x526F757465723A207A65726F20556E6973776170000000000000000000000000 PUSH1 0x44 DUP3 ADD MSTORE PUSH1 0x64 SWAP1 REVERT JUMPDEST DUP8 MLOAD PUSH3 0x461BCD PUSH1 0xE5 SHL DUP2 MSTORE DUP1 DUP6 ADD DUP9 SWAP1 MSTORE PUSH1 0x12 PUSH1 0x24 DUP3 ADD MSTORE PUSH18 0x149BDD5D195C8E881E995C9BC815985D5B1D PUSH1 0x72 SHL PUSH1 0x44 DUP3 ADD MSTORE PUSH1 0x64 SWAP1 REVERT JUMPDEST DUP8 MLOAD PUSH3 0x461BCD PUSH1 0xE5 SHL DUP2 MSTORE DUP1 DUP6 ADD DUP9 SWAP1 MSTORE PUSH1 0x11 PUSH1 0x24 DUP3 ADD MSTORE PUSH17 0x526F757465723A207A65726F2055534443 PUSH1 0x78 SHL PUSH1 0x44 DUP3 ADD MSTORE PUSH1 0x64 SWAP1 REVERT JUMPDEST DUP8 MLOAD PUSH3 0x461BCD PUSH1 0xE5 SHL DUP2 MSTORE DUP1 DUP6 ADD DUP9 SWAP1 MSTORE PUSH1 0x11 PUSH1 0x24 DUP3 ADD MSTORE PUSH17 0x149BDD5D195C8E881E995C9BC8111554D5 PUSH1 0x7A SHL PUSH1 0x44 DUP3 ADD MSTORE PUSH1 0x64 SWAP1 REVERT JUMPDEST PUSH1 0x0 DUP1 REVERT JUMPDEST PUSH1 0x1F SWAP1 SWAP2 ADD PUSH1 0x1F NOT AND DUP2 ADD SWAP1 PUSH1 0x1 PUSH1 0x1 PUSH1 0x40 SHL SUB DUP3 GT SWAP1 DUP3 LT OR PUSH3 0x3EF JUMPI PUSH1 0x40 MSTORE JUMP JUMPDEST PUSH4 0x4E487B71 PUSH1 0xE0 SHL PUSH1 0x0 MSTORE PUSH1 0x41 PUSH1 0x4 MSTORE PUSH1 0x24 PUSH1 0x0 REVERT JUMPDEST MLOAD SWAP1 PUSH1 0x1 PUSH1 0x1 PUSH1 0xA0 SHL SUB DUP3 AND DUP3 SUB PUSH3 0x3C6 JUMPI JUMP JUMPDEST SWAP1 DUP2 PUSH1 0x20 SWAP2 SUB SLT PUSH3 0x3C6 JUMPI MLOAD DUP1 ISZERO ISZERO DUP2 SUB PUSH3 0x3C6 JUMPI SWAP1 JUMP JUMPDEST PUSH1 0x1 PUSH1 0x1 PUSH1 0xA0 SHL SUB AND PUSH1 0x0 DUP2 DUP2 MSTORE PUSH32 0xAD3228B676F7D3CD4284A5443F17F1962B36E491B30A40B2405849E597BA5FB5 PUSH1 0x20 MSTORE PUSH1 0x40 DUP2 KECCAK256 SLOAD SWAP1 SWAP2 SWAP1 PUSH1 0xFF AND PUSH3 0x4B0 JUMPI DUP2 DUP1 MSTORE DUP2 PUSH1 0x20 MSTORE PUSH1 0x40 DUP3 KECCAK256 DUP2 DUP4 MSTORE PUSH1 0x20 MSTORE PUSH1 0x40 DUP3 KECCAK256 PUSH1 0x1 PUSH1 0xFF NOT DUP3 SLOAD AND OR SWAP1 SSTORE CALLER SWAP2 PUSH1 0x0 DUP1 MLOAD PUSH1 0x20 PUSH3 0x1DE2 DUP4 CODECOPY DUP2 MLOAD SWAP2 MSTORE DUP2 DUP1 LOG4 PUSH1 0x1 SWAP1 JUMP JUMPDEST POP SWAP1 JUMP JUMPDEST PUSH1 0x1 PUSH1 0x1 PUSH1 0xA0 SHL SUB AND PUSH1 0x0 DUP2 DUP2 MSTORE PUSH32 0xF7C9542C591017A21C74B6F3FAB6263C7952FC0AAF9DB4C22A2A04DDC7F8674F PUSH1 0x20 MSTORE PUSH1 0x40 DUP2 KECCAK256 SLOAD SWAP1 SWAP2 SWAP1 PUSH32 0x65D7A28E3265B37A6474929F336521B332C1681B933F6CB9F3376673440D862A SWAP1 PUSH1 0xFF AND PUSH3 0x551 JUMPI DUP1 DUP4 MSTORE DUP3 PUSH1 0x20 MSTORE PUSH1 0x40 DUP4 KECCAK256 DUP3 DUP5 MSTORE PUSH1 0x20 MSTORE PUSH1 0x40 DUP4 KECCAK256 PUSH1 0x1 PUSH1 0xFF NOT DUP3 SLOAD AND OR SWAP1 SSTORE PUSH1 0x0 DUP1 MLOAD PUSH1 0x20 PUSH3 0x1DE2 DUP4 CODECOPY DUP2 MLOAD SWAP2 MSTORE CALLER SWAP4 DUP1 LOG4 PUSH1 0x1 SWAP1 JUMP JUMPDEST POP POP SWAP1 JUMP INVALID PUSH1 0x80 PUSH1 0x40 DUP2 DUP2 MSTORE PUSH1 0x4 SWAP2 DUP3 CALLDATASIZE LT ISZERO PUSH2 0x16 JUMPI PUSH1 0x0 DUP1 REVERT JUMPDEST PUSH1 0x0 SWAP3 DUP4 CALLDATALOAD PUSH1 0xE0 SHR SWAP2 DUP3 PUSH4 0x1FFC9A7 EQ PUSH2 0x133F JUMPI POP DUP2 PUSH4 0x1DB447BF EQ PUSH2 0x102B JUMPI DUP2 PUSH4 0x248A9CA3 EQ PUSH2 0x1001 JUMPI DUP2 PUSH4 0x27ECB986 EQ PUSH2 0xBE5 JUMPI DUP2 PUSH4 0x2F2FF15D EQ PUSH2 0xBBB JUMPI DUP2 PUSH4 0x338246E2 EQ PUSH2 0xB9D JUMPI DUP2 PUSH4 0x36568ABE EQ PUSH2 0xB57 JUMPI DUP2 PUSH4 0x3E413BEE EQ PUSH2 0xB13 JUMPI DUP2 PUSH4 0x3F4BA83A EQ PUSH2 0xAA9 JUMPI DUP2 PUSH4 0x5C975ABB EQ PUSH2 0xA85 JUMPI DUP2 PUSH4 0x735DE9F7 EQ PUSH2 0xA41 JUMPI DUP2 PUSH4 0x8456CB59 EQ PUSH2 0x9E6 JUMPI DUP2 PUSH4 0x884870C7 EQ PUSH2 0x94B JUMPI DUP2 PUSH4 0x8C04166F EQ PUSH2 0x92C JUMPI DUP2 PUSH4 0x91D14854 EQ PUSH2 0x8E6 JUMPI DUP2 PUSH4 0xA217FDDF EQ PUSH2 0x8CB JUMPI DUP2 PUSH4 0xB837C0ED EQ PUSH2 0x442 JUMPI DUP2 PUSH4 0xD146DE40 EQ PUSH2 0x3E2 JUMPI DUP2 PUSH4 0xD547741F EQ PUSH2 0x3A3 JUMPI DUP2 PUSH4 0xD80528AE EQ PUSH2 0x36A JUMPI DUP2 PUSH4 0xDD1B9C4A EQ PUSH2 0x34D JUMPI DUP2 PUSH4 0xE63AB1E9 EQ PUSH2 0x312 JUMPI DUP2 PUSH4 0xE63EA408 EQ PUSH2 0x1C1 JUMPI POP DUP1 PUSH4 0xFAD9ABA3 EQ PUSH2 0x17E JUMPI PUSH4 0xFBFA77CF EQ PUSH2 0x138 JUMPI PUSH1 0x0 DUP1 REVERT JUMPDEST CALLVALUE PUSH2 0x17A JUMPI DUP2 PUSH1 0x3 NOT CALLDATASIZE ADD SLT PUSH2 0x17A JUMPI MLOAD PUSH32 0x0 PUSH1 0x1 PUSH1 0x1 PUSH1 0xA0 SHL SUB AND DUP2 MSTORE PUSH1 0x20 SWAP1 RETURN JUMPDEST POP DUP1 REVERT JUMPDEST POP CALLVALUE PUSH2 0x17A JUMPI DUP2 PUSH1 0x3 NOT CALLDATASIZE ADD SLT PUSH2 0x17A JUMPI MLOAD PUSH32 0x0 PUSH1 0x1 PUSH1 0x1 PUSH1 0xA0 SHL SUB AND DUP2 MSTORE PUSH1 0x20 SWAP1 RETURN JUMPDEST SWAP2 SWAP1 POP CALLVALUE PUSH2 0x30E JUMPI PUSH1 0x60 CALLDATASIZE PUSH1 0x3 NOT ADD SLT PUSH2 0x30E JUMPI DUP2 CALLDATALOAD PUSH1 0x1 PUSH1 0x1 PUSH1 0xA0 SHL SUB DUP2 DUP2 AND SWAP2 DUP3 SWAP1 SUB PUSH2 0x30A JUMPI PUSH2 0x1F2 PUSH2 0x13AD JUMP JUMPDEST SWAP1 PUSH2 0x1FB PUSH2 0x1702 JUMP JUMPDEST DUP2 AND ISZERO PUSH2 0x2D0 JUMPI DUP3 MLOAD PUSH4 0xA9059CBB PUSH1 0xE0 SHL DUP2 MSTORE PUSH1 0x1 PUSH1 0x1 PUSH1 0xA0 SHL SUB SWAP1 SWAP2 AND DUP5 DUP3 ADD SWAP1 DUP2 MSTORE PUSH1 0x44 CALLDATALOAD PUSH1 0x20 DUP3 DUP2 ADD SWAP2 SWAP1 SWAP2 MSTORE SWAP2 SWAP3 DUP4 SWAP2 DUP3 SWAP1 DUP9 SWAP1 DUP3 SWAP1 PUSH1 0x40 ADD SUB SWAP3 GAS CALL SWAP1 DUP2 ISZERO PUSH2 0x2C6 JUMPI DUP5 SWAP2 PUSH2 0x297 JUMPI JUMPDEST POP ISZERO PUSH2 0x254 JUMPI DUP3 DUP1 RETURN JUMPDEST SWAP1 PUSH1 0x20 PUSH1 0x64 SWAP3 MLOAD SWAP2 PUSH3 0x461BCD PUSH1 0xE5 SHL DUP4 MSTORE DUP3 ADD MSTORE PUSH1 0x17 PUSH1 0x24 DUP3 ADD MSTORE PUSH32 0x526F757465723A207472616E73666572206661696C6564000000000000000000 PUSH1 0x44 DUP3 ADD MSTORE REVERT JUMPDEST PUSH2 0x2B9 SWAP2 POP PUSH1 0x20 RETURNDATASIZE PUSH1 0x20 GT PUSH2 0x2BF JUMPI JUMPDEST PUSH2 0x2B1 DUP2 DUP4 PUSH2 0x13F6 JUMP JUMPDEST DUP2 ADD SWAP1 PUSH2 0x1418 JUMP JUMPDEST CODESIZE PUSH2 0x24A JUMP JUMPDEST POP RETURNDATASIZE PUSH2 0x2A7 JUMP JUMPDEST DUP3 MLOAD RETURNDATASIZE DUP7 DUP3 RETURNDATACOPY RETURNDATASIZE SWAP1 REVERT JUMPDEST DUP3 MLOAD PUSH3 0x461BCD PUSH1 0xE5 SHL DUP2 MSTORE PUSH1 0x20 DUP2 DUP7 ADD MSTORE PUSH1 0x14 PUSH1 0x24 DUP3 ADD MSTORE PUSH20 0x526F757465723A207A65726F2061646472657373 PUSH1 0x60 SHL PUSH1 0x44 DUP3 ADD MSTORE PUSH1 0x64 SWAP1 REVERT JUMPDEST DUP5 DUP1 REVERT JUMPDEST DUP3 DUP1 REVERT JUMPDEST POP POP CALLVALUE PUSH2 0x17A JUMPI DUP2 PUSH1 0x3 NOT CALLDATASIZE ADD SLT PUSH2 0x17A JUMPI PUSH1 0x20 SWAP1 MLOAD PUSH32 0x65D7A28E3265B37A6474929F336521B332C1681B933F6CB9F3376673440D862A DUP2 MSTORE RETURN JUMPDEST POP POP CALLVALUE PUSH2 0x17A JUMPI DUP2 PUSH1 0x3 NOT CALLDATASIZE ADD SLT PUSH2 0x17A JUMPI PUSH1 0x20 SWAP1 MLOAD PUSH2 0xBB8 DUP2 MSTORE RETURN JUMPDEST POP POP CALLVALUE PUSH2 0x17A JUMPI DUP2 PUSH1 0x3 NOT CALLDATASIZE ADD SLT PUSH2 0x17A JUMPI PUSH1 0x80 SWAP1 PUSH1 0x5 SLOAD SWAP1 PUSH1 0x6 SLOAD SWAP1 PUSH1 0x7 SLOAD SWAP1 PUSH1 0x8 SLOAD SWAP3 DUP2 MLOAD SWAP5 DUP6 MSTORE PUSH1 0x20 DUP6 ADD MSTORE DUP4 ADD MSTORE PUSH1 0x60 DUP3 ADD MSTORE RETURN JUMPDEST SWAP2 SWAP1 POP CALLVALUE PUSH2 0x30E JUMPI DUP1 PUSH1 0x3 NOT CALLDATASIZE ADD SLT PUSH2 0x30E JUMPI PUSH2 0x3DE SWAP2 CALLDATALOAD PUSH2 0x3D9 PUSH1 0x1 PUSH2 0x3C8 PUSH2 0x13AD JUMP JUMPDEST SWAP4 DUP4 DUP8 MSTORE DUP7 PUSH1 0x20 MSTORE DUP7 KECCAK256 ADD SLOAD PUSH2 0x173C JUMP JUMPDEST PUSH2 0x17E0 JUMP JUMPDEST POP DUP1 RETURN JUMPDEST POP POP CALLVALUE PUSH2 0x17A JUMPI DUP2 PUSH1 0x3 NOT CALLDATASIZE ADD SLT PUSH2 0x17A JUMPI PUSH1 0x5 SLOAD PUSH1 0x6 SLOAD PUSH1 0xA0 SWAP4 POP SWAP1 SWAP2 DUP2 DUP4 GT ISZERO PUSH2 0x433 JUMPI PUSH2 0x412 DUP3 DUP5 PUSH2 0x15D3 JUMP JUMPDEST PUSH1 0x7 SLOAD SWAP2 PUSH1 0x8 SLOAD SWAP4 DUP2 MLOAD SWAP6 DUP7 MSTORE PUSH1 0x20 DUP7 ADD MSTORE DUP5 ADD MSTORE PUSH1 0x60 DUP4 ADD MSTORE PUSH1 0x80 DUP3 ADD MSTORE RETURN JUMPDEST PUSH2 0x43D DUP4 DUP4 PUSH2 0x15D3 JUMP JUMPDEST PUSH2 0x412 JUMP JUMPDEST DUP4 DUP4 CALLVALUE PUSH2 0x17A JUMPI PUSH1 0x60 CALLDATASIZE PUSH1 0x3 NOT ADD SLT PUSH2 0x17A JUMPI DUP3 CALLDATALOAD PUSH1 0x24 CALLDATALOAD PUSH1 0x44 CALLDATALOAD SWAP4 PUSH2 0x466 PUSH2 0x15E0 JUMP JUMPDEST PUSH2 0x46E PUSH2 0x1603 JUMP JUMPDEST PUSH2 0x479 DUP4 ISZERO ISZERO PUSH2 0x14AE JUMP JUMPDEST DUP2 ISZERO PUSH2 0x888 JUMPI PUSH2 0x48A DUP6 ISZERO ISZERO PUSH2 0x14F0 JUMP JUMPDEST DUP4 MLOAD PUSH4 0x23B872DD PUSH1 0xE0 SHL DUP2 MSTORE CALLER DUP2 DUP9 ADD SWAP1 DUP2 MSTORE ADDRESS PUSH1 0x20 DUP3 DUP2 ADD SWAP2 SWAP1 SWAP2 MSTORE PUSH1 0x40 DUP3 ADD DUP7 SWAP1 MSTORE PUSH1 0x1 PUSH1 0x1 PUSH1 0xA0 SHL SUB SWAP9 SWAP1 SWAP8 PUSH32 0x0 DUP11 AND SWAP4 SWAP2 SWAP3 SWAP1 SWAP2 SWAP1 DUP10 SWAP1 DUP3 SWAP1 DUP2 SWAP1 PUSH1 0x60 ADD SUB DUP2 DUP9 DUP9 GAS CALL SWAP1 DUP2 ISZERO PUSH2 0x87E JUMPI SWAP1 PUSH2 0x50A SWAP2 DUP7 SWAP2 PUSH2 0x861 JUMPI JUMPDEST POP PUSH2 0x153C JUMP JUMPDEST DUP9 PUSH32 0x0 AND PUSH2 0x12C TIMESTAMP ADD SWAP4 DUP5 TIMESTAMP GT PUSH2 0x84E JUMPI DUP9 MLOAD SWAP1 PUSH2 0x546 DUP3 PUSH2 0x13C3 JUMP JUMPDEST DUP2 MSTORE DUP2 DUP11 DUP3 ADD MSTORE PUSH2 0xBB8 SWAP5 DUP6 DUP11 DUP4 ADD MSTORE ADDRESS PUSH1 0x60 DUP4 ADD MSTORE DUP1 PUSH1 0x80 DUP4 ADD MSTORE DUP9 PUSH1 0xA0 DUP4 ADD MSTORE DUP8 PUSH1 0xC0 DUP4 ADD MSTORE DUP7 PUSH1 0xE0 DUP4 ADD MSTORE DUP12 PUSH32 0x0 AND SWAP12 DUP13 SWAP9 DUP13 DUP13 MLOAD DUP1 SWAP12 DUP2 DUP13 DUP2 PUSH4 0x414BF389 PUSH1 0xE0 SHL SWAP10 DUP11 DUP3 MSTORE DUP14 DUP3 ADD SWAP1 PUSH2 0x5BB SWAP2 PUSH2 0x1621 JUMP JUMPDEST SUB SWAP3 GAS CALL SWAP10 DUP11 ISZERO PUSH2 0x844 JUMPI DUP10 SWAP11 PUSH2 0x811 JUMPI JUMPDEST POP DUP10 ISZERO PUSH2 0x7D8 JUMPI DUP10 LT PUSH2 0x797 JUMPI SWAP2 DUP12 SWAP13 SWAP2 PUSH2 0x64E SWAP13 SWAP5 SWAP4 PUSH32 0x0 AND SWAP8 DUP13 MLOAD SWAP5 PUSH2 0x613 DUP7 PUSH2 0x13C3 JUMP JUMPDEST DUP6 MSTORE DUP9 DUP7 DUP7 ADD MSTORE DUP13 DUP6 ADD MSTORE ADDRESS PUSH1 0x60 DUP6 ADD MSTORE PUSH1 0x80 DUP5 ADD MSTORE DUP9 PUSH1 0xA0 DUP5 ADD MSTORE DUP5 PUSH1 0xC0 DUP5 ADD MSTORE DUP8 PUSH1 0xE0 DUP5 ADD MSTORE DUP8 DUP12 MLOAD DUP1 SWAP14 DUP2 SWAP6 DUP3 SWAP5 DUP4 MSTORE DUP10 DUP4 ADD PUSH2 0x1621 JUMP JUMPDEST SUB SWAP3 GAS CALL SWAP8 DUP9 ISZERO PUSH2 0x78D JUMPI DUP5 SWAP9 PUSH2 0x754 JUMPI JUMPDEST POP PUSH2 0x6A1 SWAP3 DUP10 SWAP3 PUSH2 0x674 DUP11 SWAP4 DUP5 LT ISZERO PUSH2 0x1588 JUMP JUMPDEST DUP9 MLOAD PUSH4 0xA9059CBB PUSH1 0xE0 SHL DUP2 MSTORE CALLER SWAP2 DUP2 ADD SWAP2 DUP3 MSTORE PUSH1 0x20 DUP3 ADD SWAP4 SWAP1 SWAP4 MSTORE SWAP2 SWAP4 DUP5 SWAP3 DUP4 SWAP2 DUP8 SWAP2 DUP4 SWAP2 PUSH1 0x40 SWAP1 SWAP2 ADD SWAP1 JUMP JUMPDEST SUB SWAP3 GAS CALL SWAP2 DUP3 ISZERO PUSH2 0x749 JUMPI DUP7 SWAP3 PUSH32 0xDFEF462DA6D7E712F2E69FD1113692D86E3A91DCACFAF88E85E2111074E417A3 SWAP5 SWAP3 PUSH2 0x6E1 SWAP3 SWAP2 PUSH2 0x72C JUMPI JUMPDEST POP PUSH2 0x1430 JUMP JUMPDEST PUSH2 0x6ED DUP3 PUSH1 0x6 SLOAD PUSH2 0x147C JUMP JUMPDEST PUSH1 0x6 SSTORE PUSH2 0x6FC DUP2 PUSH1 0x7 SLOAD PUSH2 0x147C JUMP JUMPDEST PUSH1 0x7 SSTORE PUSH2 0x70A PUSH1 0x8 SLOAD PUSH2 0x149F JUMP JUMPDEST PUSH1 0x8 SSTORE DUP5 MLOAD SWAP4 DUP5 MSTORE PUSH1 0x20 DUP5 ADD MSTORE PUSH1 0x40 DUP4 ADD MSTORE CALLER SWAP2 PUSH1 0x60 SWAP1 LOG2 PUSH1 0x1 DUP1 SSTORE MLOAD SWAP1 DUP2 MSTORE RETURN JUMPDEST PUSH2 0x743 SWAP2 POP DUP10 RETURNDATASIZE DUP12 GT PUSH2 0x2BF JUMPI PUSH2 0x2B1 DUP2 DUP4 PUSH2 0x13F6 JUMP JUMPDEST DUP10 PUSH2 0x6DB JUMP JUMPDEST DUP6 MLOAD SWAP1 RETURNDATASIZE SWAP1 DUP3 RETURNDATACOPY RETURNDATASIZE SWAP1 REVERT JUMPDEST SWAP1 SWAP3 SWAP9 DUP1 SWAP9 POP DUP2 DUP2 RETURNDATASIZE DUP4 GT PUSH2 0x786 JUMPI JUMPDEST PUSH2 0x76E DUP2 DUP4 PUSH2 0x13F6 JUMP JUMPDEST DUP2 ADD SUB SLT PUSH2 0x782 JUMPI MLOAD SWAP7 SWAP8 SWAP2 PUSH2 0x6A1 PUSH2 0x660 JUMP JUMPDEST DUP4 DUP1 REVERT JUMPDEST POP RETURNDATASIZE PUSH2 0x764 JUMP JUMPDEST DUP8 MLOAD RETURNDATASIZE DUP7 DUP3 RETURNDATACOPY RETURNDATASIZE SWAP1 REVERT JUMPDEST PUSH1 0x64 DUP7 DUP14 DUP1 DUP15 MLOAD SWAP3 PUSH3 0x461BCD PUSH1 0xE5 SHL DUP5 MSTORE DUP4 ADD MSTORE PUSH1 0x24 DUP3 ADD MSTORE PUSH32 0x526F757465723A20696E73756666696369656E742055534443206F7574707574 PUSH1 0x44 DUP3 ADD MSTORE REVERT JUMPDEST DUP12 MLOAD PUSH3 0x461BCD PUSH1 0xE5 SHL DUP2 MSTORE DUP1 DUP9 ADD DUP15 SWAP1 MSTORE PUSH1 0x13 PUSH1 0x24 DUP3 ADD MSTORE PUSH19 0x149BDD5D195C8E881CDDD85C0819985A5B1959 PUSH1 0x6A SHL PUSH1 0x44 DUP3 ADD MSTORE PUSH1 0x64 SWAP1 REVERT JUMPDEST SWAP1 SWAP10 POP DUP13 DUP2 DUP2 RETURNDATASIZE DUP4 GT PUSH2 0x83D JUMPI JUMPDEST PUSH2 0x829 DUP2 DUP4 PUSH2 0x13F6 JUMP JUMPDEST DUP2 ADD SUB SLT PUSH2 0x839 JUMPI MLOAD SWAP9 DUP15 PUSH2 0x5CD JUMP JUMPDEST DUP9 DUP1 REVERT JUMPDEST POP RETURNDATASIZE PUSH2 0x81F JUMP JUMPDEST DUP13 MLOAD RETURNDATASIZE DUP12 DUP3 RETURNDATACOPY RETURNDATASIZE SWAP1 REVERT JUMPDEST PUSH4 0x4E487B71 PUSH1 0xE0 SHL DUP7 MSTORE PUSH1 0x11 DUP5 MSTORE PUSH1 0x24 DUP7 REVERT JUMPDEST PUSH2 0x878 SWAP2 POP DUP11 RETURNDATASIZE DUP13 GT PUSH2 0x2BF JUMPI PUSH2 0x2B1 DUP2 DUP4 PUSH2 0x13F6 JUMP JUMPDEST DUP12 PUSH2 0x504 JUMP JUMPDEST DUP9 MLOAD RETURNDATASIZE DUP8 DUP3 RETURNDATACOPY RETURNDATASIZE SWAP1 REVERT JUMPDEST DUP4 MLOAD PUSH3 0x461BCD PUSH1 0xE5 SHL DUP2 MSTORE PUSH1 0x20 DUP2 DUP9 ADD MSTORE PUSH1 0x17 PUSH1 0x24 DUP3 ADD MSTORE PUSH32 0x526F757465723A206D696E557364634F7574207A65726F000000000000000000 PUSH1 0x44 DUP3 ADD MSTORE PUSH1 0x64 SWAP1 REVERT JUMPDEST POP POP CALLVALUE PUSH2 0x17A JUMPI DUP2 PUSH1 0x3 NOT CALLDATASIZE ADD SLT PUSH2 0x17A JUMPI MLOAD SWAP1 DUP2 MSTORE PUSH1 0x20 SWAP1 RETURN JUMPDEST SWAP1 POP CALLVALUE PUSH2 0x30E JUMPI DUP2 PUSH1 0x3 NOT CALLDATASIZE ADD SLT PUSH2 0x30E JUMPI DUP2 PUSH1 0x20 SWAP4 PUSH1 0xFF SWAP3 PUSH2 0x907 PUSH2 0x13AD JUMP JUMPDEST SWAP1 CALLDATALOAD DUP3 MSTORE DUP2 DUP7 MSTORE DUP3 DUP3 KECCAK256 PUSH1 0x1 PUSH1 0x1 PUSH1 0xA0 SHL SUB SWAP1 SWAP2 AND DUP3 MSTORE DUP6 MSTORE KECCAK256 SLOAD SWAP2 MLOAD SWAP2 AND ISZERO ISZERO DUP2 MSTORE RETURN JUMPDEST POP POP CALLVALUE PUSH2 0x17A JUMPI DUP2 PUSH1 0x3 NOT CALLDATASIZE ADD SLT PUSH2 0x17A JUMPI PUSH1 0x20 SWAP1 PUSH1 0x3 SLOAD SWAP1 MLOAD SWAP1 DUP2 MSTORE RETURN JUMPDEST DUP4 DUP4 CALLVALUE PUSH2 0x17A JUMPI PUSH2 0x95B CALLDATASIZE PUSH2 0x1392 JUMP JUMPDEST PUSH2 0x963 PUSH2 0x1702 JUMP JUMPDEST PUSH2 0x3E8 DUP3 GT PUSH2 0x9A3 JUMPI DUP1 PUSH32 0xFACCB0639FF7851E0E24F3B2D9AB03CD62FFB63F5B4D90AAEFF85BB078C1FA48 SWAP5 SWAP6 DUP4 PUSH1 0x3 SSTORE SSTORE DUP3 MLOAD SWAP2 DUP3 MSTORE PUSH1 0x20 DUP3 ADD MSTORE LOG1 DUP1 RETURN JUMPDEST DUP3 MLOAD PUSH3 0x461BCD PUSH1 0xE5 SHL DUP2 MSTORE PUSH1 0x20 DUP2 DUP8 ADD MSTORE PUSH1 0x19 PUSH1 0x24 DUP3 ADD MSTORE PUSH32 0x526F757465723A20736C69707061676520746F6F206869676800000000000000 PUSH1 0x44 DUP3 ADD MSTORE PUSH1 0x64 SWAP1 REVERT JUMPDEST POP POP CALLVALUE PUSH2 0x17A JUMPI DUP2 PUSH1 0x3 NOT CALLDATASIZE ADD SLT PUSH2 0x17A JUMPI PUSH1 0x20 PUSH32 0x62E78CEA01BEE320CD4E420270B5EA74000D11B0C9F74754EBDBFC544B05A258 SWAP2 PUSH2 0xA24 PUSH2 0x1688 JUMP JUMPDEST PUSH2 0xA2C PUSH2 0x1603 JUMP JUMPDEST PUSH1 0x1 PUSH1 0xFF NOT PUSH1 0x2 SLOAD AND OR PUSH1 0x2 SSTORE MLOAD CALLER DUP2 MSTORE LOG1 DUP1 RETURN JUMPDEST POP POP CALLVALUE PUSH2 0x17A JUMPI DUP2 PUSH1 0x3 NOT CALLDATASIZE ADD SLT PUSH2 0x17A JUMPI MLOAD PUSH32 0x0 PUSH1 0x1 PUSH1 0x1 PUSH1 0xA0 SHL SUB AND DUP2 MSTORE PUSH1 0x20 SWAP1 RETURN JUMPDEST POP POP CALLVALUE PUSH2 0x17A JUMPI DUP2 PUSH1 0x3 NOT CALLDATASIZE ADD SLT PUSH2 0x17A JUMPI PUSH1 0x20 SWAP1 PUSH1 0xFF PUSH1 0x2 SLOAD AND SWAP1 MLOAD SWAP1 ISZERO ISZERO DUP2 MSTORE RETURN JUMPDEST SWAP1 POP CALLVALUE PUSH2 0x30E JUMPI DUP3 PUSH1 0x3 NOT CALLDATASIZE ADD SLT PUSH2 0x30E JUMPI PUSH2 0xAC3 PUSH2 0x1688 JUMP JUMPDEST PUSH1 0x2 SLOAD SWAP1 PUSH1 0xFF DUP3 AND ISZERO PUSH2 0xB05 JUMPI POP PUSH1 0xFF NOT AND PUSH1 0x2 SSTORE MLOAD CALLER DUP2 MSTORE PUSH32 0x5DB9EE0A495BF2E6FF9C91A7834C1BA4FDD244A5E8AA4E537BD38AEAE4B073AA SWAP1 PUSH1 0x20 SWAP1 LOG1 DUP1 RETURN JUMPDEST DUP3 MLOAD PUSH4 0x8DFC202B PUSH1 0xE0 SHL DUP2 MSTORE REVERT JUMPDEST POP POP CALLVALUE PUSH2 0x17A JUMPI DUP2 PUSH1 0x3 NOT CALLDATASIZE ADD SLT PUSH2 0x17A JUMPI MLOAD PUSH32 0x0 PUSH1 0x1 PUSH1 0x1 PUSH1 0xA0 SHL SUB AND DUP2 MSTORE PUSH1 0x20 SWAP1 RETURN JUMPDEST DUP4 DUP4 CALLVALUE PUSH2 0x17A JUMPI DUP1 PUSH1 0x3 NOT CALLDATASIZE ADD SLT PUSH2 0x17A JUMPI PUSH2 0xB71 PUSH2 0x13AD JUMP JUMPDEST SWAP1 CALLER PUSH1 0x1 PUSH1 0x1 PUSH1 0xA0 SHL SUB DUP4 AND SUB PUSH2 0xB8E JUMPI POP PUSH2 0x3DE SWAP2 SWAP3 CALLDATALOAD PUSH2 0x17E0 JUMP JUMPDEST MLOAD PUSH4 0x334BD919 PUSH1 0xE1 SHL DUP2 MSTORE DUP4 SWAP1 REVERT JUMPDEST SWAP1 POP CALLVALUE PUSH2 0x30E JUMPI DUP3 PUSH1 0x3 NOT CALLDATASIZE ADD SLT PUSH2 0x30E JUMPI PUSH1 0x20 SWAP3 POP SLOAD SWAP1 MLOAD SWAP1 DUP2 MSTORE RETURN JUMPDEST SWAP2 SWAP1 POP CALLVALUE PUSH2 0x30E JUMPI DUP1 PUSH1 0x3 NOT CALLDATASIZE ADD SLT PUSH2 0x30E JUMPI PUSH2 0x3DE SWAP2 CALLDATALOAD PUSH2 0xBE0 PUSH1 0x1 PUSH2 0x3C8 PUSH2 0x13AD JUMP JUMPDEST PUSH2 0x1762 JUMP JUMPDEST DUP4 DUP4 CALLVALUE PUSH2 0x17A JUMPI PUSH2 0xBF5 CALLDATASIZE PUSH2 0x1392 JUMP JUMPDEST SWAP3 PUSH2 0xBFE PUSH2 0x15E0 JUMP JUMPDEST PUSH2 0xC06 PUSH2 0x1603 JUMP JUMPDEST PUSH2 0xC11 DUP3 ISZERO ISZERO PUSH2 0x14AE JUMP JUMPDEST PUSH2 0xC1C DUP5 ISZERO ISZERO PUSH2 0x14F0 JUMP JUMPDEST DUP3 MLOAD PUSH4 0x23B872DD PUSH1 0xE0 SHL DUP2 MSTORE CALLER DUP2 DUP8 ADD SWAP1 DUP2 MSTORE ADDRESS PUSH1 0x20 DUP3 DUP2 ADD SWAP2 SWAP1 SWAP2 MSTORE PUSH1 0x40 DUP3 ADD DUP6 SWAP1 MSTORE SWAP7 PUSH32 0x0 SWAP7 SWAP3 SWAP1 SWAP2 PUSH1 0x1 PUSH1 0x1 PUSH1 0xA0 SHL SUB SWAP2 SWAP1 DUP10 SWAP1 DUP3 SWAP1 DUP2 SWAP1 PUSH1 0x60 ADD SUB DUP2 DUP9 DUP7 DUP14 AND GAS CALL SWAP1 DUP2 ISZERO PUSH2 0xF76 JUMPI SWAP1 PUSH2 0xC99 SWAP2 DUP7 SWAP2 PUSH2 0xFE4 JUMPI POP PUSH2 0x153C JUMP JUMPDEST PUSH32 0x0 SWAP3 DUP7 MLOAD SWAP8 PUSH12 0xFFFFFFFFFFFFFFFFFFFFFFFF NOT DUP1 SWAP2 PUSH1 0x60 SHL AND DUP11 DUP11 ADD MSTORE PUSH2 0x177 PUSH1 0xEB SHL DUP1 PUSH1 0x34 DUP12 ADD MSTORE DUP2 PUSH32 0x0 PUSH1 0x60 SHL AND PUSH1 0x37 DUP12 ADD MSTORE PUSH1 0x4B DUP11 ADD MSTORE DUP5 PUSH1 0x60 SHL AND PUSH1 0x4E DUP10 ADD MSTORE PUSH1 0x42 DUP9 MSTORE PUSH1 0x80 DUP9 ADD SWAP8 PUSH8 0xFFFFFFFFFFFFFFFF SWAP1 DUP1 DUP11 LT DUP3 DUP12 GT OR PUSH2 0xFD1 JUMPI PUSH2 0x12C TIMESTAMP ADD SWAP2 DUP3 TIMESTAMP GT PUSH2 0xFBE JUMPI PUSH2 0x120 DUP3 ADD SWAP1 DUP2 GT DUP12 DUP3 LT OR PUSH2 0xFAB JUMPI SWAP1 DUP12 SWAP3 DUP6 SWAP12 SWAP3 DUP12 MSTORE DUP2 DUP4 MSTORE PUSH1 0xA0 DUP3 ADD SWAP2 ADDRESS DUP4 MSTORE PUSH1 0xC0 DUP2 ADD SWAP2 DUP3 MSTORE PUSH2 0x100 PUSH1 0xE0 DUP3 ADD SWAP2 DUP13 DUP4 MSTORE ADD SWAP2 DUP7 DUP4 MSTORE DUP13 MLOAD SWAP14 DUP15 SWAP6 PUSH4 0xC04B8D59 PUSH1 0xE0 SHL DUP8 MSTORE DUP8 DUP12 DUP9 ADD MSTORE MLOAD SWAP5 PUSH1 0xA0 PUSH1 0x24 DUP9 ADD MSTORE DUP13 DUP7 MLOAD SWAP7 DUP8 PUSH1 0xC4 DUP11 ADD MSTORE DUP10 DUP3 JUMPDEST DUP10 DUP2 LT PUSH2 0xF80 JUMPI POP POP POP SWAP2 DUP8 SWAP6 SWAP4 SWAP2 DUP8 SWAP6 SWAP4 PUSH1 0xE4 DUP1 SWAP10 DUP10 ADD ADD MSTORE MLOAD AND PUSH1 0x44 DUP7 ADD MSTORE MLOAD PUSH1 0x64 DUP6 ADD MSTORE MLOAD PUSH1 0x84 DUP5 ADD MSTORE MLOAD PUSH1 0xA4 DUP4 ADD MSTORE PUSH1 0x1F DUP1 NOT SWAP2 ADD AND DUP2 ADD SUB ADD DUP2 DUP9 DUP7 PUSH32 0x0 AND GAS CALL SWAP8 DUP9 ISZERO PUSH2 0xF76 JUMPI DUP6 SWAP9 PUSH2 0xF47 JUMPI JUMPDEST POP DUP8 ISZERO PUSH2 0xF04 JUMPI SWAP3 DUP9 SWAP3 DUP6 DUP10 SWAP4 PUSH2 0xE3A PUSH2 0xE65 SWAP8 DUP7 LT ISZERO PUSH2 0x1588 JUMP JUMPDEST DUP10 MLOAD PUSH4 0xA9059CBB PUSH1 0xE0 SHL DUP2 MSTORE CALLER SWAP4 DUP2 ADD SWAP4 DUP5 MSTORE PUSH1 0x20 DUP5 ADD SWAP6 SWAP1 SWAP6 MSTORE SWAP4 SWAP6 DUP7 SWAP5 DUP6 SWAP4 SWAP1 SWAP2 DUP5 SWAP2 PUSH1 0x40 ADD SWAP1 JUMP JUMPDEST SUB SWAP4 AND GAS CALL SWAP1 DUP2 ISZERO PUSH2 0xEFA JUMPI SWAP1 PUSH2 0xE82 SWAP2 DUP4 SWAP2 PUSH2 0xEDD JUMPI POP PUSH2 0x1430 JUMP JUMPDEST PUSH2 0xE8E DUP5 PUSH1 0x6 SLOAD PUSH2 0x147C JUMP JUMPDEST PUSH1 0x6 SSTORE PUSH2 0xE9C PUSH1 0x8 SLOAD PUSH2 0x149F JUMP JUMPDEST PUSH1 0x8 SSTORE DUP3 MLOAD SWAP2 DUP3 MSTORE DUP5 DUP3 ADD MSTORE DUP3 DUP3 DUP3 ADD MSTORE PUSH32 0xDFEF462DA6D7E712F2E69FD1113692D86E3A91DCACFAF88E85E2111074E417A3 PUSH1 0x60 CALLER SWAP3 LOG2 PUSH1 0x1 DUP1 SSTORE MLOAD SWAP1 DUP2 MSTORE RETURN JUMPDEST PUSH2 0xEF4 SWAP2 POP DUP8 RETURNDATASIZE DUP10 GT PUSH2 0x2BF JUMPI PUSH2 0x2B1 DUP2 DUP4 PUSH2 0x13F6 JUMP JUMPDEST DUP8 PUSH2 0x6DB JUMP JUMPDEST DUP5 MLOAD RETURNDATASIZE DUP5 DUP3 RETURNDATACOPY RETURNDATASIZE SWAP1 REVERT JUMPDEST DUP7 MLOAD PUSH3 0x461BCD PUSH1 0xE5 SHL DUP2 MSTORE DUP1 DUP5 ADD DUP11 SWAP1 MSTORE PUSH1 0x1D PUSH1 0x24 DUP3 ADD MSTORE PUSH32 0x526F757465723A206D756C74692D686F702073776170206661696C6564000000 PUSH1 0x44 DUP3 ADD MSTORE PUSH1 0x64 SWAP1 REVERT JUMPDEST SWAP1 SWAP8 POP DUP9 DUP2 DUP2 RETURNDATASIZE DUP4 GT PUSH2 0xF6F JUMPI JUMPDEST PUSH2 0xF5F DUP2 DUP4 PUSH2 0x13F6 JUMP JUMPDEST DUP2 ADD SUB SLT PUSH2 0x30A JUMPI MLOAD SWAP7 DUP10 PUSH2 0xE1E JUMP JUMPDEST POP RETURNDATASIZE PUSH2 0xF55 JUMP JUMPDEST DUP8 MLOAD RETURNDATASIZE DUP8 DUP3 RETURNDATACOPY RETURNDATASIZE SWAP1 REVERT JUMPDEST DUP3 SWAP6 POP DUP1 SWAP4 POP DUP2 DUP2 PUSH1 0xE4 SWAP4 SWAP7 SWAP9 SWAP10 SWAP11 SWAP12 SWAP13 SWAP5 ADD ADD MLOAD SWAP3 ADD ADD MSTORE ADD SWAP2 DUP16 SWAP7 SWAP6 SWAP5 SWAP4 SWAP3 DUP11 SWAP3 DUP10 DUP16 SWAP3 PUSH2 0xDAB JUMP JUMPDEST PUSH4 0x4E487B71 PUSH1 0xE0 SHL DUP9 MSTORE PUSH1 0x41 DUP7 MSTORE PUSH1 0x24 DUP9 REVERT JUMPDEST PUSH4 0x4E487B71 PUSH1 0xE0 SHL DUP9 MSTORE PUSH1 0x11 DUP7 MSTORE PUSH1 0x24 DUP9 REVERT JUMPDEST PUSH4 0x4E487B71 PUSH1 0xE0 SHL DUP8 MSTORE PUSH1 0x41 DUP6 MSTORE PUSH1 0x24 DUP8 REVERT JUMPDEST PUSH2 0xFFB SWAP2 POP DUP11 RETURNDATASIZE DUP13 GT PUSH2 0x2BF JUMPI PUSH2 0x2B1 DUP2 DUP4 PUSH2 0x13F6 JUMP JUMPDEST DUP11 PUSH2 0x504 JUMP JUMPDEST SWAP1 POP CALLVALUE PUSH2 0x30E JUMPI PUSH1 0x20 CALLDATASIZE PUSH1 0x3 NOT ADD SLT PUSH2 0x30E JUMPI DUP2 PUSH1 0x20 SWAP4 PUSH1 0x1 SWAP3 CALLDATALOAD DUP2 MSTORE DUP1 DUP6 MSTORE KECCAK256 ADD SLOAD SWAP1 MLOAD SWAP1 DUP2 MSTORE RETURN JUMPDEST DUP4 DUP4 CALLVALUE PUSH2 0x17A JUMPI PUSH2 0x103B CALLDATASIZE PUSH2 0x1392 JUMP JUMPDEST SWAP4 PUSH2 0x1044 PUSH2 0x15E0 JUMP JUMPDEST PUSH2 0x104C PUSH2 0x1603 JUMP JUMPDEST DUP1 SLOAD DUP3 LT PUSH2 0x1303 JUMPI DUP3 MLOAD PUSH4 0x23B872DD PUSH1 0xE0 SHL DUP2 MSTORE CALLER DUP2 DUP4 ADD SWAP1 DUP2 MSTORE ADDRESS PUSH1 0x20 DUP3 DUP2 ADD SWAP2 SWAP1 SWAP2 MSTORE PUSH1 0x40 DUP3 ADD DUP6 SWAP1 MSTORE SWAP7 PUSH1 0x1 PUSH1 0x1 PUSH1 0xA0 SHL SUB SWAP4 SWAP3 PUSH32 0x0 DUP6 AND SWAP3 DUP10 SWAP1 DUP3 SWAP1 DUP2 SWAP1 PUSH1 0x60 ADD SUB DUP2 DUP12 DUP8 GAS CALL SWAP1 DUP2 ISZERO PUSH2 0x12F9 JUMPI SWAP1 PUSH2 0x10CE SWAP2 DUP10 SWAP2 PUSH2 0x12DC JUMPI POP PUSH2 0x1430 JUMP JUMPDEST PUSH2 0x12C TIMESTAMP ADD DUP1 TIMESTAMP GT PUSH2 0x12C9 JUMPI SWAP2 DUP9 SWAP2 PUSH2 0x1152 SWAP5 SWAP4 DUP9 MLOAD SWAP3 PUSH2 0x10EE DUP5 PUSH2 0x13C3 JUMP JUMPDEST DUP4 MSTORE DUP7 PUSH32 0x0 AND DUP5 DUP5 ADD MSTORE PUSH2 0xBB8 DUP10 DUP5 ADD MSTORE ADDRESS PUSH1 0x60 DUP5 ADD MSTORE PUSH1 0x80 DUP4 ADD MSTORE DUP7 PUSH1 0xA0 DUP4 ADD MSTORE PUSH1 0xC0 DUP3 ADD MSTORE DUP8 PUSH1 0xE0 DUP3 ADD MSTORE DUP7 MLOAD DUP1 SWAP5 DUP2 SWAP3 PUSH4 0x414BF389 PUSH1 0xE0 SHL DUP4 MSTORE DUP6 DUP4 ADD PUSH2 0x1621 JUMP JUMPDEST SUB DUP2 DUP10 DUP8 PUSH32 0x0 AND GAS CALL SWAP2 DUP3 ISZERO PUSH2 0x12BF JUMPI SWAP1 DUP8 SWAP2 DUP8 SWAP4 PUSH2 0x1288 JUMPI JUMPDEST POP DUP6 MLOAD PUSH4 0x16CC3DA3 PUSH1 0xE2 SHL DUP2 MSTORE CALLER SWAP2 DUP2 ADD SWAP2 DUP3 MSTORE PUSH1 0x20 DUP3 ADD DUP5 SWAP1 MSTORE SWAP3 SWAP4 DUP4 SWAP2 DUP3 SWAP1 DUP10 SWAP1 DUP3 SWAP1 PUSH1 0x40 ADD JUMPDEST SUB SWAP3 PUSH32 0x0 AND GAS CALL SWAP5 DUP6 ISZERO PUSH2 0x127D JUMPI DUP1 SWAP6 PUSH2 0x1228 JUMPI JUMPDEST POP POP DUP4 PUSH32 0x16737B8C514BB0BDE161519D0CBDBB3176E5835B6175BF3D1254D115DFD37DFA SWAP2 PUSH2 0x1219 DUP5 PUSH1 0x5 SLOAD PUSH2 0x147C JUMP JUMPDEST PUSH1 0x5 SSTORE PUSH2 0x6FC DUP2 PUSH1 0x7 SLOAD PUSH2 0x147C JUMP JUMPDEST SWAP1 SWAP2 SWAP5 POP DUP6 DUP3 DUP2 RETURNDATASIZE DUP4 GT PUSH2 0x1276 JUMPI JUMPDEST PUSH2 0x1241 DUP2 DUP4 PUSH2 0x13F6 JUMP JUMPDEST DUP2 ADD SUB SLT PUSH2 0x1273 JUMPI POP MLOAD SWAP3 PUSH32 0x16737B8C514BB0BDE161519D0CBDBB3176E5835B6175BF3D1254D115DFD37DFA DUP7 PUSH2 0x11E8 JUMP JUMPDEST DUP1 REVERT JUMPDEST POP RETURNDATASIZE PUSH2 0x1237 JUMP JUMPDEST DUP5 MLOAD SWAP1 RETURNDATASIZE SWAP1 DUP3 RETURNDATACOPY RETURNDATASIZE SWAP1 REVERT JUMPDEST DUP3 DUP2 SWAP4 SWAP3 SWAP5 POP RETURNDATASIZE DUP4 GT PUSH2 0x12B8 JUMPI JUMPDEST PUSH2 0x12A0 DUP2 DUP4 PUSH2 0x13F6 JUMP JUMPDEST DUP2 ADD SUB SLT PUSH2 0x12B4 JUMPI MLOAD SWAP1 DUP7 SWAP1 PUSH2 0x11B4 PUSH2 0x118B JUMP JUMPDEST DUP6 DUP1 REVERT JUMPDEST POP RETURNDATASIZE PUSH2 0x1296 JUMP JUMPDEST DUP6 MLOAD RETURNDATASIZE DUP9 DUP3 RETURNDATACOPY RETURNDATASIZE SWAP1 REVERT JUMPDEST PUSH4 0x4E487B71 PUSH1 0xE0 SHL DUP9 MSTORE PUSH1 0x11 DUP5 MSTORE PUSH1 0x24 DUP9 REVERT JUMPDEST PUSH2 0x12F3 SWAP2 POP DUP11 RETURNDATASIZE DUP13 GT PUSH2 0x2BF JUMPI PUSH2 0x2B1 DUP2 DUP4 PUSH2 0x13F6 JUMP JUMPDEST DUP11 PUSH2 0x6DB JUMP JUMPDEST DUP8 MLOAD RETURNDATASIZE DUP11 DUP3 RETURNDATACOPY RETURNDATASIZE SWAP1 REVERT JUMPDEST PUSH1 0x64 SWAP1 PUSH1 0x20 DUP5 MLOAD SWAP2 PUSH3 0x461BCD PUSH1 0xE5 SHL DUP4 MSTORE DUP3 ADD MSTORE PUSH1 0x16 PUSH1 0x24 DUP3 ADD MSTORE PUSH22 0x526F757465723A20616D6F756E7420746F6F206C6F77 PUSH1 0x50 SHL PUSH1 0x44 DUP3 ADD MSTORE REVERT JUMPDEST DUP5 SWAP2 CALLVALUE PUSH2 0x30E JUMPI PUSH1 0x20 CALLDATASIZE PUSH1 0x3 NOT ADD SLT PUSH2 0x30E JUMPI CALLDATALOAD PUSH4 0xFFFFFFFF PUSH1 0xE0 SHL DUP2 AND DUP1 SWAP2 SUB PUSH2 0x30E JUMPI PUSH1 0x20 SWAP3 POP PUSH4 0x7965DB0B PUSH1 0xE0 SHL DUP2 EQ SWAP1 DUP2 ISZERO PUSH2 0x1381 JUMPI JUMPDEST POP ISZERO ISZERO DUP2 MSTORE RETURN JUMPDEST PUSH4 0x1FFC9A7 PUSH1 0xE0 SHL EQ SWAP1 POP DUP4 PUSH2 0x137A JUMP JUMPDEST PUSH1 0x40 SWAP1 PUSH1 0x3 NOT ADD SLT PUSH2 0x13A8 JUMPI PUSH1 0x4 CALLDATALOAD SWAP1 PUSH1 0x24 CALLDATALOAD SWAP1 JUMP JUMPDEST PUSH1 0x0 DUP1 REVERT JUMPDEST PUSH1 0x24 CALLDATALOAD SWAP1 PUSH1 0x1 PUSH1 0x1 PUSH1 0xA0 SHL SUB DUP3 AND DUP3 SUB PUSH2 0x13A8 JUMPI JUMP JUMPDEST PUSH2 0x100 DUP2 ADD SWAP1 DUP2 LT PUSH8 0xFFFFFFFFFFFFFFFF DUP3 GT OR PUSH2 0x13E0 JUMPI PUSH1 0x40 MSTORE JUMP JUMPDEST PUSH4 0x4E487B71 PUSH1 0xE0 SHL PUSH1 0x0 MSTORE PUSH1 0x41 PUSH1 0x4 MSTORE PUSH1 0x24 PUSH1 0x0 REVERT JUMPDEST SWAP1 PUSH1 0x1F DUP1 NOT SWAP2 ADD AND DUP2 ADD SWAP1 DUP2 LT PUSH8 0xFFFFFFFFFFFFFFFF DUP3 GT OR PUSH2 0x13E0 JUMPI PUSH1 0x40 MSTORE JUMP JUMPDEST SWAP1 DUP2 PUSH1 0x20 SWAP2 SUB SLT PUSH2 0x13A8 JUMPI MLOAD DUP1 ISZERO ISZERO DUP2 SUB PUSH2 0x13A8 JUMPI SWAP1 JUMP JUMPDEST ISZERO PUSH2 0x1437 JUMPI JUMP JUMPDEST PUSH1 0x40 MLOAD PUSH3 0x461BCD PUSH1 0xE5 SHL DUP2 MSTORE PUSH1 0x20 PUSH1 0x4 DUP3 ADD MSTORE PUSH1 0x1C PUSH1 0x24 DUP3 ADD MSTORE PUSH32 0x526F757465723A2044555354207472616E73666572206661696C656400000000 PUSH1 0x44 DUP3 ADD MSTORE PUSH1 0x64 SWAP1 REVERT JUMPDEST SWAP2 SWAP1 DUP3 ADD DUP1 SWAP3 GT PUSH2 0x1489 JUMPI JUMP JUMPDEST PUSH4 0x4E487B71 PUSH1 0xE0 SHL PUSH1 0x0 MSTORE PUSH1 0x11 PUSH1 0x4 MSTORE PUSH1 0x24 PUSH1 0x0 REVERT JUMPDEST PUSH1 0x0 NOT DUP2 EQ PUSH2 0x1489 JUMPI PUSH1 0x1 ADD SWAP1 JUMP JUMPDEST ISZERO PUSH2 0x14B5 JUMPI JUMP JUMPDEST PUSH1 0x40 MLOAD PUSH3 0x461BCD PUSH1 0xE5 SHL DUP2 MSTORE PUSH1 0x20 PUSH1 0x4 DUP3 ADD MSTORE PUSH1 0x13 PUSH1 0x24 DUP3 ADD MSTORE PUSH19 0x149BDD5D195C8E881E995C9BC8185B5BDD5B9D PUSH1 0x6A SHL PUSH1 0x44 DUP3 ADD MSTORE PUSH1 0x64 SWAP1 REVERT JUMPDEST ISZERO PUSH2 0x14F7 JUMPI JUMP JUMPDEST PUSH1 0x40 MLOAD PUSH3 0x461BCD PUSH1 0xE5 SHL DUP2 MSTORE PUSH1 0x20 PUSH1 0x4 DUP3 ADD MSTORE PUSH1 0x17 PUSH1 0x24 DUP3 ADD MSTORE PUSH32 0x526F757465723A206D696E447573744F7574207A65726F000000000000000000 PUSH1 0x44 DUP3 ADD MSTORE PUSH1 0x64 SWAP1 REVERT JUMPDEST ISZERO PUSH2 0x1543 JUMPI JUMP JUMPDEST PUSH1 0x40 MLOAD PUSH3 0x461BCD PUSH1 0xE5 SHL DUP2 MSTORE PUSH1 0x20 PUSH1 0x4 DUP3 ADD MSTORE PUSH1 0x1E PUSH1 0x24 DUP3 ADD MSTORE PUSH32 0x526F757465723A20737455534443207472616E73666572206661696C65640000 PUSH1 0x44 DUP3 ADD MSTORE PUSH1 0x64 SWAP1 REVERT JUMPDEST ISZERO PUSH2 0x158F JUMPI JUMP JUMPDEST PUSH1 0x64 PUSH1 0x40 MLOAD PUSH3 0x461BCD PUSH1 0xE5 SHL DUP2 MSTORE PUSH1 0x20 PUSH1 0x4 DUP3 ADD MSTORE PUSH1 0x20 PUSH1 0x24 DUP3 ADD MSTORE PUSH32 0x526F757465723A20696E73756666696369656E742044555354206F7574707574 PUSH1 0x44 DUP3 ADD MSTORE REVERT JUMPDEST SWAP2 SWAP1 DUP3 SUB SWAP2 DUP3 GT PUSH2 0x1489 JUMPI JUMP JUMPDEST PUSH1 0x2 PUSH1 0x1 SLOAD EQ PUSH2 0x15F1 JUMPI PUSH1 0x2 PUSH1 0x1 SSTORE JUMP JUMPDEST PUSH1 0x40 MLOAD PUSH4 0x3EE5AEB5 PUSH1 0xE0 SHL DUP2 MSTORE PUSH1 0x4 SWAP1 REVERT JUMPDEST PUSH1 0xFF PUSH1 0x2 SLOAD AND PUSH2 0x160F JUMPI JUMP JUMPDEST PUSH1 0x40 MLOAD PUSH4 0xD93C0665 PUSH1 0xE0 SHL DUP2 MSTORE PUSH1 0x4 SWAP1 REVERT JUMPDEST SWAP2 SWAP1 SWAP2 PUSH1 0xE0 PUSH2 0x100 DUP3 ADD SWAP4 DUP2 PUSH1 0x1 DUP1 PUSH1 0xA0 SHL SUB SWAP2 DUP3 DUP2 MLOAD AND DUP6 MSTORE DUP3 PUSH1 0x20 DUP3 ADD MLOAD AND PUSH1 0x20 DUP7 ADD MSTORE PUSH3 0xFFFFFF PUSH1 0x40 DUP3 ADD MLOAD AND PUSH1 0x40 DUP7 ADD MSTORE DUP3 PUSH1 0x60 DUP3 ADD MLOAD AND PUSH1 0x60 DUP7 ADD MSTORE PUSH1 0x80 DUP2 ADD MLOAD PUSH1 0x80 DUP7 ADD MSTORE PUSH1 0xA0 DUP2 ADD MLOAD PUSH1 0xA0 DUP7 ADD MSTORE PUSH1 0xC0 DUP2 ADD MLOAD PUSH1 0xC0 DUP7 ADD MSTORE ADD MLOAD AND SWAP2 ADD MSTORE JUMP JUMPDEST CALLER PUSH1 0x0 SWAP1 DUP2 MSTORE PUSH32 0xF7C9542C591017A21C74B6F3FAB6263C7952FC0AAF9DB4C22A2A04DDC7F8674F PUSH1 0x20 MSTORE PUSH1 0x40 SWAP1 KECCAK256 SLOAD PUSH32 0x65D7A28E3265B37A6474929F336521B332C1681B933F6CB9F3376673440D862A SWAP1 PUSH1 0xFF AND ISZERO PUSH2 0x16E4 JUMPI POP JUMP JUMPDEST PUSH1 0x44 SWAP1 PUSH1 0x40 MLOAD SWAP1 PUSH4 0xE2517D3F PUSH1 0xE0 SHL DUP3 MSTORE CALLER PUSH1 0x4 DUP4 ADD MSTORE PUSH1 0x24 DUP3 ADD MSTORE REVERT JUMPDEST CALLER PUSH1 0x0 SWAP1 DUP2 MSTORE PUSH32 0xAD3228B676F7D3CD4284A5443F17F1962B36E491B30A40B2405849E597BA5FB5 PUSH1 0x20 MSTORE PUSH1 0x40 DUP2 KECCAK256 SLOAD PUSH1 0xFF AND ISZERO PUSH2 0x16E4 JUMPI POP JUMP JUMPDEST DUP1 PUSH1 0x0 MSTORE PUSH1 0x0 PUSH1 0x20 MSTORE PUSH1 0x40 PUSH1 0x0 KECCAK256 CALLER PUSH1 0x0 MSTORE PUSH1 0x20 MSTORE PUSH1 0xFF PUSH1 0x40 PUSH1 0x0 KECCAK256 SLOAD AND ISZERO PUSH2 0x16E4 JUMPI POP JUMP JUMPDEST SWAP1 PUSH1 0x0 SWAP2 DUP1 DUP4 MSTORE DUP3 PUSH1 0x20 MSTORE PUSH1 0x40 DUP4 KECCAK256 SWAP2 PUSH1 0x1 DUP1 PUSH1 0xA0 SHL SUB AND SWAP2 DUP3 DUP5 MSTORE PUSH1 0x20 MSTORE PUSH1 0xFF PUSH1 0x40 DUP5 KECCAK256 SLOAD AND ISZERO PUSH1 0x0 EQ PUSH2 0x17DB JUMPI DUP1 DUP4 MSTORE DUP3 PUSH1 0x20 MSTORE PUSH1 0x40 DUP4 KECCAK256 DUP3 DUP5 MSTORE PUSH1 0x20 MSTORE PUSH1 0x40 DUP4 KECCAK256 PUSH1 0x1 PUSH1 0xFF NOT DUP3 SLOAD AND OR SWAP1 SSTORE PUSH32 0x2F8788117E7EFF1D82E926EC794901D17C78024A50270940304540A733656F0D CALLER SWAP4 DUP1 LOG4 PUSH1 0x1 SWAP1 JUMP JUMPDEST POP POP SWAP1 JUMP JUMPDEST SWAP1 PUSH1 0x0 SWAP2 DUP1 DUP4 MSTORE DUP3 PUSH1 0x20 MSTORE PUSH1 0x40 DUP4 KECCAK256 SWAP2 PUSH1 0x1 DUP1 PUSH1 0xA0 SHL SUB AND SWAP2 DUP3 DUP5 MSTORE PUSH1 0x20 MSTORE PUSH1 0xFF PUSH1 0x40 DUP5 KECCAK256 SLOAD AND PUSH1 0x0 EQ PUSH2 0x17DB JUMPI DUP1 DUP4 MSTORE DUP3 PUSH1 0x20 MSTORE PUSH1 0x40 DUP4 KECCAK256 DUP3 DUP5 MSTORE PUSH1 0x20 MSTORE PUSH1 0x40 DUP4 KECCAK256 PUSH1 0xFF NOT DUP2 SLOAD AND SWAP1 SSTORE PUSH32 0xF6391F5C32D9C69D2A47EA670B442974B53935D1EDC7FD64EB21E047A839171B CALLER SWAP4 DUP1 LOG4 PUSH1 0x1 SWAP1 JUMP INVALID LOG2 PUSH5 0x6970667358 0x22 SLT KECCAK256 PUSH15 0x14D30F3A966694F19DD91367B89B40 0xBD 0xF7 PUSH9 0x478539CAE795CB1169 SHL AND ADDMOD 0xFC PUSH5 0x736F6C6343 STOP ADDMOD XOR STOP CALLER 0x2F DUP8 DUP9 GT PUSH31 0x7EFF1D82E926EC794901D17C78024A50270940304540A733656F0D00000000 "},"methodIdentifiers":{"DEFAULT_ADMIN_ROLE()":"a217fddf","PAUSER_ROLE()":"e63ab1e9","POOL_FEE()":"dd1b9c4a","depositWithDUST(uint256,uint256)":"1db447bf","dust()":"fad9aba3","emergencyWithdraw(address,address,uint256)":"e63ea408","getRoleAdmin(bytes32)":"248a9ca3","getRouterStats()":"d146de40","grantRole(bytes32,address)":"2f2ff15d","hasRole(bytes32,address)":"91d14854","maxSlippage()":"8c04166f","minSwapAmount()":"338246e2","pause()":"8456cb59","paused()":"5c975abb","renounceRole(bytes32,address)":"36568abe","revokeRole(bytes32,address)":"d547741f","setParameters(uint256,uint256)":"884870c7","stats()":"d80528ae","supportsInterface(bytes4)":"01ffc9a7","uniswapRouter()":"735de9f7","unpause()":"3f4ba83a","usdc()":"3e413bee","vault()":"fbfa77cf","withdrawToDUST(uint256,uint256)":"27ecb986","withdrawToDUSTLegacy(uint256,uint256,uint256)":"b837c0ed"}}}}}