{"src/PriceOracle.sol":{"PriceOracle":{"abi":[{"inputs":[{"internalType":"address","name":"_usdcUsdFeed","type":"address"},{"internalType":"address","name":"_ethUsdFeed","type":"address"}],"stateMutability":"nonpayable","type":"constructor"},{"inputs":[],"name":"AccessControlBadConfirmation","type":"error"},{"inputs":[{"internalType":"address","name":"account","type":"address"},{"internalType":"bytes32","name":"neededRole","type":"bytes32"}],"name":"AccessControlUnauthorizedAccount","type":"error"},{"anonymous":false,"inputs":[{"indexed":false,"internalType":"uint256","name":"priceStaleThreshold","type":"uint256"},{"indexed":false,"internalType":"uint256","name":"maxDeviation","type":"uint256"},{"indexed":false,"internalType":"uint256","name":"minPrice","type":"uint256"},{"indexed":false,"internalType":"uint256","name":"maxPrice","type":"uint256"}],"name":"ConfigUpdated","type":"event"},{"anonymous":false,"inputs":[{"indexed":false,"internalType":"uint256","name":"dustUsdcPrice","type":"uint256"},{"indexed":false,"internalType":"uint256","name":"timestamp","type":"uint256"},{"indexed":false,"internalType":"address","name":"updater","type":"address"}],"name":"PriceUpdated","type":"event"},{"anonymous":false,"inputs":[{"indexed":true,"internalType":"bytes32","name":"role","type":"bytes32"},{"indexed":true,"internalType":"bytes32","name":"previousAdminRole","type":"bytes32"},{"indexed":true,"internalType":"bytes32","name":"newAdminRole","type":"bytes32"}],"name":"RoleAdminChanged","type":"event"},{"anonymous":false,"inputs":[{"indexed":true,"internalType":"bytes32","name":"role","type":"bytes32"},{"indexed":true,"internalType":"address","name":"account","type":"address"},{"indexed":true,"internalType":"address","name":"sender","type":"address"}],"name":"RoleGranted","type":"event"},{"anonymous":false,"inputs":[{"indexed":true,"internalType":"bytes32","name":"role","type":"bytes32"},{"indexed":true,"internalType":"address","name":"account","type":"address"},{"indexed":true,"internalType":"address","name":"sender","type":"address"}],"name":"RoleRevoked","type":"event"},{"inputs":[],"name":"ADMIN_ROLE","outputs":[{"internalType":"bytes32","name":"","type":"bytes32"}],"stateMutability":"view","type":"function"},{"inputs":[],"name":"DEFAULT_ADMIN_ROLE","outputs":[{"internalType":"bytes32","name":"","type":"bytes32"}],"stateMutability":"view","type":"function"},{"inputs":[],"name":"UPDATER_ROLE","outputs":[{"internalType":"bytes32","name":"","type":"bytes32"}],"stateMutability":"view","type":"function"},{"inputs":[],"name":"dustUsdcPrice","outputs":[{"internalType":"uint256","name":"","type":"uint256"}],"stateMutability":"view","type":"function"},{"inputs":[],"name":"ethUsdFeed","outputs":[{"internalType":"contract AggregatorV3Interface","name":"","type":"address"}],"stateMutability":"view","type":"function"},{"inputs":[],"name":"getDustPrice","outputs":[{"internalType":"uint256","name":"price","type":"uint256"},{"internalType":"bool","name":"isValid","type":"bool"}],"stateMutability":"view","type":"function"},{"inputs":[],"name":"getEthUsdPrice","outputs":[{"internalType":"uint256","name":"price","type":"uint256"}],"stateMutability":"view","type":"function"},{"inputs":[{"internalType":"uint256","name":"dustAmount","type":"uint256"},{"internalType":"uint256","name":"slippageBps","type":"uint256"}],"name":"getMinUsdcOut","outputs":[{"internalType":"uint256","name":"minUsdcOut","type":"uint256"}],"stateMutability":"view","type":"function"},{"inputs":[{"internalType":"bytes32","name":"role","type":"bytes32"}],"name":"getRoleAdmin","outputs":[{"internalType":"bytes32","name":"","type":"bytes32"}],"stateMutability":"view","type":"function"},{"inputs":[],"name":"getUsdcUsdPrice","outputs":[{"internalType":"uint256","name":"price","type":"uint256"}],"stateMutability":"view","type":"function"},{"inputs":[{"internalType":"bytes32","name":"role","type":"bytes32"},{"internalType":"address","name":"account","type":"address"}],"name":"grantRole","outputs":[],"stateMutability":"nonpayable","type":"function"},{"inputs":[{"internalType":"bytes32","name":"role","type":"bytes32"},{"internalType":"address","name":"account","type":"address"}],"name":"hasRole","outputs":[{"internalType":"bool","name":"","type":"bool"}],"stateMutability":"view","type":"function"},{"inputs":[],"name":"isPriceStale","outputs":[{"internalType":"bool","name":"","type":"bool"}],"stateMutability":"view","type":"function"},{"inputs":[],"name":"lastUpdateTime","outputs":[{"internalType":"uint256","name":"","type":"uint256"}],"stateMutability":"view","type":"function"},{"inputs":[],"name":"maxDeviation","outputs":[{"internalType":"uint256","name":"","type":"uint256"}],"stateMutability":"view","type":"function"},{"inputs":[],"name":"maxPrice","outputs":[{"internalType":"uint256","name":"","type":"uint256"}],"stateMutability":"view","type":"function"},{"inputs":[],"name":"minPrice","outputs":[{"internalType":"uint256","name":"","type":"uint256"}],"stateMutability":"view","type":"function"},{"inputs":[],"name":"priceStaleThreshold","outputs":[{"internalType":"uint256","name":"","type":"uint256"}],"stateMutability":"view","type":"function"},{"inputs":[{"internalType":"bytes32","name":"role","type":"bytes32"},{"internalType":"address","name":"callerConfirmation","type":"address"}],"name":"renounceRole","outputs":[],"stateMutability":"nonpayable","type":"function"},{"inputs":[{"internalType":"bytes32","name":"role","type":"bytes32"},{"internalType":"address","name":"account","type":"address"}],"name":"revokeRole","outputs":[],"stateMutability":"nonpayable","type":"function"},{"inputs":[{"internalType":"uint256","name":"_priceStaleThreshold","type":"uint256"},{"internalType":"uint256","name":"_maxDeviation","type":"uint256"},{"internalType":"uint256","name":"_minPrice","type":"uint256"},{"internalType":"uint256","name":"_maxPrice","type":"uint256"}],"name":"setConfig","outputs":[],"stateMutability":"nonpayable","type":"function"},{"inputs":[{"internalType":"bytes4","name":"interfaceId","type":"bytes4"}],"name":"supportsInterface","outputs":[{"internalType":"bool","name":"","type":"bool"}],"stateMutability":"view","type":"function"},{"inputs":[{"internalType":"uint256","name":"_dustUsdcPrice","type":"uint256"}],"name":"updateDustPrice","outputs":[],"stateMutability":"nonpayable","type":"function"},{"inputs":[{"internalType":"address","name":"_usdcUsdFeed","type":"address"},{"internalType":"address","name":"_ethUsdFeed","type":"address"}],"name":"updatePriceFeeds","outputs":[],"stateMutability":"nonpayable","type":"function"},{"inputs":[],"name":"usdcUsdFeed","outputs":[{"internalType":"contract AggregatorV3Interface","name":"","type":"address"}],"stateMutability":"view","type":"function"},{"inputs":[{"internalType":"uint256","name":"dustAmount","type":"uint256"},{"internalType":"uint256","name":"usdcAmount","type":"uint256"}],"name":"validateSwapPrice","outputs":[{"internalType":"bool","name":"isValid","type":"bool"},{"internalType":"uint256","name":"deviation","type":"uint256"}],"stateMutability":"view","type":"function"}],"evm":{"bytecode":{"linkReferences":{},"object":"6080346200017357601f620013c438819003918201601f19168301916001600160401b038311848410176200017857808492604094855283398101031262000173576200005a602062000052836200018e565b92016200018e565b610e106005556101f4600655662386f26fc1000060075568056bc75e2d631000006008556001600160a01b03918216919082156200012e5716908115620000e95760018060a01b0319908160015416176001556002541617600255620000c033620001a3565b50620000cc3362000223565b50620000d833620002c5565b506040516110419081620003638239f35b60405162461bcd60e51b815260206004820152601560248201527f4f7261636c653a207a65726f20455448206665656400000000000000000000006044820152606490fd5b60405162461bcd60e51b815260206004820152601660248201527f4f7261636c653a207a65726f20555344432066656564000000000000000000006044820152606490fd5b600080fd5b634e487b7160e01b600052604160045260246000fd5b51906001600160a01b03821682036200017357565b6001600160a01b031660008181527fad3228b676f7d3cd4284a5443f17f1962b36e491b30a40b2405849e597ba5fb5602052604081205490919060ff166200021f57818052816020526040822081835260205260408220600160ff198254161790553391600080516020620013a48339815191528180a4600190565b5090565b6001600160a01b031660008181527f7d7ffb7a348e1c6a02869081a26547b49160dd3df72d1d75a570eb9b698292ec60205260408120549091907fa49807205ce4d355092ef5a8a18f56e8913cf4a201fbe287825b095693c217759060ff16620002c057808352826020526040832082845260205260408320600160ff19825416179055600080516020620013a4833981519152339380a4600190565b505090565b6001600160a01b031660008181527f738678fe42df6a4211eb7628ac9b056229141839eb4f4ef4cc249f1d36e8c92160205260408120549091907f73e573f9566d61418a34d5de3ff49360f9c51fec37f7486551670290f6285dab9060ff16620002c057808352826020526040832082845260205260408320600160ff19825416179055600080516020620013a4833981519152339380a460019056fe608060408181526004908136101561001657600080fd5b600092833560e01c90816301ffc9a714610cb757508063205dbfda14610bf9578063248a9ca314610bcf5780632a1bab7314610bb05780632f2ff15d14610b885780632f5df72514610b6257806336568abe14610b1b57806347e6338014610ae057806349f1d8bd146109a75780634d9a75e51461097e57806375b238fc14610943578063780320c2146109245780637aaf8ab5146108f95780638009b7bd146108d057806391d148541461088a578063a0a8045e1461076d578063a217fddf14610752578063c26d33bf14610733578063c7aa1053146105b7578063c8f33c9114610599578063ca3f9cd014610519578063cdb4aef0146103de578063d547741f146103a1578063e38d6b5c14610382578063e45be8eb1461035f5763e5c389cd1461014257600080fd5b3461035b57608036600319011261035b578135916024918235604480359360649182359661016e610e78565b61012c891061031d576201518089116102df578385106102a1576107d0851161026357861561022c57868811156101ee57897f84d25455db084cf777a0a4a00fcc28946b3a2ebc5cc866ef8820ab8571dbdd3660808b8b8b8b8b84600555806006558260075583600855815194855260208501528301526060820152a180f35b90601b7f4f7261636c653a20696e76616c69642070726963652072616e6765000000000092602088519562461bcd60e51b8752860152840152820152fd5b906016754f7261636c653a206d696e207072696365207a65726f60501b92602088519562461bcd60e51b8752860152840152820152fd5b90601a7f4f7261636c653a20646576696174696f6e20746f6f206869676800000000000092602088519562461bcd60e51b8752860152840152820152fd5b9060197f4f7261636c653a20646576696174696f6e20746f6f206c6f770000000000000092602088519562461bcd60e51b8752860152840152820152fd5b90601a7f4f7261636c653a207468726573686f6c6420746f6f206c6f6e6700000000000092602088519562461bcd60e51b8752860152840152820152fd5b90601b7f4f7261636c653a207468726573686f6c6420746f6f2073686f7274000000000092602088519562461bcd60e51b8752860152840152820152fd5b8280fd5b83823461037e578160031936011261037e576020906007549051908152f35b5080fd5b83823461037e578160031936011261037e576020906008549051908152f35b503461035b578060031936011261035b576103da91356103d560016103c4610d26565b938387528660205286200154610ef2565b610f96565b5080f35b5091346105165780600319360112610516576001548351633fabe5a360e21b815292919060a0908490849082906001600160a01b03165afa90811561050b57809381926104d2575b5083131561048f5761043c620151809142610dc7565b101561044c575060209151908152f35b606490602084519162461bcd60e51b8352820152601860248201527f4f7261636c653a2055534443207072696365207374616c6500000000000000006044820152fd5b835162461bcd60e51b8152602081840152601a60248201527f4f7261636c653a20696e76616c696420555344432070726963650000000000006044820152606490fd5b9093506104f7915060a03d60a011610504575b6104ef8183610df4565b810190610e43565b5094925050929038610426565b503d6104e5565b8451903d90823e3d90fd5b80fd5b503461035b5736600319011261037e576001600160a01b0390358181169081900361035b57610546610d26565b9061054f610e78565b8061057b575b501680610560575080f35b6bffffffffffffffffffffffff60a01b600254161760025580f35b6bffffffffffffffffffffffff60a01b600154161760015538610555565b50903461035b578260031936011261035b5760209250549051908152f35b508234610516576105c736610d0b565b81156106f05780156106ad576105e46105de610dd4565b15610d3c565b670de0b6b3a76400008082029182040361069a579061060291610da7565b9064e8d4a5100091828102928184041490151715610687576003549182808211156106775761063091610dc7565b905b6127109182810292818404149015171561066457509061065191610da7565b6006548111159082519182526020820152f35b634e487b7160e01b815260118552602490fd5b9061068191610dc7565b90610632565b634e487b7160e01b815260118452602490fd5b634e487b7160e01b835260118552602483fd5b835162461bcd60e51b8152602081870152601860248201527f4f7261636c653a207a65726f205553444320616d6f756e7400000000000000006044820152606490fd5b835162461bcd60e51b8152602081870152601860248201527f4f7261636c653a207a65726f204455535420616d6f756e7400000000000000006044820152606490fd5b83823461037e578160031936011261037e576020906003549051908152f35b83823461037e578160031936011261037e5751908152602090f35b5091346105165780600319360112610516576002548351633fabe5a360e21b815292919060a0908490849082906001600160a01b03165afa90811561050b5780938192610861575b5083131561081e576107cb620151809142610dc7565b10156107db575060209151908152f35b606490602084519162461bcd60e51b8352820152601760248201527f4f7261636c653a20455448207072696365207374616c650000000000000000006044820152fd5b835162461bcd60e51b8152602081840152601960248201527f4f7261636c653a20696e76616c696420455448207072696365000000000000006044820152606490fd5b90935061087d915060a03d60a011610504576104ef8183610df4565b50949250509290386107b5565b50903461035b578160031936011261035b578160209360ff926108ab610d26565b903582528186528282206001600160a01b039091168252855220549151911615158152f35b83823461037e578160031936011261037e5760025490516001600160a01b039091168152602090f35b50823461051657806003193601126105165750600354610917610dd4565b1582519182526020820152f35b83823461037e578160031936011261037e576020906005549051908152f35b83823461037e578160031936011261037e57602090517fa49807205ce4d355092ef5a8a18f56e8913cf4a201fbe287825b095693c217758152f35b83823461037e578160031936011261037e5760015490516001600160a01b039091168152602090f35b503461035b57602080600319360112610adc578235927f73e573f9566d61418a34d5de3ff49360f9c51fec37f7486551670290f6285dab808652858352838620338752835260ff848720541615610abf57506007548410610a86576008548411610a4c579183916060937f378b09391f49d01e482ba75312341912ad0652cb8aa8799b6b33b624bd65d9f295600355429055815192835242908301523390820152a180f35b915162461bcd60e51b815291820152601660248201527509ee4c2c6d8ca7440e0e4d2c6ca40e8dede40d0d2ced60531b6044820152606490fd5b915162461bcd60e51b81529182015260156024820152744f7261636c653a20707269636520746f6f206c6f7760581b6044820152606490fd5b6044925083519163e2517d3f60e01b835233908301526024820152fd5b8380fd5b83823461037e578160031936011261037e57602090517f73e573f9566d61418a34d5de3ff49360f9c51fec37f7486551670290f6285dab8152f35b5082903461037e578060031936011261037e57610b36610d26565b90336001600160a01b03831603610b5357506103da919235610f96565b5163334bd91960e11b81528390fd5b83823461037e578160031936011261037e57602090610b7f610dd4565b90519015158152f35b503461035b578060031936011261035b576103da9135610bab60016103c4610d26565b610f18565b83823461037e578160031936011261037e576020906006549051908152f35b50903461035b57602036600319011261035b57816020936001923581528085522001549051908152f35b50823461051657610c0936610d0b565b9190610c166105de610dd4565b6103e88311610c7457610c35670de0b6b3a76400009160035490610d7e565b0461271092830391838311610c615760208564e8d4a5100086610c588787610d7e565b04049051908152f35b634e487b7160e01b815260118652602490fd5b835162461bcd60e51b8152602081870152601960248201527f4f7261636c653a20736c69707061676520746f6f2068696768000000000000006044820152606490fd5b8490843461035b57602036600319011261035b573563ffffffff60e01b811680910361035b5760209250637965db0b60e01b8114908115610cfa575b5015158152f35b6301ffc9a760e01b14905083610cf3565b6040906003190112610d21576004359060243590565b600080fd5b602435906001600160a01b0382168203610d2157565b15610d4357565b60405162461bcd60e51b81526020600482015260136024820152724f7261636c653a207072696365207374616c6560681b6044820152606490fd5b81810292918115918404141715610d9157565b634e487b7160e01b600052601160045260246000fd5b8115610db1570490565b634e487b7160e01b600052601260045260246000fd5b91908203918211610d9157565b6004548015610dee576005548101809111610d9157421190565b50600190565b90601f8019910116810190811067ffffffffffffffff821117610e1657604052565b634e487b7160e01b600052604160045260246000fd5b519069ffffffffffffffffffff82168203610d2157565b908160a0910312610d2157610e5781610e2c565b91602082015191604081015191610e75608060608401519301610e2c565b90565b3360009081527f7d7ffb7a348e1c6a02869081a26547b49160dd3df72d1d75a570eb9b698292ec60205260409020547fa49807205ce4d355092ef5a8a18f56e8913cf4a201fbe287825b095693c217759060ff1615610ed45750565b6044906040519063e2517d3f60e01b82523360048301526024820152fd5b80600052600060205260406000203360005260205260ff6040600020541615610ed45750565b9060009180835282602052604083209160018060a01b03169182845260205260ff60408420541615600014610f9157808352826020526040832082845260205260408320600160ff198254161790557f2f8788117e7eff1d82e926ec794901d17c78024a50270940304540a733656f0d339380a4600190565b505090565b9060009180835282602052604083209160018060a01b03169182845260205260ff604084205416600014610f915780835282602052604083208284526020526040832060ff1981541690557ff6391f5c32d9c69d2a47ea670b442974b53935d1edc7fd64eb21e047a839171b339380a460019056fea264697066735822122021b39d4448a1c8697076262cd7a85381b1fcab57f559c859d24e283b6e1dc76564736f6c634300081800332f8788117e7eff1d82e926ec794901d17c78024a50270940304540a733656f0d","opcodes":"PUSH1 0x80 CALLVALUE PUSH3 0x173 JUMPI PUSH1 0x1F PUSH3 0x13C4 CODESIZE DUP2 SWAP1 SUB SWAP2 DUP3 ADD PUSH1 0x1F NOT AND DUP4 ADD SWAP2 PUSH1 0x1 PUSH1 0x1 PUSH1 0x40 SHL SUB DUP4 GT DUP5 DUP5 LT OR PUSH3 0x178 JUMPI DUP1 DUP5 SWAP3 PUSH1 0x40 SWAP5 DUP6 MSTORE DUP4 CODECOPY DUP2 ADD SUB SLT PUSH3 0x173 JUMPI PUSH3 0x5A PUSH1 0x20 PUSH3 0x52 DUP4 PUSH3 0x18E JUMP JUMPDEST SWAP3 ADD PUSH3 0x18E JUMP JUMPDEST PUSH2 0xE10 PUSH1 0x5 SSTORE PUSH2 0x1F4 PUSH1 0x6 SSTORE PUSH7 0x2386F26FC10000 PUSH1 0x7 SSTORE PUSH9 0x56BC75E2D63100000 PUSH1 0x8 SSTORE PUSH1 0x1 PUSH1 0x1 PUSH1 0xA0 SHL SUB SWAP2 DUP3 AND SWAP2 SWAP1 DUP3 ISZERO PUSH3 0x12E JUMPI AND SWAP1 DUP2 ISZERO PUSH3 0xE9 JUMPI PUSH1 0x1 DUP1 PUSH1 0xA0 SHL SUB NOT SWAP1 DUP2 PUSH1 0x1 SLOAD AND OR PUSH1 0x1 SSTORE PUSH1 0x2 SLOAD AND OR PUSH1 0x2 SSTORE PUSH3 0xC0 CALLER PUSH3 0x1A3 JUMP JUMPDEST POP PUSH3 0xCC CALLER PUSH3 0x223 JUMP JUMPDEST POP PUSH3 0xD8 CALLER PUSH3 0x2C5 JUMP JUMPDEST POP PUSH1 0x40 MLOAD PUSH2 0x1041 SWAP1 DUP2 PUSH3 0x363 DUP3 CODECOPY RETURN JUMPDEST PUSH1 0x40 MLOAD PUSH3 0x461BCD PUSH1 0xE5 SHL DUP2 MSTORE PUSH1 0x20 PUSH1 0x4 DUP3 ADD MSTORE PUSH1 0x15 PUSH1 0x24 DUP3 ADD MSTORE PUSH32 0x4F7261636C653A207A65726F2045544820666565640000000000000000000000 PUSH1 0x44 DUP3 ADD MSTORE PUSH1 0x64 SWAP1 REVERT JUMPDEST PUSH1 0x40 MLOAD PUSH3 0x461BCD PUSH1 0xE5 SHL DUP2 MSTORE PUSH1 0x20 PUSH1 0x4 DUP3 ADD MSTORE PUSH1 0x16 PUSH1 0x24 DUP3 ADD MSTORE PUSH32 0x4F7261636C653A207A65726F2055534443206665656400000000000000000000 PUSH1 0x44 DUP3 ADD MSTORE PUSH1 0x64 SWAP1 REVERT JUMPDEST PUSH1 0x0 DUP1 REVERT JUMPDEST PUSH4 0x4E487B71 PUSH1 0xE0 SHL PUSH1 0x0 MSTORE PUSH1 0x41 PUSH1 0x4 MSTORE PUSH1 0x24 PUSH1 0x0 REVERT JUMPDEST MLOAD SWAP1 PUSH1 0x1 PUSH1 0x1 PUSH1 0xA0 SHL SUB DUP3 AND DUP3 SUB PUSH3 0x173 JUMPI JUMP JUMPDEST PUSH1 0x1 PUSH1 0x1 PUSH1 0xA0 SHL SUB AND PUSH1 0x0 DUP2 DUP2 MSTORE PUSH32 0xAD3228B676F7D3CD4284A5443F17F1962B36E491B30A40B2405849E597BA5FB5 PUSH1 0x20 MSTORE PUSH1 0x40 DUP2 KECCAK256 SLOAD SWAP1 SWAP2 SWAP1 PUSH1 0xFF AND PUSH3 0x21F JUMPI DUP2 DUP1 MSTORE DUP2 PUSH1 0x20 MSTORE PUSH1 0x40 DUP3 KECCAK256 DUP2 DUP4 MSTORE PUSH1 0x20 MSTORE PUSH1 0x40 DUP3 KECCAK256 PUSH1 0x1 PUSH1 0xFF NOT DUP3 SLOAD AND OR SWAP1 SSTORE CALLER SWAP2 PUSH1 0x0 DUP1 MLOAD PUSH1 0x20 PUSH3 0x13A4 DUP4 CODECOPY DUP2 MLOAD SWAP2 MSTORE DUP2 DUP1 LOG4 PUSH1 0x1 SWAP1 JUMP JUMPDEST POP SWAP1 JUMP JUMPDEST PUSH1 0x1 PUSH1 0x1 PUSH1 0xA0 SHL SUB AND PUSH1 0x0 DUP2 DUP2 MSTORE PUSH32 0x7D7FFB7A348E1C6A02869081A26547B49160DD3DF72D1D75A570EB9B698292EC PUSH1 0x20 MSTORE PUSH1 0x40 DUP2 KECCAK256 SLOAD SWAP1 SWAP2 SWAP1 PUSH32 0xA49807205CE4D355092EF5A8A18F56E8913CF4A201FBE287825B095693C21775 SWAP1 PUSH1 0xFF AND PUSH3 0x2C0 JUMPI DUP1 DUP4 MSTORE DUP3 PUSH1 0x20 MSTORE PUSH1 0x40 DUP4 KECCAK256 DUP3 DUP5 MSTORE PUSH1 0x20 MSTORE PUSH1 0x40 DUP4 KECCAK256 PUSH1 0x1 PUSH1 0xFF NOT DUP3 SLOAD AND OR SWAP1 SSTORE PUSH1 0x0 DUP1 MLOAD PUSH1 0x20 PUSH3 0x13A4 DUP4 CODECOPY DUP2 MLOAD SWAP2 MSTORE CALLER SWAP4 DUP1 LOG4 PUSH1 0x1 SWAP1 JUMP JUMPDEST POP POP SWAP1 JUMP JUMPDEST PUSH1 0x1 PUSH1 0x1 PUSH1 0xA0 SHL SUB AND PUSH1 0x0 DUP2 DUP2 MSTORE PUSH32 0x738678FE42DF6A4211EB7628AC9B056229141839EB4F4EF4CC249F1D36E8C921 PUSH1 0x20 MSTORE PUSH1 0x40 DUP2 KECCAK256 SLOAD SWAP1 SWAP2 SWAP1 PUSH32 0x73E573F9566D61418A34D5DE3FF49360F9C51FEC37F7486551670290F6285DAB SWAP1 PUSH1 0xFF AND PUSH3 0x2C0 JUMPI DUP1 DUP4 MSTORE DUP3 PUSH1 0x20 MSTORE PUSH1 0x40 DUP4 KECCAK256 DUP3 DUP5 MSTORE PUSH1 0x20 MSTORE PUSH1 0x40 DUP4 KECCAK256 PUSH1 0x1 PUSH1 0xFF NOT DUP3 SLOAD AND OR SWAP1 SSTORE PUSH1 0x0 DUP1 MLOAD PUSH1 0x20 PUSH3 0x13A4 DUP4 CODECOPY DUP2 MLOAD SWAP2 MSTORE CALLER SWAP4 DUP1 LOG4 PUSH1 0x1 SWAP1 JUMP INVALID PUSH1 0x80 PUSH1 0x40 DUP2 DUP2 MSTORE PUSH1 0x4 SWAP1 DUP2 CALLDATASIZE LT ISZERO PUSH2 0x16 JUMPI PUSH1 0x0 DUP1 REVERT JUMPDEST PUSH1 0x0 SWAP3 DUP4 CALLDATALOAD PUSH1 0xE0 SHR SWAP1 DUP2 PUSH4 0x1FFC9A7 EQ PUSH2 0xCB7 JUMPI POP DUP1 PUSH4 0x205DBFDA EQ PUSH2 0xBF9 JUMPI DUP1 PUSH4 0x248A9CA3 EQ PUSH2 0xBCF JUMPI DUP1 PUSH4 0x2A1BAB73 EQ PUSH2 0xBB0 JUMPI DUP1 PUSH4 0x2F2FF15D EQ PUSH2 0xB88 JUMPI DUP1 PUSH4 0x2F5DF725 EQ PUSH2 0xB62 JUMPI DUP1 PUSH4 0x36568ABE EQ PUSH2 0xB1B JUMPI DUP1 PUSH4 0x47E63380 EQ PUSH2 0xAE0 JUMPI DUP1 PUSH4 0x49F1D8BD EQ PUSH2 0x9A7 JUMPI DUP1 PUSH4 0x4D9A75E5 EQ PUSH2 0x97E JUMPI DUP1 PUSH4 0x75B238FC EQ PUSH2 0x943 JUMPI DUP1 PUSH4 0x780320C2 EQ PUSH2 0x924 JUMPI DUP1 PUSH4 0x7AAF8AB5 EQ PUSH2 0x8F9 JUMPI DUP1 PUSH4 0x8009B7BD EQ PUSH2 0x8D0 JUMPI DUP1 PUSH4 0x91D14854 EQ PUSH2 0x88A JUMPI DUP1 PUSH4 0xA0A8045E EQ PUSH2 0x76D JUMPI DUP1 PUSH4 0xA217FDDF EQ PUSH2 0x752 JUMPI DUP1 PUSH4 0xC26D33BF EQ PUSH2 0x733 JUMPI DUP1 PUSH4 0xC7AA1053 EQ PUSH2 0x5B7 JUMPI DUP1 PUSH4 0xC8F33C91 EQ PUSH2 0x599 JUMPI DUP1 PUSH4 0xCA3F9CD0 EQ PUSH2 0x519 JUMPI DUP1 PUSH4 0xCDB4AEF0 EQ PUSH2 0x3DE JUMPI DUP1 PUSH4 0xD547741F EQ PUSH2 0x3A1 JUMPI DUP1 PUSH4 0xE38D6B5C EQ PUSH2 0x382 JUMPI DUP1 PUSH4 0xE45BE8EB EQ PUSH2 0x35F JUMPI PUSH4 0xE5C389CD EQ PUSH2 0x142 JUMPI PUSH1 0x0 DUP1 REVERT JUMPDEST CALLVALUE PUSH2 0x35B JUMPI PUSH1 0x80 CALLDATASIZE PUSH1 0x3 NOT ADD SLT PUSH2 0x35B JUMPI DUP2 CALLDATALOAD SWAP2 PUSH1 0x24 SWAP2 DUP3 CALLDATALOAD PUSH1 0x44 DUP1 CALLDATALOAD SWAP4 PUSH1 0x64 SWAP2 DUP3 CALLDATALOAD SWAP7 PUSH2 0x16E PUSH2 0xE78 JUMP JUMPDEST PUSH2 0x12C DUP10 LT PUSH2 0x31D JUMPI PUSH3 0x15180 DUP10 GT PUSH2 0x2DF JUMPI DUP4 DUP6 LT PUSH2 0x2A1 JUMPI PUSH2 0x7D0 DUP6 GT PUSH2 0x263 JUMPI DUP7 ISZERO PUSH2 0x22C JUMPI DUP7 DUP9 GT ISZERO PUSH2 0x1EE JUMPI DUP10 PUSH32 0x84D25455DB084CF777A0A4A00FCC28946B3A2EBC5CC866EF8820AB8571DBDD36 PUSH1 0x80 DUP12 DUP12 DUP12 DUP12 DUP12 DUP5 PUSH1 0x5 SSTORE DUP1 PUSH1 0x6 SSTORE DUP3 PUSH1 0x7 SSTORE DUP4 PUSH1 0x8 SSTORE DUP2 MLOAD SWAP5 DUP6 MSTORE PUSH1 0x20 DUP6 ADD MSTORE DUP4 ADD MSTORE PUSH1 0x60 DUP3 ADD MSTORE LOG1 DUP1 RETURN JUMPDEST SWAP1 PUSH1 0x1B PUSH32 0x4F7261636C653A20696E76616C69642070726963652072616E67650000000000 SWAP3 PUSH1 0x20 DUP9 MLOAD SWAP6 PUSH3 0x461BCD PUSH1 0xE5 SHL DUP8 MSTORE DUP7 ADD MSTORE DUP5 ADD MSTORE DUP3 ADD MSTORE REVERT JUMPDEST SWAP1 PUSH1 0x16 PUSH22 0x4F7261636C653A206D696E207072696365207A65726F PUSH1 0x50 SHL SWAP3 PUSH1 0x20 DUP9 MLOAD SWAP6 PUSH3 0x461BCD PUSH1 0xE5 SHL DUP8 MSTORE DUP7 ADD MSTORE DUP5 ADD MSTORE DUP3 ADD MSTORE REVERT JUMPDEST SWAP1 PUSH1 0x1A PUSH32 0x4F7261636C653A20646576696174696F6E20746F6F2068696768000000000000 SWAP3 PUSH1 0x20 DUP9 MLOAD SWAP6 PUSH3 0x461BCD PUSH1 0xE5 SHL DUP8 MSTORE DUP7 ADD MSTORE DUP5 ADD MSTORE DUP3 ADD MSTORE REVERT JUMPDEST SWAP1 PUSH1 0x19 PUSH32 0x4F7261636C653A20646576696174696F6E20746F6F206C6F7700000000000000 SWAP3 PUSH1 0x20 DUP9 MLOAD SWAP6 PUSH3 0x461BCD PUSH1 0xE5 SHL DUP8 MSTORE DUP7 ADD MSTORE DUP5 ADD MSTORE DUP3 ADD MSTORE REVERT JUMPDEST SWAP1 PUSH1 0x1A PUSH32 0x4F7261636C653A207468726573686F6C6420746F6F206C6F6E67000000000000 SWAP3 PUSH1 0x20 DUP9 MLOAD SWAP6 PUSH3 0x461BCD PUSH1 0xE5 SHL DUP8 MSTORE DUP7 ADD MSTORE DUP5 ADD MSTORE DUP3 ADD MSTORE REVERT JUMPDEST SWAP1 PUSH1 0x1B PUSH32 0x4F7261636C653A207468726573686F6C6420746F6F2073686F72740000000000 SWAP3 PUSH1 0x20 DUP9 MLOAD SWAP6 PUSH3 0x461BCD PUSH1 0xE5 SHL DUP8 MSTORE DUP7 ADD MSTORE DUP5 ADD MSTORE DUP3 ADD MSTORE REVERT JUMPDEST DUP3 DUP1 REVERT JUMPDEST DUP4 DUP3 CALLVALUE PUSH2 0x37E JUMPI DUP2 PUSH1 0x3 NOT CALLDATASIZE ADD SLT PUSH2 0x37E JUMPI PUSH1 0x20 SWAP1 PUSH1 0x7 SLOAD SWAP1 MLOAD SWAP1 DUP2 MSTORE RETURN JUMPDEST POP DUP1 REVERT JUMPDEST DUP4 DUP3 CALLVALUE PUSH2 0x37E JUMPI DUP2 PUSH1 0x3 NOT CALLDATASIZE ADD SLT PUSH2 0x37E JUMPI PUSH1 0x20 SWAP1 PUSH1 0x8 SLOAD SWAP1 MLOAD SWAP1 DUP2 MSTORE RETURN JUMPDEST POP CALLVALUE PUSH2 0x35B JUMPI DUP1 PUSH1 0x3 NOT CALLDATASIZE ADD SLT PUSH2 0x35B JUMPI PUSH2 0x3DA SWAP2 CALLDATALOAD PUSH2 0x3D5 PUSH1 0x1 PUSH2 0x3C4 PUSH2 0xD26 JUMP JUMPDEST SWAP4 DUP4 DUP8 MSTORE DUP7 PUSH1 0x20 MSTORE DUP7 KECCAK256 ADD SLOAD PUSH2 0xEF2 JUMP JUMPDEST PUSH2 0xF96 JUMP JUMPDEST POP DUP1 RETURN JUMPDEST POP SWAP2 CALLVALUE PUSH2 0x516 JUMPI DUP1 PUSH1 0x3 NOT CALLDATASIZE ADD SLT PUSH2 0x516 JUMPI PUSH1 0x1 SLOAD DUP4 MLOAD PUSH4 0x3FABE5A3 PUSH1 0xE2 SHL DUP2 MSTORE SWAP3 SWAP2 SWAP1 PUSH1 0xA0 SWAP1 DUP5 SWAP1 DUP5 SWAP1 DUP3 SWAP1 PUSH1 0x1 PUSH1 0x1 PUSH1 0xA0 SHL SUB AND GAS STATICCALL SWAP1 DUP2 ISZERO PUSH2 0x50B JUMPI DUP1 SWAP4 DUP2 SWAP3 PUSH2 0x4D2 JUMPI JUMPDEST POP DUP4 SGT ISZERO PUSH2 0x48F JUMPI PUSH2 0x43C PUSH3 0x15180 SWAP2 TIMESTAMP PUSH2 0xDC7 JUMP JUMPDEST LT ISZERO PUSH2 0x44C JUMPI POP PUSH1 0x20 SWAP2 MLOAD SWAP1 DUP2 MSTORE RETURN JUMPDEST PUSH1 0x64 SWAP1 PUSH1 0x20 DUP5 MLOAD SWAP2 PUSH3 0x461BCD PUSH1 0xE5 SHL DUP4 MSTORE DUP3 ADD MSTORE PUSH1 0x18 PUSH1 0x24 DUP3 ADD MSTORE PUSH32 0x4F7261636C653A2055534443207072696365207374616C650000000000000000 PUSH1 0x44 DUP3 ADD MSTORE REVERT JUMPDEST DUP4 MLOAD PUSH3 0x461BCD PUSH1 0xE5 SHL DUP2 MSTORE PUSH1 0x20 DUP2 DUP5 ADD MSTORE PUSH1 0x1A PUSH1 0x24 DUP3 ADD MSTORE PUSH32 0x4F7261636C653A20696E76616C69642055534443207072696365000000000000 PUSH1 0x44 DUP3 ADD MSTORE PUSH1 0x64 SWAP1 REVERT JUMPDEST SWAP1 SWAP4 POP PUSH2 0x4F7 SWAP2 POP PUSH1 0xA0 RETURNDATASIZE PUSH1 0xA0 GT PUSH2 0x504 JUMPI JUMPDEST PUSH2 0x4EF DUP2 DUP4 PUSH2 0xDF4 JUMP JUMPDEST DUP2 ADD SWAP1 PUSH2 0xE43 JUMP JUMPDEST POP SWAP5 SWAP3 POP POP SWAP3 SWAP1 CODESIZE PUSH2 0x426 JUMP JUMPDEST POP RETURNDATASIZE PUSH2 0x4E5 JUMP JUMPDEST DUP5 MLOAD SWAP1 RETURNDATASIZE SWAP1 DUP3 RETURNDATACOPY RETURNDATASIZE SWAP1 REVERT JUMPDEST DUP1 REVERT JUMPDEST POP CALLVALUE PUSH2 0x35B JUMPI CALLDATASIZE PUSH1 0x3 NOT ADD SLT PUSH2 0x37E JUMPI PUSH1 0x1 PUSH1 0x1 PUSH1 0xA0 SHL SUB SWAP1 CALLDATALOAD DUP2 DUP2 AND SWAP1 DUP2 SWAP1 SUB PUSH2 0x35B JUMPI PUSH2 0x546 PUSH2 0xD26 JUMP JUMPDEST SWAP1 PUSH2 0x54F PUSH2 0xE78 JUMP JUMPDEST DUP1 PUSH2 0x57B JUMPI JUMPDEST POP AND DUP1 PUSH2 0x560 JUMPI POP DUP1 RETURN JUMPDEST PUSH12 0xFFFFFFFFFFFFFFFFFFFFFFFF PUSH1 0xA0 SHL PUSH1 0x2 SLOAD AND OR PUSH1 0x2 SSTORE DUP1 RETURN JUMPDEST PUSH12 0xFFFFFFFFFFFFFFFFFFFFFFFF PUSH1 0xA0 SHL PUSH1 0x1 SLOAD AND OR PUSH1 0x1 SSTORE CODESIZE PUSH2 0x555 JUMP JUMPDEST POP SWAP1 CALLVALUE PUSH2 0x35B JUMPI DUP3 PUSH1 0x3 NOT CALLDATASIZE ADD SLT PUSH2 0x35B JUMPI PUSH1 0x20 SWAP3 POP SLOAD SWAP1 MLOAD SWAP1 DUP2 MSTORE RETURN JUMPDEST POP DUP3 CALLVALUE PUSH2 0x516 JUMPI PUSH2 0x5C7 CALLDATASIZE PUSH2 0xD0B JUMP JUMPDEST DUP2 ISZERO PUSH2 0x6F0 JUMPI DUP1 ISZERO PUSH2 0x6AD JUMPI PUSH2 0x5E4 PUSH2 0x5DE PUSH2 0xDD4 JUMP JUMPDEST ISZERO PUSH2 0xD3C JUMP JUMPDEST PUSH8 0xDE0B6B3A7640000 DUP1 DUP3 MUL SWAP2 DUP3 DIV SUB PUSH2 0x69A JUMPI SWAP1 PUSH2 0x602 SWAP2 PUSH2 0xDA7 JUMP JUMPDEST SWAP1 PUSH5 0xE8D4A51000 SWAP2 DUP3 DUP2 MUL SWAP3 DUP2 DUP5 DIV EQ SWAP1 ISZERO OR ISZERO PUSH2 0x687 JUMPI PUSH1 0x3 SLOAD SWAP2 DUP3 DUP1 DUP3 GT ISZERO PUSH2 0x677 JUMPI PUSH2 0x630 SWAP2 PUSH2 0xDC7 JUMP JUMPDEST SWAP1 JUMPDEST PUSH2 0x2710 SWAP2 DUP3 DUP2 MUL SWAP3 DUP2 DUP5 DIV EQ SWAP1 ISZERO OR ISZERO PUSH2 0x664 JUMPI POP SWAP1 PUSH2 0x651 SWAP2 PUSH2 0xDA7 JUMP JUMPDEST PUSH1 0x6 SLOAD DUP2 GT ISZERO SWAP1 DUP3 MLOAD SWAP2 DUP3 MSTORE PUSH1 0x20 DUP3 ADD MSTORE RETURN JUMPDEST PUSH4 0x4E487B71 PUSH1 0xE0 SHL DUP2 MSTORE PUSH1 0x11 DUP6 MSTORE PUSH1 0x24 SWAP1 REVERT JUMPDEST SWAP1 PUSH2 0x681 SWAP2 PUSH2 0xDC7 JUMP JUMPDEST SWAP1 PUSH2 0x632 JUMP JUMPDEST PUSH4 0x4E487B71 PUSH1 0xE0 SHL DUP2 MSTORE PUSH1 0x11 DUP5 MSTORE PUSH1 0x24 SWAP1 REVERT JUMPDEST PUSH4 0x4E487B71 PUSH1 0xE0 SHL DUP4 MSTORE PUSH1 0x11 DUP6 MSTORE PUSH1 0x24 DUP4 REVERT JUMPDEST DUP4 MLOAD PUSH3 0x461BCD PUSH1 0xE5 SHL DUP2 MSTORE PUSH1 0x20 DUP2 DUP8 ADD MSTORE PUSH1 0x18 PUSH1 0x24 DUP3 ADD MSTORE PUSH32 0x4F7261636C653A207A65726F205553444320616D6F756E740000000000000000 PUSH1 0x44 DUP3 ADD MSTORE PUSH1 0x64 SWAP1 REVERT JUMPDEST DUP4 MLOAD PUSH3 0x461BCD PUSH1 0xE5 SHL DUP2 MSTORE PUSH1 0x20 DUP2 DUP8 ADD MSTORE PUSH1 0x18 PUSH1 0x24 DUP3 ADD MSTORE PUSH32 0x4F7261636C653A207A65726F204455535420616D6F756E740000000000000000 PUSH1 0x44 DUP3 ADD MSTORE PUSH1 0x64 SWAP1 REVERT JUMPDEST DUP4 DUP3 CALLVALUE PUSH2 0x37E JUMPI DUP2 PUSH1 0x3 NOT CALLDATASIZE ADD SLT PUSH2 0x37E JUMPI PUSH1 0x20 SWAP1 PUSH1 0x3 SLOAD SWAP1 MLOAD SWAP1 DUP2 MSTORE RETURN JUMPDEST DUP4 DUP3 CALLVALUE PUSH2 0x37E JUMPI DUP2 PUSH1 0x3 NOT CALLDATASIZE ADD SLT PUSH2 0x37E JUMPI MLOAD SWAP1 DUP2 MSTORE PUSH1 0x20 SWAP1 RETURN JUMPDEST POP SWAP2 CALLVALUE PUSH2 0x516 JUMPI DUP1 PUSH1 0x3 NOT CALLDATASIZE ADD SLT PUSH2 0x516 JUMPI PUSH1 0x2 SLOAD DUP4 MLOAD PUSH4 0x3FABE5A3 PUSH1 0xE2 SHL DUP2 MSTORE SWAP3 SWAP2 SWAP1 PUSH1 0xA0 SWAP1 DUP5 SWAP1 DUP5 SWAP1 DUP3 SWAP1 PUSH1 0x1 PUSH1 0x1 PUSH1 0xA0 SHL SUB AND GAS STATICCALL SWAP1 DUP2 ISZERO PUSH2 0x50B JUMPI DUP1 SWAP4 DUP2 SWAP3 PUSH2 0x861 JUMPI JUMPDEST POP DUP4 SGT ISZERO PUSH2 0x81E JUMPI PUSH2 0x7CB PUSH3 0x15180 SWAP2 TIMESTAMP PUSH2 0xDC7 JUMP JUMPDEST LT ISZERO PUSH2 0x7DB JUMPI POP PUSH1 0x20 SWAP2 MLOAD SWAP1 DUP2 MSTORE RETURN JUMPDEST PUSH1 0x64 SWAP1 PUSH1 0x20 DUP5 MLOAD SWAP2 PUSH3 0x461BCD PUSH1 0xE5 SHL DUP4 MSTORE DUP3 ADD MSTORE PUSH1 0x17 PUSH1 0x24 DUP3 ADD MSTORE PUSH32 0x4F7261636C653A20455448207072696365207374616C65000000000000000000 PUSH1 0x44 DUP3 ADD MSTORE REVERT JUMPDEST DUP4 MLOAD PUSH3 0x461BCD PUSH1 0xE5 SHL DUP2 MSTORE PUSH1 0x20 DUP2 DUP5 ADD MSTORE PUSH1 0x19 PUSH1 0x24 DUP3 ADD MSTORE PUSH32 0x4F7261636C653A20696E76616C69642045544820707269636500000000000000 PUSH1 0x44 DUP3 ADD MSTORE PUSH1 0x64 SWAP1 REVERT JUMPDEST SWAP1 SWAP4 POP PUSH2 0x87D SWAP2 POP PUSH1 0xA0 RETURNDATASIZE PUSH1 0xA0 GT PUSH2 0x504 JUMPI PUSH2 0x4EF DUP2 DUP4 PUSH2 0xDF4 JUMP JUMPDEST POP SWAP5 SWAP3 POP POP SWAP3 SWAP1 CODESIZE PUSH2 0x7B5 JUMP JUMPDEST POP SWAP1 CALLVALUE PUSH2 0x35B JUMPI DUP2 PUSH1 0x3 NOT CALLDATASIZE ADD SLT PUSH2 0x35B JUMPI DUP2 PUSH1 0x20 SWAP4 PUSH1 0xFF SWAP3 PUSH2 0x8AB PUSH2 0xD26 JUMP JUMPDEST SWAP1 CALLDATALOAD DUP3 MSTORE DUP2 DUP7 MSTORE DUP3 DUP3 KECCAK256 PUSH1 0x1 PUSH1 0x1 PUSH1 0xA0 SHL SUB SWAP1 SWAP2 AND DUP3 MSTORE DUP6 MSTORE KECCAK256 SLOAD SWAP2 MLOAD SWAP2 AND ISZERO ISZERO DUP2 MSTORE RETURN JUMPDEST DUP4 DUP3 CALLVALUE PUSH2 0x37E JUMPI DUP2 PUSH1 0x3 NOT CALLDATASIZE ADD SLT PUSH2 0x37E JUMPI PUSH1 0x2 SLOAD SWAP1 MLOAD PUSH1 0x1 PUSH1 0x1 PUSH1 0xA0 SHL SUB SWAP1 SWAP2 AND DUP2 MSTORE PUSH1 0x20 SWAP1 RETURN JUMPDEST POP DUP3 CALLVALUE PUSH2 0x516 JUMPI DUP1 PUSH1 0x3 NOT CALLDATASIZE ADD SLT PUSH2 0x516 JUMPI POP PUSH1 0x3 SLOAD PUSH2 0x917 PUSH2 0xDD4 JUMP JUMPDEST ISZERO DUP3 MLOAD SWAP2 DUP3 MSTORE PUSH1 0x20 DUP3 ADD MSTORE RETURN JUMPDEST DUP4 DUP3 CALLVALUE PUSH2 0x37E JUMPI DUP2 PUSH1 0x3 NOT CALLDATASIZE ADD SLT PUSH2 0x37E JUMPI PUSH1 0x20 SWAP1 PUSH1 0x5 SLOAD SWAP1 MLOAD SWAP1 DUP2 MSTORE RETURN JUMPDEST DUP4 DUP3 CALLVALUE PUSH2 0x37E JUMPI DUP2 PUSH1 0x3 NOT CALLDATASIZE ADD SLT PUSH2 0x37E JUMPI PUSH1 0x20 SWAP1 MLOAD PUSH32 0xA49807205CE4D355092EF5A8A18F56E8913CF4A201FBE287825B095693C21775 DUP2 MSTORE RETURN JUMPDEST DUP4 DUP3 CALLVALUE PUSH2 0x37E JUMPI DUP2 PUSH1 0x3 NOT CALLDATASIZE ADD SLT PUSH2 0x37E JUMPI PUSH1 0x1 SLOAD SWAP1 MLOAD PUSH1 0x1 PUSH1 0x1 PUSH1 0xA0 SHL SUB SWAP1 SWAP2 AND DUP2 MSTORE PUSH1 0x20 SWAP1 RETURN JUMPDEST POP CALLVALUE PUSH2 0x35B JUMPI PUSH1 0x20 DUP1 PUSH1 0x3 NOT CALLDATASIZE ADD SLT PUSH2 0xADC JUMPI DUP3 CALLDATALOAD SWAP3 PUSH32 0x73E573F9566D61418A34D5DE3FF49360F9C51FEC37F7486551670290F6285DAB DUP1 DUP7 MSTORE DUP6 DUP4 MSTORE DUP4 DUP7 KECCAK256 CALLER DUP8 MSTORE DUP4 MSTORE PUSH1 0xFF DUP5 DUP8 KECCAK256 SLOAD AND ISZERO PUSH2 0xABF JUMPI POP PUSH1 0x7 SLOAD DUP5 LT PUSH2 0xA86 JUMPI PUSH1 0x8 SLOAD DUP5 GT PUSH2 0xA4C JUMPI SWAP2 DUP4 SWAP2 PUSH1 0x60 SWAP4 PUSH32 0x378B09391F49D01E482BA75312341912AD0652CB8AA8799B6B33B624BD65D9F2 SWAP6 PUSH1 0x3 SSTORE TIMESTAMP SWAP1 SSTORE DUP2 MLOAD SWAP3 DUP4 MSTORE TIMESTAMP SWAP1 DUP4 ADD MSTORE CALLER SWAP1 DUP3 ADD MSTORE LOG1 DUP1 RETURN JUMPDEST SWAP2 MLOAD PUSH3 0x461BCD PUSH1 0xE5 SHL DUP2 MSTORE SWAP2 DUP3 ADD MSTORE PUSH1 0x16 PUSH1 0x24 DUP3 ADD MSTORE PUSH22 0x9EE4C2C6D8CA7440E0E4D2C6CA40E8DEDE40D0D2CED PUSH1 0x53 SHL PUSH1 0x44 DUP3 ADD MSTORE PUSH1 0x64 SWAP1 REVERT JUMPDEST SWAP2 MLOAD PUSH3 0x461BCD PUSH1 0xE5 SHL DUP2 MSTORE SWAP2 DUP3 ADD MSTORE PUSH1 0x15 PUSH1 0x24 DUP3 ADD MSTORE PUSH21 0x4F7261636C653A20707269636520746F6F206C6F77 PUSH1 0x58 SHL PUSH1 0x44 DUP3 ADD MSTORE PUSH1 0x64 SWAP1 REVERT JUMPDEST PUSH1 0x44 SWAP3 POP DUP4 MLOAD SWAP2 PUSH4 0xE2517D3F PUSH1 0xE0 SHL DUP4 MSTORE CALLER SWAP1 DUP4 ADD MSTORE PUSH1 0x24 DUP3 ADD MSTORE REVERT JUMPDEST DUP4 DUP1 REVERT JUMPDEST DUP4 DUP3 CALLVALUE PUSH2 0x37E JUMPI DUP2 PUSH1 0x3 NOT CALLDATASIZE ADD SLT PUSH2 0x37E JUMPI PUSH1 0x20 SWAP1 MLOAD PUSH32 0x73E573F9566D61418A34D5DE3FF49360F9C51FEC37F7486551670290F6285DAB DUP2 MSTORE RETURN JUMPDEST POP DUP3 SWAP1 CALLVALUE PUSH2 0x37E JUMPI DUP1 PUSH1 0x3 NOT CALLDATASIZE ADD SLT PUSH2 0x37E JUMPI PUSH2 0xB36 PUSH2 0xD26 JUMP JUMPDEST SWAP1 CALLER PUSH1 0x1 PUSH1 0x1 PUSH1 0xA0 SHL SUB DUP4 AND SUB PUSH2 0xB53 JUMPI POP PUSH2 0x3DA SWAP2 SWAP3 CALLDATALOAD PUSH2 0xF96 JUMP JUMPDEST MLOAD PUSH4 0x334BD919 PUSH1 0xE1 SHL DUP2 MSTORE DUP4 SWAP1 REVERT JUMPDEST DUP4 DUP3 CALLVALUE PUSH2 0x37E JUMPI DUP2 PUSH1 0x3 NOT CALLDATASIZE ADD SLT PUSH2 0x37E JUMPI PUSH1 0x20 SWAP1 PUSH2 0xB7F PUSH2 0xDD4 JUMP JUMPDEST SWAP1 MLOAD SWAP1 ISZERO ISZERO DUP2 MSTORE RETURN JUMPDEST POP CALLVALUE PUSH2 0x35B JUMPI DUP1 PUSH1 0x3 NOT CALLDATASIZE ADD SLT PUSH2 0x35B JUMPI PUSH2 0x3DA SWAP2 CALLDATALOAD PUSH2 0xBAB PUSH1 0x1 PUSH2 0x3C4 PUSH2 0xD26 JUMP JUMPDEST PUSH2 0xF18 JUMP JUMPDEST DUP4 DUP3 CALLVALUE PUSH2 0x37E JUMPI DUP2 PUSH1 0x3 NOT CALLDATASIZE ADD SLT PUSH2 0x37E JUMPI PUSH1 0x20 SWAP1 PUSH1 0x6 SLOAD SWAP1 MLOAD SWAP1 DUP2 MSTORE RETURN JUMPDEST POP SWAP1 CALLVALUE PUSH2 0x35B JUMPI PUSH1 0x20 CALLDATASIZE PUSH1 0x3 NOT ADD SLT PUSH2 0x35B JUMPI DUP2 PUSH1 0x20 SWAP4 PUSH1 0x1 SWAP3 CALLDATALOAD DUP2 MSTORE DUP1 DUP6 MSTORE KECCAK256 ADD SLOAD SWAP1 MLOAD SWAP1 DUP2 MSTORE RETURN JUMPDEST POP DUP3 CALLVALUE PUSH2 0x516 JUMPI PUSH2 0xC09 CALLDATASIZE PUSH2 0xD0B JUMP JUMPDEST SWAP2 SWAP1 PUSH2 0xC16 PUSH2 0x5DE PUSH2 0xDD4 JUMP JUMPDEST PUSH2 0x3E8 DUP4 GT PUSH2 0xC74 JUMPI PUSH2 0xC35 PUSH8 0xDE0B6B3A7640000 SWAP2 PUSH1 0x3 SLOAD SWAP1 PUSH2 0xD7E JUMP JUMPDEST DIV PUSH2 0x2710 SWAP3 DUP4 SUB SWAP2 DUP4 DUP4 GT PUSH2 0xC61 JUMPI PUSH1 0x20 DUP6 PUSH5 0xE8D4A51000 DUP7 PUSH2 0xC58 DUP8 DUP8 PUSH2 0xD7E JUMP JUMPDEST DIV DIV SWAP1 MLOAD SWAP1 DUP2 MSTORE RETURN JUMPDEST PUSH4 0x4E487B71 PUSH1 0xE0 SHL DUP2 MSTORE PUSH1 0x11 DUP7 MSTORE PUSH1 0x24 SWAP1 REVERT JUMPDEST DUP4 MLOAD PUSH3 0x461BCD PUSH1 0xE5 SHL DUP2 MSTORE PUSH1 0x20 DUP2 DUP8 ADD MSTORE PUSH1 0x19 PUSH1 0x24 DUP3 ADD MSTORE PUSH32 0x4F7261636C653A20736C69707061676520746F6F206869676800000000000000 PUSH1 0x44 DUP3 ADD MSTORE PUSH1 0x64 SWAP1 REVERT JUMPDEST DUP5 SWAP1 DUP5 CALLVALUE PUSH2 0x35B JUMPI PUSH1 0x20 CALLDATASIZE PUSH1 0x3 NOT ADD SLT PUSH2 0x35B JUMPI CALLDATALOAD PUSH4 0xFFFFFFFF PUSH1 0xE0 SHL DUP2 AND DUP1 SWAP2 SUB PUSH2 0x35B JUMPI PUSH1 0x20 SWAP3 POP PUSH4 0x7965DB0B PUSH1 0xE0 SHL DUP2 EQ SWAP1 DUP2 ISZERO PUSH2 0xCFA JUMPI JUMPDEST POP ISZERO ISZERO DUP2 MSTORE RETURN JUMPDEST PUSH4 0x1FFC9A7 PUSH1 0xE0 SHL EQ SWAP1 POP DUP4 PUSH2 0xCF3 JUMP JUMPDEST PUSH1 0x40 SWAP1 PUSH1 0x3 NOT ADD SLT PUSH2 0xD21 JUMPI PUSH1 0x4 CALLDATALOAD SWAP1 PUSH1 0x24 CALLDATALOAD SWAP1 JUMP JUMPDEST PUSH1 0x0 DUP1 REVERT JUMPDEST PUSH1 0x24 CALLDATALOAD SWAP1 PUSH1 0x1 PUSH1 0x1 PUSH1 0xA0 SHL SUB DUP3 AND DUP3 SUB PUSH2 0xD21 JUMPI JUMP JUMPDEST ISZERO PUSH2 0xD43 JUMPI JUMP JUMPDEST PUSH1 0x40 MLOAD PUSH3 0x461BCD PUSH1 0xE5 SHL DUP2 MSTORE PUSH1 0x20 PUSH1 0x4 DUP3 ADD MSTORE PUSH1 0x13 PUSH1 0x24 DUP3 ADD MSTORE PUSH19 0x4F7261636C653A207072696365207374616C65 PUSH1 0x68 SHL PUSH1 0x44 DUP3 ADD MSTORE PUSH1 0x64 SWAP1 REVERT JUMPDEST DUP2 DUP2 MUL SWAP3 SWAP2 DUP2 ISZERO SWAP2 DUP5 DIV EQ OR ISZERO PUSH2 0xD91 JUMPI JUMP JUMPDEST PUSH4 0x4E487B71 PUSH1 0xE0 SHL PUSH1 0x0 MSTORE PUSH1 0x11 PUSH1 0x4 MSTORE PUSH1 0x24 PUSH1 0x0 REVERT JUMPDEST DUP2 ISZERO PUSH2 0xDB1 JUMPI DIV SWAP1 JUMP JUMPDEST PUSH4 0x4E487B71 PUSH1 0xE0 SHL PUSH1 0x0 MSTORE PUSH1 0x12 PUSH1 0x4 MSTORE PUSH1 0x24 PUSH1 0x0 REVERT JUMPDEST SWAP2 SWAP1 DUP3 SUB SWAP2 DUP3 GT PUSH2 0xD91 JUMPI JUMP JUMPDEST PUSH1 0x4 SLOAD DUP1 ISZERO PUSH2 0xDEE JUMPI PUSH1 0x5 SLOAD DUP2 ADD DUP1 SWAP2 GT PUSH2 0xD91 JUMPI TIMESTAMP GT SWAP1 JUMP JUMPDEST POP PUSH1 0x1 SWAP1 JUMP JUMPDEST SWAP1 PUSH1 0x1F DUP1 NOT SWAP2 ADD AND DUP2 ADD SWAP1 DUP2 LT PUSH8 0xFFFFFFFFFFFFFFFF DUP3 GT OR PUSH2 0xE16 JUMPI PUSH1 0x40 MSTORE JUMP JUMPDEST PUSH4 0x4E487B71 PUSH1 0xE0 SHL PUSH1 0x0 MSTORE PUSH1 0x41 PUSH1 0x4 MSTORE PUSH1 0x24 PUSH1 0x0 REVERT JUMPDEST MLOAD SWAP1 PUSH10 0xFFFFFFFFFFFFFFFFFFFF DUP3 AND DUP3 SUB PUSH2 0xD21 JUMPI JUMP JUMPDEST SWAP1 DUP2 PUSH1 0xA0 SWAP2 SUB SLT PUSH2 0xD21 JUMPI PUSH2 0xE57 DUP2 PUSH2 0xE2C JUMP JUMPDEST SWAP2 PUSH1 0x20 DUP3 ADD MLOAD SWAP2 PUSH1 0x40 DUP2 ADD MLOAD SWAP2 PUSH2 0xE75 PUSH1 0x80 PUSH1 0x60 DUP5 ADD MLOAD SWAP4 ADD PUSH2 0xE2C JUMP JUMPDEST SWAP1 JUMP JUMPDEST CALLER PUSH1 0x0 SWAP1 DUP2 MSTORE PUSH32 0x7D7FFB7A348E1C6A02869081A26547B49160DD3DF72D1D75A570EB9B698292EC PUSH1 0x20 MSTORE PUSH1 0x40 SWAP1 KECCAK256 SLOAD PUSH32 0xA49807205CE4D355092EF5A8A18F56E8913CF4A201FBE287825B095693C21775 SWAP1 PUSH1 0xFF AND ISZERO PUSH2 0xED4 JUMPI POP JUMP JUMPDEST PUSH1 0x44 SWAP1 PUSH1 0x40 MLOAD SWAP1 PUSH4 0xE2517D3F PUSH1 0xE0 SHL DUP3 MSTORE CALLER PUSH1 0x4 DUP4 ADD MSTORE PUSH1 0x24 DUP3 ADD MSTORE REVERT JUMPDEST DUP1 PUSH1 0x0 MSTORE PUSH1 0x0 PUSH1 0x20 MSTORE PUSH1 0x40 PUSH1 0x0 KECCAK256 CALLER PUSH1 0x0 MSTORE PUSH1 0x20 MSTORE PUSH1 0xFF PUSH1 0x40 PUSH1 0x0 KECCAK256 SLOAD AND ISZERO PUSH2 0xED4 JUMPI POP JUMP JUMPDEST SWAP1 PUSH1 0x0 SWAP2 DUP1 DUP4 MSTORE DUP3 PUSH1 0x20 MSTORE PUSH1 0x40 DUP4 KECCAK256 SWAP2 PUSH1 0x1 DUP1 PUSH1 0xA0 SHL SUB AND SWAP2 DUP3 DUP5 MSTORE PUSH1 0x20 MSTORE PUSH1 0xFF PUSH1 0x40 DUP5 KECCAK256 SLOAD AND ISZERO PUSH1 0x0 EQ PUSH2 0xF91 JUMPI DUP1 DUP4 MSTORE DUP3 PUSH1 0x20 MSTORE PUSH1 0x40 DUP4 KECCAK256 DUP3 DUP5 MSTORE PUSH1 0x20 MSTORE PUSH1 0x40 DUP4 KECCAK256 PUSH1 0x1 PUSH1 0xFF NOT DUP3 SLOAD AND OR SWAP1 SSTORE PUSH32 0x2F8788117E7EFF1D82E926EC794901D17C78024A50270940304540A733656F0D CALLER SWAP4 DUP1 LOG4 PUSH1 0x1 SWAP1 JUMP JUMPDEST POP POP SWAP1 JUMP JUMPDEST SWAP1 PUSH1 0x0 SWAP2 DUP1 DUP4 MSTORE DUP3 PUSH1 0x20 MSTORE PUSH1 0x40 DUP4 KECCAK256 SWAP2 PUSH1 0x1 DUP1 PUSH1 0xA0 SHL SUB AND SWAP2 DUP3 DUP5 MSTORE PUSH1 0x20 MSTORE PUSH1 0xFF PUSH1 0x40 DUP5 KECCAK256 SLOAD AND PUSH1 0x0 EQ PUSH2 0xF91 JUMPI DUP1 DUP4 MSTORE DUP3 PUSH1 0x20 MSTORE PUSH1 0x40 DUP4 KECCAK256 DUP3 DUP5 MSTORE PUSH1 0x20 MSTORE PUSH1 0x40 DUP4 KECCAK256 PUSH1 0xFF NOT DUP2 SLOAD AND SWAP1 SSTORE PUSH32 0xF6391F5C32D9C69D2A47EA670B442974B53935D1EDC7FD64EB21E047A839171B CALLER SWAP4 DUP1 LOG4 PUSH1 0x1 SWAP1 JUMP INVALID LOG2 PUSH5 0x6970667358 0x22 SLT KECCAK256 0x21 0xB3 SWAP14 PREVRANDAO BASEFEE LOG1 0xC8 PUSH10 0x7076262CD7A85381B1FC 0xAB JUMPI CREATE2 MSIZE 0xC8 MSIZE 0xD2 0x4E 0x28 EXTCODESIZE PUSH15 0x1DC76564736F6C634300081800332F DUP8 DUP9 GT PUSH31 0x7EFF1D82E926EC794901D17C78024A50270940304540A733656F0D00000000 "},"methodIdentifiers":{"ADMIN_ROLE()":"75b238fc","DEFAULT_ADMIN_ROLE()":"a217fddf","UPDATER_ROLE()":"47e63380","dustUsdcPrice()":"c26d33bf","ethUsdFeed()":"8009b7bd","getDustPrice()":"7aaf8ab5","getEthUsdPrice()":"a0a8045e","getMinUsdcOut(uint256,uint256)":"205dbfda","getRoleAdmin(bytes32)":"248a9ca3","getUsdcUsdPrice()":"cdb4aef0","grantRole(bytes32,address)":"2f2ff15d","hasRole(bytes32,address)":"91d14854","isPriceStale()":"2f5df725","lastUpdateTime()":"c8f33c91","maxDeviation()":"2a1bab73","maxPrice()":"e38d6b5c","minPrice()":"e45be8eb","priceStaleThreshold()":"780320c2","renounceRole(bytes32,address)":"36568abe","revokeRole(bytes32,address)":"d547741f","setConfig(uint256,uint256,uint256,uint256)":"e5c389cd","supportsInterface(bytes4)":"01ffc9a7","updateDustPrice(uint256)":"49f1d8bd","updatePriceFeeds(address,address)":"ca3f9cd0","usdcUsdFeed()":"4d9a75e5","validateSwapPrice(uint256,uint256)":"c7aa1053"}}}}}