{"src/StardustVaultRouter.sol":{"StardustVaultRouter":{"abi":[{"inputs":[{"internalType":"address","name":"_dust","type":"address"},{"internalType":"address","name":"_usdc","type":"address"},{"internalType":"address","name":"_vault","type":"address"},{"internalType":"address","name":"_uniswapRouter","type":"address"},{"internalType":"address","name":"_priceOracle","type":"address"}],"stateMutability":"nonpayable","type":"constructor"},{"inputs":[],"name":"AccessControlBadConfirmation","type":"error"},{"inputs":[{"internalType":"address","name":"account","type":"address"},{"internalType":"bytes32","name":"neededRole","type":"bytes32"}],"name":"AccessControlUnauthorizedAccount","type":"error"},{"inputs":[],"name":"EnforcedPause","type":"error"},{"inputs":[],"name":"ExpectedPause","type":"error"},{"inputs":[],"name":"ReentrancyGuardReentrantCall","type":"error"},{"anonymous":false,"inputs":[{"indexed":true,"internalType":"address","name":"user","type":"address"},{"indexed":false,"internalType":"uint256","name":"dustAmount","type":"uint256"},{"indexed":false,"internalType":"uint256","name":"usdcAmount","type":"uint256"},{"indexed":false,"internalType":"uint256","name":"sharesIssued","type":"uint256"}],"name":"DepositedWithDUST","type":"event"},{"anonymous":false,"inputs":[{"indexed":false,"internalType":"uint256","name":"maxSlippage","type":"uint256"},{"indexed":false,"internalType":"uint256","name":"minSwapAmount","type":"uint256"}],"name":"ParametersUpdated","type":"event"},{"anonymous":false,"inputs":[{"indexed":false,"internalType":"address","name":"account","type":"address"}],"name":"Paused","type":"event"},{"anonymous":false,"inputs":[{"indexed":true,"internalType":"bytes32","name":"role","type":"bytes32"},{"indexed":true,"internalType":"bytes32","name":"previousAdminRole","type":"bytes32"},{"indexed":true,"internalType":"bytes32","name":"newAdminRole","type":"bytes32"}],"name":"RoleAdminChanged","type":"event"},{"anonymous":false,"inputs":[{"indexed":true,"internalType":"bytes32","name":"role","type":"bytes32"},{"indexed":true,"internalType":"address","name":"account","type":"address"},{"indexed":true,"internalType":"address","name":"sender","type":"address"}],"name":"RoleGranted","type":"event"},{"anonymous":false,"inputs":[{"indexed":true,"internalType":"bytes32","name":"role","type":"bytes32"},{"indexed":true,"internalType":"address","name":"account","type":"address"},{"indexed":true,"internalType":"address","name":"sender","type":"address"}],"name":"RoleRevoked","type":"event"},{"anonymous":false,"inputs":[{"indexed":false,"internalType":"address","name":"account","type":"address"}],"name":"Unpaused","type":"event"},{"anonymous":false,"inputs":[{"indexed":true,"internalType":"address","name":"user","type":"address"},{"indexed":false,"internalType":"uint256","name":"sharesRedeemed","type":"uint256"},{"indexed":false,"internalType":"uint256","name":"usdcAmount","type":"uint256"},{"indexed":false,"internalType":"uint256","name":"dustAmount","type":"uint256"}],"name":"WithdrawnToDUST","type":"event"},{"inputs":[],"name":"DEFAULT_ADMIN_ROLE","outputs":[{"internalType":"bytes32","name":"","type":"bytes32"}],"stateMutability":"view","type":"function"},{"inputs":[],"name":"PAUSER_ROLE","outputs":[{"internalType":"bytes32","name":"","type":"bytes32"}],"stateMutability":"view","type":"function"},{"inputs":[],"name":"POOL_FEE","outputs":[{"internalType":"uint24","name":"","type":"uint24"}],"stateMutability":"view","type":"function"},{"inputs":[{"internalType":"uint256","name":"dustAmount","type":"uint256"},{"internalType":"uint256","name":"minUsdcOut","type":"uint256"}],"name":"depositWithDUST","outputs":[{"internalType":"uint256","name":"sharesIssued","type":"uint256"}],"stateMutability":"nonpayable","type":"function"},{"inputs":[],"name":"dust","outputs":[{"internalType":"contract IERC20","name":"","type":"address"}],"stateMutability":"view","type":"function"},{"inputs":[{"internalType":"address","name":"token","type":"address"},{"internalType":"address","name":"to","type":"address"},{"internalType":"uint256","name":"amount","type":"uint256"}],"name":"emergencyWithdraw","outputs":[],"stateMutability":"nonpayable","type":"function"},{"inputs":[{"internalType":"bytes32","name":"role","type":"bytes32"}],"name":"getRoleAdmin","outputs":[{"internalType":"bytes32","name":"","type":"bytes32"}],"stateMutability":"view","type":"function"},{"inputs":[],"name":"getRouterStats","outputs":[{"internalType":"uint256","name":"totalDustDeposited_","type":"uint256"},{"internalType":"uint256","name":"totalDustWithdrawn_","type":"uint256"},{"internalType":"uint256","name":"netDustFlow_","type":"uint256"},{"internalType":"uint256","name":"totalUsdcSwapped_","type":"uint256"},{"internalType":"uint256","name":"transactionCount_","type":"uint256"}],"stateMutability":"view","type":"function"},{"inputs":[{"internalType":"bytes32","name":"role","type":"bytes32"},{"internalType":"address","name":"account","type":"address"}],"name":"grantRole","outputs":[],"stateMutability":"nonpayable","type":"function"},{"inputs":[{"internalType":"bytes32","name":"role","type":"bytes32"},{"internalType":"address","name":"account","type":"address"}],"name":"hasRole","outputs":[{"internalType":"bool","name":"","type":"bool"}],"stateMutability":"view","type":"function"},{"inputs":[],"name":"maxSlippage","outputs":[{"internalType":"uint256","name":"","type":"uint256"}],"stateMutability":"view","type":"function"},{"inputs":[],"name":"minSwapAmount","outputs":[{"internalType":"uint256","name":"","type":"uint256"}],"stateMutability":"view","type":"function"},{"inputs":[],"name":"oracleEnabled","outputs":[{"internalType":"bool","name":"","type":"bool"}],"stateMutability":"view","type":"function"},{"inputs":[],"name":"pause","outputs":[],"stateMutability":"nonpayable","type":"function"},{"inputs":[],"name":"paused","outputs":[{"internalType":"bool","name":"","type":"bool"}],"stateMutability":"view","type":"function"},{"inputs":[],"name":"priceOracle","outputs":[{"internalType":"contract PriceOracle","name":"","type":"address"}],"stateMutability":"view","type":"function"},{"inputs":[{"internalType":"bytes32","name":"role","type":"bytes32"},{"internalType":"address","name":"callerConfirmation","type":"address"}],"name":"renounceRole","outputs":[],"stateMutability":"nonpayable","type":"function"},{"inputs":[{"internalType":"bytes32","name":"role","type":"bytes32"},{"internalType":"address","name":"account","type":"address"}],"name":"revokeRole","outputs":[],"stateMutability":"nonpayable","type":"function"},{"inputs":[{"internalType":"bool","name":"_enabled","type":"bool"}],"name":"setOracleEnabled","outputs":[],"stateMutability":"nonpayable","type":"function"},{"inputs":[{"internalType":"uint256","name":"_maxSlippage","type":"uint256"},{"internalType":"uint256","name":"_minSwapAmount","type":"uint256"}],"name":"setParameters","outputs":[],"stateMutability":"nonpayable","type":"function"},{"inputs":[{"internalType":"address","name":"_priceOracle","type":"address"}],"name":"setPriceOracle","outputs":[],"stateMutability":"nonpayable","type":"function"},{"inputs":[],"name":"stats","outputs":[{"internalType":"uint256","name":"totalDustDeposited","type":"uint256"},{"internalType":"uint256","name":"totalDustWithdrawn","type":"uint256"},{"internalType":"uint256","name":"totalUsdcSwapped","type":"uint256"},{"internalType":"uint256","name":"transactionCount","type":"uint256"}],"stateMutability":"view","type":"function"},{"inputs":[{"internalType":"bytes4","name":"interfaceId","type":"bytes4"}],"name":"supportsInterface","outputs":[{"internalType":"bool","name":"","type":"bool"}],"stateMutability":"view","type":"function"},{"inputs":[],"name":"uniswapRouter","outputs":[{"internalType":"contract ISwapRouter","name":"","type":"address"}],"stateMutability":"view","type":"function"},{"inputs":[],"name":"unpause","outputs":[],"stateMutability":"nonpayable","type":"function"},{"inputs":[],"name":"usdc","outputs":[{"internalType":"contract IERC20","name":"","type":"address"}],"stateMutability":"view","type":"function"},{"inputs":[],"name":"vault","outputs":[{"internalType":"contract StardustTradingVault","name":"","type":"address"}],"stateMutability":"view","type":"function"},{"inputs":[{"internalType":"uint256","name":"stUsdcAmount","type":"uint256"},{"internalType":"uint256","name":"minDustOut","type":"uint256"}],"name":"withdrawToDUST","outputs":[{"internalType":"uint256","name":"dustAmount","type":"uint256"}],"stateMutability":"nonpayable","type":"function"},{"inputs":[{"internalType":"uint256","name":"stUsdcAmount","type":"uint256"},{"internalType":"uint256","name":"minUsdcOut","type":"uint256"},{"internalType":"uint256","name":"minDustOut","type":"uint256"}],"name":"withdrawToDUSTLegacy","outputs":[{"internalType":"uint256","name":"dustAmount","type":"uint256"}],"stateMutability":"nonpayable","type":"function"}],"evm":{"bytecode":{"linkReferences":{},"object":"610100604090808252346200042c5760a08162002277803803809162000026828562000431565b8339810103126200042c576200003c816200046b565b6020916200004c8382016200046b565b916200005a8583016200046b565b906200007760806200006f606086016200046b565b94016200046b565b6001805560ff60a81b196002541690600160a81b9182811760025561012c600355600494678ac7230489e80000865560018060a01b03809516978815620003f5578516908115620003be57851696871562000386578516978815620003435760805260a05260c086905260e08790528184161562000337575060028054610100600160b01b03191660089290921b610100600160a81b0316919091179190911790555b62000125336200049a565b5062000131336200051a565b50806080511692865163095ea7b360e01b9283825286858301526000199182602482015288816044816000809b5af180156200030b5762000315575b5085888260a0511660448c51809481938a8352898c8401528860248401525af180156200030b579189918893620002e9575b5060a0511660448b51809481938983528c8b8401528760248401525af18015620002df5792889594928792604495620002bd575b508a519889968795865285015260248401525af1908115620002b257506200027d575b8251611c9a9081620005bd82396080518181816101be0152818161062701528181610ec7015261130f015260a05181818161054201528181610d5501528181610f11015261137d015260c051818181610177015281816104f701528181610e700152611466015260e0518181816105b801528181610be70152818161101a01526113e20152f35b81620002a192903d10620002aa575b62000298818362000431565b81019062000480565b503880620001f6565b503d6200028c565b8451903d90823e3d90fd5b620002d790883d8a11620002aa5762000298818362000431565b5038620001d3565b89513d88823e3d90fd5b6200030390833d8511620002aa5762000298818362000431565b50386200019f565b8a513d89823e3d90fd5b6200032f90893d8b11620002aa5762000298818362000431565b50386200016d565b9150506002556200011a565b8a5162461bcd60e51b81528088018b9052601460248201527f526f757465723a207a65726f20556e69737761700000000000000000000000006044820152606490fd5b8a5162461bcd60e51b81528088018b90526012602482015271149bdd5d195c8e881e995c9bc815985d5b1d60721b6044820152606490fd5b8a5162461bcd60e51b81528088018b90526011602482015270526f757465723a207a65726f205553444360781b6044820152606490fd5b8a5162461bcd60e51b81528088018b90526011602482015270149bdd5d195c8e881e995c9bc8111554d5607a1b6044820152606490fd5b600080fd5b601f909101601f19168101906001600160401b038211908210176200045557604052565b634e487b7160e01b600052604160045260246000fd5b51906001600160a01b03821682036200042c57565b908160209103126200042c575180151581036200042c5790565b6001600160a01b031660008181527fad3228b676f7d3cd4284a5443f17f1962b36e491b30a40b2405849e597ba5fb5602052604081205490919060ff166200051657818052816020526040822081835260205260408220600160ff198254161790553391600080516020620022578339815191528180a4600190565b5090565b6001600160a01b031660008181527ff7c9542c591017a21c74b6f3fab6263c7952fc0aaf9db4c22a2a04ddc7f8674f60205260408120549091907f65d7a28e3265b37a6474929f336521b332c1681b933f6cb9f3376673440d862a9060ff16620005b757808352826020526040832082845260205260408320600160ff1982541617905560008051602062002257833981519152339380a4600190565b50509056fe608060408181526004918236101561001657600080fd5b600092833560e01c91826301ffc9a71461168a575081631db447bf146112b5578163248a9ca31461128b5781632630c12f1461125e57816327ecb98614610e125781632f2ff15d14610de8578163338246e214610dca57816336568abe14610d845781633e413bee14610d405781633f4ba83a14610cd6578163530e784f14610c3a5781635c975abb14610c16578163735de9f714610bd2578163756a24e414610bab5781638456cb5914610b50578163884870c714610ab55781638c04166f14610a9657816391d1485414610a505781639c0f201c14610a0a578163a217fddf146109ef578163b837c0ed1461047b578163d146de401461041b578163d547741f146103dc578163d80528ae146103a3578163dd1b9c4a14610386578163e63ab1e91461034b578163e63ea408146101ed57508063fad9aba3146101aa5763fbfa77cf1461016457600080fd5b346101a657816003193601126101a657517f00000000000000000000000000000000000000000000000000000000000000006001600160a01b03168152602090f35b5080fd5b50346101a657816003193601126101a657517f00000000000000000000000000000000000000000000000000000000000000006001600160a01b03168152602090f35b919050346103475760603660031901126103475761020961170e565b6102116116f8565b9061021a611b11565b6001600160a01b03918083161561030d57835163a9059cbb60e01b81526001600160a01b0390911685820190815260443560208281019190915291939192849290918391899183906040010393165af19081156103035784916102c5575b5015610282578280f35b906020606492519162461bcd60e51b8352820152601760248201527f526f757465723a207472616e73666572206661696c65640000000000000000006044820152fd5b90506020813d6020116102fb575b816102e060209383611757565b810103126102f7576102f190611779565b38610278565b8380fd5b3d91506102d3565b82513d86823e3d90fd5b835162461bcd60e51b81526020818701526014602482015273526f757465723a207a65726f206164647265737360601b6044820152606490fd5b8280fd5b5050346101a657816003193601126101a657602090517f65d7a28e3265b37a6474929f336521b332c1681b933f6cb9f3376673440d862a8152f35b5050346101a657816003193601126101a65760209051610bb88152f35b5050346101a657816003193601126101a65760809060055490600654906007549060085492815194855260208501528301526060820152f35b91905034610347578060031936011261034757610417913561041260016104016116f8565b938387528660205286200154611b4b565b611bef565b5080f35b5050346101a657816003193601126101a65760055460065460a0935090918183111561046c5761044b8284611929565b60075491600854938151958652602086015284015260608301526080820152f35b6104768383611929565b61044b565b8383346101a65760603660031901126101a65782359160443560243561049f611936565b6104a7611959565b6104b2851515611804565b80156109ac57908492916104c7821515611846565b84516323b872dd60e01b8152338882019081523060208281019190915260408201989098526001600160a01b03917f0000000000000000000000000000000000000000000000000000000000000000831691899082908190606001038189865af180156109a2578690610968575b61053f9150611892565b817f0000000000000000000000000000000000000000000000000000000000000000169061012c420180421161095557908a6105f29796959493928a519261058684611724565b8352838c840152610bb895868c8501523060608501528160808501528a60a08501528060c08501528860e08501528c867f000000000000000000000000000000000000000000000000000000000000000016948d51809c819263414bf38960e01b978884528301611977565b03818c885af1998a1561094b57899a610918575b506106128a15156119de565b89106108d757918493918c9d959361068f9d947f000000000000000000000000000000000000000000000000000000000000000016978d519461065486611724565b855288868601528d85015230606085015260808401528960a08401528760c08401528860e0840152888c51809e819582948352898301611977565b03925af198891561088a57908a939291869a6108a2575b50908992916106b68415156119de565b8960025460ff8160a81c1680610894575b610804575b5050506106de61070b958410156118de565b885163a9059cbb60e01b815233918101918252602082019390935291938492839187918391604090910190565b03925af19182156107f95790818793610797575b50509161074c7fdfef462da6d7e712f2e69fd1113692d86e3a91dcacfaf88e85e2111074e417a393611786565b610758826006546117d2565b600655610767816007546117d2565b6007556107756008546117f5565b6008558451938452602084015260408301523391606090a26001805551908152f35b915091508682813d83116107f2575b6107b08183611757565b810103126107ef57507fdfef462da6d7e712f2e69fd1113692d86e3a91dcacfaf88e85e2111074e417a39161074c6107e88793611779565b919361071f565b80fd5b503d6107a6565b8551903d90823e3d90fd5b919396948160449294975051948593849263c7aa105360e01b8452898401528b602484015260081c165afa90811561088a57926106de8a9361085361070b97948e978a9161085c575b50611a3d565b9550898d6106cc565b61087c91508d803d10610883575b6108748183611757565b810190611a20565b508f61084d565b503d61086a565b88513d87823e3d90fd5b50828160081c1615156106c7565b9199509281813d81116108d0575b6108ba8183611757565b810103126108cc57519789928b6106a6565b8480fd5b503d6108b0565b60648d8d808e519262461bcd60e51b845283015260248201527f526f757465723a20696e73756666696369656e742055534443206f75747075746044820152fd5b9099508c81813d8311610944575b6109308183611757565b810103126109405751988e610606565b8880fd5b503d610926565b8c513d8b823e3d90fd5b634e487b7160e01b875260118b52602487fd5b508881813d831161099b575b61097e8183611757565b810103126109975761099261053f91611779565b610535565b8580fd5b503d610974565b88513d88823e3d90fd5b835162461bcd60e51b8152602081880152601760248201527f526f757465723a206d696e557364634f7574207a65726f0000000000000000006044820152606490fd5b5050346101a657816003193601126101a65751908152602090f35b8390346101a65760203660031901126101a657358015158091036101a657610a30611b11565b6002805460ff60a81b191660a89290921b60ff60a81b1691909117905580f35b9050346103475781600319360112610347578160209360ff92610a716116f8565b903582528186528282206001600160a01b039091168252855220549151911615158152f35b5050346101a657816003193601126101a6576020906003549051908152f35b8383346101a657610ac5366116dd565b610acd611b11565b6103e88211610b0d57807ffaccb0639ff7851e0e24f3b2d9ab03cd62ffb63f5b4d90aaeff85bb078c1fa489495836003555582519182526020820152a180f35b825162461bcd60e51b8152602081870152601960248201527f526f757465723a20736c69707061676520746f6f2068696768000000000000006044820152606490fd5b5050346101a657816003193601126101a65760207f62e78cea01bee320cd4e420270b5ea74000d11b0c9f74754ebdbfc544b05a25891610b8e611a97565b610b96611959565b600160ff19600254161760025551338152a180f35b5050346101a657816003193601126101a65760209060ff60025460a81c1690519015158152f35b5050346101a657816003193601126101a657517f00000000000000000000000000000000000000000000000000000000000000006001600160a01b03168152602090f35b5050346101a657816003193601126101a65760209060ff6002541690519015158152f35b90503461034757602036600319011261034757610c5561170e565b91610c5e611b11565b6001600160a01b03831615610c9d57505060028054610100600160b01b03191660089290921b610100600160a81b031691909117600160a81b17905580f35b906020606492519162461bcd60e51b83528201526013602482015272526f757465723a207a65726f204f7261636c6560681b6044820152fd5b905034610347578260031936011261034757610cf0611a97565b6002549060ff821615610d32575060ff1916600255513381527f5db9ee0a495bf2e6ff9c91a7834c1ba4fdd244a5e8aa4e537bd38aeae4b073aa90602090a180f35b8251638dfc202b60e01b8152fd5b5050346101a657816003193601126101a657517f00000000000000000000000000000000000000000000000000000000000000006001600160a01b03168152602090f35b8383346101a657806003193601126101a657610d9e6116f8565b90336001600160a01b03831603610dbb5750610417919235611bef565b5163334bd91960e11b81528390fd5b90503461034757826003193601126103475760209250549051908152f35b919050346103475780600319360112610347576104179135610e0d60016104016116f8565b611b71565b8383346101a657610e22366116dd565b92610e2b611936565b610e33611959565b610e3e821515611804565b610e49841515611846565b82516323b872dd60e01b8152338187019081523060208281019190915260408201859052967f0000000000000000000000000000000000000000000000000000000000000000969290916001600160a01b039190899082908190606001038188868d165af180156111ba578590611228575b610ec59150611892565b7f0000000000000000000000000000000000000000000000000000000000000000928651976bffffffffffffffffffffffff19809160601b168a8a015261017760eb1b8060348b0152817f000000000000000000000000000000000000000000000000000000000000000060601b1660378b0152604b8a01528460601b16604e89015260428852608088019767ffffffffffffffff90808a10828b11176112155761012c4201918242116112025761012082019081118b8210176111ef57908b92859b928b5281835260a082019130835260c0810191825261010060e08201918c835201918683528c519d8e9563c04b8d5960e01b8752878b880152519460a060248801528c8651968760c48a015289825b8981106111c457505050918795939187959360e4809989010152511660448601525160648501525160848401525160a4830152601f8019910116810103018188867f0000000000000000000000000000000000000000000000000000000000000000165af19788156111ba57859861118b575b50871561114857928892858993611066611091978610156118de565b895163a9059cbb60e01b81523393810193845260208401959095529395869485939091849160400190565b0393165af1801561113e578290611108575b6110ad9150611786565b6110b9846006546117d2565b6006556110c76008546117f5565b60085582519182528482015282828201527fdfef462da6d7e712f2e69fd1113692d86e3a91dcacfaf88e85e2111074e417a360603392a26001805551908152f35b508581813d8311611137575b61111e8183611757565b810103126101a6576111326110ad91611779565b6110a3565b503d611114565b84513d84823e3d90fd5b865162461bcd60e51b81528084018a9052601d60248201527f526f757465723a206d756c74692d686f702073776170206661696c65640000006044820152606490fd5b9097508881813d83116111b3575b6111a38183611757565b810103126108cc5751968961104a565b503d611199565b87513d87823e3d90fd5b829550809350818160e4939698999a9b9c940101519201015201918f96959493928a92898f92610fd7565b634e487b7160e01b885260418652602488fd5b634e487b7160e01b885260118652602488fd5b634e487b7160e01b875260418552602487fd5b508881813d8311611257575b61123e8183611757565b810103126108cc57611252610ec591611779565b610ebb565b503d611234565b5050346101a657816003193601126101a657600254905160089190911c6001600160a01b03168152602090f35b90503461034757602036600319011261034757816020936001923581528085522001549051908152f35b8383346101a6576112c5366116dd565b936112ce611936565b6112d6611959565b8054821061164e5782516323b872dd60e01b8152338183019081523060208281019190915260408201859052966001600160a01b0393927f000000000000000000000000000000000000000000000000000000000000000085169289908290819060600103818b875af1801561164457889061160a575b6113579150611786565b61012c42018042116115f7579188916113dc95949388519261137884611724565b8352857f00000000000000000000000000000000000000000000000000000000000000001684840152610bb88984015230606084015260808301528660a083015260c08201528760e082015286518095819263414bf38960e01b8352858301611977565b038189867f0000000000000000000000000000000000000000000000000000000000000000165af19283156115ed5790879187946115bc575b5083906114238215156119de565b8660025460ff8160a81c16806115ae575b611533575b50516316cc3da360e21b8152339181019182526020820192909252909283918290899082906040015b03927f0000000000000000000000000000000000000000000000000000000000000000165af19485156115285780956114d6575b5050837f16737b8c514bb0bde161519d0cbdbb3176e5835b6175bf3d1254d115dfd37dfa916114c7846005546117d2565b600555610767816007546117d2565b909194508582813d8311611521575b6114ef8183611757565b810103126107ef575051927f16737b8c514bb0bde161519d0cbdbb3176e5835b6175bf3d1254d115dfd37dfa86611496565b503d6114e5565b8451903d90823e3d90fd5b90919350849250604482518094819363c7aa105360e01b83528a8884015289602484015260081c165afa9081156115a45792889261157c8693611462968b916115865750611a3d565b909350868a611439565b61159d91508a3d8c11610883576108748183611757565b508c61084d565b86513d89823e3d90fd5b50858160081c161515611434565b8281939295503d83116115e6575b6115d48183611757565b81010312610997578690519288611415565b503d6115ca565b85513d88823e3d90fd5b634e487b7160e01b885260118452602488fd5b508881813d831161163d575b6116208183611757565b810103126116395761163461135791611779565b61134d565b8780fd5b503d611616565b87513d8a823e3d90fd5b606490602084519162461bcd60e51b83528201526016602482015275526f757465723a20616d6f756e7420746f6f206c6f7760501b6044820152fd5b849134610347576020366003190112610347573563ffffffff60e01b81168091036103475760209250637965db0b60e01b81149081156116cc575b5015158152f35b6301ffc9a760e01b149050836116c5565b60409060031901126116f3576004359060243590565b600080fd5b602435906001600160a01b03821682036116f357565b600435906001600160a01b03821682036116f357565b610100810190811067ffffffffffffffff82111761174157604052565b634e487b7160e01b600052604160045260246000fd5b90601f8019910116810190811067ffffffffffffffff82111761174157604052565b519081151582036116f357565b1561178d57565b60405162461bcd60e51b815260206004820152601c60248201527f526f757465723a2044555354207472616e73666572206661696c6564000000006044820152606490fd5b919082018092116117df57565b634e487b7160e01b600052601160045260246000fd5b60001981146117df5760010190565b1561180b57565b60405162461bcd60e51b8152602060048201526013602482015272149bdd5d195c8e881e995c9bc8185b5bdd5b9d606a1b6044820152606490fd5b1561184d57565b60405162461bcd60e51b815260206004820152601760248201527f526f757465723a206d696e447573744f7574207a65726f0000000000000000006044820152606490fd5b1561189957565b60405162461bcd60e51b815260206004820152601e60248201527f526f757465723a20737455534443207472616e73666572206661696c656400006044820152606490fd5b156118e557565b606460405162461bcd60e51b815260206004820152602060248201527f526f757465723a20696e73756666696369656e742044555354206f75747075746044820152fd5b919082039182116117df57565b600260015414611947576002600155565b604051633ee5aeb560e01b8152600490fd5b60ff6002541661196557565b60405163d93c066560e01b8152600490fd5b91909160e06101008201938160018060a01b039182815116855282602082015116602086015262ffffff60408201511660408601528260608201511660608601526080810151608086015260a081015160a086015260c081015160c0860152015116910152565b156119e557565b60405162461bcd60e51b8152602060048201526013602482015272149bdd5d195c8e881cddd85c0819985a5b1959606a1b6044820152606490fd5b91908260409103126116f3576020611a3783611779565b92015190565b15611a4457565b60405162461bcd60e51b815260206004820152602560248201527f526f757465723a20707269636520646576696174696f6e2065786365656473206044820152641b1a5b5a5d60da1b6064820152608490fd5b3360009081527ff7c9542c591017a21c74b6f3fab6263c7952fc0aaf9db4c22a2a04ddc7f8674f60205260409020547f65d7a28e3265b37a6474929f336521b332c1681b933f6cb9f3376673440d862a9060ff1615611af35750565b6044906040519063e2517d3f60e01b82523360048301526024820152fd5b3360009081527fad3228b676f7d3cd4284a5443f17f1962b36e491b30a40b2405849e597ba5fb5602052604081205460ff1615611af35750565b80600052600060205260406000203360005260205260ff6040600020541615611af35750565b9060009180835282602052604083209160018060a01b03169182845260205260ff60408420541615600014611bea57808352826020526040832082845260205260408320600160ff198254161790557f2f8788117e7eff1d82e926ec794901d17c78024a50270940304540a733656f0d339380a4600190565b505090565b9060009180835282602052604083209160018060a01b03169182845260205260ff604084205416600014611bea5780835282602052604083208284526020526040832060ff1981541690557ff6391f5c32d9c69d2a47ea670b442974b53935d1edc7fd64eb21e047a839171b339380a460019056fea2646970667358221220737d48317a4081f7cf2ccb078f9d37ed04a8712cc5e477245bd34588240def5d64736f6c634300081800332f8788117e7eff1d82e926ec794901d17c78024a50270940304540a733656f0d","opcodes":"PUSH2 0x100 PUSH1 0x40 SWAP1 DUP1 DUP3 MSTORE CALLVALUE PUSH3 0x42C JUMPI PUSH1 0xA0 DUP2 PUSH3 0x2277 DUP1 CODESIZE SUB DUP1 SWAP2 PUSH3 0x26 DUP3 DUP6 PUSH3 0x431 JUMP JUMPDEST DUP4 CODECOPY DUP2 ADD SUB SLT PUSH3 0x42C JUMPI PUSH3 0x3C DUP2 PUSH3 0x46B JUMP JUMPDEST PUSH1 0x20 SWAP2 PUSH3 0x4C DUP4 DUP3 ADD PUSH3 0x46B JUMP JUMPDEST SWAP2 PUSH3 0x5A DUP6 DUP4 ADD PUSH3 0x46B JUMP JUMPDEST SWAP1 PUSH3 0x77 PUSH1 0x80 PUSH3 0x6F PUSH1 0x60 DUP7 ADD PUSH3 0x46B JUMP JUMPDEST SWAP5 ADD PUSH3 0x46B JUMP JUMPDEST PUSH1 0x1 DUP1 SSTORE PUSH1 0xFF PUSH1 0xA8 SHL NOT PUSH1 0x2 SLOAD AND SWAP1 PUSH1 0x1 PUSH1 0xA8 SHL SWAP2 DUP3 DUP2 OR PUSH1 0x2 SSTORE PUSH2 0x12C PUSH1 0x3 SSTORE PUSH1 0x4 SWAP5 PUSH8 0x8AC7230489E80000 DUP7 SSTORE PUSH1 0x1 DUP1 PUSH1 0xA0 SHL SUB DUP1 SWAP6 AND SWAP8 DUP9 ISZERO PUSH3 0x3F5 JUMPI DUP6 AND SWAP1 DUP2 ISZERO PUSH3 0x3BE JUMPI DUP6 AND SWAP7 DUP8 ISZERO PUSH3 0x386 JUMPI DUP6 AND SWAP8 DUP9 ISZERO PUSH3 0x343 JUMPI PUSH1 0x80 MSTORE PUSH1 0xA0 MSTORE PUSH1 0xC0 DUP7 SWAP1 MSTORE PUSH1 0xE0 DUP8 SWAP1 MSTORE DUP2 DUP5 AND ISZERO PUSH3 0x337 JUMPI POP PUSH1 0x2 DUP1 SLOAD PUSH2 0x100 PUSH1 0x1 PUSH1 0xB0 SHL SUB NOT AND PUSH1 0x8 SWAP3 SWAP1 SWAP3 SHL PUSH2 0x100 PUSH1 0x1 PUSH1 0xA8 SHL SUB AND SWAP2 SWAP1 SWAP2 OR SWAP2 SWAP1 SWAP2 OR SWAP1 SSTORE JUMPDEST PUSH3 0x125 CALLER PUSH3 0x49A JUMP JUMPDEST POP PUSH3 0x131 CALLER PUSH3 0x51A JUMP JUMPDEST POP DUP1 PUSH1 0x80 MLOAD AND SWAP3 DUP7 MLOAD PUSH4 0x95EA7B3 PUSH1 0xE0 SHL SWAP3 DUP4 DUP3 MSTORE DUP7 DUP6 DUP4 ADD MSTORE PUSH1 0x0 NOT SWAP2 DUP3 PUSH1 0x24 DUP3 ADD MSTORE DUP9 DUP2 PUSH1 0x44 DUP2 PUSH1 0x0 DUP1 SWAP12 GAS CALL DUP1 ISZERO PUSH3 0x30B JUMPI PUSH3 0x315 JUMPI JUMPDEST POP DUP6 DUP9 DUP3 PUSH1 0xA0 MLOAD AND PUSH1 0x44 DUP13 MLOAD DUP1 SWAP5 DUP2 SWAP4 DUP11 DUP4 MSTORE DUP10 DUP13 DUP5 ADD MSTORE DUP9 PUSH1 0x24 DUP5 ADD MSTORE GAS CALL DUP1 ISZERO PUSH3 0x30B JUMPI SWAP2 DUP10 SWAP2 DUP9 SWAP4 PUSH3 0x2E9 JUMPI JUMPDEST POP PUSH1 0xA0 MLOAD AND PUSH1 0x44 DUP12 MLOAD DUP1 SWAP5 DUP2 SWAP4 DUP10 DUP4 MSTORE DUP13 DUP12 DUP5 ADD MSTORE DUP8 PUSH1 0x24 DUP5 ADD MSTORE GAS CALL DUP1 ISZERO PUSH3 0x2DF JUMPI SWAP3 DUP9 SWAP6 SWAP5 SWAP3 DUP8 SWAP3 PUSH1 0x44 SWAP6 PUSH3 0x2BD JUMPI JUMPDEST POP DUP11 MLOAD SWAP9 DUP10 SWAP7 DUP8 SWAP6 DUP7 MSTORE DUP6 ADD MSTORE PUSH1 0x24 DUP5 ADD MSTORE GAS CALL SWAP1 DUP2 ISZERO PUSH3 0x2B2 JUMPI POP PUSH3 0x27D JUMPI JUMPDEST DUP3 MLOAD PUSH2 0x1C9A SWAP1 DUP2 PUSH3 0x5BD DUP3 CODECOPY PUSH1 0x80 MLOAD DUP2 DUP2 DUP2 PUSH2 0x1BE ADD MSTORE DUP2 DUP2 PUSH2 0x627 ADD MSTORE DUP2 DUP2 PUSH2 0xEC7 ADD MSTORE PUSH2 0x130F ADD MSTORE PUSH1 0xA0 MLOAD DUP2 DUP2 DUP2 PUSH2 0x542 ADD MSTORE DUP2 DUP2 PUSH2 0xD55 ADD MSTORE DUP2 DUP2 PUSH2 0xF11 ADD MSTORE PUSH2 0x137D ADD MSTORE PUSH1 0xC0 MLOAD DUP2 DUP2 DUP2 PUSH2 0x177 ADD MSTORE DUP2 DUP2 PUSH2 0x4F7 ADD MSTORE DUP2 DUP2 PUSH2 0xE70 ADD MSTORE PUSH2 0x1466 ADD MSTORE PUSH1 0xE0 MLOAD DUP2 DUP2 DUP2 PUSH2 0x5B8 ADD MSTORE DUP2 DUP2 PUSH2 0xBE7 ADD MSTORE DUP2 DUP2 PUSH2 0x101A ADD MSTORE PUSH2 0x13E2 ADD MSTORE RETURN JUMPDEST DUP2 PUSH3 0x2A1 SWAP3 SWAP1 RETURNDATASIZE LT PUSH3 0x2AA JUMPI JUMPDEST PUSH3 0x298 DUP2 DUP4 PUSH3 0x431 JUMP JUMPDEST DUP2 ADD SWAP1 PUSH3 0x480 JUMP JUMPDEST POP CODESIZE DUP1 PUSH3 0x1F6 JUMP JUMPDEST POP RETURNDATASIZE PUSH3 0x28C JUMP JUMPDEST DUP5 MLOAD SWAP1 RETURNDATASIZE SWAP1 DUP3 RETURNDATACOPY RETURNDATASIZE SWAP1 REVERT JUMPDEST PUSH3 0x2D7 SWAP1 DUP9 RETURNDATASIZE DUP11 GT PUSH3 0x2AA JUMPI PUSH3 0x298 DUP2 DUP4 PUSH3 0x431 JUMP JUMPDEST POP CODESIZE PUSH3 0x1D3 JUMP JUMPDEST DUP10 MLOAD RETURNDATASIZE DUP9 DUP3 RETURNDATACOPY RETURNDATASIZE SWAP1 REVERT JUMPDEST PUSH3 0x303 SWAP1 DUP4 RETURNDATASIZE DUP6 GT PUSH3 0x2AA JUMPI PUSH3 0x298 DUP2 DUP4 PUSH3 0x431 JUMP JUMPDEST POP CODESIZE PUSH3 0x19F JUMP JUMPDEST DUP11 MLOAD RETURNDATASIZE DUP10 DUP3 RETURNDATACOPY RETURNDATASIZE SWAP1 REVERT JUMPDEST PUSH3 0x32F SWAP1 DUP10 RETURNDATASIZE DUP12 GT PUSH3 0x2AA JUMPI PUSH3 0x298 DUP2 DUP4 PUSH3 0x431 JUMP JUMPDEST POP CODESIZE PUSH3 0x16D JUMP JUMPDEST SWAP2 POP POP PUSH1 0x2 SSTORE PUSH3 0x11A JUMP JUMPDEST DUP11 MLOAD PUSH3 0x461BCD PUSH1 0xE5 SHL DUP2 MSTORE DUP1 DUP9 ADD DUP12 SWAP1 MSTORE PUSH1 0x14 PUSH1 0x24 DUP3 ADD MSTORE PUSH32 0x526F757465723A207A65726F20556E6973776170000000000000000000000000 PUSH1 0x44 DUP3 ADD MSTORE PUSH1 0x64 SWAP1 REVERT JUMPDEST DUP11 MLOAD PUSH3 0x461BCD PUSH1 0xE5 SHL DUP2 MSTORE DUP1 DUP9 ADD DUP12 SWAP1 MSTORE PUSH1 0x12 PUSH1 0x24 DUP3 ADD MSTORE PUSH18 0x149BDD5D195C8E881E995C9BC815985D5B1D PUSH1 0x72 SHL PUSH1 0x44 DUP3 ADD MSTORE PUSH1 0x64 SWAP1 REVERT JUMPDEST DUP11 MLOAD PUSH3 0x461BCD PUSH1 0xE5 SHL DUP2 MSTORE DUP1 DUP9 ADD DUP12 SWAP1 MSTORE PUSH1 0x11 PUSH1 0x24 DUP3 ADD MSTORE PUSH17 0x526F757465723A207A65726F2055534443 PUSH1 0x78 SHL PUSH1 0x44 DUP3 ADD MSTORE PUSH1 0x64 SWAP1 REVERT JUMPDEST DUP11 MLOAD PUSH3 0x461BCD PUSH1 0xE5 SHL DUP2 MSTORE DUP1 DUP9 ADD DUP12 SWAP1 MSTORE PUSH1 0x11 PUSH1 0x24 DUP3 ADD MSTORE PUSH17 0x149BDD5D195C8E881E995C9BC8111554D5 PUSH1 0x7A SHL PUSH1 0x44 DUP3 ADD MSTORE PUSH1 0x64 SWAP1 REVERT JUMPDEST PUSH1 0x0 DUP1 REVERT JUMPDEST PUSH1 0x1F SWAP1 SWAP2 ADD PUSH1 0x1F NOT AND DUP2 ADD SWAP1 PUSH1 0x1 PUSH1 0x1 PUSH1 0x40 SHL SUB DUP3 GT SWAP1 DUP3 LT OR PUSH3 0x455 JUMPI PUSH1 0x40 MSTORE JUMP JUMPDEST PUSH4 0x4E487B71 PUSH1 0xE0 SHL PUSH1 0x0 MSTORE PUSH1 0x41 PUSH1 0x4 MSTORE PUSH1 0x24 PUSH1 0x0 REVERT JUMPDEST MLOAD SWAP1 PUSH1 0x1 PUSH1 0x1 PUSH1 0xA0 SHL SUB DUP3 AND DUP3 SUB PUSH3 0x42C JUMPI JUMP JUMPDEST SWAP1 DUP2 PUSH1 0x20 SWAP2 SUB SLT PUSH3 0x42C JUMPI MLOAD DUP1 ISZERO ISZERO DUP2 SUB PUSH3 0x42C JUMPI SWAP1 JUMP JUMPDEST PUSH1 0x1 PUSH1 0x1 PUSH1 0xA0 SHL SUB AND PUSH1 0x0 DUP2 DUP2 MSTORE PUSH32 0xAD3228B676F7D3CD4284A5443F17F1962B36E491B30A40B2405849E597BA5FB5 PUSH1 0x20 MSTORE PUSH1 0x40 DUP2 KECCAK256 SLOAD SWAP1 SWAP2 SWAP1 PUSH1 0xFF AND PUSH3 0x516 JUMPI DUP2 DUP1 MSTORE DUP2 PUSH1 0x20 MSTORE PUSH1 0x40 DUP3 KECCAK256 DUP2 DUP4 MSTORE PUSH1 0x20 MSTORE PUSH1 0x40 DUP3 KECCAK256 PUSH1 0x1 PUSH1 0xFF NOT DUP3 SLOAD AND OR SWAP1 SSTORE CALLER SWAP2 PUSH1 0x0 DUP1 MLOAD PUSH1 0x20 PUSH3 0x2257 DUP4 CODECOPY DUP2 MLOAD SWAP2 MSTORE DUP2 DUP1 LOG4 PUSH1 0x1 SWAP1 JUMP JUMPDEST POP SWAP1 JUMP JUMPDEST PUSH1 0x1 PUSH1 0x1 PUSH1 0xA0 SHL SUB AND PUSH1 0x0 DUP2 DUP2 MSTORE PUSH32 0xF7C9542C591017A21C74B6F3FAB6263C7952FC0AAF9DB4C22A2A04DDC7F8674F PUSH1 0x20 MSTORE PUSH1 0x40 DUP2 KECCAK256 SLOAD SWAP1 SWAP2 SWAP1 PUSH32 0x65D7A28E3265B37A6474929F336521B332C1681B933F6CB9F3376673440D862A SWAP1 PUSH1 0xFF AND PUSH3 0x5B7 JUMPI DUP1 DUP4 MSTORE DUP3 PUSH1 0x20 MSTORE PUSH1 0x40 DUP4 KECCAK256 DUP3 DUP5 MSTORE PUSH1 0x20 MSTORE PUSH1 0x40 DUP4 KECCAK256 PUSH1 0x1 PUSH1 0xFF NOT DUP3 SLOAD AND OR SWAP1 SSTORE PUSH1 0x0 DUP1 MLOAD PUSH1 0x20 PUSH3 0x2257 DUP4 CODECOPY DUP2 MLOAD SWAP2 MSTORE CALLER SWAP4 DUP1 LOG4 PUSH1 0x1 SWAP1 JUMP JUMPDEST POP POP SWAP1 JUMP INVALID PUSH1 0x80 PUSH1 0x40 DUP2 DUP2 MSTORE PUSH1 0x4 SWAP2 DUP3 CALLDATASIZE LT ISZERO PUSH2 0x16 JUMPI PUSH1 0x0 DUP1 REVERT JUMPDEST PUSH1 0x0 SWAP3 DUP4 CALLDATALOAD PUSH1 0xE0 SHR SWAP2 DUP3 PUSH4 0x1FFC9A7 EQ PUSH2 0x168A JUMPI POP DUP2 PUSH4 0x1DB447BF EQ PUSH2 0x12B5 JUMPI DUP2 PUSH4 0x248A9CA3 EQ PUSH2 0x128B JUMPI DUP2 PUSH4 0x2630C12F EQ PUSH2 0x125E JUMPI DUP2 PUSH4 0x27ECB986 EQ PUSH2 0xE12 JUMPI DUP2 PUSH4 0x2F2FF15D EQ PUSH2 0xDE8 JUMPI DUP2 PUSH4 0x338246E2 EQ PUSH2 0xDCA JUMPI DUP2 PUSH4 0x36568ABE EQ PUSH2 0xD84 JUMPI DUP2 PUSH4 0x3E413BEE EQ PUSH2 0xD40 JUMPI DUP2 PUSH4 0x3F4BA83A EQ PUSH2 0xCD6 JUMPI DUP2 PUSH4 0x530E784F EQ PUSH2 0xC3A JUMPI DUP2 PUSH4 0x5C975ABB EQ PUSH2 0xC16 JUMPI DUP2 PUSH4 0x735DE9F7 EQ PUSH2 0xBD2 JUMPI DUP2 PUSH4 0x756A24E4 EQ PUSH2 0xBAB JUMPI DUP2 PUSH4 0x8456CB59 EQ PUSH2 0xB50 JUMPI DUP2 PUSH4 0x884870C7 EQ PUSH2 0xAB5 JUMPI DUP2 PUSH4 0x8C04166F EQ PUSH2 0xA96 JUMPI DUP2 PUSH4 0x91D14854 EQ PUSH2 0xA50 JUMPI DUP2 PUSH4 0x9C0F201C EQ PUSH2 0xA0A JUMPI DUP2 PUSH4 0xA217FDDF EQ PUSH2 0x9EF JUMPI DUP2 PUSH4 0xB837C0ED EQ PUSH2 0x47B JUMPI DUP2 PUSH4 0xD146DE40 EQ PUSH2 0x41B JUMPI DUP2 PUSH4 0xD547741F EQ PUSH2 0x3DC JUMPI DUP2 PUSH4 0xD80528AE EQ PUSH2 0x3A3 JUMPI DUP2 PUSH4 0xDD1B9C4A EQ PUSH2 0x386 JUMPI DUP2 PUSH4 0xE63AB1E9 EQ PUSH2 0x34B JUMPI DUP2 PUSH4 0xE63EA408 EQ PUSH2 0x1ED JUMPI POP DUP1 PUSH4 0xFAD9ABA3 EQ PUSH2 0x1AA JUMPI PUSH4 0xFBFA77CF EQ PUSH2 0x164 JUMPI PUSH1 0x0 DUP1 REVERT JUMPDEST CALLVALUE PUSH2 0x1A6 JUMPI DUP2 PUSH1 0x3 NOT CALLDATASIZE ADD SLT PUSH2 0x1A6 JUMPI MLOAD PUSH32 0x0 PUSH1 0x1 PUSH1 0x1 PUSH1 0xA0 SHL SUB AND DUP2 MSTORE PUSH1 0x20 SWAP1 RETURN JUMPDEST POP DUP1 REVERT JUMPDEST POP CALLVALUE PUSH2 0x1A6 JUMPI DUP2 PUSH1 0x3 NOT CALLDATASIZE ADD SLT PUSH2 0x1A6 JUMPI MLOAD PUSH32 0x0 PUSH1 0x1 PUSH1 0x1 PUSH1 0xA0 SHL SUB AND DUP2 MSTORE PUSH1 0x20 SWAP1 RETURN JUMPDEST SWAP2 SWAP1 POP CALLVALUE PUSH2 0x347 JUMPI PUSH1 0x60 CALLDATASIZE PUSH1 0x3 NOT ADD SLT PUSH2 0x347 JUMPI PUSH2 0x209 PUSH2 0x170E JUMP JUMPDEST PUSH2 0x211 PUSH2 0x16F8 JUMP JUMPDEST SWAP1 PUSH2 0x21A PUSH2 0x1B11 JUMP JUMPDEST PUSH1 0x1 PUSH1 0x1 PUSH1 0xA0 SHL SUB SWAP2 DUP1 DUP4 AND ISZERO PUSH2 0x30D JUMPI DUP4 MLOAD PUSH4 0xA9059CBB PUSH1 0xE0 SHL DUP2 MSTORE PUSH1 0x1 PUSH1 0x1 PUSH1 0xA0 SHL SUB SWAP1 SWAP2 AND DUP6 DUP3 ADD SWAP1 DUP2 MSTORE PUSH1 0x44 CALLDATALOAD PUSH1 0x20 DUP3 DUP2 ADD SWAP2 SWAP1 SWAP2 MSTORE SWAP2 SWAP4 SWAP2 SWAP3 DUP5 SWAP3 SWAP1 SWAP2 DUP4 SWAP2 DUP10 SWAP2 DUP4 SWAP1 PUSH1 0x40 ADD SUB SWAP4 AND GAS CALL SWAP1 DUP2 ISZERO PUSH2 0x303 JUMPI DUP5 SWAP2 PUSH2 0x2C5 JUMPI JUMPDEST POP ISZERO PUSH2 0x282 JUMPI DUP3 DUP1 RETURN JUMPDEST SWAP1 PUSH1 0x20 PUSH1 0x64 SWAP3 MLOAD SWAP2 PUSH3 0x461BCD PUSH1 0xE5 SHL DUP4 MSTORE DUP3 ADD MSTORE PUSH1 0x17 PUSH1 0x24 DUP3 ADD MSTORE PUSH32 0x526F757465723A207472616E73666572206661696C6564000000000000000000 PUSH1 0x44 DUP3 ADD MSTORE REVERT JUMPDEST SWAP1 POP PUSH1 0x20 DUP2 RETURNDATASIZE PUSH1 0x20 GT PUSH2 0x2FB JUMPI JUMPDEST DUP2 PUSH2 0x2E0 PUSH1 0x20 SWAP4 DUP4 PUSH2 0x1757 JUMP JUMPDEST DUP2 ADD SUB SLT PUSH2 0x2F7 JUMPI PUSH2 0x2F1 SWAP1 PUSH2 0x1779 JUMP JUMPDEST CODESIZE PUSH2 0x278 JUMP JUMPDEST DUP4 DUP1 REVERT JUMPDEST RETURNDATASIZE SWAP2 POP PUSH2 0x2D3 JUMP JUMPDEST DUP3 MLOAD RETURNDATASIZE DUP7 DUP3 RETURNDATACOPY RETURNDATASIZE SWAP1 REVERT JUMPDEST DUP4 MLOAD PUSH3 0x461BCD PUSH1 0xE5 SHL DUP2 MSTORE PUSH1 0x20 DUP2 DUP8 ADD MSTORE PUSH1 0x14 PUSH1 0x24 DUP3 ADD MSTORE PUSH20 0x526F757465723A207A65726F2061646472657373 PUSH1 0x60 SHL PUSH1 0x44 DUP3 ADD MSTORE PUSH1 0x64 SWAP1 REVERT JUMPDEST DUP3 DUP1 REVERT JUMPDEST POP POP CALLVALUE PUSH2 0x1A6 JUMPI DUP2 PUSH1 0x3 NOT CALLDATASIZE ADD SLT PUSH2 0x1A6 JUMPI PUSH1 0x20 SWAP1 MLOAD PUSH32 0x65D7A28E3265B37A6474929F336521B332C1681B933F6CB9F3376673440D862A DUP2 MSTORE RETURN JUMPDEST POP POP CALLVALUE PUSH2 0x1A6 JUMPI DUP2 PUSH1 0x3 NOT CALLDATASIZE ADD SLT PUSH2 0x1A6 JUMPI PUSH1 0x20 SWAP1 MLOAD PUSH2 0xBB8 DUP2 MSTORE RETURN JUMPDEST POP POP CALLVALUE PUSH2 0x1A6 JUMPI DUP2 PUSH1 0x3 NOT CALLDATASIZE ADD SLT PUSH2 0x1A6 JUMPI PUSH1 0x80 SWAP1 PUSH1 0x5 SLOAD SWAP1 PUSH1 0x6 SLOAD SWAP1 PUSH1 0x7 SLOAD SWAP1 PUSH1 0x8 SLOAD SWAP3 DUP2 MLOAD SWAP5 DUP6 MSTORE PUSH1 0x20 DUP6 ADD MSTORE DUP4 ADD MSTORE PUSH1 0x60 DUP3 ADD MSTORE RETURN JUMPDEST SWAP2 SWAP1 POP CALLVALUE PUSH2 0x347 JUMPI DUP1 PUSH1 0x3 NOT CALLDATASIZE ADD SLT PUSH2 0x347 JUMPI PUSH2 0x417 SWAP2 CALLDATALOAD PUSH2 0x412 PUSH1 0x1 PUSH2 0x401 PUSH2 0x16F8 JUMP JUMPDEST SWAP4 DUP4 DUP8 MSTORE DUP7 PUSH1 0x20 MSTORE DUP7 KECCAK256 ADD SLOAD PUSH2 0x1B4B JUMP JUMPDEST PUSH2 0x1BEF JUMP JUMPDEST POP DUP1 RETURN JUMPDEST POP POP CALLVALUE PUSH2 0x1A6 JUMPI DUP2 PUSH1 0x3 NOT CALLDATASIZE ADD SLT PUSH2 0x1A6 JUMPI PUSH1 0x5 SLOAD PUSH1 0x6 SLOAD PUSH1 0xA0 SWAP4 POP SWAP1 SWAP2 DUP2 DUP4 GT ISZERO PUSH2 0x46C JUMPI PUSH2 0x44B DUP3 DUP5 PUSH2 0x1929 JUMP JUMPDEST PUSH1 0x7 SLOAD SWAP2 PUSH1 0x8 SLOAD SWAP4 DUP2 MLOAD SWAP6 DUP7 MSTORE PUSH1 0x20 DUP7 ADD MSTORE DUP5 ADD MSTORE PUSH1 0x60 DUP4 ADD MSTORE PUSH1 0x80 DUP3 ADD MSTORE RETURN JUMPDEST PUSH2 0x476 DUP4 DUP4 PUSH2 0x1929 JUMP JUMPDEST PUSH2 0x44B JUMP JUMPDEST DUP4 DUP4 CALLVALUE PUSH2 0x1A6 JUMPI PUSH1 0x60 CALLDATASIZE PUSH1 0x3 NOT ADD SLT PUSH2 0x1A6 JUMPI DUP3 CALLDATALOAD SWAP2 PUSH1 0x44 CALLDATALOAD PUSH1 0x24 CALLDATALOAD PUSH2 0x49F PUSH2 0x1936 JUMP JUMPDEST PUSH2 0x4A7 PUSH2 0x1959 JUMP JUMPDEST PUSH2 0x4B2 DUP6 ISZERO ISZERO PUSH2 0x1804 JUMP JUMPDEST DUP1 ISZERO PUSH2 0x9AC JUMPI SWAP1 DUP5 SWAP3 SWAP2 PUSH2 0x4C7 DUP3 ISZERO ISZERO PUSH2 0x1846 JUMP JUMPDEST DUP5 MLOAD PUSH4 0x23B872DD PUSH1 0xE0 SHL DUP2 MSTORE CALLER DUP9 DUP3 ADD SWAP1 DUP2 MSTORE ADDRESS PUSH1 0x20 DUP3 DUP2 ADD SWAP2 SWAP1 SWAP2 MSTORE PUSH1 0x40 DUP3 ADD SWAP9 SWAP1 SWAP9 MSTORE PUSH1 0x1 PUSH1 0x1 PUSH1 0xA0 SHL SUB SWAP2 PUSH32 0x0 DUP4 AND SWAP2 DUP10 SWAP1 DUP3 SWAP1 DUP2 SWAP1 PUSH1 0x60 ADD SUB DUP2 DUP10 DUP7 GAS CALL DUP1 ISZERO PUSH2 0x9A2 JUMPI DUP7 SWAP1 PUSH2 0x968 JUMPI JUMPDEST PUSH2 0x53F SWAP2 POP PUSH2 0x1892 JUMP JUMPDEST DUP2 PUSH32 0x0 AND SWAP1 PUSH2 0x12C TIMESTAMP ADD DUP1 TIMESTAMP GT PUSH2 0x955 JUMPI SWAP1 DUP11 PUSH2 0x5F2 SWAP8 SWAP7 SWAP6 SWAP5 SWAP4 SWAP3 DUP11 MLOAD SWAP3 PUSH2 0x586 DUP5 PUSH2 0x1724 JUMP JUMPDEST DUP4 MSTORE DUP4 DUP13 DUP5 ADD MSTORE PUSH2 0xBB8 SWAP6 DUP7 DUP13 DUP6 ADD MSTORE ADDRESS PUSH1 0x60 DUP6 ADD MSTORE DUP2 PUSH1 0x80 DUP6 ADD MSTORE DUP11 PUSH1 0xA0 DUP6 ADD MSTORE DUP1 PUSH1 0xC0 DUP6 ADD MSTORE DUP9 PUSH1 0xE0 DUP6 ADD MSTORE DUP13 DUP7 PUSH32 0x0 AND SWAP5 DUP14 MLOAD DUP1 SWAP13 DUP2 SWAP3 PUSH4 0x414BF389 PUSH1 0xE0 SHL SWAP8 DUP9 DUP5 MSTORE DUP4 ADD PUSH2 0x1977 JUMP JUMPDEST SUB DUP2 DUP13 DUP9 GAS CALL SWAP10 DUP11 ISZERO PUSH2 0x94B JUMPI DUP10 SWAP11 PUSH2 0x918 JUMPI JUMPDEST POP PUSH2 0x612 DUP11 ISZERO ISZERO PUSH2 0x19DE JUMP JUMPDEST DUP10 LT PUSH2 0x8D7 JUMPI SWAP2 DUP5 SWAP4 SWAP2 DUP13 SWAP14 SWAP6 SWAP4 PUSH2 0x68F SWAP14 SWAP5 PUSH32 0x0 AND SWAP8 DUP14 MLOAD SWAP5 PUSH2 0x654 DUP7 PUSH2 0x1724 JUMP JUMPDEST DUP6 MSTORE DUP9 DUP7 DUP7 ADD MSTORE DUP14 DUP6 ADD MSTORE ADDRESS PUSH1 0x60 DUP6 ADD MSTORE PUSH1 0x80 DUP5 ADD MSTORE DUP10 PUSH1 0xA0 DUP5 ADD MSTORE DUP8 PUSH1 0xC0 DUP5 ADD MSTORE DUP9 PUSH1 0xE0 DUP5 ADD MSTORE DUP9 DUP13 MLOAD DUP1 SWAP15 DUP2 SWAP6 DUP3 SWAP5 DUP4 MSTORE DUP10 DUP4 ADD PUSH2 0x1977 JUMP JUMPDEST SUB SWAP3 GAS CALL SWAP9 DUP10 ISZERO PUSH2 0x88A JUMPI SWAP1 DUP11 SWAP4 SWAP3 SWAP2 DUP7 SWAP11 PUSH2 0x8A2 JUMPI JUMPDEST POP SWAP1 DUP10 SWAP3 SWAP2 PUSH2 0x6B6 DUP5 ISZERO ISZERO PUSH2 0x19DE JUMP JUMPDEST DUP10 PUSH1 0x2 SLOAD PUSH1 0xFF DUP2 PUSH1 0xA8 SHR AND DUP1 PUSH2 0x894 JUMPI JUMPDEST PUSH2 0x804 JUMPI JUMPDEST POP POP POP PUSH2 0x6DE PUSH2 0x70B SWAP6 DUP5 LT ISZERO PUSH2 0x18DE JUMP JUMPDEST DUP9 MLOAD PUSH4 0xA9059CBB PUSH1 0xE0 SHL DUP2 MSTORE CALLER SWAP2 DUP2 ADD SWAP2 DUP3 MSTORE PUSH1 0x20 DUP3 ADD SWAP4 SWAP1 SWAP4 MSTORE SWAP2 SWAP4 DUP5 SWAP3 DUP4 SWAP2 DUP8 SWAP2 DUP4 SWAP2 PUSH1 0x40 SWAP1 SWAP2 ADD SWAP1 JUMP JUMPDEST SUB SWAP3 GAS CALL SWAP2 DUP3 ISZERO PUSH2 0x7F9 JUMPI SWAP1 DUP2 DUP8 SWAP4 PUSH2 0x797 JUMPI JUMPDEST POP POP SWAP2 PUSH2 0x74C PUSH32 0xDFEF462DA6D7E712F2E69FD1113692D86E3A91DCACFAF88E85E2111074E417A3 SWAP4 PUSH2 0x1786 JUMP JUMPDEST PUSH2 0x758 DUP3 PUSH1 0x6 SLOAD PUSH2 0x17D2 JUMP JUMPDEST PUSH1 0x6 SSTORE PUSH2 0x767 DUP2 PUSH1 0x7 SLOAD PUSH2 0x17D2 JUMP JUMPDEST PUSH1 0x7 SSTORE PUSH2 0x775 PUSH1 0x8 SLOAD PUSH2 0x17F5 JUMP JUMPDEST PUSH1 0x8 SSTORE DUP5 MLOAD SWAP4 DUP5 MSTORE PUSH1 0x20 DUP5 ADD MSTORE PUSH1 0x40 DUP4 ADD MSTORE CALLER SWAP2 PUSH1 0x60 SWAP1 LOG2 PUSH1 0x1 DUP1 SSTORE MLOAD SWAP1 DUP2 MSTORE RETURN JUMPDEST SWAP2 POP SWAP2 POP DUP7 DUP3 DUP2 RETURNDATASIZE DUP4 GT PUSH2 0x7F2 JUMPI JUMPDEST PUSH2 0x7B0 DUP2 DUP4 PUSH2 0x1757 JUMP JUMPDEST DUP2 ADD SUB SLT PUSH2 0x7EF JUMPI POP PUSH32 0xDFEF462DA6D7E712F2E69FD1113692D86E3A91DCACFAF88E85E2111074E417A3 SWAP2 PUSH2 0x74C PUSH2 0x7E8 DUP8 SWAP4 PUSH2 0x1779 JUMP JUMPDEST SWAP2 SWAP4 PUSH2 0x71F JUMP JUMPDEST DUP1 REVERT JUMPDEST POP RETURNDATASIZE PUSH2 0x7A6 JUMP JUMPDEST DUP6 MLOAD SWAP1 RETURNDATASIZE SWAP1 DUP3 RETURNDATACOPY RETURNDATASIZE SWAP1 REVERT JUMPDEST SWAP2 SWAP4 SWAP7 SWAP5 DUP2 PUSH1 0x44 SWAP3 SWAP5 SWAP8 POP MLOAD SWAP5 DUP6 SWAP4 DUP5 SWAP3 PUSH4 0xC7AA1053 PUSH1 0xE0 SHL DUP5 MSTORE DUP10 DUP5 ADD MSTORE DUP12 PUSH1 0x24 DUP5 ADD MSTORE PUSH1 0x8 SHR AND GAS STATICCALL SWAP1 DUP2 ISZERO PUSH2 0x88A JUMPI SWAP3 PUSH2 0x6DE DUP11 SWAP4 PUSH2 0x853 PUSH2 0x70B SWAP8 SWAP5 DUP15 SWAP8 DUP11 SWAP2 PUSH2 0x85C JUMPI JUMPDEST POP PUSH2 0x1A3D JUMP JUMPDEST SWAP6 POP DUP10 DUP14 PUSH2 0x6CC JUMP JUMPDEST PUSH2 0x87C SWAP2 POP DUP14 DUP1 RETURNDATASIZE LT PUSH2 0x883 JUMPI JUMPDEST PUSH2 0x874 DUP2 DUP4 PUSH2 0x1757 JUMP JUMPDEST DUP2 ADD SWAP1 PUSH2 0x1A20 JUMP JUMPDEST POP DUP16 PUSH2 0x84D JUMP JUMPDEST POP RETURNDATASIZE PUSH2 0x86A JUMP JUMPDEST DUP9 MLOAD RETURNDATASIZE DUP8 DUP3 RETURNDATACOPY RETURNDATASIZE SWAP1 REVERT JUMPDEST POP DUP3 DUP2 PUSH1 0x8 SHR AND ISZERO ISZERO PUSH2 0x6C7 JUMP JUMPDEST SWAP2 SWAP10 POP SWAP3 DUP2 DUP2 RETURNDATASIZE DUP2 GT PUSH2 0x8D0 JUMPI JUMPDEST PUSH2 0x8BA DUP2 DUP4 PUSH2 0x1757 JUMP JUMPDEST DUP2 ADD SUB SLT PUSH2 0x8CC JUMPI MLOAD SWAP8 DUP10 SWAP3 DUP12 PUSH2 0x6A6 JUMP JUMPDEST DUP5 DUP1 REVERT JUMPDEST POP RETURNDATASIZE PUSH2 0x8B0 JUMP JUMPDEST PUSH1 0x64 DUP14 DUP14 DUP1 DUP15 MLOAD SWAP3 PUSH3 0x461BCD PUSH1 0xE5 SHL DUP5 MSTORE DUP4 ADD MSTORE PUSH1 0x24 DUP3 ADD MSTORE PUSH32 0x526F757465723A20696E73756666696369656E742055534443206F7574707574 PUSH1 0x44 DUP3 ADD MSTORE REVERT JUMPDEST SWAP1 SWAP10 POP DUP13 DUP2 DUP2 RETURNDATASIZE DUP4 GT PUSH2 0x944 JUMPI JUMPDEST PUSH2 0x930 DUP2 DUP4 PUSH2 0x1757 JUMP JUMPDEST DUP2 ADD SUB SLT PUSH2 0x940 JUMPI MLOAD SWAP9 DUP15 PUSH2 0x606 JUMP JUMPDEST DUP9 DUP1 REVERT JUMPDEST POP RETURNDATASIZE PUSH2 0x926 JUMP JUMPDEST DUP13 MLOAD RETURNDATASIZE DUP12 DUP3 RETURNDATACOPY RETURNDATASIZE SWAP1 REVERT JUMPDEST PUSH4 0x4E487B71 PUSH1 0xE0 SHL DUP8 MSTORE PUSH1 0x11 DUP12 MSTORE PUSH1 0x24 DUP8 REVERT JUMPDEST POP DUP9 DUP2 DUP2 RETURNDATASIZE DUP4 GT PUSH2 0x99B JUMPI JUMPDEST PUSH2 0x97E DUP2 DUP4 PUSH2 0x1757 JUMP JUMPDEST DUP2 ADD SUB SLT PUSH2 0x997 JUMPI PUSH2 0x992 PUSH2 0x53F SWAP2 PUSH2 0x1779 JUMP JUMPDEST PUSH2 0x535 JUMP JUMPDEST DUP6 DUP1 REVERT JUMPDEST POP RETURNDATASIZE PUSH2 0x974 JUMP JUMPDEST DUP9 MLOAD RETURNDATASIZE DUP9 DUP3 RETURNDATACOPY RETURNDATASIZE SWAP1 REVERT JUMPDEST DUP4 MLOAD PUSH3 0x461BCD PUSH1 0xE5 SHL DUP2 MSTORE PUSH1 0x20 DUP2 DUP9 ADD MSTORE PUSH1 0x17 PUSH1 0x24 DUP3 ADD MSTORE PUSH32 0x526F757465723A206D696E557364634F7574207A65726F000000000000000000 PUSH1 0x44 DUP3 ADD MSTORE PUSH1 0x64 SWAP1 REVERT JUMPDEST POP POP CALLVALUE PUSH2 0x1A6 JUMPI DUP2 PUSH1 0x3 NOT CALLDATASIZE ADD SLT PUSH2 0x1A6 JUMPI MLOAD SWAP1 DUP2 MSTORE PUSH1 0x20 SWAP1 RETURN JUMPDEST DUP4 SWAP1 CALLVALUE PUSH2 0x1A6 JUMPI PUSH1 0x20 CALLDATASIZE PUSH1 0x3 NOT ADD SLT PUSH2 0x1A6 JUMPI CALLDATALOAD DUP1 ISZERO ISZERO DUP1 SWAP2 SUB PUSH2 0x1A6 JUMPI PUSH2 0xA30 PUSH2 0x1B11 JUMP JUMPDEST PUSH1 0x2 DUP1 SLOAD PUSH1 0xFF PUSH1 0xA8 SHL NOT AND PUSH1 0xA8 SWAP3 SWAP1 SWAP3 SHL PUSH1 0xFF PUSH1 0xA8 SHL AND SWAP2 SWAP1 SWAP2 OR SWAP1 SSTORE DUP1 RETURN JUMPDEST SWAP1 POP CALLVALUE PUSH2 0x347 JUMPI DUP2 PUSH1 0x3 NOT CALLDATASIZE ADD SLT PUSH2 0x347 JUMPI DUP2 PUSH1 0x20 SWAP4 PUSH1 0xFF SWAP3 PUSH2 0xA71 PUSH2 0x16F8 JUMP JUMPDEST SWAP1 CALLDATALOAD DUP3 MSTORE DUP2 DUP7 MSTORE DUP3 DUP3 KECCAK256 PUSH1 0x1 PUSH1 0x1 PUSH1 0xA0 SHL SUB SWAP1 SWAP2 AND DUP3 MSTORE DUP6 MSTORE KECCAK256 SLOAD SWAP2 MLOAD SWAP2 AND ISZERO ISZERO DUP2 MSTORE RETURN JUMPDEST POP POP CALLVALUE PUSH2 0x1A6 JUMPI DUP2 PUSH1 0x3 NOT CALLDATASIZE ADD SLT PUSH2 0x1A6 JUMPI PUSH1 0x20 SWAP1 PUSH1 0x3 SLOAD SWAP1 MLOAD SWAP1 DUP2 MSTORE RETURN JUMPDEST DUP4 DUP4 CALLVALUE PUSH2 0x1A6 JUMPI PUSH2 0xAC5 CALLDATASIZE PUSH2 0x16DD JUMP JUMPDEST PUSH2 0xACD PUSH2 0x1B11 JUMP JUMPDEST PUSH2 0x3E8 DUP3 GT PUSH2 0xB0D JUMPI DUP1 PUSH32 0xFACCB0639FF7851E0E24F3B2D9AB03CD62FFB63F5B4D90AAEFF85BB078C1FA48 SWAP5 SWAP6 DUP4 PUSH1 0x3 SSTORE SSTORE DUP3 MLOAD SWAP2 DUP3 MSTORE PUSH1 0x20 DUP3 ADD MSTORE LOG1 DUP1 RETURN JUMPDEST DUP3 MLOAD PUSH3 0x461BCD PUSH1 0xE5 SHL DUP2 MSTORE PUSH1 0x20 DUP2 DUP8 ADD MSTORE PUSH1 0x19 PUSH1 0x24 DUP3 ADD MSTORE PUSH32 0x526F757465723A20736C69707061676520746F6F206869676800000000000000 PUSH1 0x44 DUP3 ADD MSTORE PUSH1 0x64 SWAP1 REVERT JUMPDEST POP POP CALLVALUE PUSH2 0x1A6 JUMPI DUP2 PUSH1 0x3 NOT CALLDATASIZE ADD SLT PUSH2 0x1A6 JUMPI PUSH1 0x20 PUSH32 0x62E78CEA01BEE320CD4E420270B5EA74000D11B0C9F74754EBDBFC544B05A258 SWAP2 PUSH2 0xB8E PUSH2 0x1A97 JUMP JUMPDEST PUSH2 0xB96 PUSH2 0x1959 JUMP JUMPDEST PUSH1 0x1 PUSH1 0xFF NOT PUSH1 0x2 SLOAD AND OR PUSH1 0x2 SSTORE MLOAD CALLER DUP2 MSTORE LOG1 DUP1 RETURN JUMPDEST POP POP CALLVALUE PUSH2 0x1A6 JUMPI DUP2 PUSH1 0x3 NOT CALLDATASIZE ADD SLT PUSH2 0x1A6 JUMPI PUSH1 0x20 SWAP1 PUSH1 0xFF PUSH1 0x2 SLOAD PUSH1 0xA8 SHR AND SWAP1 MLOAD SWAP1 ISZERO ISZERO DUP2 MSTORE RETURN JUMPDEST POP POP CALLVALUE PUSH2 0x1A6 JUMPI DUP2 PUSH1 0x3 NOT CALLDATASIZE ADD SLT PUSH2 0x1A6 JUMPI MLOAD PUSH32 0x0 PUSH1 0x1 PUSH1 0x1 PUSH1 0xA0 SHL SUB AND DUP2 MSTORE PUSH1 0x20 SWAP1 RETURN JUMPDEST POP POP CALLVALUE PUSH2 0x1A6 JUMPI DUP2 PUSH1 0x3 NOT CALLDATASIZE ADD SLT PUSH2 0x1A6 JUMPI PUSH1 0x20 SWAP1 PUSH1 0xFF PUSH1 0x2 SLOAD AND SWAP1 MLOAD SWAP1 ISZERO ISZERO DUP2 MSTORE RETURN JUMPDEST SWAP1 POP CALLVALUE PUSH2 0x347 JUMPI PUSH1 0x20 CALLDATASIZE PUSH1 0x3 NOT ADD SLT PUSH2 0x347 JUMPI PUSH2 0xC55 PUSH2 0x170E JUMP JUMPDEST SWAP2 PUSH2 0xC5E PUSH2 0x1B11 JUMP JUMPDEST PUSH1 0x1 PUSH1 0x1 PUSH1 0xA0 SHL SUB DUP4 AND ISZERO PUSH2 0xC9D JUMPI POP POP PUSH1 0x2 DUP1 SLOAD PUSH2 0x100 PUSH1 0x1 PUSH1 0xB0 SHL SUB NOT AND PUSH1 0x8 SWAP3 SWAP1 SWAP3 SHL PUSH2 0x100 PUSH1 0x1 PUSH1 0xA8 SHL SUB AND SWAP2 SWAP1 SWAP2 OR PUSH1 0x1 PUSH1 0xA8 SHL OR SWAP1 SSTORE DUP1 RETURN JUMPDEST SWAP1 PUSH1 0x20 PUSH1 0x64 SWAP3 MLOAD SWAP2 PUSH3 0x461BCD PUSH1 0xE5 SHL DUP4 MSTORE DUP3 ADD MSTORE PUSH1 0x13 PUSH1 0x24 DUP3 ADD MSTORE PUSH19 0x526F757465723A207A65726F204F7261636C65 PUSH1 0x68 SHL PUSH1 0x44 DUP3 ADD MSTORE REVERT JUMPDEST SWAP1 POP CALLVALUE PUSH2 0x347 JUMPI DUP3 PUSH1 0x3 NOT CALLDATASIZE ADD SLT PUSH2 0x347 JUMPI PUSH2 0xCF0 PUSH2 0x1A97 JUMP JUMPDEST PUSH1 0x2 SLOAD SWAP1 PUSH1 0xFF DUP3 AND ISZERO PUSH2 0xD32 JUMPI POP PUSH1 0xFF NOT AND PUSH1 0x2 SSTORE MLOAD CALLER DUP2 MSTORE PUSH32 0x5DB9EE0A495BF2E6FF9C91A7834C1BA4FDD244A5E8AA4E537BD38AEAE4B073AA SWAP1 PUSH1 0x20 SWAP1 LOG1 DUP1 RETURN JUMPDEST DUP3 MLOAD PUSH4 0x8DFC202B PUSH1 0xE0 SHL DUP2 MSTORE REVERT JUMPDEST POP POP CALLVALUE PUSH2 0x1A6 JUMPI DUP2 PUSH1 0x3 NOT CALLDATASIZE ADD SLT PUSH2 0x1A6 JUMPI MLOAD PUSH32 0x0 PUSH1 0x1 PUSH1 0x1 PUSH1 0xA0 SHL SUB AND DUP2 MSTORE PUSH1 0x20 SWAP1 RETURN JUMPDEST DUP4 DUP4 CALLVALUE PUSH2 0x1A6 JUMPI DUP1 PUSH1 0x3 NOT CALLDATASIZE ADD SLT PUSH2 0x1A6 JUMPI PUSH2 0xD9E PUSH2 0x16F8 JUMP JUMPDEST SWAP1 CALLER PUSH1 0x1 PUSH1 0x1 PUSH1 0xA0 SHL SUB DUP4 AND SUB PUSH2 0xDBB JUMPI POP PUSH2 0x417 SWAP2 SWAP3 CALLDATALOAD PUSH2 0x1BEF JUMP JUMPDEST MLOAD PUSH4 0x334BD919 PUSH1 0xE1 SHL DUP2 MSTORE DUP4 SWAP1 REVERT JUMPDEST SWAP1 POP CALLVALUE PUSH2 0x347 JUMPI DUP3 PUSH1 0x3 NOT CALLDATASIZE ADD SLT PUSH2 0x347 JUMPI PUSH1 0x20 SWAP3 POP SLOAD SWAP1 MLOAD SWAP1 DUP2 MSTORE RETURN JUMPDEST SWAP2 SWAP1 POP CALLVALUE PUSH2 0x347 JUMPI DUP1 PUSH1 0x3 NOT CALLDATASIZE ADD SLT PUSH2 0x347 JUMPI PUSH2 0x417 SWAP2 CALLDATALOAD PUSH2 0xE0D PUSH1 0x1 PUSH2 0x401 PUSH2 0x16F8 JUMP JUMPDEST PUSH2 0x1B71 JUMP JUMPDEST DUP4 DUP4 CALLVALUE PUSH2 0x1A6 JUMPI PUSH2 0xE22 CALLDATASIZE PUSH2 0x16DD JUMP JUMPDEST SWAP3 PUSH2 0xE2B PUSH2 0x1936 JUMP JUMPDEST PUSH2 0xE33 PUSH2 0x1959 JUMP JUMPDEST PUSH2 0xE3E DUP3 ISZERO ISZERO PUSH2 0x1804 JUMP JUMPDEST PUSH2 0xE49 DUP5 ISZERO ISZERO PUSH2 0x1846 JUMP JUMPDEST DUP3 MLOAD PUSH4 0x23B872DD PUSH1 0xE0 SHL DUP2 MSTORE CALLER DUP2 DUP8 ADD SWAP1 DUP2 MSTORE ADDRESS PUSH1 0x20 DUP3 DUP2 ADD SWAP2 SWAP1 SWAP2 MSTORE PUSH1 0x40 DUP3 ADD DUP6 SWAP1 MSTORE SWAP7 PUSH32 0x0 SWAP7 SWAP3 SWAP1 SWAP2 PUSH1 0x1 PUSH1 0x1 PUSH1 0xA0 SHL SUB SWAP2 SWAP1 DUP10 SWAP1 DUP3 SWAP1 DUP2 SWAP1 PUSH1 0x60 ADD SUB DUP2 DUP9 DUP7 DUP14 AND GAS CALL DUP1 ISZERO PUSH2 0x11BA JUMPI DUP6 SWAP1 PUSH2 0x1228 JUMPI JUMPDEST PUSH2 0xEC5 SWAP2 POP PUSH2 0x1892 JUMP JUMPDEST PUSH32 0x0 SWAP3 DUP7 MLOAD SWAP8 PUSH12 0xFFFFFFFFFFFFFFFFFFFFFFFF NOT DUP1 SWAP2 PUSH1 0x60 SHL AND DUP11 DUP11 ADD MSTORE PUSH2 0x177 PUSH1 0xEB SHL DUP1 PUSH1 0x34 DUP12 ADD MSTORE DUP2 PUSH32 0x0 PUSH1 0x60 SHL AND PUSH1 0x37 DUP12 ADD MSTORE PUSH1 0x4B DUP11 ADD MSTORE DUP5 PUSH1 0x60 SHL AND PUSH1 0x4E DUP10 ADD MSTORE PUSH1 0x42 DUP9 MSTORE PUSH1 0x80 DUP9 ADD SWAP8 PUSH8 0xFFFFFFFFFFFFFFFF SWAP1 DUP1 DUP11 LT DUP3 DUP12 GT OR PUSH2 0x1215 JUMPI PUSH2 0x12C TIMESTAMP ADD SWAP2 DUP3 TIMESTAMP GT PUSH2 0x1202 JUMPI PUSH2 0x120 DUP3 ADD SWAP1 DUP2 GT DUP12 DUP3 LT OR PUSH2 0x11EF JUMPI SWAP1 DUP12 SWAP3 DUP6 SWAP12 SWAP3 DUP12 MSTORE DUP2 DUP4 MSTORE PUSH1 0xA0 DUP3 ADD SWAP2 ADDRESS DUP4 MSTORE PUSH1 0xC0 DUP2 ADD SWAP2 DUP3 MSTORE PUSH2 0x100 PUSH1 0xE0 DUP3 ADD SWAP2 DUP13 DUP4 MSTORE ADD SWAP2 DUP7 DUP4 MSTORE DUP13 MLOAD SWAP14 DUP15 SWAP6 PUSH4 0xC04B8D59 PUSH1 0xE0 SHL DUP8 MSTORE DUP8 DUP12 DUP9 ADD MSTORE MLOAD SWAP5 PUSH1 0xA0 PUSH1 0x24 DUP9 ADD MSTORE DUP13 DUP7 MLOAD SWAP7 DUP8 PUSH1 0xC4 DUP11 ADD MSTORE DUP10 DUP3 JUMPDEST DUP10 DUP2 LT PUSH2 0x11C4 JUMPI POP POP POP SWAP2 DUP8 SWAP6 SWAP4 SWAP2 DUP8 SWAP6 SWAP4 PUSH1 0xE4 DUP1 SWAP10 DUP10 ADD ADD MSTORE MLOAD AND PUSH1 0x44 DUP7 ADD MSTORE MLOAD PUSH1 0x64 DUP6 ADD MSTORE MLOAD PUSH1 0x84 DUP5 ADD MSTORE MLOAD PUSH1 0xA4 DUP4 ADD MSTORE PUSH1 0x1F DUP1 NOT SWAP2 ADD AND DUP2 ADD SUB ADD DUP2 DUP9 DUP7 PUSH32 0x0 AND GAS CALL SWAP8 DUP9 ISZERO PUSH2 0x11BA JUMPI DUP6 SWAP9 PUSH2 0x118B JUMPI JUMPDEST POP DUP8 ISZERO PUSH2 0x1148 JUMPI SWAP3 DUP9 SWAP3 DUP6 DUP10 SWAP4 PUSH2 0x1066 PUSH2 0x1091 SWAP8 DUP7 LT ISZERO PUSH2 0x18DE JUMP JUMPDEST DUP10 MLOAD PUSH4 0xA9059CBB PUSH1 0xE0 SHL DUP2 MSTORE CALLER SWAP4 DUP2 ADD SWAP4 DUP5 MSTORE PUSH1 0x20 DUP5 ADD SWAP6 SWAP1 SWAP6 MSTORE SWAP4 SWAP6 DUP7 SWAP5 DUP6 SWAP4 SWAP1 SWAP2 DUP5 SWAP2 PUSH1 0x40 ADD SWAP1 JUMP JUMPDEST SUB SWAP4 AND GAS CALL DUP1 ISZERO PUSH2 0x113E JUMPI DUP3 SWAP1 PUSH2 0x1108 JUMPI JUMPDEST PUSH2 0x10AD SWAP2 POP PUSH2 0x1786 JUMP JUMPDEST PUSH2 0x10B9 DUP5 PUSH1 0x6 SLOAD PUSH2 0x17D2 JUMP JUMPDEST PUSH1 0x6 SSTORE PUSH2 0x10C7 PUSH1 0x8 SLOAD PUSH2 0x17F5 JUMP JUMPDEST PUSH1 0x8 SSTORE DUP3 MLOAD SWAP2 DUP3 MSTORE DUP5 DUP3 ADD MSTORE DUP3 DUP3 DUP3 ADD MSTORE PUSH32 0xDFEF462DA6D7E712F2E69FD1113692D86E3A91DCACFAF88E85E2111074E417A3 PUSH1 0x60 CALLER SWAP3 LOG2 PUSH1 0x1 DUP1 SSTORE MLOAD SWAP1 DUP2 MSTORE RETURN JUMPDEST POP DUP6 DUP2 DUP2 RETURNDATASIZE DUP4 GT PUSH2 0x1137 JUMPI JUMPDEST PUSH2 0x111E DUP2 DUP4 PUSH2 0x1757 JUMP JUMPDEST DUP2 ADD SUB SLT PUSH2 0x1A6 JUMPI PUSH2 0x1132 PUSH2 0x10AD SWAP2 PUSH2 0x1779 JUMP JUMPDEST PUSH2 0x10A3 JUMP JUMPDEST POP RETURNDATASIZE PUSH2 0x1114 JUMP JUMPDEST DUP5 MLOAD RETURNDATASIZE DUP5 DUP3 RETURNDATACOPY RETURNDATASIZE SWAP1 REVERT JUMPDEST DUP7 MLOAD PUSH3 0x461BCD PUSH1 0xE5 SHL DUP2 MSTORE DUP1 DUP5 ADD DUP11 SWAP1 MSTORE PUSH1 0x1D PUSH1 0x24 DUP3 ADD MSTORE PUSH32 0x526F757465723A206D756C74692D686F702073776170206661696C6564000000 PUSH1 0x44 DUP3 ADD MSTORE PUSH1 0x64 SWAP1 REVERT JUMPDEST SWAP1 SWAP8 POP DUP9 DUP2 DUP2 RETURNDATASIZE DUP4 GT PUSH2 0x11B3 JUMPI JUMPDEST PUSH2 0x11A3 DUP2 DUP4 PUSH2 0x1757 JUMP JUMPDEST DUP2 ADD SUB SLT PUSH2 0x8CC JUMPI MLOAD SWAP7 DUP10 PUSH2 0x104A JUMP JUMPDEST POP RETURNDATASIZE PUSH2 0x1199 JUMP JUMPDEST DUP8 MLOAD RETURNDATASIZE DUP8 DUP3 RETURNDATACOPY RETURNDATASIZE SWAP1 REVERT JUMPDEST DUP3 SWAP6 POP DUP1 SWAP4 POP DUP2 DUP2 PUSH1 0xE4 SWAP4 SWAP7 SWAP9 SWAP10 SWAP11 SWAP12 SWAP13 SWAP5 ADD ADD MLOAD SWAP3 ADD ADD MSTORE ADD SWAP2 DUP16 SWAP7 SWAP6 SWAP5 SWAP4 SWAP3 DUP11 SWAP3 DUP10 DUP16 SWAP3 PUSH2 0xFD7 JUMP JUMPDEST PUSH4 0x4E487B71 PUSH1 0xE0 SHL DUP9 MSTORE PUSH1 0x41 DUP7 MSTORE PUSH1 0x24 DUP9 REVERT JUMPDEST PUSH4 0x4E487B71 PUSH1 0xE0 SHL DUP9 MSTORE PUSH1 0x11 DUP7 MSTORE PUSH1 0x24 DUP9 REVERT JUMPDEST PUSH4 0x4E487B71 PUSH1 0xE0 SHL DUP8 MSTORE PUSH1 0x41 DUP6 MSTORE PUSH1 0x24 DUP8 REVERT JUMPDEST POP DUP9 DUP2 DUP2 RETURNDATASIZE DUP4 GT PUSH2 0x1257 JUMPI JUMPDEST PUSH2 0x123E DUP2 DUP4 PUSH2 0x1757 JUMP JUMPDEST DUP2 ADD SUB SLT PUSH2 0x8CC JUMPI PUSH2 0x1252 PUSH2 0xEC5 SWAP2 PUSH2 0x1779 JUMP JUMPDEST PUSH2 0xEBB JUMP JUMPDEST POP RETURNDATASIZE PUSH2 0x1234 JUMP JUMPDEST POP POP CALLVALUE PUSH2 0x1A6 JUMPI DUP2 PUSH1 0x3 NOT CALLDATASIZE ADD SLT PUSH2 0x1A6 JUMPI PUSH1 0x2 SLOAD SWAP1 MLOAD PUSH1 0x8 SWAP2 SWAP1 SWAP2 SHR PUSH1 0x1 PUSH1 0x1 PUSH1 0xA0 SHL SUB AND DUP2 MSTORE PUSH1 0x20 SWAP1 RETURN JUMPDEST SWAP1 POP CALLVALUE PUSH2 0x347 JUMPI PUSH1 0x20 CALLDATASIZE PUSH1 0x3 NOT ADD SLT PUSH2 0x347 JUMPI DUP2 PUSH1 0x20 SWAP4 PUSH1 0x1 SWAP3 CALLDATALOAD DUP2 MSTORE DUP1 DUP6 MSTORE KECCAK256 ADD SLOAD SWAP1 MLOAD SWAP1 DUP2 MSTORE RETURN JUMPDEST DUP4 DUP4 CALLVALUE PUSH2 0x1A6 JUMPI PUSH2 0x12C5 CALLDATASIZE PUSH2 0x16DD JUMP JUMPDEST SWAP4 PUSH2 0x12CE PUSH2 0x1936 JUMP JUMPDEST PUSH2 0x12D6 PUSH2 0x1959 JUMP JUMPDEST DUP1 SLOAD DUP3 LT PUSH2 0x164E JUMPI DUP3 MLOAD PUSH4 0x23B872DD PUSH1 0xE0 SHL DUP2 MSTORE CALLER DUP2 DUP4 ADD SWAP1 DUP2 MSTORE ADDRESS PUSH1 0x20 DUP3 DUP2 ADD SWAP2 SWAP1 SWAP2 MSTORE PUSH1 0x40 DUP3 ADD DUP6 SWAP1 MSTORE SWAP7 PUSH1 0x1 PUSH1 0x1 PUSH1 0xA0 SHL SUB SWAP4 SWAP3 PUSH32 0x0 DUP6 AND SWAP3 DUP10 SWAP1 DUP3 SWAP1 DUP2 SWAP1 PUSH1 0x60 ADD SUB DUP2 DUP12 DUP8 GAS CALL DUP1 ISZERO PUSH2 0x1644 JUMPI DUP9 SWAP1 PUSH2 0x160A JUMPI JUMPDEST PUSH2 0x1357 SWAP2 POP PUSH2 0x1786 JUMP JUMPDEST PUSH2 0x12C TIMESTAMP ADD DUP1 TIMESTAMP GT PUSH2 0x15F7 JUMPI SWAP2 DUP9 SWAP2 PUSH2 0x13DC SWAP6 SWAP5 SWAP4 DUP9 MLOAD SWAP3 PUSH2 0x1378 DUP5 PUSH2 0x1724 JUMP JUMPDEST DUP4 MSTORE DUP6 PUSH32 0x0 AND DUP5 DUP5 ADD MSTORE PUSH2 0xBB8 DUP10 DUP5 ADD MSTORE ADDRESS PUSH1 0x60 DUP5 ADD MSTORE PUSH1 0x80 DUP4 ADD MSTORE DUP7 PUSH1 0xA0 DUP4 ADD MSTORE PUSH1 0xC0 DUP3 ADD MSTORE DUP8 PUSH1 0xE0 DUP3 ADD MSTORE DUP7 MLOAD DUP1 SWAP6 DUP2 SWAP3 PUSH4 0x414BF389 PUSH1 0xE0 SHL DUP4 MSTORE DUP6 DUP4 ADD PUSH2 0x1977 JUMP JUMPDEST SUB DUP2 DUP10 DUP7 PUSH32 0x0 AND GAS CALL SWAP3 DUP4 ISZERO PUSH2 0x15ED JUMPI SWAP1 DUP8 SWAP2 DUP8 SWAP5 PUSH2 0x15BC JUMPI JUMPDEST POP DUP4 SWAP1 PUSH2 0x1423 DUP3 ISZERO ISZERO PUSH2 0x19DE JUMP JUMPDEST DUP7 PUSH1 0x2 SLOAD PUSH1 0xFF DUP2 PUSH1 0xA8 SHR AND DUP1 PUSH2 0x15AE JUMPI JUMPDEST PUSH2 0x1533 JUMPI JUMPDEST POP MLOAD PUSH4 0x16CC3DA3 PUSH1 0xE2 SHL DUP2 MSTORE CALLER SWAP2 DUP2 ADD SWAP2 DUP3 MSTORE PUSH1 0x20 DUP3 ADD SWAP3 SWAP1 SWAP3 MSTORE SWAP1 SWAP3 DUP4 SWAP2 DUP3 SWAP1 DUP10 SWAP1 DUP3 SWAP1 PUSH1 0x40 ADD JUMPDEST SUB SWAP3 PUSH32 0x0 AND GAS CALL SWAP5 DUP6 ISZERO PUSH2 0x1528 JUMPI DUP1 SWAP6 PUSH2 0x14D6 JUMPI JUMPDEST POP POP DUP4 PUSH32 0x16737B8C514BB0BDE161519D0CBDBB3176E5835B6175BF3D1254D115DFD37DFA SWAP2 PUSH2 0x14C7 DUP5 PUSH1 0x5 SLOAD PUSH2 0x17D2 JUMP JUMPDEST PUSH1 0x5 SSTORE PUSH2 0x767 DUP2 PUSH1 0x7 SLOAD PUSH2 0x17D2 JUMP JUMPDEST SWAP1 SWAP2 SWAP5 POP DUP6 DUP3 DUP2 RETURNDATASIZE DUP4 GT PUSH2 0x1521 JUMPI JUMPDEST PUSH2 0x14EF DUP2 DUP4 PUSH2 0x1757 JUMP JUMPDEST DUP2 ADD SUB SLT PUSH2 0x7EF JUMPI POP MLOAD SWAP3 PUSH32 0x16737B8C514BB0BDE161519D0CBDBB3176E5835B6175BF3D1254D115DFD37DFA DUP7 PUSH2 0x1496 JUMP JUMPDEST POP RETURNDATASIZE PUSH2 0x14E5 JUMP JUMPDEST DUP5 MLOAD SWAP1 RETURNDATASIZE SWAP1 DUP3 RETURNDATACOPY RETURNDATASIZE SWAP1 REVERT JUMPDEST SWAP1 SWAP2 SWAP4 POP DUP5 SWAP3 POP PUSH1 0x44 DUP3 MLOAD DUP1 SWAP5 DUP2 SWAP4 PUSH4 0xC7AA1053 PUSH1 0xE0 SHL DUP4 MSTORE DUP11 DUP9 DUP5 ADD MSTORE DUP10 PUSH1 0x24 DUP5 ADD MSTORE PUSH1 0x8 SHR AND GAS STATICCALL SWAP1 DUP2 ISZERO PUSH2 0x15A4 JUMPI SWAP3 DUP9 SWAP3 PUSH2 0x157C DUP7 SWAP4 PUSH2 0x1462 SWAP7 DUP12 SWAP2 PUSH2 0x1586 JUMPI POP PUSH2 0x1A3D JUMP JUMPDEST SWAP1 SWAP4 POP DUP7 DUP11 PUSH2 0x1439 JUMP JUMPDEST PUSH2 0x159D SWAP2 POP DUP11 RETURNDATASIZE DUP13 GT PUSH2 0x883 JUMPI PUSH2 0x874 DUP2 DUP4 PUSH2 0x1757 JUMP JUMPDEST POP DUP13 PUSH2 0x84D JUMP JUMPDEST DUP7 MLOAD RETURNDATASIZE DUP10 DUP3 RETURNDATACOPY RETURNDATASIZE SWAP1 REVERT JUMPDEST POP DUP6 DUP2 PUSH1 0x8 SHR AND ISZERO ISZERO PUSH2 0x1434 JUMP JUMPDEST DUP3 DUP2 SWAP4 SWAP3 SWAP6 POP RETURNDATASIZE DUP4 GT PUSH2 0x15E6 JUMPI JUMPDEST PUSH2 0x15D4 DUP2 DUP4 PUSH2 0x1757 JUMP JUMPDEST DUP2 ADD SUB SLT PUSH2 0x997 JUMPI DUP7 SWAP1 MLOAD SWAP3 DUP9 PUSH2 0x1415 JUMP JUMPDEST POP RETURNDATASIZE PUSH2 0x15CA JUMP JUMPDEST DUP6 MLOAD RETURNDATASIZE DUP9 DUP3 RETURNDATACOPY RETURNDATASIZE SWAP1 REVERT JUMPDEST PUSH4 0x4E487B71 PUSH1 0xE0 SHL DUP9 MSTORE PUSH1 0x11 DUP5 MSTORE PUSH1 0x24 DUP9 REVERT JUMPDEST POP DUP9 DUP2 DUP2 RETURNDATASIZE DUP4 GT PUSH2 0x163D JUMPI JUMPDEST PUSH2 0x1620 DUP2 DUP4 PUSH2 0x1757 JUMP JUMPDEST DUP2 ADD SUB SLT PUSH2 0x1639 JUMPI PUSH2 0x1634 PUSH2 0x1357 SWAP2 PUSH2 0x1779 JUMP JUMPDEST PUSH2 0x134D JUMP JUMPDEST DUP8 DUP1 REVERT JUMPDEST POP RETURNDATASIZE PUSH2 0x1616 JUMP JUMPDEST DUP8 MLOAD RETURNDATASIZE DUP11 DUP3 RETURNDATACOPY RETURNDATASIZE SWAP1 REVERT JUMPDEST PUSH1 0x64 SWAP1 PUSH1 0x20 DUP5 MLOAD SWAP2 PUSH3 0x461BCD PUSH1 0xE5 SHL DUP4 MSTORE DUP3 ADD MSTORE PUSH1 0x16 PUSH1 0x24 DUP3 ADD MSTORE PUSH22 0x526F757465723A20616D6F756E7420746F6F206C6F77 PUSH1 0x50 SHL PUSH1 0x44 DUP3 ADD MSTORE REVERT JUMPDEST DUP5 SWAP2 CALLVALUE PUSH2 0x347 JUMPI PUSH1 0x20 CALLDATASIZE PUSH1 0x3 NOT ADD SLT PUSH2 0x347 JUMPI CALLDATALOAD PUSH4 0xFFFFFFFF PUSH1 0xE0 SHL DUP2 AND DUP1 SWAP2 SUB PUSH2 0x347 JUMPI PUSH1 0x20 SWAP3 POP PUSH4 0x7965DB0B PUSH1 0xE0 SHL DUP2 EQ SWAP1 DUP2 ISZERO PUSH2 0x16CC JUMPI JUMPDEST POP ISZERO ISZERO DUP2 MSTORE RETURN JUMPDEST PUSH4 0x1FFC9A7 PUSH1 0xE0 SHL EQ SWAP1 POP DUP4 PUSH2 0x16C5 JUMP JUMPDEST PUSH1 0x40 SWAP1 PUSH1 0x3 NOT ADD SLT PUSH2 0x16F3 JUMPI PUSH1 0x4 CALLDATALOAD SWAP1 PUSH1 0x24 CALLDATALOAD SWAP1 JUMP JUMPDEST PUSH1 0x0 DUP1 REVERT JUMPDEST PUSH1 0x24 CALLDATALOAD SWAP1 PUSH1 0x1 PUSH1 0x1 PUSH1 0xA0 SHL SUB DUP3 AND DUP3 SUB PUSH2 0x16F3 JUMPI JUMP JUMPDEST PUSH1 0x4 CALLDATALOAD SWAP1 PUSH1 0x1 PUSH1 0x1 PUSH1 0xA0 SHL SUB DUP3 AND DUP3 SUB PUSH2 0x16F3 JUMPI JUMP JUMPDEST PUSH2 0x100 DUP2 ADD SWAP1 DUP2 LT PUSH8 0xFFFFFFFFFFFFFFFF DUP3 GT OR PUSH2 0x1741 JUMPI PUSH1 0x40 MSTORE JUMP JUMPDEST PUSH4 0x4E487B71 PUSH1 0xE0 SHL PUSH1 0x0 MSTORE PUSH1 0x41 PUSH1 0x4 MSTORE PUSH1 0x24 PUSH1 0x0 REVERT JUMPDEST SWAP1 PUSH1 0x1F DUP1 NOT SWAP2 ADD AND DUP2 ADD SWAP1 DUP2 LT PUSH8 0xFFFFFFFFFFFFFFFF DUP3 GT OR PUSH2 0x1741 JUMPI PUSH1 0x40 MSTORE JUMP JUMPDEST MLOAD SWAP1 DUP2 ISZERO ISZERO DUP3 SUB PUSH2 0x16F3 JUMPI JUMP JUMPDEST ISZERO PUSH2 0x178D JUMPI JUMP JUMPDEST PUSH1 0x40 MLOAD PUSH3 0x461BCD PUSH1 0xE5 SHL DUP2 MSTORE PUSH1 0x20 PUSH1 0x4 DUP3 ADD MSTORE PUSH1 0x1C PUSH1 0x24 DUP3 ADD MSTORE PUSH32 0x526F757465723A2044555354207472616E73666572206661696C656400000000 PUSH1 0x44 DUP3 ADD MSTORE PUSH1 0x64 SWAP1 REVERT JUMPDEST SWAP2 SWAP1 DUP3 ADD DUP1 SWAP3 GT PUSH2 0x17DF JUMPI JUMP JUMPDEST PUSH4 0x4E487B71 PUSH1 0xE0 SHL PUSH1 0x0 MSTORE PUSH1 0x11 PUSH1 0x4 MSTORE PUSH1 0x24 PUSH1 0x0 REVERT JUMPDEST PUSH1 0x0 NOT DUP2 EQ PUSH2 0x17DF JUMPI PUSH1 0x1 ADD SWAP1 JUMP JUMPDEST ISZERO PUSH2 0x180B JUMPI JUMP JUMPDEST PUSH1 0x40 MLOAD PUSH3 0x461BCD PUSH1 0xE5 SHL DUP2 MSTORE PUSH1 0x20 PUSH1 0x4 DUP3 ADD MSTORE PUSH1 0x13 PUSH1 0x24 DUP3 ADD MSTORE PUSH19 0x149BDD5D195C8E881E995C9BC8185B5BDD5B9D PUSH1 0x6A SHL PUSH1 0x44 DUP3 ADD MSTORE PUSH1 0x64 SWAP1 REVERT JUMPDEST ISZERO PUSH2 0x184D JUMPI JUMP JUMPDEST PUSH1 0x40 MLOAD PUSH3 0x461BCD PUSH1 0xE5 SHL DUP2 MSTORE PUSH1 0x20 PUSH1 0x4 DUP3 ADD MSTORE PUSH1 0x17 PUSH1 0x24 DUP3 ADD MSTORE PUSH32 0x526F757465723A206D696E447573744F7574207A65726F000000000000000000 PUSH1 0x44 DUP3 ADD MSTORE PUSH1 0x64 SWAP1 REVERT JUMPDEST ISZERO PUSH2 0x1899 JUMPI JUMP JUMPDEST PUSH1 0x40 MLOAD PUSH3 0x461BCD PUSH1 0xE5 SHL DUP2 MSTORE PUSH1 0x20 PUSH1 0x4 DUP3 ADD MSTORE PUSH1 0x1E PUSH1 0x24 DUP3 ADD MSTORE PUSH32 0x526F757465723A20737455534443207472616E73666572206661696C65640000 PUSH1 0x44 DUP3 ADD MSTORE PUSH1 0x64 SWAP1 REVERT JUMPDEST ISZERO PUSH2 0x18E5 JUMPI JUMP JUMPDEST PUSH1 0x64 PUSH1 0x40 MLOAD PUSH3 0x461BCD PUSH1 0xE5 SHL DUP2 MSTORE PUSH1 0x20 PUSH1 0x4 DUP3 ADD MSTORE PUSH1 0x20 PUSH1 0x24 DUP3 ADD MSTORE PUSH32 0x526F757465723A20696E73756666696369656E742044555354206F7574707574 PUSH1 0x44 DUP3 ADD MSTORE REVERT JUMPDEST SWAP2 SWAP1 DUP3 SUB SWAP2 DUP3 GT PUSH2 0x17DF JUMPI JUMP JUMPDEST PUSH1 0x2 PUSH1 0x1 SLOAD EQ PUSH2 0x1947 JUMPI PUSH1 0x2 PUSH1 0x1 SSTORE JUMP JUMPDEST PUSH1 0x40 MLOAD PUSH4 0x3EE5AEB5 PUSH1 0xE0 SHL DUP2 MSTORE PUSH1 0x4 SWAP1 REVERT JUMPDEST PUSH1 0xFF PUSH1 0x2 SLOAD AND PUSH2 0x1965 JUMPI JUMP JUMPDEST PUSH1 0x40 MLOAD PUSH4 0xD93C0665 PUSH1 0xE0 SHL DUP2 MSTORE PUSH1 0x4 SWAP1 REVERT JUMPDEST SWAP2 SWAP1 SWAP2 PUSH1 0xE0 PUSH2 0x100 DUP3 ADD SWAP4 DUP2 PUSH1 0x1 DUP1 PUSH1 0xA0 SHL SUB SWAP2 DUP3 DUP2 MLOAD AND DUP6 MSTORE DUP3 PUSH1 0x20 DUP3 ADD MLOAD AND PUSH1 0x20 DUP7 ADD MSTORE PUSH3 0xFFFFFF PUSH1 0x40 DUP3 ADD MLOAD AND PUSH1 0x40 DUP7 ADD MSTORE DUP3 PUSH1 0x60 DUP3 ADD MLOAD AND PUSH1 0x60 DUP7 ADD MSTORE PUSH1 0x80 DUP2 ADD MLOAD PUSH1 0x80 DUP7 ADD MSTORE PUSH1 0xA0 DUP2 ADD MLOAD PUSH1 0xA0 DUP7 ADD MSTORE PUSH1 0xC0 DUP2 ADD MLOAD PUSH1 0xC0 DUP7 ADD MSTORE ADD MLOAD AND SWAP2 ADD MSTORE JUMP JUMPDEST ISZERO PUSH2 0x19E5 JUMPI JUMP JUMPDEST PUSH1 0x40 MLOAD PUSH3 0x461BCD PUSH1 0xE5 SHL DUP2 MSTORE PUSH1 0x20 PUSH1 0x4 DUP3 ADD MSTORE PUSH1 0x13 PUSH1 0x24 DUP3 ADD MSTORE PUSH19 0x149BDD5D195C8E881CDDD85C0819985A5B1959 PUSH1 0x6A SHL PUSH1 0x44 DUP3 ADD MSTORE PUSH1 0x64 SWAP1 REVERT JUMPDEST SWAP2 SWAP1 DUP3 PUSH1 0x40 SWAP2 SUB SLT PUSH2 0x16F3 JUMPI PUSH1 0x20 PUSH2 0x1A37 DUP4 PUSH2 0x1779 JUMP JUMPDEST SWAP3 ADD MLOAD SWAP1 JUMP JUMPDEST ISZERO PUSH2 0x1A44 JUMPI JUMP JUMPDEST PUSH1 0x40 MLOAD PUSH3 0x461BCD PUSH1 0xE5 SHL DUP2 MSTORE PUSH1 0x20 PUSH1 0x4 DUP3 ADD MSTORE PUSH1 0x25 PUSH1 0x24 DUP3 ADD MSTORE PUSH32 0x526F757465723A20707269636520646576696174696F6E206578636565647320 PUSH1 0x44 DUP3 ADD MSTORE PUSH5 0x1B1A5B5A5D PUSH1 0xDA SHL PUSH1 0x64 DUP3 ADD MSTORE PUSH1 0x84 SWAP1 REVERT JUMPDEST CALLER PUSH1 0x0 SWAP1 DUP2 MSTORE PUSH32 0xF7C9542C591017A21C74B6F3FAB6263C7952FC0AAF9DB4C22A2A04DDC7F8674F PUSH1 0x20 MSTORE PUSH1 0x40 SWAP1 KECCAK256 SLOAD PUSH32 0x65D7A28E3265B37A6474929F336521B332C1681B933F6CB9F3376673440D862A SWAP1 PUSH1 0xFF AND ISZERO PUSH2 0x1AF3 JUMPI POP JUMP JUMPDEST PUSH1 0x44 SWAP1 PUSH1 0x40 MLOAD SWAP1 PUSH4 0xE2517D3F PUSH1 0xE0 SHL DUP3 MSTORE CALLER PUSH1 0x4 DUP4 ADD MSTORE PUSH1 0x24 DUP3 ADD MSTORE REVERT JUMPDEST CALLER PUSH1 0x0 SWAP1 DUP2 MSTORE PUSH32 0xAD3228B676F7D3CD4284A5443F17F1962B36E491B30A40B2405849E597BA5FB5 PUSH1 0x20 MSTORE PUSH1 0x40 DUP2 KECCAK256 SLOAD PUSH1 0xFF AND ISZERO PUSH2 0x1AF3 JUMPI POP JUMP JUMPDEST DUP1 PUSH1 0x0 MSTORE PUSH1 0x0 PUSH1 0x20 MSTORE PUSH1 0x40 PUSH1 0x0 KECCAK256 CALLER PUSH1 0x0 MSTORE PUSH1 0x20 MSTORE PUSH1 0xFF PUSH1 0x40 PUSH1 0x0 KECCAK256 SLOAD AND ISZERO PUSH2 0x1AF3 JUMPI POP JUMP JUMPDEST SWAP1 PUSH1 0x0 SWAP2 DUP1 DUP4 MSTORE DUP3 PUSH1 0x20 MSTORE PUSH1 0x40 DUP4 KECCAK256 SWAP2 PUSH1 0x1 DUP1 PUSH1 0xA0 SHL SUB AND SWAP2 DUP3 DUP5 MSTORE PUSH1 0x20 MSTORE PUSH1 0xFF PUSH1 0x40 DUP5 KECCAK256 SLOAD AND ISZERO PUSH1 0x0 EQ PUSH2 0x1BEA JUMPI DUP1 DUP4 MSTORE DUP3 PUSH1 0x20 MSTORE PUSH1 0x40 DUP4 KECCAK256 DUP3 DUP5 MSTORE PUSH1 0x20 MSTORE PUSH1 0x40 DUP4 KECCAK256 PUSH1 0x1 PUSH1 0xFF NOT DUP3 SLOAD AND OR SWAP1 SSTORE PUSH32 0x2F8788117E7EFF1D82E926EC794901D17C78024A50270940304540A733656F0D CALLER SWAP4 DUP1 LOG4 PUSH1 0x1 SWAP1 JUMP JUMPDEST POP POP SWAP1 JUMP JUMPDEST SWAP1 PUSH1 0x0 SWAP2 DUP1 DUP4 MSTORE DUP3 PUSH1 0x20 MSTORE PUSH1 0x40 DUP4 KECCAK256 SWAP2 PUSH1 0x1 DUP1 PUSH1 0xA0 SHL SUB AND SWAP2 DUP3 DUP5 MSTORE PUSH1 0x20 MSTORE PUSH1 0xFF PUSH1 0x40 DUP5 KECCAK256 SLOAD AND PUSH1 0x0 EQ PUSH2 0x1BEA JUMPI DUP1 DUP4 MSTORE DUP3 PUSH1 0x20 MSTORE PUSH1 0x40 DUP4 KECCAK256 DUP3 DUP5 MSTORE PUSH1 0x20 MSTORE PUSH1 0x40 DUP4 KECCAK256 PUSH1 0xFF NOT DUP2 SLOAD AND SWAP1 SSTORE PUSH32 0xF6391F5C32D9C69D2A47EA670B442974B53935D1EDC7FD64EB21E047A839171B CALLER SWAP4 DUP1 LOG4 PUSH1 0x1 SWAP1 JUMP INVALID LOG2 PUSH5 0x6970667358 0x22 SLT KECCAK256 PUSH20 0x7D48317A4081F7CF2CCB078F9D37ED04A8712CC5 0xE4 PUSH24 0x245BD34588240DEF5D64736F6C634300081800332F878811 PUSH31 0x7EFF1D82E926EC794901D17C78024A50270940304540A733656F0D00000000 "},"methodIdentifiers":{"DEFAULT_ADMIN_ROLE()":"a217fddf","PAUSER_ROLE()":"e63ab1e9","POOL_FEE()":"dd1b9c4a","depositWithDUST(uint256,uint256)":"1db447bf","dust()":"fad9aba3","emergencyWithdraw(address,address,uint256)":"e63ea408","getRoleAdmin(bytes32)":"248a9ca3","getRouterStats()":"d146de40","grantRole(bytes32,address)":"2f2ff15d","hasRole(bytes32,address)":"91d14854","maxSlippage()":"8c04166f","minSwapAmount()":"338246e2","oracleEnabled()":"756a24e4","pause()":"8456cb59","paused()":"5c975abb","priceOracle()":"2630c12f","renounceRole(bytes32,address)":"36568abe","revokeRole(bytes32,address)":"d547741f","setOracleEnabled(bool)":"9c0f201c","setParameters(uint256,uint256)":"884870c7","setPriceOracle(address)":"530e784f","stats()":"d80528ae","supportsInterface(bytes4)":"01ffc9a7","uniswapRouter()":"735de9f7","unpause()":"3f4ba83a","usdc()":"3e413bee","vault()":"fbfa77cf","withdrawToDUST(uint256,uint256)":"27ecb986","withdrawToDUSTLegacy(uint256,uint256,uint256)":"b837c0ed"}}}}}