{
  "_format": "hh-sol-artifact-1",
  "contractName": "MockUniswapRouter",
  "sourceName": "src/mocks/MockUniswapRouter.sol",
  "abi": [
    {
      "inputs": [
        {
          "internalType": "uint256",
          "name": "amountIn",
          "type": "uint256"
        },
        {
          "internalType": "uint256",
          "name": "amountOutMin",
          "type": "uint256"
        },
        {
          "internalType": "address[]",
          "name": "path",
          "type": "address[]"
        },
        {
          "internalType": "address",
          "name": "to",
          "type": "address"
        },
        {
          "internalType": "uint256",
          "name": "deadline",
          "type": "uint256"
        }
      ],
      "name": "swapExactTokensForTokens",
      "outputs": [
        {
          "internalType": "uint256[]",
          "name": "amounts",
          "type": "uint256[]"
        }
      ],
      "stateMutability": "nonpayable",
      "type": "function"
    }
  ],
  "bytecode": "0x6080806040523461001657610423908161001c8239f35b600080fdfe608060408181526004918236101561001657600080fd5b600092833560e01c6338ed17391461002d57600080fd5b346103685760a03660031901126103685780359360249460449586359067ffffffffffffffff94858311610364573660238401121561036457828101359586116103645736828760051b85010111610364576064986001600160a01b03978a3589811692919083900361036057426084351061033957506002881061030a5785156102d55787156102c35788999a8798996100c986880161036c565b168c51906323b872dd60e01b825233868301523087830152888483015281838160209d8e945af180156102b95761029c575b508435871061025d5750600019890199898b1161024b57898b1015610239579188918893610130878e60051b809a010161036c565b16918d51948593849263a9059cbb60e01b8452888401528a898401525af1801561022f57610202575b5061017b610166886103d5565b976101738b51998a610385565b8089526103d5565b8787019890601f1901368a378751156101f057848952875111156101df578287018601849052885186815287518188018190528190818c01908b908a8a5b8281106101c857505050500390f35b8351855286955093810193928101926001016101b9565b634e487b7160e01b85526032905283fd5b50634e487b7160e01b85526032905283fd5b61022190873d8911610228575b6102198183610385565b8101906103bd565b5038610159565b503d61020f565b8a513d88823e3d90fd5b634e487b7160e01b8852603284528488fd5b634e487b7160e01b8852601184528488fd5b937f496e73756666696369656e74206f757470757420616d6f756e740000000000009250601a90898d519562461bcd60e51b8752860152840152820152fd5b6102b2908a3d8c11610228576102198183610385565b50386100fb565b8d513d8b823e3d90fd5b634e487b7160e01b8752603283528387fd5b710416d6f756e74206d757374206265203e20360741b915060128b9460208c519562461bcd60e51b8752860152840152820152fd5b6b092dcecc2d8d2c840e0c2e8d60a31b9150600c8b9460208c519562461bcd60e51b8752860152840152820152fd5b66115e1c1a5c995960ca1b8c9260078760208862461bcd60e51b8752860152840152820152fd5b8780fd5b8480fd5b8380fd5b356001600160a01b03811681036103805790565b600080fd5b90601f8019910116810190811067ffffffffffffffff8211176103a757604052565b634e487b7160e01b600052604160045260246000fd5b90816020910312610380575180151581036103805790565b67ffffffffffffffff81116103a75760051b6020019056fea2646970667358221220af2613494c3a16ccfa4064fb23e9bed30f3c0f3792a927a9e296de1dd870554864736f6c63430008180033",
  "linkReferences": {},
  "deployedLinkReferences": {}
}