{
  "_format": "hh-sol-artifact-1",
  "contractName": "DUSTBridge",
  "sourceName": "src/DUSTBridge.sol",
  "abi": [
    {
      "inputs": [
        {
          "internalType": "address",
          "name": "_dustToken",
          "type": "address"
        }
      ],
      "stateMutability": "nonpayable",
      "type": "constructor"
    },
    {
      "inputs": [],
      "name": "AccessControlBadConfirmation",
      "type": "error"
    },
    {
      "inputs": [
        {
          "internalType": "address",
          "name": "account",
          "type": "address"
        },
        {
          "internalType": "bytes32",
          "name": "neededRole",
          "type": "bytes32"
        }
      ],
      "name": "AccessControlUnauthorizedAccount",
      "type": "error"
    },
    {
      "inputs": [],
      "name": "EnforcedPause",
      "type": "error"
    },
    {
      "inputs": [],
      "name": "ExpectedPause",
      "type": "error"
    },
    {
      "inputs": [],
      "name": "ReentrancyGuardReentrantCall",
      "type": "error"
    },
    {
      "anonymous": false,
      "inputs": [
        {
          "indexed": true,
          "internalType": "address",
          "name": "from",
          "type": "address"
        },
        {
          "indexed": false,
          "internalType": "uint256",
          "name": "amount",
          "type": "uint256"
        },
        {
          "indexed": false,
          "internalType": "bytes",
          "name": "substrateAddress",
          "type": "bytes"
        },
        {
          "indexed": false,
          "internalType": "bytes32",
          "name": "arbitrumTxHash",
          "type": "bytes32"
        }
      ],
      "name": "BridgeBack",
      "type": "event"
    },
    {
      "anonymous": false,
      "inputs": [
        {
          "indexed": true,
          "internalType": "uint64",
          "name": "bridgeId",
          "type": "uint64"
        },
        {
          "indexed": true,
          "internalType": "address",
          "name": "to",
          "type": "address"
        },
        {
          "indexed": false,
          "internalType": "uint256",
          "name": "amount",
          "type": "uint256"
        },
        {
          "indexed": false,
          "internalType": "bytes32",
          "name": "stardustTxHash",
          "type": "bytes32"
        }
      ],
      "name": "BridgeMint",
      "type": "event"
    },
    {
      "anonymous": false,
      "inputs": [
        {
          "indexed": false,
          "internalType": "uint256",
          "name": "minAmount",
          "type": "uint256"
        },
        {
          "indexed": false,
          "internalType": "uint256",
          "name": "maxAmount",
          "type": "uint256"
        }
      ],
      "name": "LimitsUpdated",
      "type": "event"
    },
    {
      "anonymous": false,
      "inputs": [
        {
          "indexed": false,
          "internalType": "address",
          "name": "account",
          "type": "address"
        }
      ],
      "name": "Paused",
      "type": "event"
    },
    {
      "anonymous": false,
      "inputs": [
        {
          "indexed": true,
          "internalType": "bytes32",
          "name": "role",
          "type": "bytes32"
        },
        {
          "indexed": true,
          "internalType": "bytes32",
          "name": "previousAdminRole",
          "type": "bytes32"
        },
        {
          "indexed": true,
          "internalType": "bytes32",
          "name": "newAdminRole",
          "type": "bytes32"
        }
      ],
      "name": "RoleAdminChanged",
      "type": "event"
    },
    {
      "anonymous": false,
      "inputs": [
        {
          "indexed": true,
          "internalType": "bytes32",
          "name": "role",
          "type": "bytes32"
        },
        {
          "indexed": true,
          "internalType": "address",
          "name": "account",
          "type": "address"
        },
        {
          "indexed": true,
          "internalType": "address",
          "name": "sender",
          "type": "address"
        }
      ],
      "name": "RoleGranted",
      "type": "event"
    },
    {
      "anonymous": false,
      "inputs": [
        {
          "indexed": true,
          "internalType": "bytes32",
          "name": "role",
          "type": "bytes32"
        },
        {
          "indexed": true,
          "internalType": "address",
          "name": "account",
          "type": "address"
        },
        {
          "indexed": true,
          "internalType": "address",
          "name": "sender",
          "type": "address"
        }
      ],
      "name": "RoleRevoked",
      "type": "event"
    },
    {
      "anonymous": false,
      "inputs": [
        {
          "indexed": false,
          "internalType": "address",
          "name": "account",
          "type": "address"
        }
      ],
      "name": "Unpaused",
      "type": "event"
    },
    {
      "inputs": [],
      "name": "DEFAULT_ADMIN_ROLE",
      "outputs": [
        {
          "internalType": "bytes32",
          "name": "",
          "type": "bytes32"
        }
      ],
      "stateMutability": "view",
      "type": "function"
    },
    {
      "inputs": [],
      "name": "PAUSER_ROLE",
      "outputs": [
        {
          "internalType": "bytes32",
          "name": "",
          "type": "bytes32"
        }
      ],
      "stateMutability": "view",
      "type": "function"
    },
    {
      "inputs": [],
      "name": "RELAYER_ROLE",
      "outputs": [
        {
          "internalType": "bytes32",
          "name": "",
          "type": "bytes32"
        }
      ],
      "stateMutability": "view",
      "type": "function"
    },
    {
      "inputs": [
        {
          "internalType": "uint256",
          "name": "amount",
          "type": "uint256"
        },
        {
          "internalType": "bytes",
          "name": "substrateAddress",
          "type": "bytes"
        }
      ],
      "name": "burnAndBridgeBack",
      "outputs": [],
      "stateMutability": "nonpayable",
      "type": "function"
    },
    {
      "inputs": [],
      "name": "dustToken",
      "outputs": [
        {
          "internalType": "contract DUSTToken",
          "name": "",
          "type": "address"
        }
      ],
      "stateMutability": "view",
      "type": "function"
    },
    {
      "inputs": [],
      "name": "getBridgeStats",
      "outputs": [
        {
          "internalType": "uint256",
          "name": "totalToArbitrum",
          "type": "uint256"
        },
        {
          "internalType": "uint256",
          "name": "totalToStardust",
          "type": "uint256"
        },
        {
          "internalType": "uint256",
          "name": "netFlow",
          "type": "uint256"
        },
        {
          "internalType": "uint256",
          "name": "bridgeCount",
          "type": "uint256"
        }
      ],
      "stateMutability": "view",
      "type": "function"
    },
    {
      "inputs": [
        {
          "internalType": "bytes32",
          "name": "role",
          "type": "bytes32"
        }
      ],
      "name": "getRoleAdmin",
      "outputs": [
        {
          "internalType": "bytes32",
          "name": "",
          "type": "bytes32"
        }
      ],
      "stateMutability": "view",
      "type": "function"
    },
    {
      "inputs": [
        {
          "internalType": "bytes32",
          "name": "role",
          "type": "bytes32"
        },
        {
          "internalType": "address",
          "name": "account",
          "type": "address"
        }
      ],
      "name": "grantRole",
      "outputs": [],
      "stateMutability": "nonpayable",
      "type": "function"
    },
    {
      "inputs": [
        {
          "internalType": "bytes32",
          "name": "role",
          "type": "bytes32"
        },
        {
          "internalType": "address",
          "name": "account",
          "type": "address"
        }
      ],
      "name": "hasRole",
      "outputs": [
        {
          "internalType": "bool",
          "name": "",
          "type": "bool"
        }
      ],
      "stateMutability": "view",
      "type": "function"
    },
    {
      "inputs": [],
      "name": "maxBridgeAmount",
      "outputs": [
        {
          "internalType": "uint256",
          "name": "",
          "type": "uint256"
        }
      ],
      "stateMutability": "view",
      "type": "function"
    },
    {
      "inputs": [],
      "name": "minBridgeAmount",
      "outputs": [
        {
          "internalType": "uint256",
          "name": "",
          "type": "uint256"
        }
      ],
      "stateMutability": "view",
      "type": "function"
    },
    {
      "inputs": [
        {
          "internalType": "uint64",
          "name": "bridgeId",
          "type": "uint64"
        },
        {
          "internalType": "address",
          "name": "to",
          "type": "address"
        },
        {
          "internalType": "uint256",
          "name": "amount",
          "type": "uint256"
        },
        {
          "internalType": "bytes32",
          "name": "stardustTxHash",
          "type": "bytes32"
        }
      ],
      "name": "mint",
      "outputs": [],
      "stateMutability": "nonpayable",
      "type": "function"
    },
    {
      "inputs": [],
      "name": "pause",
      "outputs": [],
      "stateMutability": "nonpayable",
      "type": "function"
    },
    {
      "inputs": [],
      "name": "paused",
      "outputs": [
        {
          "internalType": "bool",
          "name": "",
          "type": "bool"
        }
      ],
      "stateMutability": "view",
      "type": "function"
    },
    {
      "inputs": [
        {
          "internalType": "uint64",
          "name": "",
          "type": "uint64"
        }
      ],
      "name": "processedBridgeIds",
      "outputs": [
        {
          "internalType": "bool",
          "name": "",
          "type": "bool"
        }
      ],
      "stateMutability": "view",
      "type": "function"
    },
    {
      "inputs": [
        {
          "internalType": "bytes32",
          "name": "role",
          "type": "bytes32"
        },
        {
          "internalType": "address",
          "name": "callerConfirmation",
          "type": "address"
        }
      ],
      "name": "renounceRole",
      "outputs": [],
      "stateMutability": "nonpayable",
      "type": "function"
    },
    {
      "inputs": [
        {
          "internalType": "bytes32",
          "name": "role",
          "type": "bytes32"
        },
        {
          "internalType": "address",
          "name": "account",
          "type": "address"
        }
      ],
      "name": "revokeRole",
      "outputs": [],
      "stateMutability": "nonpayable",
      "type": "function"
    },
    {
      "inputs": [
        {
          "internalType": "uint256",
          "name": "_minAmount",
          "type": "uint256"
        },
        {
          "internalType": "uint256",
          "name": "_maxAmount",
          "type": "uint256"
        }
      ],
      "name": "setLimits",
      "outputs": [],
      "stateMutability": "nonpayable",
      "type": "function"
    },
    {
      "inputs": [],
      "name": "stats",
      "outputs": [
        {
          "internalType": "uint256",
          "name": "totalBridgedToArbitrum",
          "type": "uint256"
        },
        {
          "internalType": "uint256",
          "name": "totalBridgedToStardust",
          "type": "uint256"
        },
        {
          "internalType": "uint256",
          "name": "bridgeCount",
          "type": "uint256"
        }
      ],
      "stateMutability": "view",
      "type": "function"
    },
    {
      "inputs": [
        {
          "internalType": "bytes4",
          "name": "interfaceId",
          "type": "bytes4"
        }
      ],
      "name": "supportsInterface",
      "outputs": [
        {
          "internalType": "bool",
          "name": "",
          "type": "bool"
        }
      ],
      "stateMutability": "view",
      "type": "function"
    },
    {
      "inputs": [],
      "name": "unpause",
      "outputs": [],
      "stateMutability": "nonpayable",
      "type": "function"
    }
  ],
  "bytecode": "0x60a0346100f757601f61114738819003918201601f19168301916001600160401b038311848410176100fc578084926020946040528339810103126100f757516001600160a01b038116908190036100f75760018055670de0b6b3a764000060035569d3c21bcecceda100000060045580156100b25760805261008133610112565b5061008b33610190565b50604051610ef690816102318239608051818181610415015281816106b001526109150152f35b60405162461bcd60e51b815260206004820152601860248201527f445553544272696467653a207a65726f206164647265737300000000000000006044820152606490fd5b600080fd5b634e487b7160e01b600052604160045260246000fd5b6001600160a01b031660008181527fad3228b676f7d3cd4284a5443f17f1962b36e491b30a40b2405849e597ba5fb5602052604081205490919060ff1661018c57818052816020526040822081835260205260408220600160ff1982541617905533916000805160206111278339815191528180a4600190565b5090565b6001600160a01b031660008181527ff7c9542c591017a21c74b6f3fab6263c7952fc0aaf9db4c22a2a04ddc7f8674f60205260408120549091907f65d7a28e3265b37a6474929f336521b332c1681b933f6cb9f3376673440d862a9060ff1661022b57808352826020526040832082845260205260408320600160ff19825416179055600080516020611127833981519152339380a4600190565b50509056fe608060408181526004918236101561001657600080fd5b600092833560e01c91826301ffc9a714610b66575081631d6c8b301461087f5781632165cbb714610825578163248a9ca3146107fb5781632f2ff15d146107d157816336568abe1461078b5781633f4ba83a146107215781635c975abb146106fd57816360132c9c146106df5781637238c9151461069b5781638456cb591461064057816391d14854146105fb578163926d7d7f146105c0578163a217fddf146105a5578163bf6110a51461032e578163c3c224751461030f578163c4590d3f146101f7578163d547741f146101b457508063d80528ae14610185578063e63ab1e91461014b5763f2fbbcaf1461010c57600080fd5b346101475760203660031901126101475760ff8160209367ffffffffffffffff610134610bd4565b1681526005855220541690519015158152f35b5080fd5b5034610147578160031936011261014757602090517f65d7a28e3265b37a6474929f336521b332c1681b933f6cb9f3376673440d862a8152f35b503461014757816003193601126101475760609060065490600754906008549181519384526020840152820152f35b919050346101f357806003193601126101f3576101ef91356101ea60016101d9610bb9565b938387528660205286200154610da7565b610e4b565b5080f35b8280fd5b8383346101475780600319360112610147578235602435600080526000602052826000203360005260205260ff836000205416156102f25781156102af578181111561027457807f4d4981437d0211f9e6843eb024d9ada1fa3a99514d4343d4aece106dd11524bb9495836003555582519182526020820152a180f35b825162461bcd60e51b81526020818701526015602482015274222aa9aa213934b233b29d1036b0bc101e1036b4b760591b6044820152606490fd5b825162461bcd60e51b8152602081870152601b60248201527f445553544272696467653a206d696e20616d6f756e74207a65726f00000000006044820152606490fd5b825163e2517d3f60e01b8152338187015260006024820152604490fd5b5050346101475781600319360112610147576020906003549051908152f35b919050346101f35760803660031901126101f35761034a610bd4565b91610353610bb9565b916044357fe2b7fb3b832174769106daebcfd6d1970523240dda11281102db9363b83b0dc49283600052602093600085528360002033600052855260ff8460002054161561058857506103a4610cec565b6103ac610d0f565b6001600160a01b038581169690959087156105455767ffffffffffffffff906103d9600354861015610beb565b6103e68454861115610c37565b16958689526005865260ff858a205416610502579088929187845260058752858420600160ff198254161790557f00000000000000000000000000000000000000000000000000000000000000001691823b156104fe578551630f22c5f760e11b81526001600160a01b0390921690820190815260208101859052604081018890529091839183919082908490829060600103925af180156104f4576104dc575b50507f72b2d980a2206d8a742c89fa7d132a48ba4823ff781a7f9edd2316806bd548c4926104b782600654610cad565b6006556104c5600854610cd0565b600855825191825260643590820152a36001805580f35b6104e590610c83565b6104f0578538610487565b8580fd5b84513d84823e3d90fd5b8380fd5b845162461bcd60e51b8152808401879052601d60248201527f445553544272696467653a20616c72656164792070726f6365737365640000006044820152606490fd5b845162461bcd60e51b8152808401879052601860248201527f445553544272696467653a207a65726f206164647265737300000000000000006044820152606490fd5b6044925083519163e2517d3f60e01b835233908301526024820152fd5b50503461014757816003193601126101475751908152602090f35b505034610147578160031936011261014757602090517fe2b7fb3b832174769106daebcfd6d1970523240dda11281102db9363b83b0dc48152f35b9050346101f357816003193601126101f35781602093610619610bb9565b92358152808552209060018060a01b0316600052825260ff81600020541690519015158152f35b50503461014757816003193601126101475760207f62e78cea01bee320cd4e420270b5ea74000d11b0c9f74754ebdbfc544b05a2589161067e610d2d565b610686610d0f565b600160ff19600254161760025551338152a180f35b505034610147578160031936011261014757517f00000000000000000000000000000000000000000000000000000000000000006001600160a01b03168152602090f35b9050346101f357826003193601126101f35760209250549051908152f35b50503461014757816003193601126101475760209060ff6002541690519015158152f35b9050346101f357826003193601126101f35761073b610d2d565b6002549060ff82161561077d575060ff1916600255513381527f5db9ee0a495bf2e6ff9c91a7834c1ba4fdd244a5e8aa4e537bd38aeae4b073aa90602090a180f35b8251638dfc202b60e01b8152fd5b8383346101475780600319360112610147576107a5610bb9565b90336001600160a01b038316036107c257506101ef919235610e4b565b5163334bd91960e11b81528390fd5b919050346101f357806003193601126101f3576101ef91356107f660016101d9610bb9565b610dcd565b9050346101f35760203660031901126101f357816020936001923581528085522001549051908152f35b5050346101475781600319360112610147576006546007546080935090918183111561086f576108558284610cdf565b905b60085492815194855260208501528301526060820152f35b6108798383610cdf565b90610857565b83915034610147578260031936011261014757803560249384359467ffffffffffffffff938487116104f057366023880112156104f0578681013594808611610b62573683878a010111610b62576108d5610cec565b6108dd610d0f565b6108eb600354861015610beb565b6108f88254861115610c37565b602091828703610b155784516370a0823160e01b815233828201527f00000000000000000000000000000000000000000000000000000000000000006001600160a01b0316929084818781875afa918215610b0b57908892918b92610ab2575b505010610a7157813b15610a6d57845163158a1cc360e01b8152339181019182526020820187905242604083015291889183919082908490829060600103925af18015610a6357610a25575b509084959660607f92af7fcd9e79ac99abf01ab759273edbb2e75d6d8d84bd13383364405be281a996936109da87600754610cad565b6007556109e8600854610cd0565b6008558551968752860152826060860152016080840137846080858401015242908201526080813394601f80199101168101030190a26001805580f35b9660608697610a577f92af7fcd9e79ac99abf01ab759273edbb2e75d6d8d84bd13383364405be281a99895949a610c83565b975050969091946109a4565b84513d89823e3d90fd5b8780fd5b935162461bcd60e51b815293840182905250908201527f445553544272696467653a20696e73756666696369656e742062616c616e63656044820152606490fd5b9150915084903d8611610b03575b601f8201601f1916830190811183821017610af15785918391895281010312610aed578690518b80610958565b8880fd5b634e487b7160e01b8b5260418452868bfd5b3d9150610ac0565b87513d8c823e3d90fd5b845162461bcd60e51b81529081018390526022818501527f445553544272696467653a20696e76616c69642061646472657373206c656e676044820152610e8d60f31b6064820152608490fd5b8680fd5b8491346101f35760203660031901126101f3573563ffffffff60e01b81168091036101f35760209250637965db0b60e01b8114908115610ba8575b5015158152f35b6301ffc9a760e01b14905083610ba1565b602435906001600160a01b0382168203610bcf57565b600080fd5b6004359067ffffffffffffffff82168203610bcf57565b15610bf257565b60405162461bcd60e51b815260206004820152601a60248201527f445553544272696467653a20616d6f756e7420746f6f206c6f770000000000006044820152606490fd5b15610c3e57565b60405162461bcd60e51b815260206004820152601b60248201527f445553544272696467653a20616d6f756e7420746f6f206869676800000000006044820152606490fd5b67ffffffffffffffff8111610c9757604052565b634e487b7160e01b600052604160045260246000fd5b91908201809211610cba57565b634e487b7160e01b600052601160045260246000fd5b6000198114610cba5760010190565b91908203918211610cba57565b600260015414610cfd576002600155565b604051633ee5aeb560e01b8152600490fd5b60ff60025416610d1b57565b60405163d93c066560e01b8152600490fd5b3360009081527ff7c9542c591017a21c74b6f3fab6263c7952fc0aaf9db4c22a2a04ddc7f8674f60205260409020547f65d7a28e3265b37a6474929f336521b332c1681b933f6cb9f3376673440d862a9060ff1615610d895750565b6044906040519063e2517d3f60e01b82523360048301526024820152fd5b80600052600060205260406000203360005260205260ff6040600020541615610d895750565b9060009180835282602052604083209160018060a01b03169182845260205260ff60408420541615600014610e4657808352826020526040832082845260205260408320600160ff198254161790557f2f8788117e7eff1d82e926ec794901d17c78024a50270940304540a733656f0d339380a4600190565b505090565b9060009180835282602052604083209160018060a01b03169182845260205260ff604084205416600014610e465780835282602052604083208284526020526040832060ff1981541690557ff6391f5c32d9c69d2a47ea670b442974b53935d1edc7fd64eb21e047a839171b339380a460019056fea2646970667358221220bc6c4c08249966e86aec11dd1f8052ebf1ed6eae037d48ea3f1902693c44900664736f6c634300081800332f8788117e7eff1d82e926ec794901d17c78024a50270940304540a733656f0d",
  "linkReferences": {},
  "deployedLinkReferences": {}
}